{
	"practies.sol": {
		"Hospital": {
			"abi": [
				{
					"inputs": [],
					"stateMutability": "nonpayable",
					"type": "constructor"
				},
				{
					"anonymous": false,
					"inputs": [
						{
							"indexed": false,
							"internalType": "string",
							"name": "message",
							"type": "string"
						}
					],
					"name": "Successfull",
					"type": "event"
				},
				{
					"inputs": [
						{
							"internalType": "uint256",
							"name": "newNidNumber",
							"type": "uint256"
						},
						{
							"internalType": "enum Hospital.patientType",
							"name": "_Type",
							"type": "uint8"
						},
						{
							"internalType": "address",
							"name": "_from",
							"type": "address"
						},
						{
							"internalType": "address",
							"name": "_to",
							"type": "address"
						}
					],
					"name": "bloodTransactionAllData",
					"outputs": [],
					"stateMutability": "nonpayable",
					"type": "function"
				},
				{
					"inputs": [],
					"name": "getAllPatientRecord",
					"outputs": [
						{
							"components": [
								{
									"internalType": "string",
									"name": "name",
									"type": "string"
								},
								{
									"internalType": "uint256",
									"name": "age",
									"type": "uint256"
								},
								{
									"internalType": "string",
									"name": "location",
									"type": "string"
								},
								{
									"internalType": "uint256",
									"name": "contractNumber",
									"type": "uint256"
								},
								{
									"internalType": "uint256",
									"name": "nidNumber",
									"type": "uint256"
								},
								{
									"internalType": "string",
									"name": "parmanentAddress",
									"type": "string"
								},
								{
									"components": [
										{
											"internalType": "enum Hospital.patientType",
											"name": "PatientType",
											"type": "uint8"
										},
										{
											"internalType": "uint256",
											"name": "timestamping",
											"type": "uint256"
										},
										{
											"internalType": "address",
											"name": "from",
											"type": "address"
										},
										{
											"internalType": "address",
											"name": "to",
											"type": "address"
										}
									],
									"internalType": "struct Hospital.bloodTransaction[]",
									"name": "bT",
									"type": "tuple[]"
								}
							],
							"internalType": "struct Hospital.patientRegistration[]",
							"name": "",
							"type": "tuple[]"
						}
					],
					"stateMutability": "view",
					"type": "function"
				},
				{
					"inputs": [
						{
							"internalType": "uint256",
							"name": "newNidNumber",
							"type": "uint256"
						}
					],
					"name": "getPatientRecord",
					"outputs": [
						{
							"components": [
								{
									"internalType": "string",
									"name": "name",
									"type": "string"
								},
								{
									"internalType": "uint256",
									"name": "age",
									"type": "uint256"
								},
								{
									"internalType": "string",
									"name": "location",
									"type": "string"
								},
								{
									"internalType": "uint256",
									"name": "contractNumber",
									"type": "uint256"
								},
								{
									"internalType": "uint256",
									"name": "nidNumber",
									"type": "uint256"
								},
								{
									"internalType": "string",
									"name": "parmanentAddress",
									"type": "string"
								},
								{
									"components": [
										{
											"internalType": "enum Hospital.patientType",
											"name": "PatientType",
											"type": "uint8"
										},
										{
											"internalType": "uint256",
											"name": "timestamping",
											"type": "uint256"
										},
										{
											"internalType": "address",
											"name": "from",
											"type": "address"
										},
										{
											"internalType": "address",
											"name": "to",
											"type": "address"
										}
									],
									"internalType": "struct Hospital.bloodTransaction[]",
									"name": "bT",
									"type": "tuple[]"
								}
							],
							"internalType": "struct Hospital.patientRegistration",
							"name": "",
							"type": "tuple"
						}
					],
					"stateMutability": "view",
					"type": "function"
				},
				{
					"inputs": [
						{
							"internalType": "string",
							"name": "newNmae",
							"type": "string"
						},
						{
							"internalType": "uint256",
							"name": "newAge",
							"type": "uint256"
						},
						{
							"internalType": "string",
							"name": "newLoction",
							"type": "string"
						},
						{
							"internalType": "uint256",
							"name": "newContractNumber",
							"type": "uint256"
						},
						{
							"internalType": "uint256",
							"name": "newNidNumber",
							"type": "uint256"
						},
						{
							"internalType": "string",
							"name": "newParmanentAddress",
							"type": "string"
						}
					],
					"name": "newPatientRegistration",
					"outputs": [],
					"stateMutability": "nonpayable",
					"type": "function"
				}
			],
			"devdoc": {
				"kind": "dev",
				"methods": {},
				"version": 1
			},
			"evm": {
				"assembly": "    /* \"practies.sol\":65:3778  contract Hospital{... */\n  mstore(0x40, 0x80)\n    /* \"practies.sol\":160:210  constructor(){... */\n  callvalue\n  dup1\n  iszero\n  tag_1\n  jumpi\n  0x00\n  dup1\n  revert\ntag_1:\n  pop\n    /* \"practies.sol\":192:202  msg.sender */\n  caller\n    /* \"practies.sol\":184:189  owner */\n  0x00\n  dup1\n    /* \"practies.sol\":184:202  owner = msg.sender */\n  0x0100\n  exp\n  dup2\n  sload\n  dup2\n  0xffffffffffffffffffffffffffffffffffffffff\n  mul\n  not\n  and\n  swap1\n  dup4\n  0xffffffffffffffffffffffffffffffffffffffff\n  and\n  mul\n  or\n  swap1\n  sstore\n  pop\n    /* \"practies.sol\":65:3778  contract Hospital{... */\n  dataSize(sub_0)\n  dup1\n  dataOffset(sub_0)\n  0x00\n  codecopy\n  0x00\n  return\nstop\n\nsub_0: assembly {\n        /* \"practies.sol\":65:3778  contract Hospital{... */\n      mstore(0x40, 0x80)\n      callvalue\n      dup1\n      iszero\n      tag_1\n      jumpi\n      0x00\n      dup1\n      revert\n    tag_1:\n      pop\n      jumpi(tag_2, lt(calldatasize, 0x04))\n      shr(0xe0, calldataload(0x00))\n      dup1\n      0x1a290b7a\n      eq\n      tag_3\n      jumpi\n      dup1\n      0x4968cf21\n      eq\n      tag_4\n      jumpi\n      dup1\n      0x7e3237e3\n      eq\n      tag_5\n      jumpi\n      dup1\n      0xb9fff11b\n      eq\n      tag_6\n      jumpi\n    tag_2:\n      0x00\n      dup1\n      revert\n        /* \"practies.sol\":1328:2487  function newPatientRegistration(... */\n    tag_3:\n      tag_7\n      0x04\n      dup1\n      calldatasize\n      sub\n      dup2\n      add\n      swap1\n      tag_8\n      swap2\n      swap1\n      tag_9\n      jump\t// in\n    tag_8:\n      tag_10\n      jump\t// in\n    tag_7:\n      stop\n        /* \"practies.sol\":2802:2923  function getAllPatientRecord() external view returns(patientRegistration[] memory){... */\n    tag_4:\n      tag_11\n      tag_12\n      jump\t// in\n    tag_11:\n      mload(0x40)\n      tag_13\n      swap2\n      swap1\n      tag_14\n      jump\t// in\n    tag_13:\n      mload(0x40)\n      dup1\n      swap2\n      sub\n      swap1\n      return\n        /* \"practies.sol\":2975:3733  function bloodTransactionAllData(... */\n    tag_5:\n      tag_15\n      0x04\n      dup1\n      calldatasize\n      sub\n      dup2\n      add\n      swap1\n      tag_16\n      swap2\n      swap1\n      tag_17\n      jump\t// in\n    tag_16:\n      tag_18\n      jump\t// in\n    tag_15:\n      stop\n        /* \"practies.sol\":2545:2752  function getPatientRecord(uint256 newNidNumber) external view returns(patientRegistration memory){... */\n    tag_6:\n      tag_19\n      0x04\n      dup1\n      calldatasize\n      sub\n      dup2\n      add\n      swap1\n      tag_20\n      swap2\n      swap1\n      tag_21\n      jump\t// in\n    tag_20:\n      tag_22\n      jump\t// in\n    tag_19:\n      mload(0x40)\n      tag_23\n      swap2\n      swap1\n      tag_24\n      jump\t// in\n    tag_23:\n      mload(0x40)\n      dup1\n      swap2\n      sub\n      swap1\n      return\n        /* \"practies.sol\":1328:2487  function newPatientRegistration(... */\n    tag_10:\n        /* \"practies.sol\":1714:1719  owner */\n      0x00\n      dup1\n      sload\n      swap1\n      0x0100\n      exp\n      swap1\n      div\n      0xffffffffffffffffffffffffffffffffffffffff\n      and\n        /* \"practies.sol\":1700:1719  msg.sender == owner */\n      0xffffffffffffffffffffffffffffffffffffffff\n      and\n        /* \"practies.sol\":1700:1710  msg.sender */\n      caller\n        /* \"practies.sol\":1700:1719  msg.sender == owner */\n      0xffffffffffffffffffffffffffffffffffffffff\n      and\n      eq\n        /* \"practies.sol\":1692:1759  require(msg.sender == owner,\"only owneer can register new patient\") */\n      tag_26\n      jumpi\n      mload(0x40)\n      0x08c379a000000000000000000000000000000000000000000000000000000000\n      dup2\n      mstore\n      0x04\n      add\n      tag_27\n      swap1\n      tag_28\n      jump\t// in\n    tag_27:\n      mload(0x40)\n      dup1\n      swap2\n      sub\n      swap1\n      revert\n    tag_26:\n        /* \"practies.sol\":1824:1837  uint256 index */\n      0x00\n        /* \"practies.sol\":1840:1853  patientRecord */\n      0x01\n        /* \"practies.sol\":1840:1860  patientRecord.length */\n      dup1\n      sload\n      swap1\n      pop\n        /* \"practies.sol\":1824:1860  uint256 index = patientRecord.length */\n      swap1\n      pop\n        /* \"practies.sol\":1925:1938  patientRecord */\n      0x01\n        /* \"practies.sol\":1925:1945  patientRecord.push() */\n      dup1\n      dup2\n      0x01\n      dup2\n      sload\n      add\n      dup1\n      dup3\n      sstore\n      dup1\n      swap2\n      pop\n      pop\n      sub\n      swap1\n      0x00\n      mstore\n      keccak256(0x00, 0x20)\n      swap1\n      pop\n      pop\n        /* \"practies.sol\":1984:1991  newNmae */\n      dup7\n        /* \"practies.sol\":1956:1969  patientRecord */\n      0x01\n        /* \"practies.sol\":1970:1975  index */\n      dup3\n        /* \"practies.sol\":1956:1976  patientRecord[index] */\n      dup2\n      sload\n      dup2\n      lt\n      tag_30\n      jumpi\n      tag_31\n      tag_32\n      jump\t// in\n    tag_31:\n    tag_30:\n      swap1\n      0x00\n      mstore\n      keccak256(0x00, 0x20)\n      swap1\n      0x07\n      mul\n      add\n        /* \"practies.sol\":1956:1981  patientRecord[index].name */\n      0x00\n      add\n        /* \"practies.sol\":1956:1991  patientRecord[index].name = newNmae */\n      swap1\n      dup2\n      tag_34\n      swap2\n      swap1\n      tag_35\n      jump\t// in\n    tag_34:\n      pop\n        /* \"practies.sol\":2029:2035  newAge */\n      dup6\n        /* \"practies.sol\":2002:2015  patientRecord */\n      0x01\n        /* \"practies.sol\":2016:2021  index */\n      dup3\n        /* \"practies.sol\":2002:2022  patientRecord[index] */\n      dup2\n      sload\n      dup2\n      lt\n      tag_36\n      jumpi\n      tag_37\n      tag_32\n      jump\t// in\n    tag_37:\n    tag_36:\n      swap1\n      0x00\n      mstore\n      keccak256(0x00, 0x20)\n      swap1\n      0x07\n      mul\n      add\n        /* \"practies.sol\":2002:2026  patientRecord[index].age */\n      0x01\n      add\n        /* \"practies.sol\":2002:2035  patientRecord[index].age = newAge */\n      dup2\n      swap1\n      sstore\n      pop\n        /* \"practies.sol\":2078:2088  newLoction */\n      dup5\n        /* \"practies.sol\":2046:2059  patientRecord */\n      0x01\n        /* \"practies.sol\":2060:2065  index */\n      dup3\n        /* \"practies.sol\":2046:2066  patientRecord[index] */\n      dup2\n      sload\n      dup2\n      lt\n      tag_39\n      jumpi\n      tag_40\n      tag_32\n      jump\t// in\n    tag_40:\n    tag_39:\n      swap1\n      0x00\n      mstore\n      keccak256(0x00, 0x20)\n      swap1\n      0x07\n      mul\n      add\n        /* \"practies.sol\":2046:2075  patientRecord[index].location */\n      0x02\n      add\n        /* \"practies.sol\":2046:2088  patientRecord[index].location = newLoction */\n      swap1\n      dup2\n      tag_42\n      swap2\n      swap1\n      tag_35\n      jump\t// in\n    tag_42:\n      pop\n        /* \"practies.sol\":2137:2154  newContractNumber */\n      dup4\n        /* \"practies.sol\":2099:2112  patientRecord */\n      0x01\n        /* \"practies.sol\":2113:2118  index */\n      dup3\n        /* \"practies.sol\":2099:2119  patientRecord[index] */\n      dup2\n      sload\n      dup2\n      lt\n      tag_43\n      jumpi\n      tag_44\n      tag_32\n      jump\t// in\n    tag_44:\n    tag_43:\n      swap1\n      0x00\n      mstore\n      keccak256(0x00, 0x20)\n      swap1\n      0x07\n      mul\n      add\n        /* \"practies.sol\":2099:2134  patientRecord[index].contractNumber */\n      0x03\n      add\n        /* \"practies.sol\":2099:2154  patientRecord[index].contractNumber = newContractNumber */\n      dup2\n      swap1\n      sstore\n      pop\n        /* \"practies.sol\":2198:2210  newNidNumber */\n      dup3\n        /* \"practies.sol\":2165:2178  patientRecord */\n      0x01\n        /* \"practies.sol\":2179:2184  index */\n      dup3\n        /* \"practies.sol\":2165:2185  patientRecord[index] */\n      dup2\n      sload\n      dup2\n      lt\n      tag_46\n      jumpi\n      tag_47\n      tag_32\n      jump\t// in\n    tag_47:\n    tag_46:\n      swap1\n      0x00\n      mstore\n      keccak256(0x00, 0x20)\n      swap1\n      0x07\n      mul\n      add\n        /* \"practies.sol\":2165:2195  patientRecord[index].nidNumber */\n      0x04\n      add\n        /* \"practies.sol\":2165:2210  patientRecord[index].nidNumber = newNidNumber */\n      dup2\n      swap1\n      sstore\n      pop\n        /* \"practies.sol\":2261:2280  newParmanentAddress */\n      dup2\n        /* \"practies.sol\":2221:2234  patientRecord */\n      0x01\n        /* \"practies.sol\":2235:2240  index */\n      dup3\n        /* \"practies.sol\":2221:2241  patientRecord[index] */\n      dup2\n      sload\n      dup2\n      lt\n      tag_49\n      jumpi\n      tag_50\n      tag_32\n      jump\t// in\n    tag_50:\n    tag_49:\n      swap1\n      0x00\n      mstore\n      keccak256(0x00, 0x20)\n      swap1\n      0x07\n      mul\n      add\n        /* \"practies.sol\":2221:2258  patientRecord[index].parmanentAddress */\n      0x05\n      add\n        /* \"practies.sol\":2221:2280  patientRecord[index].parmanentAddress = newParmanentAddress */\n      swap1\n      dup2\n      tag_52\n      swap2\n      swap1\n      tag_35\n      jump\t// in\n    tag_52:\n      pop\n        /* \"practies.sol\":2414:2419  index */\n      dup1\n        /* \"practies.sol\":2379:2397  PatientRecordIndex */\n      0x02\n        /* \"practies.sol\":2379:2411  PatientRecordIndex[newNidNumber] */\n      0x00\n        /* \"practies.sol\":2398:2410  newNidNumber */\n      dup6\n        /* \"practies.sol\":2379:2411  PatientRecordIndex[newNidNumber] */\n      dup2\n      mstore\n      0x20\n      add\n      swap1\n      dup2\n      mstore\n      0x20\n      add\n      0x00\n      keccak256\n        /* \"practies.sol\":2379:2419  PatientRecordIndex[newNidNumber] = index */\n      dup2\n      swap1\n      sstore\n      pop\n        /* \"practies.sol\":2435:2479  Successfull(\"newPatient added successfully\") */\n      0x3c33ba9853a78dcaeb50be0f15e1be558cc38978243329bbdaee54a8f5ae4fec\n      mload(0x40)\n      tag_53\n      swap1\n      tag_54\n      jump\t// in\n    tag_53:\n      mload(0x40)\n      dup1\n      swap2\n      sub\n      swap1\n      log1\n        /* \"practies.sol\":1579:2487  {... */\n      pop\n        /* \"practies.sol\":1328:2487  function newPatientRegistration(... */\n      pop\n      pop\n      pop\n      pop\n      pop\n      pop\n      jump\t// out\n        /* \"practies.sol\":2802:2923  function getAllPatientRecord() external view returns(patientRegistration[] memory){... */\n    tag_12:\n        /* \"practies.sol\":2855:2883  patientRegistration[] memory */\n      0x60\n        /* \"practies.sol\":2902:2915  patientRecord */\n      0x01\n        /* \"practies.sol\":2895:2915  return patientRecord */\n      dup1\n      sload\n      dup1\n      0x20\n      mul\n      0x20\n      add\n      mload(0x40)\n      swap1\n      dup2\n      add\n      0x40\n      mstore\n      dup1\n      swap3\n      swap2\n      swap1\n      dup2\n      dup2\n      mstore\n      0x20\n      add\n      0x00\n      swap1\n    tag_56:\n      dup3\n      dup3\n      lt\n      iszero\n      tag_57\n      jumpi\n      dup4\n      dup3\n      swap1\n      0x00\n      mstore\n      keccak256(0x00, 0x20)\n      swap1\n      0x07\n      mul\n      add\n      mload(0x40)\n      dup1\n      0xe0\n      add\n      0x40\n      mstore\n      swap1\n      dup2\n      0x00\n      dup3\n      add\n      dup1\n      sload\n      tag_59\n      swap1\n      tag_60\n      jump\t// in\n    tag_59:\n      dup1\n      0x1f\n      add\n      0x20\n      dup1\n      swap2\n      div\n      mul\n      0x20\n      add\n      mload(0x40)\n      swap1\n      dup2\n      add\n      0x40\n      mstore\n      dup1\n      swap3\n      swap2\n      swap1\n      dup2\n      dup2\n      mstore\n      0x20\n      add\n      dup3\n      dup1\n      sload\n      tag_61\n      swap1\n      tag_60\n      jump\t// in\n    tag_61:\n      dup1\n      iszero\n      tag_62\n      jumpi\n      dup1\n      0x1f\n      lt\n      tag_63\n      jumpi\n      0x0100\n      dup1\n      dup4\n      sload\n      div\n      mul\n      dup4\n      mstore\n      swap2\n      0x20\n      add\n      swap2\n      jump(tag_62)\n    tag_63:\n      dup3\n      add\n      swap2\n      swap1\n      0x00\n      mstore\n      keccak256(0x00, 0x20)\n      swap1\n    tag_64:\n      dup2\n      sload\n      dup2\n      mstore\n      swap1\n      0x01\n      add\n      swap1\n      0x20\n      add\n      dup1\n      dup4\n      gt\n      tag_64\n      jumpi\n      dup3\n      swap1\n      sub\n      0x1f\n      and\n      dup3\n      add\n      swap2\n    tag_62:\n      pop\n      pop\n      pop\n      pop\n      pop\n      dup2\n      mstore\n      0x20\n      add\n      0x01\n      dup3\n      add\n      sload\n      dup2\n      mstore\n      0x20\n      add\n      0x02\n      dup3\n      add\n      dup1\n      sload\n      tag_65\n      swap1\n      tag_60\n      jump\t// in\n    tag_65:\n      dup1\n      0x1f\n      add\n      0x20\n      dup1\n      swap2\n      div\n      mul\n      0x20\n      add\n      mload(0x40)\n      swap1\n      dup2\n      add\n      0x40\n      mstore\n      dup1\n      swap3\n      swap2\n      swap1\n      dup2\n      dup2\n      mstore\n      0x20\n      add\n      dup3\n      dup1\n      sload\n      tag_66\n      swap1\n      tag_60\n      jump\t// in\n    tag_66:\n      dup1\n      iszero\n      tag_67\n      jumpi\n      dup1\n      0x1f\n      lt\n      tag_68\n      jumpi\n      0x0100\n      dup1\n      dup4\n      sload\n      div\n      mul\n      dup4\n      mstore\n      swap2\n      0x20\n      add\n      swap2\n      jump(tag_67)\n    tag_68:\n      dup3\n      add\n      swap2\n      swap1\n      0x00\n      mstore\n      keccak256(0x00, 0x20)\n      swap1\n    tag_69:\n      dup2\n      sload\n      dup2\n      mstore\n      swap1\n      0x01\n      add\n      swap1\n      0x20\n      add\n      dup1\n      dup4\n      gt\n      tag_69\n      jumpi\n      dup3\n      swap1\n      sub\n      0x1f\n      and\n      dup3\n      add\n      swap2\n    tag_67:\n      pop\n      pop\n      pop\n      pop\n      pop\n      dup2\n      mstore\n      0x20\n      add\n      0x03\n      dup3\n      add\n      sload\n      dup2\n      mstore\n      0x20\n      add\n      0x04\n      dup3\n      add\n      sload\n      dup2\n      mstore\n      0x20\n      add\n      0x05\n      dup3\n      add\n      dup1\n      sload\n      tag_70\n      swap1\n      tag_60\n      jump\t// in\n    tag_70:\n      dup1\n      0x1f\n      add\n      0x20\n      dup1\n      swap2\n      div\n      mul\n      0x20\n      add\n      mload(0x40)\n      swap1\n      dup2\n      add\n      0x40\n      mstore\n      dup1\n      swap3\n      swap2\n      swap1\n      dup2\n      dup2\n      mstore\n      0x20\n      add\n      dup3\n      dup1\n      sload\n      tag_71\n      swap1\n      tag_60\n      jump\t// in\n    tag_71:\n      dup1\n      iszero\n      tag_72\n      jumpi\n      dup1\n      0x1f\n      lt\n      tag_73\n      jumpi\n      0x0100\n      dup1\n      dup4\n      sload\n      div\n      mul\n      dup4\n      mstore\n      swap2\n      0x20\n      add\n      swap2\n      jump(tag_72)\n    tag_73:\n      dup3\n      add\n      swap2\n      swap1\n      0x00\n      mstore\n      keccak256(0x00, 0x20)\n      swap1\n    tag_74:\n      dup2\n      sload\n      dup2\n      mstore\n      swap1\n      0x01\n      add\n      swap1\n      0x20\n      add\n      dup1\n      dup4\n      gt\n      tag_74\n      jumpi\n      dup3\n      swap1\n      sub\n      0x1f\n      and\n      dup3\n      add\n      swap2\n    tag_72:\n      pop\n      pop\n      pop\n      pop\n      pop\n      dup2\n      mstore\n      0x20\n      add\n      0x06\n      dup3\n      add\n      dup1\n      sload\n      dup1\n      0x20\n      mul\n      0x20\n      add\n      mload(0x40)\n      swap1\n      dup2\n      add\n      0x40\n      mstore\n      dup1\n      swap3\n      swap2\n      swap1\n      dup2\n      dup2\n      mstore\n      0x20\n      add\n      0x00\n      swap1\n    tag_75:\n      dup3\n      dup3\n      lt\n      iszero\n      tag_76\n      jumpi\n      dup4\n      dup3\n      swap1\n      0x00\n      mstore\n      keccak256(0x00, 0x20)\n      swap1\n      0x04\n      mul\n      add\n      mload(0x40)\n      dup1\n      0x80\n      add\n      0x40\n      mstore\n      swap1\n      dup2\n      0x00\n      dup3\n      add\n      0x00\n      swap1\n      sload\n      swap1\n      0x0100\n      exp\n      swap1\n      div\n      0xff\n      and\n      0x01\n      dup2\n      gt\n      iszero\n      tag_78\n      jumpi\n      tag_79\n      tag_80\n      jump\t// in\n    tag_79:\n    tag_78:\n      0x01\n      dup2\n      gt\n      iszero\n      tag_81\n      jumpi\n      tag_82\n      tag_80\n      jump\t// in\n    tag_82:\n    tag_81:\n      dup2\n      mstore\n      0x20\n      add\n      0x01\n      dup3\n      add\n      sload\n      dup2\n      mstore\n      0x20\n      add\n      0x02\n      dup3\n      add\n      0x00\n      swap1\n      sload\n      swap1\n      0x0100\n      exp\n      swap1\n      div\n      0xffffffffffffffffffffffffffffffffffffffff\n      and\n      0xffffffffffffffffffffffffffffffffffffffff\n      and\n      0xffffffffffffffffffffffffffffffffffffffff\n      and\n      dup2\n      mstore\n      0x20\n      add\n      0x03\n      dup3\n      add\n      0x00\n      swap1\n      sload\n      swap1\n      0x0100\n      exp\n      swap1\n      div\n      0xffffffffffffffffffffffffffffffffffffffff\n      and\n      0xffffffffffffffffffffffffffffffffffffffff\n      and\n      0xffffffffffffffffffffffffffffffffffffffff\n      and\n      dup2\n      mstore\n      pop\n      pop\n      dup2\n      mstore\n      0x20\n      add\n      swap1\n      0x01\n      add\n      swap1\n      jump(tag_75)\n    tag_76:\n      pop\n      pop\n      pop\n      pop\n      dup2\n      mstore\n      pop\n      pop\n      dup2\n      mstore\n      0x20\n      add\n      swap1\n      0x01\n      add\n      swap1\n      jump(tag_56)\n    tag_57:\n      pop\n      pop\n      pop\n      pop\n      swap1\n      pop\n        /* \"practies.sol\":2802:2923  function getAllPatientRecord() external view returns(patientRegistration[] memory){... */\n      swap1\n      jump\t// out\n        /* \"practies.sol\":2975:3733  function bloodTransactionAllData(... */\n    tag_18:\n        /* \"practies.sol\":3147:3152  owner */\n      0x00\n      dup1\n      sload\n      swap1\n      0x0100\n      exp\n      swap1\n      div\n      0xffffffffffffffffffffffffffffffffffffffff\n      and\n        /* \"practies.sol\":3133:3152  msg.sender == owner */\n      0xffffffffffffffffffffffffffffffffffffffff\n      and\n        /* \"practies.sol\":3133:3143  msg.sender */\n      caller\n        /* \"practies.sol\":3133:3152  msg.sender == owner */\n      0xffffffffffffffffffffffffffffffffffffffff\n      and\n      eq\n        /* \"practies.sol\":3125:3186  require(msg.sender == owner,\"only oner can update this data\") */\n      tag_84\n      jumpi\n      mload(0x40)\n      0x08c379a000000000000000000000000000000000000000000000000000000000\n      dup2\n      mstore\n      0x04\n      add\n      tag_85\n      swap1\n      tag_86\n      jump\t// in\n    tag_85:\n      mload(0x40)\n      dup1\n      swap2\n      sub\n      swap1\n      revert\n    tag_84:\n        /* \"practies.sol\":3198:3211  uint256 index */\n      0x00\n        /* \"practies.sol\":3214:3232  PatientRecordIndex */\n      0x02\n        /* \"practies.sol\":3214:3246  PatientRecordIndex[newNidNumber] */\n      0x00\n        /* \"practies.sol\":3233:3245  newNidNumber */\n      dup7\n        /* \"practies.sol\":3214:3246  PatientRecordIndex[newNidNumber] */\n      dup2\n      mstore\n      0x20\n      add\n      swap1\n      dup2\n      mstore\n      0x20\n      add\n      0x00\n      keccak256\n      sload\n        /* \"practies.sol\":3198:3246  uint256 index = PatientRecordIndex[newNidNumber] */\n      swap1\n      pop\n        /* \"practies.sol\":3312:3339  bloodTransaction memory tnx */\n      0x00\n        /* \"practies.sol\":3342:3501  bloodTransaction({... */\n      mload(0x40)\n      dup1\n      0x80\n      add\n      0x40\n      mstore\n      dup1\n        /* \"practies.sol\":3388:3393  _Type */\n      dup7\n        /* \"practies.sol\":3342:3501  bloodTransaction({... */\n      0x01\n      dup2\n      gt\n      iszero\n      tag_87\n      jumpi\n      tag_88\n      tag_80\n      jump\t// in\n    tag_88:\n    tag_87:\n      dup2\n      mstore\n      0x20\n      add\n        /* \"practies.sol\":3423:3438  block.timestamp */\n      timestamp\n        /* \"practies.sol\":3342:3501  bloodTransaction({... */\n      dup2\n      mstore\n      0x20\n      add\n        /* \"practies.sol\":3460:3465  _from */\n      dup6\n        /* \"practies.sol\":3342:3501  bloodTransaction({... */\n      0xffffffffffffffffffffffffffffffffffffffff\n      and\n      dup2\n      mstore\n      0x20\n      add\n        /* \"practies.sol\":3485:3488  _to */\n      dup5\n        /* \"practies.sol\":3342:3501  bloodTransaction({... */\n      0xffffffffffffffffffffffffffffffffffffffff\n      and\n      dup2\n      mstore\n      pop\n        /* \"practies.sol\":3312:3501  bloodTransaction memory tnx = bloodTransaction({... */\n      swap1\n      pop\n        /* \"practies.sol\":3514:3527  patientRecord */\n      0x01\n        /* \"practies.sol\":3528:3533  index */\n      dup3\n        /* \"practies.sol\":3514:3534  patientRecord[index] */\n      dup2\n      sload\n      dup2\n      lt\n      tag_89\n      jumpi\n      tag_90\n      tag_32\n      jump\t// in\n    tag_90:\n    tag_89:\n      swap1\n      0x00\n      mstore\n      keccak256(0x00, 0x20)\n      swap1\n      0x07\n      mul\n      add\n        /* \"practies.sol\":3514:3537  patientRecord[index].bT */\n      0x06\n      add\n        /* \"practies.sol\":3543:3546  tnx */\n      dup2\n        /* \"practies.sol\":3514:3547  patientRecord[index].bT.push(tnx) */\n      swap1\n      dup1\n      0x01\n      dup2\n      sload\n      add\n      dup1\n      dup3\n      sstore\n      dup1\n      swap2\n      pop\n      pop\n      0x01\n      swap1\n      sub\n      swap1\n      0x00\n      mstore\n      keccak256(0x00, 0x20)\n      swap1\n      0x04\n      mul\n      add\n      0x00\n      swap1\n      swap2\n      swap1\n      swap2\n      swap1\n      swap2\n      pop\n      0x00\n      dup3\n      add\n      mload\n      dup2\n      0x00\n      add\n      exp(0x0100, 0x00)\n      dup2\n      sload\n      dup2\n      0xff\n      mul\n      not\n      and\n      swap1\n      dup4\n      0x01\n      dup2\n      gt\n      iszero\n      tag_93\n      jumpi\n      tag_94\n      tag_80\n      jump\t// in\n    tag_94:\n    tag_93:\n      mul\n      or\n      swap1\n      sstore\n      pop\n      0x20\n      dup3\n      add\n      mload\n      dup2\n      0x01\n      add\n      sstore\n      0x40\n      dup3\n      add\n      mload\n      dup2\n      0x02\n      add\n      exp(0x0100, 0x00)\n      dup2\n      sload\n      dup2\n      0xffffffffffffffffffffffffffffffffffffffff\n      mul\n      not\n      and\n      swap1\n      dup4\n      0xffffffffffffffffffffffffffffffffffffffff\n      and\n      mul\n      or\n      swap1\n      sstore\n      pop\n      0x60\n      dup3\n      add\n      mload\n      dup2\n      0x03\n      add\n      exp(0x0100, 0x00)\n      dup2\n      sload\n      dup2\n      0xffffffffffffffffffffffffffffffffffffffff\n      mul\n      not\n      and\n      swap1\n      dup4\n      0xffffffffffffffffffffffffffffffffffffffff\n      and\n      mul\n      or\n      swap1\n      sstore\n      pop\n      pop\n      pop\n        /* \"practies.sol\":3669:3719  Successfull(\"new patient update data succesfully\") */\n      0x3c33ba9853a78dcaeb50be0f15e1be558cc38978243329bbdaee54a8f5ae4fec\n      mload(0x40)\n      tag_95\n      swap1\n      tag_96\n      jump\t// in\n    tag_95:\n      mload(0x40)\n      dup1\n      swap2\n      sub\n      swap1\n      log1\n        /* \"practies.sol\":3113:3733  {... */\n      pop\n      pop\n        /* \"practies.sol\":2975:3733  function bloodTransactionAllData(... */\n      pop\n      pop\n      pop\n      pop\n      jump\t// out\n        /* \"practies.sol\":2545:2752  function getPatientRecord(uint256 newNidNumber) external view returns(patientRegistration memory){... */\n    tag_22:\n        /* \"practies.sol\":2615:2641  patientRegistration memory */\n      tag_97\n      tag_98\n      jump\t// in\n    tag_97:\n        /* \"practies.sol\":2657:2667  uint index */\n      0x00\n        /* \"practies.sol\":2670:2688  PatientRecordIndex */\n      0x02\n        /* \"practies.sol\":2670:2702  PatientRecordIndex[newNidNumber] */\n      0x00\n        /* \"practies.sol\":2689:2701  newNidNumber */\n      dup5\n        /* \"practies.sol\":2670:2702  PatientRecordIndex[newNidNumber] */\n      dup2\n      mstore\n      0x20\n      add\n      swap1\n      dup2\n      mstore\n      0x20\n      add\n      0x00\n      keccak256\n      sload\n        /* \"practies.sol\":2657:2702  uint index = PatientRecordIndex[newNidNumber] */\n      swap1\n      pop\n        /* \"practies.sol\":2724:2737  patientRecord */\n      0x01\n        /* \"practies.sol\":2738:2743  index */\n      dup2\n        /* \"practies.sol\":2724:2744  patientRecord[index] */\n      dup2\n      sload\n      dup2\n      lt\n      tag_100\n      jumpi\n      tag_101\n      tag_32\n      jump\t// in\n    tag_101:\n    tag_100:\n      swap1\n      0x00\n      mstore\n      keccak256(0x00, 0x20)\n      swap1\n      0x07\n      mul\n      add\n        /* \"practies.sol\":2717:2744  return patientRecord[index] */\n      mload(0x40)\n      dup1\n      0xe0\n      add\n      0x40\n      mstore\n      swap1\n      dup2\n      0x00\n      dup3\n      add\n      dup1\n      sload\n      tag_103\n      swap1\n      tag_60\n      jump\t// in\n    tag_103:\n      dup1\n      0x1f\n      add\n      0x20\n      dup1\n      swap2\n      div\n      mul\n      0x20\n      add\n      mload(0x40)\n      swap1\n      dup2\n      add\n      0x40\n      mstore\n      dup1\n      swap3\n      swap2\n      swap1\n      dup2\n      dup2\n      mstore\n      0x20\n      add\n      dup3\n      dup1\n      sload\n      tag_104\n      swap1\n      tag_60\n      jump\t// in\n    tag_104:\n      dup1\n      iszero\n      tag_105\n      jumpi\n      dup1\n      0x1f\n      lt\n      tag_106\n      jumpi\n      0x0100\n      dup1\n      dup4\n      sload\n      div\n      mul\n      dup4\n      mstore\n      swap2\n      0x20\n      add\n      swap2\n      jump(tag_105)\n    tag_106:\n      dup3\n      add\n      swap2\n      swap1\n      0x00\n      mstore\n      keccak256(0x00, 0x20)\n      swap1\n    tag_107:\n      dup2\n      sload\n      dup2\n      mstore\n      swap1\n      0x01\n      add\n      swap1\n      0x20\n      add\n      dup1\n      dup4\n      gt\n      tag_107\n      jumpi\n      dup3\n      swap1\n      sub\n      0x1f\n      and\n      dup3\n      add\n      swap2\n    tag_105:\n      pop\n      pop\n      pop\n      pop\n      pop\n      dup2\n      mstore\n      0x20\n      add\n      0x01\n      dup3\n      add\n      sload\n      dup2\n      mstore\n      0x20\n      add\n      0x02\n      dup3\n      add\n      dup1\n      sload\n      tag_108\n      swap1\n      tag_60\n      jump\t// in\n    tag_108:\n      dup1\n      0x1f\n      add\n      0x20\n      dup1\n      swap2\n      div\n      mul\n      0x20\n      add\n      mload(0x40)\n      swap1\n      dup2\n      add\n      0x40\n      mstore\n      dup1\n      swap3\n      swap2\n      swap1\n      dup2\n      dup2\n      mstore\n      0x20\n      add\n      dup3\n      dup1\n      sload\n      tag_109\n      swap1\n      tag_60\n      jump\t// in\n    tag_109:\n      dup1\n      iszero\n      tag_110\n      jumpi\n      dup1\n      0x1f\n      lt\n      tag_111\n      jumpi\n      0x0100\n      dup1\n      dup4\n      sload\n      div\n      mul\n      dup4\n      mstore\n      swap2\n      0x20\n      add\n      swap2\n      jump(tag_110)\n    tag_111:\n      dup3\n      add\n      swap2\n      swap1\n      0x00\n      mstore\n      keccak256(0x00, 0x20)\n      swap1\n    tag_112:\n      dup2\n      sload\n      dup2\n      mstore\n      swap1\n      0x01\n      add\n      swap1\n      0x20\n      add\n      dup1\n      dup4\n      gt\n      tag_112\n      jumpi\n      dup3\n      swap1\n      sub\n      0x1f\n      and\n      dup3\n      add\n      swap2\n    tag_110:\n      pop\n      pop\n      pop\n      pop\n      pop\n      dup2\n      mstore\n      0x20\n      add\n      0x03\n      dup3\n      add\n      sload\n      dup2\n      mstore\n      0x20\n      add\n      0x04\n      dup3\n      add\n      sload\n      dup2\n      mstore\n      0x20\n      add\n      0x05\n      dup3\n      add\n      dup1\n      sload\n      tag_113\n      swap1\n      tag_60\n      jump\t// in\n    tag_113:\n      dup1\n      0x1f\n      add\n      0x20\n      dup1\n      swap2\n      div\n      mul\n      0x20\n      add\n      mload(0x40)\n      swap1\n      dup2\n      add\n      0x40\n      mstore\n      dup1\n      swap3\n      swap2\n      swap1\n      dup2\n      dup2\n      mstore\n      0x20\n      add\n      dup3\n      dup1\n      sload\n      tag_114\n      swap1\n      tag_60\n      jump\t// in\n    tag_114:\n      dup1\n      iszero\n      tag_115\n      jumpi\n      dup1\n      0x1f\n      lt\n      tag_116\n      jumpi\n      0x0100\n      dup1\n      dup4\n      sload\n      div\n      mul\n      dup4\n      mstore\n      swap2\n      0x20\n      add\n      swap2\n      jump(tag_115)\n    tag_116:\n      dup3\n      add\n      swap2\n      swap1\n      0x00\n      mstore\n      keccak256(0x00, 0x20)\n      swap1\n    tag_117:\n      dup2\n      sload\n      dup2\n      mstore\n      swap1\n      0x01\n      add\n      swap1\n      0x20\n      add\n      dup1\n      dup4\n      gt\n      tag_117\n      jumpi\n      dup3\n      swap1\n      sub\n      0x1f\n      and\n      dup3\n      add\n      swap2\n    tag_115:\n      pop\n      pop\n      pop\n      pop\n      pop\n      dup2\n      mstore\n      0x20\n      add\n      0x06\n      dup3\n      add\n      dup1\n      sload\n      dup1\n      0x20\n      mul\n      0x20\n      add\n      mload(0x40)\n      swap1\n      dup2\n      add\n      0x40\n      mstore\n      dup1\n      swap3\n      swap2\n      swap1\n      dup2\n      dup2\n      mstore\n      0x20\n      add\n      0x00\n      swap1\n    tag_118:\n      dup3\n      dup3\n      lt\n      iszero\n      tag_119\n      jumpi\n      dup4\n      dup3\n      swap1\n      0x00\n      mstore\n      keccak256(0x00, 0x20)\n      swap1\n      0x04\n      mul\n      add\n      mload(0x40)\n      dup1\n      0x80\n      add\n      0x40\n      mstore\n      swap1\n      dup2\n      0x00\n      dup3\n      add\n      0x00\n      swap1\n      sload\n      swap1\n      0x0100\n      exp\n      swap1\n      div\n      0xff\n      and\n      0x01\n      dup2\n      gt\n      iszero\n      tag_121\n      jumpi\n      tag_122\n      tag_80\n      jump\t// in\n    tag_122:\n    tag_121:\n      0x01\n      dup2\n      gt\n      iszero\n      tag_123\n      jumpi\n      tag_124\n      tag_80\n      jump\t// in\n    tag_124:\n    tag_123:\n      dup2\n      mstore\n      0x20\n      add\n      0x01\n      dup3\n      add\n      sload\n      dup2\n      mstore\n      0x20\n      add\n      0x02\n      dup3\n      add\n      0x00\n      swap1\n      sload\n      swap1\n      0x0100\n      exp\n      swap1\n      div\n      0xffffffffffffffffffffffffffffffffffffffff\n      and\n      0xffffffffffffffffffffffffffffffffffffffff\n      and\n      0xffffffffffffffffffffffffffffffffffffffff\n      and\n      dup2\n      mstore\n      0x20\n      add\n      0x03\n      dup3\n      add\n      0x00\n      swap1\n      sload\n      swap1\n      0x0100\n      exp\n      swap1\n      div\n      0xffffffffffffffffffffffffffffffffffffffff\n      and\n      0xffffffffffffffffffffffffffffffffffffffff\n      and\n      0xffffffffffffffffffffffffffffffffffffffff\n      and\n      dup2\n      mstore\n      pop\n      pop\n      dup2\n      mstore\n      0x20\n      add\n      swap1\n      0x01\n      add\n      swap1\n      jump(tag_118)\n    tag_119:\n      pop\n      pop\n      pop\n      pop\n      dup2\n      mstore\n      pop\n      pop\n      swap2\n      pop\n      pop\n        /* \"practies.sol\":2545:2752  function getPatientRecord(uint256 newNidNumber) external view returns(patientRegistration memory){... */\n      swap2\n      swap1\n      pop\n      jump\t// out\n    tag_98:\n      mload(0x40)\n      dup1\n      0xe0\n      add\n      0x40\n      mstore\n      dup1\n      0x60\n      dup2\n      mstore\n      0x20\n      add\n      0x00\n      dup2\n      mstore\n      0x20\n      add\n      0x60\n      dup2\n      mstore\n      0x20\n      add\n      0x00\n      dup2\n      mstore\n      0x20\n      add\n      0x00\n      dup2\n      mstore\n      0x20\n      add\n      0x60\n      dup2\n      mstore\n      0x20\n      add\n      0x60\n      dup2\n      mstore\n      pop\n      swap1\n      jump\t// out\n        /* \"#utility.yul\":7:82   */\n    tag_125:\n        /* \"#utility.yul\":40:46   */\n      0x00\n        /* \"#utility.yul\":73:75   */\n      0x40\n        /* \"#utility.yul\":67:76   */\n      mload\n        /* \"#utility.yul\":57:76   */\n      swap1\n      pop\n        /* \"#utility.yul\":7:82   */\n      swap1\n      jump\t// out\n        /* \"#utility.yul\":88:205   */\n    tag_126:\n        /* \"#utility.yul\":197:198   */\n      0x00\n        /* \"#utility.yul\":194:195   */\n      dup1\n        /* \"#utility.yul\":187:199   */\n      revert\n        /* \"#utility.yul\":211:328   */\n    tag_127:\n        /* \"#utility.yul\":320:321   */\n      0x00\n        /* \"#utility.yul\":317:318   */\n      dup1\n        /* \"#utility.yul\":310:322   */\n      revert\n        /* \"#utility.yul\":334:451   */\n    tag_128:\n        /* \"#utility.yul\":443:444   */\n      0x00\n        /* \"#utility.yul\":440:441   */\n      dup1\n        /* \"#utility.yul\":433:445   */\n      revert\n        /* \"#utility.yul\":457:574   */\n    tag_129:\n        /* \"#utility.yul\":566:567   */\n      0x00\n        /* \"#utility.yul\":563:564   */\n      dup1\n        /* \"#utility.yul\":556:568   */\n      revert\n        /* \"#utility.yul\":580:682   */\n    tag_130:\n        /* \"#utility.yul\":621:627   */\n      0x00\n        /* \"#utility.yul\":672:674   */\n      0x1f\n        /* \"#utility.yul\":668:675   */\n      not\n        /* \"#utility.yul\":663:665   */\n      0x1f\n        /* \"#utility.yul\":656:661   */\n      dup4\n        /* \"#utility.yul\":652:666   */\n      add\n        /* \"#utility.yul\":648:676   */\n      and\n        /* \"#utility.yul\":638:676   */\n      swap1\n      pop\n        /* \"#utility.yul\":580:682   */\n      swap2\n      swap1\n      pop\n      jump\t// out\n        /* \"#utility.yul\":688:868   */\n    tag_131:\n        /* \"#utility.yul\":736:813   */\n      0x4e487b7100000000000000000000000000000000000000000000000000000000\n        /* \"#utility.yul\":733:734   */\n      0x00\n        /* \"#utility.yul\":726:814   */\n      mstore\n        /* \"#utility.yul\":833:837   */\n      0x41\n        /* \"#utility.yul\":830:831   */\n      0x04\n        /* \"#utility.yul\":823:838   */\n      mstore\n        /* \"#utility.yul\":857:861   */\n      0x24\n        /* \"#utility.yul\":854:855   */\n      0x00\n        /* \"#utility.yul\":847:862   */\n      revert\n        /* \"#utility.yul\":874:1155   */\n    tag_132:\n        /* \"#utility.yul\":957:984   */\n      tag_206\n        /* \"#utility.yul\":979:983   */\n      dup3\n        /* \"#utility.yul\":957:984   */\n      tag_130\n      jump\t// in\n    tag_206:\n        /* \"#utility.yul\":949:955   */\n      dup2\n        /* \"#utility.yul\":945:985   */\n      add\n        /* \"#utility.yul\":1087:1093   */\n      dup2\n        /* \"#utility.yul\":1075:1085   */\n      dup2\n        /* \"#utility.yul\":1072:1094   */\n      lt\n        /* \"#utility.yul\":1051:1069   */\n      0xffffffffffffffff\n        /* \"#utility.yul\":1039:1049   */\n      dup3\n        /* \"#utility.yul\":1036:1070   */\n      gt\n        /* \"#utility.yul\":1033:1095   */\n      or\n        /* \"#utility.yul\":1030:1118   */\n      iszero\n      tag_207\n      jumpi\n        /* \"#utility.yul\":1098:1116   */\n      tag_208\n      tag_131\n      jump\t// in\n    tag_208:\n        /* \"#utility.yul\":1030:1118   */\n    tag_207:\n        /* \"#utility.yul\":1138:1148   */\n      dup1\n        /* \"#utility.yul\":1134:1136   */\n      0x40\n        /* \"#utility.yul\":1127:1149   */\n      mstore\n        /* \"#utility.yul\":917:1155   */\n      pop\n        /* \"#utility.yul\":874:1155   */\n      pop\n      pop\n      jump\t// out\n        /* \"#utility.yul\":1161:1290   */\n    tag_133:\n        /* \"#utility.yul\":1195:1201   */\n      0x00\n        /* \"#utility.yul\":1222:1242   */\n      tag_210\n      tag_125\n      jump\t// in\n    tag_210:\n        /* \"#utility.yul\":1212:1242   */\n      swap1\n      pop\n        /* \"#utility.yul\":1251:1284   */\n      tag_211\n        /* \"#utility.yul\":1279:1283   */\n      dup3\n        /* \"#utility.yul\":1271:1277   */\n      dup3\n        /* \"#utility.yul\":1251:1284   */\n      tag_132\n      jump\t// in\n    tag_211:\n        /* \"#utility.yul\":1161:1290   */\n      swap2\n      swap1\n      pop\n      jump\t// out\n        /* \"#utility.yul\":1296:1604   */\n    tag_134:\n        /* \"#utility.yul\":1358:1362   */\n      0x00\n        /* \"#utility.yul\":1448:1466   */\n      0xffffffffffffffff\n        /* \"#utility.yul\":1440:1446   */\n      dup3\n        /* \"#utility.yul\":1437:1467   */\n      gt\n        /* \"#utility.yul\":1434:1490   */\n      iszero\n      tag_213\n      jumpi\n        /* \"#utility.yul\":1470:1488   */\n      tag_214\n      tag_131\n      jump\t// in\n    tag_214:\n        /* \"#utility.yul\":1434:1490   */\n    tag_213:\n        /* \"#utility.yul\":1508:1537   */\n      tag_215\n        /* \"#utility.yul\":1530:1536   */\n      dup3\n        /* \"#utility.yul\":1508:1537   */\n      tag_130\n      jump\t// in\n    tag_215:\n        /* \"#utility.yul\":1500:1537   */\n      swap1\n      pop\n        /* \"#utility.yul\":1592:1596   */\n      0x20\n        /* \"#utility.yul\":1586:1590   */\n      dup2\n        /* \"#utility.yul\":1582:1597   */\n      add\n        /* \"#utility.yul\":1574:1597   */\n      swap1\n      pop\n        /* \"#utility.yul\":1296:1604   */\n      swap2\n      swap1\n      pop\n      jump\t// out\n        /* \"#utility.yul\":1610:1756   */\n    tag_135:\n        /* \"#utility.yul\":1707:1713   */\n      dup3\n        /* \"#utility.yul\":1702:1705   */\n      dup2\n        /* \"#utility.yul\":1697:1700   */\n      dup4\n        /* \"#utility.yul\":1684:1714   */\n      calldatacopy\n        /* \"#utility.yul\":1748:1749   */\n      0x00\n        /* \"#utility.yul\":1739:1745   */\n      dup4\n        /* \"#utility.yul\":1734:1737   */\n      dup4\n        /* \"#utility.yul\":1730:1746   */\n      add\n        /* \"#utility.yul\":1723:1750   */\n      mstore\n        /* \"#utility.yul\":1610:1756   */\n      pop\n      pop\n      pop\n      jump\t// out\n        /* \"#utility.yul\":1762:2187   */\n    tag_136:\n        /* \"#utility.yul\":1840:1845   */\n      0x00\n        /* \"#utility.yul\":1865:1931   */\n      tag_218\n        /* \"#utility.yul\":1881:1930   */\n      tag_219\n        /* \"#utility.yul\":1923:1929   */\n      dup5\n        /* \"#utility.yul\":1881:1930   */\n      tag_134\n      jump\t// in\n    tag_219:\n        /* \"#utility.yul\":1865:1931   */\n      tag_133\n      jump\t// in\n    tag_218:\n        /* \"#utility.yul\":1856:1931   */\n      swap1\n      pop\n        /* \"#utility.yul\":1954:1960   */\n      dup3\n        /* \"#utility.yul\":1947:1952   */\n      dup2\n        /* \"#utility.yul\":1940:1961   */\n      mstore\n        /* \"#utility.yul\":1992:1996   */\n      0x20\n        /* \"#utility.yul\":1985:1990   */\n      dup2\n        /* \"#utility.yul\":1981:1997   */\n      add\n        /* \"#utility.yul\":2030:2033   */\n      dup5\n        /* \"#utility.yul\":2021:2027   */\n      dup5\n        /* \"#utility.yul\":2016:2019   */\n      dup5\n        /* \"#utility.yul\":2012:2028   */\n      add\n        /* \"#utility.yul\":2009:2034   */\n      gt\n        /* \"#utility.yul\":2006:2118   */\n      iszero\n      tag_220\n      jumpi\n        /* \"#utility.yul\":2037:2116   */\n      tag_221\n      tag_129\n      jump\t// in\n    tag_221:\n        /* \"#utility.yul\":2006:2118   */\n    tag_220:\n        /* \"#utility.yul\":2127:2181   */\n      tag_222\n        /* \"#utility.yul\":2174:2180   */\n      dup5\n        /* \"#utility.yul\":2169:2172   */\n      dup3\n        /* \"#utility.yul\":2164:2167   */\n      dup6\n        /* \"#utility.yul\":2127:2181   */\n      tag_135\n      jump\t// in\n    tag_222:\n        /* \"#utility.yul\":1846:2187   */\n      pop\n        /* \"#utility.yul\":1762:2187   */\n      swap4\n      swap3\n      pop\n      pop\n      pop\n      jump\t// out\n        /* \"#utility.yul\":2207:2547   */\n    tag_137:\n        /* \"#utility.yul\":2263:2268   */\n      0x00\n        /* \"#utility.yul\":2312:2315   */\n      dup3\n        /* \"#utility.yul\":2305:2309   */\n      0x1f\n        /* \"#utility.yul\":2297:2303   */\n      dup4\n        /* \"#utility.yul\":2293:2310   */\n      add\n        /* \"#utility.yul\":2289:2316   */\n      slt\n        /* \"#utility.yul\":2279:2401   */\n      tag_224\n      jumpi\n        /* \"#utility.yul\":2320:2399   */\n      tag_225\n      tag_128\n      jump\t// in\n    tag_225:\n        /* \"#utility.yul\":2279:2401   */\n    tag_224:\n        /* \"#utility.yul\":2437:2443   */\n      dup2\n        /* \"#utility.yul\":2424:2444   */\n      calldataload\n        /* \"#utility.yul\":2462:2541   */\n      tag_226\n        /* \"#utility.yul\":2537:2540   */\n      dup5\n        /* \"#utility.yul\":2529:2535   */\n      dup3\n        /* \"#utility.yul\":2522:2526   */\n      0x20\n        /* \"#utility.yul\":2514:2520   */\n      dup7\n        /* \"#utility.yul\":2510:2527   */\n      add\n        /* \"#utility.yul\":2462:2541   */\n      tag_136\n      jump\t// in\n    tag_226:\n        /* \"#utility.yul\":2453:2541   */\n      swap2\n      pop\n        /* \"#utility.yul\":2269:2547   */\n      pop\n        /* \"#utility.yul\":2207:2547   */\n      swap3\n      swap2\n      pop\n      pop\n      jump\t// out\n        /* \"#utility.yul\":2553:2630   */\n    tag_138:\n        /* \"#utility.yul\":2590:2597   */\n      0x00\n        /* \"#utility.yul\":2619:2624   */\n      dup2\n        /* \"#utility.yul\":2608:2624   */\n      swap1\n      pop\n        /* \"#utility.yul\":2553:2630   */\n      swap2\n      swap1\n      pop\n      jump\t// out\n        /* \"#utility.yul\":2636:2758   */\n    tag_139:\n        /* \"#utility.yul\":2709:2733   */\n      tag_229\n        /* \"#utility.yul\":2727:2732   */\n      dup2\n        /* \"#utility.yul\":2709:2733   */\n      tag_138\n      jump\t// in\n    tag_229:\n        /* \"#utility.yul\":2702:2707   */\n      dup2\n        /* \"#utility.yul\":2699:2734   */\n      eq\n        /* \"#utility.yul\":2689:2752   */\n      tag_230\n      jumpi\n        /* \"#utility.yul\":2748:2749   */\n      0x00\n        /* \"#utility.yul\":2745:2746   */\n      dup1\n        /* \"#utility.yul\":2738:2750   */\n      revert\n        /* \"#utility.yul\":2689:2752   */\n    tag_230:\n        /* \"#utility.yul\":2636:2758   */\n      pop\n      jump\t// out\n        /* \"#utility.yul\":2764:2903   */\n    tag_140:\n        /* \"#utility.yul\":2810:2815   */\n      0x00\n        /* \"#utility.yul\":2848:2854   */\n      dup2\n        /* \"#utility.yul\":2835:2855   */\n      calldataload\n        /* \"#utility.yul\":2826:2855   */\n      swap1\n      pop\n        /* \"#utility.yul\":2864:2897   */\n      tag_232\n        /* \"#utility.yul\":2891:2896   */\n      dup2\n        /* \"#utility.yul\":2864:2897   */\n      tag_139\n      jump\t// in\n    tag_232:\n        /* \"#utility.yul\":2764:2903   */\n      swap3\n      swap2\n      pop\n      pop\n      jump\t// out\n        /* \"#utility.yul\":2909:4506   */\n    tag_9:\n        /* \"#utility.yul\":3043:3049   */\n      0x00\n        /* \"#utility.yul\":3051:3057   */\n      dup1\n        /* \"#utility.yul\":3059:3065   */\n      0x00\n        /* \"#utility.yul\":3067:3073   */\n      dup1\n        /* \"#utility.yul\":3075:3081   */\n      0x00\n        /* \"#utility.yul\":3083:3089   */\n      dup1\n        /* \"#utility.yul\":3132:3135   */\n      0xc0\n        /* \"#utility.yul\":3120:3129   */\n      dup8\n        /* \"#utility.yul\":3111:3118   */\n      dup10\n        /* \"#utility.yul\":3107:3130   */\n      sub\n        /* \"#utility.yul\":3103:3136   */\n      slt\n        /* \"#utility.yul\":3100:3220   */\n      iszero\n      tag_234\n      jumpi\n        /* \"#utility.yul\":3139:3218   */\n      tag_235\n      tag_126\n      jump\t// in\n    tag_235:\n        /* \"#utility.yul\":3100:3220   */\n    tag_234:\n        /* \"#utility.yul\":3287:3288   */\n      0x00\n        /* \"#utility.yul\":3276:3285   */\n      dup8\n        /* \"#utility.yul\":3272:3289   */\n      add\n        /* \"#utility.yul\":3259:3290   */\n      calldataload\n        /* \"#utility.yul\":3317:3335   */\n      0xffffffffffffffff\n        /* \"#utility.yul\":3309:3315   */\n      dup2\n        /* \"#utility.yul\":3306:3336   */\n      gt\n        /* \"#utility.yul\":3303:3420   */\n      iszero\n      tag_236\n      jumpi\n        /* \"#utility.yul\":3339:3418   */\n      tag_237\n      tag_127\n      jump\t// in\n    tag_237:\n        /* \"#utility.yul\":3303:3420   */\n    tag_236:\n        /* \"#utility.yul\":3444:3507   */\n      tag_238\n        /* \"#utility.yul\":3499:3506   */\n      dup10\n        /* \"#utility.yul\":3490:3496   */\n      dup3\n        /* \"#utility.yul\":3479:3488   */\n      dup11\n        /* \"#utility.yul\":3475:3497   */\n      add\n        /* \"#utility.yul\":3444:3507   */\n      tag_137\n      jump\t// in\n    tag_238:\n        /* \"#utility.yul\":3434:3507   */\n      swap7\n      pop\n        /* \"#utility.yul\":3230:3517   */\n      pop\n        /* \"#utility.yul\":3556:3558   */\n      0x20\n        /* \"#utility.yul\":3582:3635   */\n      tag_239\n        /* \"#utility.yul\":3627:3634   */\n      dup10\n        /* \"#utility.yul\":3618:3624   */\n      dup3\n        /* \"#utility.yul\":3607:3616   */\n      dup11\n        /* \"#utility.yul\":3603:3625   */\n      add\n        /* \"#utility.yul\":3582:3635   */\n      tag_140\n      jump\t// in\n    tag_239:\n        /* \"#utility.yul\":3572:3635   */\n      swap6\n      pop\n        /* \"#utility.yul\":3527:3645   */\n      pop\n        /* \"#utility.yul\":3712:3714   */\n      0x40\n        /* \"#utility.yul\":3701:3710   */\n      dup8\n        /* \"#utility.yul\":3697:3715   */\n      add\n        /* \"#utility.yul\":3684:3716   */\n      calldataload\n        /* \"#utility.yul\":3743:3761   */\n      0xffffffffffffffff\n        /* \"#utility.yul\":3735:3741   */\n      dup2\n        /* \"#utility.yul\":3732:3762   */\n      gt\n        /* \"#utility.yul\":3729:3846   */\n      iszero\n      tag_240\n      jumpi\n        /* \"#utility.yul\":3765:3844   */\n      tag_241\n      tag_127\n      jump\t// in\n    tag_241:\n        /* \"#utility.yul\":3729:3846   */\n    tag_240:\n        /* \"#utility.yul\":3870:3933   */\n      tag_242\n        /* \"#utility.yul\":3925:3932   */\n      dup10\n        /* \"#utility.yul\":3916:3922   */\n      dup3\n        /* \"#utility.yul\":3905:3914   */\n      dup11\n        /* \"#utility.yul\":3901:3923   */\n      add\n        /* \"#utility.yul\":3870:3933   */\n      tag_137\n      jump\t// in\n    tag_242:\n        /* \"#utility.yul\":3860:3933   */\n      swap5\n      pop\n        /* \"#utility.yul\":3655:3943   */\n      pop\n        /* \"#utility.yul\":3982:3984   */\n      0x60\n        /* \"#utility.yul\":4008:4061   */\n      tag_243\n        /* \"#utility.yul\":4053:4060   */\n      dup10\n        /* \"#utility.yul\":4044:4050   */\n      dup3\n        /* \"#utility.yul\":4033:4042   */\n      dup11\n        /* \"#utility.yul\":4029:4051   */\n      add\n        /* \"#utility.yul\":4008:4061   */\n      tag_140\n      jump\t// in\n    tag_243:\n        /* \"#utility.yul\":3998:4061   */\n      swap4\n      pop\n        /* \"#utility.yul\":3953:4071   */\n      pop\n        /* \"#utility.yul\":4110:4113   */\n      0x80\n        /* \"#utility.yul\":4137:4190   */\n      tag_244\n        /* \"#utility.yul\":4182:4189   */\n      dup10\n        /* \"#utility.yul\":4173:4179   */\n      dup3\n        /* \"#utility.yul\":4162:4171   */\n      dup11\n        /* \"#utility.yul\":4158:4180   */\n      add\n        /* \"#utility.yul\":4137:4190   */\n      tag_140\n      jump\t// in\n    tag_244:\n        /* \"#utility.yul\":4127:4190   */\n      swap3\n      pop\n        /* \"#utility.yul\":4081:4200   */\n      pop\n        /* \"#utility.yul\":4267:4270   */\n      0xa0\n        /* \"#utility.yul\":4256:4265   */\n      dup8\n        /* \"#utility.yul\":4252:4271   */\n      add\n        /* \"#utility.yul\":4239:4272   */\n      calldataload\n        /* \"#utility.yul\":4299:4317   */\n      0xffffffffffffffff\n        /* \"#utility.yul\":4291:4297   */\n      dup2\n        /* \"#utility.yul\":4288:4318   */\n      gt\n        /* \"#utility.yul\":4285:4402   */\n      iszero\n      tag_245\n      jumpi\n        /* \"#utility.yul\":4321:4400   */\n      tag_246\n      tag_127\n      jump\t// in\n    tag_246:\n        /* \"#utility.yul\":4285:4402   */\n    tag_245:\n        /* \"#utility.yul\":4426:4489   */\n      tag_247\n        /* \"#utility.yul\":4481:4488   */\n      dup10\n        /* \"#utility.yul\":4472:4478   */\n      dup3\n        /* \"#utility.yul\":4461:4470   */\n      dup11\n        /* \"#utility.yul\":4457:4479   */\n      add\n        /* \"#utility.yul\":4426:4489   */\n      tag_137\n      jump\t// in\n    tag_247:\n        /* \"#utility.yul\":4416:4489   */\n      swap2\n      pop\n        /* \"#utility.yul\":4210:4499   */\n      pop\n        /* \"#utility.yul\":2909:4506   */\n      swap3\n      swap6\n      pop\n      swap3\n      swap6\n      pop\n      swap3\n      swap6\n      jump\t// out\n        /* \"#utility.yul\":4512:4661   */\n    tag_141:\n        /* \"#utility.yul\":4614:4620   */\n      0x00\n        /* \"#utility.yul\":4648:4653   */\n      dup2\n        /* \"#utility.yul\":4642:4654   */\n      mload\n        /* \"#utility.yul\":4632:4654   */\n      swap1\n      pop\n        /* \"#utility.yul\":4512:4661   */\n      swap2\n      swap1\n      pop\n      jump\t// out\n        /* \"#utility.yul\":4667:4886   */\n    tag_142:\n        /* \"#utility.yul\":4801:4812   */\n      0x00\n        /* \"#utility.yul\":4835:4841   */\n      dup3\n        /* \"#utility.yul\":4830:4833   */\n      dup3\n        /* \"#utility.yul\":4823:4842   */\n      mstore\n        /* \"#utility.yul\":4875:4879   */\n      0x20\n        /* \"#utility.yul\":4870:4873   */\n      dup3\n        /* \"#utility.yul\":4866:4880   */\n      add\n        /* \"#utility.yul\":4851:4880   */\n      swap1\n      pop\n        /* \"#utility.yul\":4667:4886   */\n      swap3\n      swap2\n      pop\n      pop\n      jump\t// out\n        /* \"#utility.yul\":4892:5059   */\n    tag_143:\n        /* \"#utility.yul\":4994:4998   */\n      0x00\n        /* \"#utility.yul\":5017:5020   */\n      dup2\n        /* \"#utility.yul\":5009:5020   */\n      swap1\n      pop\n        /* \"#utility.yul\":5047:5051   */\n      0x20\n        /* \"#utility.yul\":5042:5045   */\n      dup3\n        /* \"#utility.yul\":5038:5052   */\n      add\n        /* \"#utility.yul\":5030:5052   */\n      swap1\n      pop\n        /* \"#utility.yul\":4892:5059   */\n      swap2\n      swap1\n      pop\n      jump\t// out\n        /* \"#utility.yul\":5065:5164   */\n    tag_144:\n        /* \"#utility.yul\":5117:5123   */\n      0x00\n        /* \"#utility.yul\":5151:5156   */\n      dup2\n        /* \"#utility.yul\":5145:5157   */\n      mload\n        /* \"#utility.yul\":5135:5157   */\n      swap1\n      pop\n        /* \"#utility.yul\":5065:5164   */\n      swap2\n      swap1\n      pop\n      jump\t// out\n        /* \"#utility.yul\":5170:5329   */\n    tag_145:\n        /* \"#utility.yul\":5244:5255   */\n      0x00\n        /* \"#utility.yul\":5278:5284   */\n      dup3\n        /* \"#utility.yul\":5273:5276   */\n      dup3\n        /* \"#utility.yul\":5266:5285   */\n      mstore\n        /* \"#utility.yul\":5318:5322   */\n      0x20\n        /* \"#utility.yul\":5313:5316   */\n      dup3\n        /* \"#utility.yul\":5309:5323   */\n      add\n        /* \"#utility.yul\":5294:5323   */\n      swap1\n      pop\n        /* \"#utility.yul\":5170:5329   */\n      swap3\n      swap2\n      pop\n      pop\n      jump\t// out\n        /* \"#utility.yul\":5335:5581   */\n    tag_146:\n        /* \"#utility.yul\":5416:5417   */\n      0x00\n        /* \"#utility.yul\":5426:5539   */\n    tag_254:\n        /* \"#utility.yul\":5440:5446   */\n      dup4\n        /* \"#utility.yul\":5437:5438   */\n      dup2\n        /* \"#utility.yul\":5434:5447   */\n      lt\n        /* \"#utility.yul\":5426:5539   */\n      iszero\n      tag_256\n      jumpi\n        /* \"#utility.yul\":5525:5526   */\n      dup1\n        /* \"#utility.yul\":5520:5523   */\n      dup3\n        /* \"#utility.yul\":5516:5527   */\n      add\n        /* \"#utility.yul\":5510:5528   */\n      mload\n        /* \"#utility.yul\":5506:5507   */\n      dup2\n        /* \"#utility.yul\":5501:5504   */\n      dup5\n        /* \"#utility.yul\":5497:5508   */\n      add\n        /* \"#utility.yul\":5490:5529   */\n      mstore\n        /* \"#utility.yul\":5462:5464   */\n      0x20\n        /* \"#utility.yul\":5459:5460   */\n      dup2\n        /* \"#utility.yul\":5455:5465   */\n      add\n        /* \"#utility.yul\":5450:5465   */\n      swap1\n      pop\n        /* \"#utility.yul\":5426:5539   */\n      jump(tag_254)\n    tag_256:\n        /* \"#utility.yul\":5573:5574   */\n      0x00\n        /* \"#utility.yul\":5564:5570   */\n      dup5\n        /* \"#utility.yul\":5559:5562   */\n      dup5\n        /* \"#utility.yul\":5555:5571   */\n      add\n        /* \"#utility.yul\":5548:5575   */\n      mstore\n        /* \"#utility.yul\":5397:5581   */\n      pop\n        /* \"#utility.yul\":5335:5581   */\n      pop\n      pop\n      pop\n      jump\t// out\n        /* \"#utility.yul\":5587:5944   */\n    tag_147:\n        /* \"#utility.yul\":5665:5668   */\n      0x00\n        /* \"#utility.yul\":5693:5732   */\n      tag_258\n        /* \"#utility.yul\":5726:5731   */\n      dup3\n        /* \"#utility.yul\":5693:5732   */\n      tag_144\n      jump\t// in\n    tag_258:\n        /* \"#utility.yul\":5748:5809   */\n      tag_259\n        /* \"#utility.yul\":5802:5808   */\n      dup2\n        /* \"#utility.yul\":5797:5800   */\n      dup6\n        /* \"#utility.yul\":5748:5809   */\n      tag_145\n      jump\t// in\n    tag_259:\n        /* \"#utility.yul\":5741:5809   */\n      swap4\n      pop\n        /* \"#utility.yul\":5818:5883   */\n      tag_260\n        /* \"#utility.yul\":5876:5882   */\n      dup2\n        /* \"#utility.yul\":5871:5874   */\n      dup6\n        /* \"#utility.yul\":5864:5868   */\n      0x20\n        /* \"#utility.yul\":5857:5862   */\n      dup7\n        /* \"#utility.yul\":5853:5869   */\n      add\n        /* \"#utility.yul\":5818:5883   */\n      tag_146\n      jump\t// in\n    tag_260:\n        /* \"#utility.yul\":5908:5937   */\n      tag_261\n        /* \"#utility.yul\":5930:5936   */\n      dup2\n        /* \"#utility.yul\":5908:5937   */\n      tag_130\n      jump\t// in\n    tag_261:\n        /* \"#utility.yul\":5903:5906   */\n      dup5\n        /* \"#utility.yul\":5899:5938   */\n      add\n        /* \"#utility.yul\":5892:5938   */\n      swap2\n      pop\n        /* \"#utility.yul\":5669:5944   */\n      pop\n        /* \"#utility.yul\":5587:5944   */\n      swap3\n      swap2\n      pop\n      pop\n      jump\t// out\n        /* \"#utility.yul\":5950:6058   */\n    tag_148:\n        /* \"#utility.yul\":6027:6051   */\n      tag_263\n        /* \"#utility.yul\":6045:6050   */\n      dup2\n        /* \"#utility.yul\":6027:6051   */\n      tag_138\n      jump\t// in\n    tag_263:\n        /* \"#utility.yul\":6022:6025   */\n      dup3\n        /* \"#utility.yul\":6015:6052   */\n      mstore\n        /* \"#utility.yul\":5950:6058   */\n      pop\n      pop\n      jump\t// out\n        /* \"#utility.yul\":6064:6210   */\n    tag_149:\n        /* \"#utility.yul\":6163:6169   */\n      0x00\n        /* \"#utility.yul\":6197:6202   */\n      dup2\n        /* \"#utility.yul\":6191:6203   */\n      mload\n        /* \"#utility.yul\":6181:6203   */\n      swap1\n      pop\n        /* \"#utility.yul\":6064:6210   */\n      swap2\n      swap1\n      pop\n      jump\t// out\n        /* \"#utility.yul\":6216:6422   */\n    tag_150:\n        /* \"#utility.yul\":6337:6348   */\n      0x00\n        /* \"#utility.yul\":6371:6377   */\n      dup3\n        /* \"#utility.yul\":6366:6369   */\n      dup3\n        /* \"#utility.yul\":6359:6378   */\n      mstore\n        /* \"#utility.yul\":6411:6415   */\n      0x20\n        /* \"#utility.yul\":6406:6409   */\n      dup3\n        /* \"#utility.yul\":6402:6416   */\n      add\n        /* \"#utility.yul\":6387:6416   */\n      swap1\n      pop\n        /* \"#utility.yul\":6216:6422   */\n      swap3\n      swap2\n      pop\n      pop\n      jump\t// out\n        /* \"#utility.yul\":6428:6592   */\n    tag_151:\n        /* \"#utility.yul\":6527:6531   */\n      0x00\n        /* \"#utility.yul\":6550:6553   */\n      dup2\n        /* \"#utility.yul\":6542:6553   */\n      swap1\n      pop\n        /* \"#utility.yul\":6580:6584   */\n      0x20\n        /* \"#utility.yul\":6575:6578   */\n      dup3\n        /* \"#utility.yul\":6571:6585   */\n      add\n        /* \"#utility.yul\":6563:6585   */\n      swap1\n      pop\n        /* \"#utility.yul\":6428:6592   */\n      swap2\n      swap1\n      pop\n      jump\t// out\n        /* \"#utility.yul\":6598:6778   */\n    tag_80:\n        /* \"#utility.yul\":6646:6723   */\n      0x4e487b7100000000000000000000000000000000000000000000000000000000\n        /* \"#utility.yul\":6643:6644   */\n      0x00\n        /* \"#utility.yul\":6636:6724   */\n      mstore\n        /* \"#utility.yul\":6743:6747   */\n      0x21\n        /* \"#utility.yul\":6740:6741   */\n      0x04\n        /* \"#utility.yul\":6733:6748   */\n      mstore\n        /* \"#utility.yul\":6767:6771   */\n      0x24\n        /* \"#utility.yul\":6764:6765   */\n      0x00\n        /* \"#utility.yul\":6757:6772   */\n      revert\n        /* \"#utility.yul\":6784:6903   */\n    tag_152:\n        /* \"#utility.yul\":6871:6872   */\n      0x02\n        /* \"#utility.yul\":6864:6869   */\n      dup2\n        /* \"#utility.yul\":6861:6873   */\n      lt\n        /* \"#utility.yul\":6851:6897   */\n      tag_269\n      jumpi\n        /* \"#utility.yul\":6877:6895   */\n      tag_270\n      tag_80\n      jump\t// in\n    tag_270:\n        /* \"#utility.yul\":6851:6897   */\n    tag_269:\n        /* \"#utility.yul\":6784:6903   */\n      pop\n      jump\t// out\n        /* \"#utility.yul\":6909:7048   */\n    tag_153:\n        /* \"#utility.yul\":6960:6967   */\n      0x00\n        /* \"#utility.yul\":6989:6994   */\n      dup2\n        /* \"#utility.yul\":6978:6994   */\n      swap1\n      pop\n        /* \"#utility.yul\":6995:7042   */\n      tag_272\n        /* \"#utility.yul\":7036:7041   */\n      dup3\n        /* \"#utility.yul\":6995:7042   */\n      tag_152\n      jump\t// in\n    tag_272:\n        /* \"#utility.yul\":6909:7048   */\n      swap2\n      swap1\n      pop\n      jump\t// out\n        /* \"#utility.yul\":7054:7193   */\n    tag_154:\n        /* \"#utility.yul\":7116:7125   */\n      0x00\n        /* \"#utility.yul\":7149:7187   */\n      tag_274\n        /* \"#utility.yul\":7181:7186   */\n      dup3\n        /* \"#utility.yul\":7149:7187   */\n      tag_153\n      jump\t// in\n    tag_274:\n        /* \"#utility.yul\":7136:7187   */\n      swap1\n      pop\n        /* \"#utility.yul\":7054:7193   */\n      swap2\n      swap1\n      pop\n      jump\t// out\n        /* \"#utility.yul\":7199:7344   */\n    tag_155:\n        /* \"#utility.yul\":7288:7337   */\n      tag_276\n        /* \"#utility.yul\":7331:7336   */\n      dup2\n        /* \"#utility.yul\":7288:7337   */\n      tag_154\n      jump\t// in\n    tag_276:\n        /* \"#utility.yul\":7283:7286   */\n      dup3\n        /* \"#utility.yul\":7276:7338   */\n      mstore\n        /* \"#utility.yul\":7199:7344   */\n      pop\n      pop\n      jump\t// out\n        /* \"#utility.yul\":7350:7476   */\n    tag_156:\n        /* \"#utility.yul\":7387:7394   */\n      0x00\n        /* \"#utility.yul\":7427:7469   */\n      0xffffffffffffffffffffffffffffffffffffffff\n        /* \"#utility.yul\":7420:7425   */\n      dup3\n        /* \"#utility.yul\":7416:7470   */\n      and\n        /* \"#utility.yul\":7405:7470   */\n      swap1\n      pop\n        /* \"#utility.yul\":7350:7476   */\n      swap2\n      swap1\n      pop\n      jump\t// out\n        /* \"#utility.yul\":7482:7578   */\n    tag_157:\n        /* \"#utility.yul\":7519:7526   */\n      0x00\n        /* \"#utility.yul\":7548:7572   */\n      tag_279\n        /* \"#utility.yul\":7566:7571   */\n      dup3\n        /* \"#utility.yul\":7548:7572   */\n      tag_156\n      jump\t// in\n    tag_279:\n        /* \"#utility.yul\":7537:7572   */\n      swap1\n      pop\n        /* \"#utility.yul\":7482:7578   */\n      swap2\n      swap1\n      pop\n      jump\t// out\n        /* \"#utility.yul\":7584:7692   */\n    tag_158:\n        /* \"#utility.yul\":7661:7685   */\n      tag_281\n        /* \"#utility.yul\":7679:7684   */\n      dup2\n        /* \"#utility.yul\":7661:7685   */\n      tag_157\n      jump\t// in\n    tag_281:\n        /* \"#utility.yul\":7656:7659   */\n      dup3\n        /* \"#utility.yul\":7649:7686   */\n      mstore\n        /* \"#utility.yul\":7584:7692   */\n      pop\n      pop\n      jump\t// out\n        /* \"#utility.yul\":7774:8658   */\n    tag_159:\n        /* \"#utility.yul\":7925:7929   */\n      0x80\n        /* \"#utility.yul\":7920:7923   */\n      dup3\n        /* \"#utility.yul\":7916:7930   */\n      add\n        /* \"#utility.yul\":8019:8023   */\n      0x00\n        /* \"#utility.yul\":8012:8017   */\n      dup3\n        /* \"#utility.yul\":8008:8024   */\n      add\n        /* \"#utility.yul\":8002:8025   */\n      mload\n        /* \"#utility.yul\":8038:8113   */\n      tag_283\n        /* \"#utility.yul\":8107:8111   */\n      0x00\n        /* \"#utility.yul\":8102:8105   */\n      dup6\n        /* \"#utility.yul\":8098:8112   */\n      add\n        /* \"#utility.yul\":8084:8096   */\n      dup3\n        /* \"#utility.yul\":8038:8113   */\n      tag_155\n      jump\t// in\n    tag_283:\n        /* \"#utility.yul\":7940:8123   */\n      pop\n        /* \"#utility.yul\":8213:8217   */\n      0x20\n        /* \"#utility.yul\":8206:8211   */\n      dup3\n        /* \"#utility.yul\":8202:8218   */\n      add\n        /* \"#utility.yul\":8196:8219   */\n      mload\n        /* \"#utility.yul\":8232:8295   */\n      tag_284\n        /* \"#utility.yul\":8289:8293   */\n      0x20\n        /* \"#utility.yul\":8284:8287   */\n      dup6\n        /* \"#utility.yul\":8280:8294   */\n      add\n        /* \"#utility.yul\":8266:8278   */\n      dup3\n        /* \"#utility.yul\":8232:8295   */\n      tag_148\n      jump\t// in\n    tag_284:\n        /* \"#utility.yul\":8133:8305   */\n      pop\n        /* \"#utility.yul\":8387:8391   */\n      0x40\n        /* \"#utility.yul\":8380:8385   */\n      dup3\n        /* \"#utility.yul\":8376:8392   */\n      add\n        /* \"#utility.yul\":8370:8393   */\n      mload\n        /* \"#utility.yul\":8406:8469   */\n      tag_285\n        /* \"#utility.yul\":8463:8467   */\n      0x40\n        /* \"#utility.yul\":8458:8461   */\n      dup6\n        /* \"#utility.yul\":8454:8468   */\n      add\n        /* \"#utility.yul\":8440:8452   */\n      dup3\n        /* \"#utility.yul\":8406:8469   */\n      tag_158\n      jump\t// in\n    tag_285:\n        /* \"#utility.yul\":8315:8479   */\n      pop\n        /* \"#utility.yul\":8559:8563   */\n      0x60\n        /* \"#utility.yul\":8552:8557   */\n      dup3\n        /* \"#utility.yul\":8548:8564   */\n      add\n        /* \"#utility.yul\":8542:8565   */\n      mload\n        /* \"#utility.yul\":8578:8641   */\n      tag_286\n        /* \"#utility.yul\":8635:8639   */\n      0x60\n        /* \"#utility.yul\":8630:8633   */\n      dup6\n        /* \"#utility.yul\":8626:8640   */\n      add\n        /* \"#utility.yul\":8612:8624   */\n      dup3\n        /* \"#utility.yul\":8578:8641   */\n      tag_158\n      jump\t// in\n    tag_286:\n        /* \"#utility.yul\":8489:8651   */\n      pop\n        /* \"#utility.yul\":7894:8658   */\n      pop\n        /* \"#utility.yul\":7774:8658   */\n      pop\n      pop\n      jump\t// out\n        /* \"#utility.yul\":8664:8971   */\n    tag_160:\n        /* \"#utility.yul\":8797:8807   */\n      0x00\n        /* \"#utility.yul\":8818:8928   */\n      tag_288\n        /* \"#utility.yul\":8924:8927   */\n      dup4\n        /* \"#utility.yul\":8916:8922   */\n      dup4\n        /* \"#utility.yul\":8818:8928   */\n      tag_159\n      jump\t// in\n    tag_288:\n        /* \"#utility.yul\":8960:8964   */\n      0x80\n        /* \"#utility.yul\":8955:8958   */\n      dup4\n        /* \"#utility.yul\":8951:8965   */\n      add\n        /* \"#utility.yul\":8937:8965   */\n      swap1\n      pop\n        /* \"#utility.yul\":8664:8971   */\n      swap3\n      swap2\n      pop\n      pop\n      jump\t// out\n        /* \"#utility.yul\":8977:9122   */\n    tag_161:\n        /* \"#utility.yul\":9079:9083   */\n      0x00\n        /* \"#utility.yul\":9111:9115   */\n      0x20\n        /* \"#utility.yul\":9106:9109   */\n      dup3\n        /* \"#utility.yul\":9102:9116   */\n      add\n        /* \"#utility.yul\":9094:9116   */\n      swap1\n      pop\n        /* \"#utility.yul\":8977:9122   */\n      swap2\n      swap1\n      pop\n      jump\t// out\n        /* \"#utility.yul\":9208:10176   */\n    tag_162:\n        /* \"#utility.yul\":9381:9384   */\n      0x00\n        /* \"#utility.yul\":9410:9496   */\n      tag_291\n        /* \"#utility.yul\":9490:9495   */\n      dup3\n        /* \"#utility.yul\":9410:9496   */\n      tag_149\n      jump\t// in\n    tag_291:\n        /* \"#utility.yul\":9512:9620   */\n      tag_292\n        /* \"#utility.yul\":9613:9619   */\n      dup2\n        /* \"#utility.yul\":9608:9611   */\n      dup6\n        /* \"#utility.yul\":9512:9620   */\n      tag_150\n      jump\t// in\n    tag_292:\n        /* \"#utility.yul\":9505:9620   */\n      swap4\n      pop\n        /* \"#utility.yul\":9644:9732   */\n      tag_293\n        /* \"#utility.yul\":9726:9731   */\n      dup4\n        /* \"#utility.yul\":9644:9732   */\n      tag_151\n      jump\t// in\n    tag_293:\n        /* \"#utility.yul\":9755:9762   */\n      dup1\n        /* \"#utility.yul\":9786:9787   */\n      0x00\n        /* \"#utility.yul\":9771:10151   */\n    tag_294:\n        /* \"#utility.yul\":9796:9802   */\n      dup4\n        /* \"#utility.yul\":9793:9794   */\n      dup2\n        /* \"#utility.yul\":9790:9803   */\n      lt\n        /* \"#utility.yul\":9771:10151   */\n      iszero\n      tag_296\n      jumpi\n        /* \"#utility.yul\":9872:9878   */\n      dup2\n        /* \"#utility.yul\":9866:9879   */\n      mload\n        /* \"#utility.yul\":9899:10026   */\n      tag_297\n        /* \"#utility.yul\":10022:10025   */\n      dup9\n        /* \"#utility.yul\":10007:10020   */\n      dup3\n        /* \"#utility.yul\":9899:10026   */\n      tag_160\n      jump\t// in\n    tag_297:\n        /* \"#utility.yul\":9892:10026   */\n      swap8\n      pop\n        /* \"#utility.yul\":10049:10141   */\n      tag_298\n        /* \"#utility.yul\":10134:10140   */\n      dup4\n        /* \"#utility.yul\":10049:10141   */\n      tag_161\n      jump\t// in\n    tag_298:\n        /* \"#utility.yul\":10039:10141   */\n      swap3\n      pop\n        /* \"#utility.yul\":9831:10151   */\n      pop\n        /* \"#utility.yul\":9818:9819   */\n      0x01\n        /* \"#utility.yul\":9815:9816   */\n      dup2\n        /* \"#utility.yul\":9811:9820   */\n      add\n        /* \"#utility.yul\":9806:9820   */\n      swap1\n      pop\n        /* \"#utility.yul\":9771:10151   */\n      jump(tag_294)\n    tag_296:\n        /* \"#utility.yul\":9775:9789   */\n      pop\n        /* \"#utility.yul\":10167:10170   */\n      dup6\n        /* \"#utility.yul\":10160:10170   */\n      swap4\n      pop\n        /* \"#utility.yul\":9386:10176   */\n      pop\n      pop\n      pop\n        /* \"#utility.yul\":9208:10176   */\n      swap3\n      swap2\n      pop\n      pop\n      jump\t// out\n        /* \"#utility.yul\":10264:12085   */\n    tag_163:\n        /* \"#utility.yul\":10393:10396   */\n      0x00\n        /* \"#utility.yul\":10429:10433   */\n      0xe0\n        /* \"#utility.yul\":10424:10427   */\n      dup4\n        /* \"#utility.yul\":10420:10434   */\n      add\n        /* \"#utility.yul\":10516:10520   */\n      0x00\n        /* \"#utility.yul\":10509:10514   */\n      dup4\n        /* \"#utility.yul\":10505:10521   */\n      add\n        /* \"#utility.yul\":10499:10522   */\n      mload\n        /* \"#utility.yul\":10569:10572   */\n      dup5\n        /* \"#utility.yul\":10563:10567   */\n      dup3\n        /* \"#utility.yul\":10559:10573   */\n      sub\n        /* \"#utility.yul\":10552:10556   */\n      0x00\n        /* \"#utility.yul\":10547:10550   */\n      dup7\n        /* \"#utility.yul\":10543:10557   */\n      add\n        /* \"#utility.yul\":10536:10574   */\n      mstore\n        /* \"#utility.yul\":10595:10668   */\n      tag_300\n        /* \"#utility.yul\":10663:10667   */\n      dup3\n        /* \"#utility.yul\":10649:10661   */\n      dup3\n        /* \"#utility.yul\":10595:10668   */\n      tag_147\n      jump\t// in\n    tag_300:\n        /* \"#utility.yul\":10587:10668   */\n      swap2\n      pop\n        /* \"#utility.yul\":10444:10679   */\n      pop\n        /* \"#utility.yul\":10760:10764   */\n      0x20\n        /* \"#utility.yul\":10753:10758   */\n      dup4\n        /* \"#utility.yul\":10749:10765   */\n      add\n        /* \"#utility.yul\":10743:10766   */\n      mload\n        /* \"#utility.yul\":10779:10842   */\n      tag_301\n        /* \"#utility.yul\":10836:10840   */\n      0x20\n        /* \"#utility.yul\":10831:10834   */\n      dup7\n        /* \"#utility.yul\":10827:10841   */\n      add\n        /* \"#utility.yul\":10813:10825   */\n      dup3\n        /* \"#utility.yul\":10779:10842   */\n      tag_148\n      jump\t// in\n    tag_301:\n        /* \"#utility.yul\":10689:10852   */\n      pop\n        /* \"#utility.yul\":10938:10942   */\n      0x40\n        /* \"#utility.yul\":10931:10936   */\n      dup4\n        /* \"#utility.yul\":10927:10943   */\n      add\n        /* \"#utility.yul\":10921:10944   */\n      mload\n        /* \"#utility.yul\":10991:10994   */\n      dup5\n        /* \"#utility.yul\":10985:10989   */\n      dup3\n        /* \"#utility.yul\":10981:10995   */\n      sub\n        /* \"#utility.yul\":10974:10978   */\n      0x40\n        /* \"#utility.yul\":10969:10972   */\n      dup7\n        /* \"#utility.yul\":10965:10979   */\n      add\n        /* \"#utility.yul\":10958:10996   */\n      mstore\n        /* \"#utility.yul\":11017:11090   */\n      tag_302\n        /* \"#utility.yul\":11085:11089   */\n      dup3\n        /* \"#utility.yul\":11071:11083   */\n      dup3\n        /* \"#utility.yul\":11017:11090   */\n      tag_147\n      jump\t// in\n    tag_302:\n        /* \"#utility.yul\":11009:11090   */\n      swap2\n      pop\n        /* \"#utility.yul\":10862:11101   */\n      pop\n        /* \"#utility.yul\":11193:11197   */\n      0x60\n        /* \"#utility.yul\":11186:11191   */\n      dup4\n        /* \"#utility.yul\":11182:11198   */\n      add\n        /* \"#utility.yul\":11176:11199   */\n      mload\n        /* \"#utility.yul\":11212:11275   */\n      tag_303\n        /* \"#utility.yul\":11269:11273   */\n      0x60\n        /* \"#utility.yul\":11264:11267   */\n      dup7\n        /* \"#utility.yul\":11260:11274   */\n      add\n        /* \"#utility.yul\":11246:11258   */\n      dup3\n        /* \"#utility.yul\":11212:11275   */\n      tag_148\n      jump\t// in\n    tag_303:\n        /* \"#utility.yul\":11111:11285   */\n      pop\n        /* \"#utility.yul\":11372:11376   */\n      0x80\n        /* \"#utility.yul\":11365:11370   */\n      dup4\n        /* \"#utility.yul\":11361:11377   */\n      add\n        /* \"#utility.yul\":11355:11378   */\n      mload\n        /* \"#utility.yul\":11391:11454   */\n      tag_304\n        /* \"#utility.yul\":11448:11452   */\n      0x80\n        /* \"#utility.yul\":11443:11446   */\n      dup7\n        /* \"#utility.yul\":11439:11453   */\n      add\n        /* \"#utility.yul\":11425:11437   */\n      dup3\n        /* \"#utility.yul\":11391:11454   */\n      tag_148\n      jump\t// in\n    tag_304:\n        /* \"#utility.yul\":11295:11464   */\n      pop\n        /* \"#utility.yul\":11558:11562   */\n      0xa0\n        /* \"#utility.yul\":11551:11556   */\n      dup4\n        /* \"#utility.yul\":11547:11563   */\n      add\n        /* \"#utility.yul\":11541:11564   */\n      mload\n        /* \"#utility.yul\":11611:11614   */\n      dup5\n        /* \"#utility.yul\":11605:11609   */\n      dup3\n        /* \"#utility.yul\":11601:11615   */\n      sub\n        /* \"#utility.yul\":11594:11598   */\n      0xa0\n        /* \"#utility.yul\":11589:11592   */\n      dup7\n        /* \"#utility.yul\":11585:11599   */\n      add\n        /* \"#utility.yul\":11578:11616   */\n      mstore\n        /* \"#utility.yul\":11637:11710   */\n      tag_305\n        /* \"#utility.yul\":11705:11709   */\n      dup3\n        /* \"#utility.yul\":11691:11703   */\n      dup3\n        /* \"#utility.yul\":11637:11710   */\n      tag_147\n      jump\t// in\n    tag_305:\n        /* \"#utility.yul\":11629:11710   */\n      swap2\n      pop\n        /* \"#utility.yul\":11474:11721   */\n      pop\n        /* \"#utility.yul\":11801:11805   */\n      0xc0\n        /* \"#utility.yul\":11794:11799   */\n      dup4\n        /* \"#utility.yul\":11790:11806   */\n      add\n        /* \"#utility.yul\":11784:11807   */\n      mload\n        /* \"#utility.yul\":11854:11857   */\n      dup5\n        /* \"#utility.yul\":11848:11852   */\n      dup3\n        /* \"#utility.yul\":11844:11858   */\n      sub\n        /* \"#utility.yul\":11837:11841   */\n      0xc0\n        /* \"#utility.yul\":11832:11835   */\n      dup7\n        /* \"#utility.yul\":11828:11842   */\n      add\n        /* \"#utility.yul\":11821:11859   */\n      mstore\n        /* \"#utility.yul\":11880:12047   */\n      tag_306\n        /* \"#utility.yul\":12042:12046   */\n      dup3\n        /* \"#utility.yul\":12028:12040   */\n      dup3\n        /* \"#utility.yul\":11880:12047   */\n      tag_162\n      jump\t// in\n    tag_306:\n        /* \"#utility.yul\":11872:12047   */\n      swap2\n      pop\n        /* \"#utility.yul\":11731:12058   */\n      pop\n        /* \"#utility.yul\":12075:12079   */\n      dup1\n        /* \"#utility.yul\":12068:12079   */\n      swap2\n      pop\n        /* \"#utility.yul\":10398:12085   */\n      pop\n        /* \"#utility.yul\":10264:12085   */\n      swap3\n      swap2\n      pop\n      pop\n      jump\t// out\n        /* \"#utility.yul\":12091:12387   */\n    tag_164:\n        /* \"#utility.yul\":12230:12240   */\n      0x00\n        /* \"#utility.yul\":12265:12381   */\n      tag_308\n        /* \"#utility.yul\":12377:12380   */\n      dup4\n        /* \"#utility.yul\":12369:12375   */\n      dup4\n        /* \"#utility.yul\":12265:12381   */\n      tag_163\n      jump\t// in\n    tag_308:\n        /* \"#utility.yul\":12251:12381   */\n      swap1\n      pop\n        /* \"#utility.yul\":12091:12387   */\n      swap3\n      swap2\n      pop\n      pop\n      jump\t// out\n        /* \"#utility.yul\":12393:12541   */\n    tag_165:\n        /* \"#utility.yul\":12498:12502   */\n      0x00\n        /* \"#utility.yul\":12530:12534   */\n      0x20\n        /* \"#utility.yul\":12525:12528   */\n      dup3\n        /* \"#utility.yul\":12521:12535   */\n      add\n        /* \"#utility.yul\":12513:12535   */\n      swap1\n      pop\n        /* \"#utility.yul\":12393:12541   */\n      swap2\n      swap1\n      pop\n      jump\t// out\n        /* \"#utility.yul\":12633:13824   */\n    tag_166:\n        /* \"#utility.yul\":12822:12825   */\n      0x00\n        /* \"#utility.yul\":12851:12940   */\n      tag_311\n        /* \"#utility.yul\":12934:12939   */\n      dup3\n        /* \"#utility.yul\":12851:12940   */\n      tag_141\n      jump\t// in\n    tag_311:\n        /* \"#utility.yul\":12956:13077   */\n      tag_312\n        /* \"#utility.yul\":13070:13076   */\n      dup2\n        /* \"#utility.yul\":13065:13068   */\n      dup6\n        /* \"#utility.yul\":12956:13077   */\n      tag_142\n      jump\t// in\n    tag_312:\n        /* \"#utility.yul\":12949:13077   */\n      swap4\n      pop\n        /* \"#utility.yul\":13103:13106   */\n      dup4\n        /* \"#utility.yul\":13148:13152   */\n      0x20\n        /* \"#utility.yul\":13140:13146   */\n      dup3\n        /* \"#utility.yul\":13136:13153   */\n      mul\n        /* \"#utility.yul\":13131:13134   */\n      dup6\n        /* \"#utility.yul\":13127:13154   */\n      add\n        /* \"#utility.yul\":13178:13269   */\n      tag_313\n        /* \"#utility.yul\":13263:13268   */\n      dup6\n        /* \"#utility.yul\":13178:13269   */\n      tag_143\n      jump\t// in\n    tag_313:\n        /* \"#utility.yul\":13292:13299   */\n      dup1\n        /* \"#utility.yul\":13323:13324   */\n      0x00\n        /* \"#utility.yul\":13308:13779   */\n    tag_314:\n        /* \"#utility.yul\":13333:13339   */\n      dup6\n        /* \"#utility.yul\":13330:13331   */\n      dup2\n        /* \"#utility.yul\":13327:13340   */\n      lt\n        /* \"#utility.yul\":13308:13779   */\n      iszero\n      tag_316\n      jumpi\n        /* \"#utility.yul\":13404:13413   */\n      dup5\n        /* \"#utility.yul\":13398:13402   */\n      dup5\n        /* \"#utility.yul\":13394:13414   */\n      sub\n        /* \"#utility.yul\":13389:13392   */\n      dup10\n        /* \"#utility.yul\":13382:13415   */\n      mstore\n        /* \"#utility.yul\":13455:13461   */\n      dup2\n        /* \"#utility.yul\":13449:13462   */\n      mload\n        /* \"#utility.yul\":13483:13617   */\n      tag_317\n        /* \"#utility.yul\":13612:13616   */\n      dup6\n        /* \"#utility.yul\":13597:13610   */\n      dup3\n        /* \"#utility.yul\":13483:13617   */\n      tag_164\n      jump\t// in\n    tag_317:\n        /* \"#utility.yul\":13475:13617   */\n      swap5\n      pop\n        /* \"#utility.yul\":13640:13735   */\n      tag_318\n        /* \"#utility.yul\":13728:13734   */\n      dup4\n        /* \"#utility.yul\":13640:13735   */\n      tag_165\n      jump\t// in\n    tag_318:\n        /* \"#utility.yul\":13630:13735   */\n      swap3\n      pop\n        /* \"#utility.yul\":13764:13768   */\n      0x20\n        /* \"#utility.yul\":13759:13762   */\n      dup11\n        /* \"#utility.yul\":13755:13769   */\n      add\n        /* \"#utility.yul\":13748:13769   */\n      swap10\n      pop\n        /* \"#utility.yul\":13368:13779   */\n      pop\n        /* \"#utility.yul\":13355:13356   */\n      0x01\n        /* \"#utility.yul\":13352:13353   */\n      dup2\n        /* \"#utility.yul\":13348:13357   */\n      add\n        /* \"#utility.yul\":13343:13357   */\n      swap1\n      pop\n        /* \"#utility.yul\":13308:13779   */\n      jump(tag_314)\n    tag_316:\n        /* \"#utility.yul\":13312:13326   */\n      pop\n        /* \"#utility.yul\":13795:13799   */\n      dup3\n        /* \"#utility.yul\":13788:13799   */\n      swap8\n      pop\n        /* \"#utility.yul\":13815:13818   */\n      dup8\n        /* \"#utility.yul\":13808:13818   */\n      swap6\n      pop\n        /* \"#utility.yul\":12827:13824   */\n      pop\n      pop\n      pop\n      pop\n      pop\n        /* \"#utility.yul\":12633:13824   */\n      swap3\n      swap2\n      pop\n      pop\n      jump\t// out\n        /* \"#utility.yul\":13830:14343   */\n    tag_14:\n        /* \"#utility.yul\":14043:14047   */\n      0x00\n        /* \"#utility.yul\":14081:14083   */\n      0x20\n        /* \"#utility.yul\":14070:14079   */\n      dup3\n        /* \"#utility.yul\":14066:14084   */\n      add\n        /* \"#utility.yul\":14058:14084   */\n      swap1\n      pop\n        /* \"#utility.yul\":14130:14139   */\n      dup2\n        /* \"#utility.yul\":14124:14128   */\n      dup2\n        /* \"#utility.yul\":14120:14140   */\n      sub\n        /* \"#utility.yul\":14116:14117   */\n      0x00\n        /* \"#utility.yul\":14105:14114   */\n      dup4\n        /* \"#utility.yul\":14101:14118   */\n      add\n        /* \"#utility.yul\":14094:14141   */\n      mstore\n        /* \"#utility.yul\":14158:14336   */\n      tag_320\n        /* \"#utility.yul\":14331:14335   */\n      dup2\n        /* \"#utility.yul\":14322:14328   */\n      dup5\n        /* \"#utility.yul\":14158:14336   */\n      tag_166\n      jump\t// in\n    tag_320:\n        /* \"#utility.yul\":14150:14336   */\n      swap1\n      pop\n        /* \"#utility.yul\":13830:14343   */\n      swap3\n      swap2\n      pop\n      pop\n      jump\t// out\n        /* \"#utility.yul\":14349:14462   */\n    tag_167:\n        /* \"#utility.yul\":14436:14437   */\n      0x02\n        /* \"#utility.yul\":14429:14434   */\n      dup2\n        /* \"#utility.yul\":14426:14438   */\n      lt\n        /* \"#utility.yul\":14416:14456   */\n      tag_322\n      jumpi\n        /* \"#utility.yul\":14452:14453   */\n      0x00\n        /* \"#utility.yul\":14449:14450   */\n      dup1\n        /* \"#utility.yul\":14442:14454   */\n      revert\n        /* \"#utility.yul\":14416:14456   */\n    tag_322:\n        /* \"#utility.yul\":14349:14462   */\n      pop\n      jump\t// out\n        /* \"#utility.yul\":14468:14635   */\n    tag_168:\n        /* \"#utility.yul\":14528:14533   */\n      0x00\n        /* \"#utility.yul\":14566:14572   */\n      dup2\n        /* \"#utility.yul\":14553:14573   */\n      calldataload\n        /* \"#utility.yul\":14544:14573   */\n      swap1\n      pop\n        /* \"#utility.yul\":14582:14629   */\n      tag_324\n        /* \"#utility.yul\":14623:14628   */\n      dup2\n        /* \"#utility.yul\":14582:14629   */\n      tag_167\n      jump\t// in\n    tag_324:\n        /* \"#utility.yul\":14468:14635   */\n      swap3\n      swap2\n      pop\n      pop\n      jump\t// out\n        /* \"#utility.yul\":14641:14763   */\n    tag_169:\n        /* \"#utility.yul\":14714:14738   */\n      tag_326\n        /* \"#utility.yul\":14732:14737   */\n      dup2\n        /* \"#utility.yul\":14714:14738   */\n      tag_157\n      jump\t// in\n    tag_326:\n        /* \"#utility.yul\":14707:14712   */\n      dup2\n        /* \"#utility.yul\":14704:14739   */\n      eq\n        /* \"#utility.yul\":14694:14757   */\n      tag_327\n      jumpi\n        /* \"#utility.yul\":14753:14754   */\n      0x00\n        /* \"#utility.yul\":14750:14751   */\n      dup1\n        /* \"#utility.yul\":14743:14755   */\n      revert\n        /* \"#utility.yul\":14694:14757   */\n    tag_327:\n        /* \"#utility.yul\":14641:14763   */\n      pop\n      jump\t// out\n        /* \"#utility.yul\":14769:14908   */\n    tag_170:\n        /* \"#utility.yul\":14815:14820   */\n      0x00\n        /* \"#utility.yul\":14853:14859   */\n      dup2\n        /* \"#utility.yul\":14840:14860   */\n      calldataload\n        /* \"#utility.yul\":14831:14860   */\n      swap1\n      pop\n        /* \"#utility.yul\":14869:14902   */\n      tag_329\n        /* \"#utility.yul\":14896:14901   */\n      dup2\n        /* \"#utility.yul\":14869:14902   */\n      tag_169\n      jump\t// in\n    tag_329:\n        /* \"#utility.yul\":14769:14908   */\n      swap3\n      swap2\n      pop\n      pop\n      jump\t// out\n        /* \"#utility.yul\":14914:15707   */\n    tag_17:\n        /* \"#utility.yul\":15014:15020   */\n      0x00\n        /* \"#utility.yul\":15022:15028   */\n      dup1\n        /* \"#utility.yul\":15030:15036   */\n      0x00\n        /* \"#utility.yul\":15038:15044   */\n      dup1\n        /* \"#utility.yul\":15087:15090   */\n      0x80\n        /* \"#utility.yul\":15075:15084   */\n      dup6\n        /* \"#utility.yul\":15066:15073   */\n      dup8\n        /* \"#utility.yul\":15062:15085   */\n      sub\n        /* \"#utility.yul\":15058:15091   */\n      slt\n        /* \"#utility.yul\":15055:15175   */\n      iszero\n      tag_331\n      jumpi\n        /* \"#utility.yul\":15094:15173   */\n      tag_332\n      tag_126\n      jump\t// in\n    tag_332:\n        /* \"#utility.yul\":15055:15175   */\n    tag_331:\n        /* \"#utility.yul\":15214:15215   */\n      0x00\n        /* \"#utility.yul\":15239:15292   */\n      tag_333\n        /* \"#utility.yul\":15284:15291   */\n      dup8\n        /* \"#utility.yul\":15275:15281   */\n      dup3\n        /* \"#utility.yul\":15264:15273   */\n      dup9\n        /* \"#utility.yul\":15260:15282   */\n      add\n        /* \"#utility.yul\":15239:15292   */\n      tag_140\n      jump\t// in\n    tag_333:\n        /* \"#utility.yul\":15229:15292   */\n      swap5\n      pop\n        /* \"#utility.yul\":15185:15302   */\n      pop\n        /* \"#utility.yul\":15341:15343   */\n      0x20\n        /* \"#utility.yul\":15367:15434   */\n      tag_334\n        /* \"#utility.yul\":15426:15433   */\n      dup8\n        /* \"#utility.yul\":15417:15423   */\n      dup3\n        /* \"#utility.yul\":15406:15415   */\n      dup9\n        /* \"#utility.yul\":15402:15424   */\n      add\n        /* \"#utility.yul\":15367:15434   */\n      tag_168\n      jump\t// in\n    tag_334:\n        /* \"#utility.yul\":15357:15434   */\n      swap4\n      pop\n        /* \"#utility.yul\":15312:15444   */\n      pop\n        /* \"#utility.yul\":15483:15485   */\n      0x40\n        /* \"#utility.yul\":15509:15562   */\n      tag_335\n        /* \"#utility.yul\":15554:15561   */\n      dup8\n        /* \"#utility.yul\":15545:15551   */\n      dup3\n        /* \"#utility.yul\":15534:15543   */\n      dup9\n        /* \"#utility.yul\":15530:15552   */\n      add\n        /* \"#utility.yul\":15509:15562   */\n      tag_170\n      jump\t// in\n    tag_335:\n        /* \"#utility.yul\":15499:15562   */\n      swap3\n      pop\n        /* \"#utility.yul\":15454:15572   */\n      pop\n        /* \"#utility.yul\":15611:15613   */\n      0x60\n        /* \"#utility.yul\":15637:15690   */\n      tag_336\n        /* \"#utility.yul\":15682:15689   */\n      dup8\n        /* \"#utility.yul\":15673:15679   */\n      dup3\n        /* \"#utility.yul\":15662:15671   */\n      dup9\n        /* \"#utility.yul\":15658:15680   */\n      add\n        /* \"#utility.yul\":15637:15690   */\n      tag_170\n      jump\t// in\n    tag_336:\n        /* \"#utility.yul\":15627:15690   */\n      swap2\n      pop\n        /* \"#utility.yul\":15582:15700   */\n      pop\n        /* \"#utility.yul\":14914:15707   */\n      swap3\n      swap6\n      swap2\n      swap5\n      pop\n      swap3\n      pop\n      jump\t// out\n        /* \"#utility.yul\":15713:16042   */\n    tag_21:\n        /* \"#utility.yul\":15772:15778   */\n      0x00\n        /* \"#utility.yul\":15821:15823   */\n      0x20\n        /* \"#utility.yul\":15809:15818   */\n      dup3\n        /* \"#utility.yul\":15800:15807   */\n      dup5\n        /* \"#utility.yul\":15796:15819   */\n      sub\n        /* \"#utility.yul\":15792:15824   */\n      slt\n        /* \"#utility.yul\":15789:15908   */\n      iszero\n      tag_338\n      jumpi\n        /* \"#utility.yul\":15827:15906   */\n      tag_339\n      tag_126\n      jump\t// in\n    tag_339:\n        /* \"#utility.yul\":15789:15908   */\n    tag_338:\n        /* \"#utility.yul\":15947:15948   */\n      0x00\n        /* \"#utility.yul\":15972:16025   */\n      tag_340\n        /* \"#utility.yul\":16017:16024   */\n      dup5\n        /* \"#utility.yul\":16008:16014   */\n      dup3\n        /* \"#utility.yul\":15997:16006   */\n      dup6\n        /* \"#utility.yul\":15993:16015   */\n      add\n        /* \"#utility.yul\":15972:16025   */\n      tag_140\n      jump\t// in\n    tag_340:\n        /* \"#utility.yul\":15962:16025   */\n      swap2\n      pop\n        /* \"#utility.yul\":15918:16035   */\n      pop\n        /* \"#utility.yul\":15713:16042   */\n      swap3\n      swap2\n      pop\n      pop\n      jump\t// out\n        /* \"#utility.yul\":16130:17961   */\n    tag_171:\n        /* \"#utility.yul\":16269:16272   */\n      0x00\n        /* \"#utility.yul\":16305:16309   */\n      0xe0\n        /* \"#utility.yul\":16300:16303   */\n      dup4\n        /* \"#utility.yul\":16296:16310   */\n      add\n        /* \"#utility.yul\":16392:16396   */\n      0x00\n        /* \"#utility.yul\":16385:16390   */\n      dup4\n        /* \"#utility.yul\":16381:16397   */\n      add\n        /* \"#utility.yul\":16375:16398   */\n      mload\n        /* \"#utility.yul\":16445:16448   */\n      dup5\n        /* \"#utility.yul\":16439:16443   */\n      dup3\n        /* \"#utility.yul\":16435:16449   */\n      sub\n        /* \"#utility.yul\":16428:16432   */\n      0x00\n        /* \"#utility.yul\":16423:16426   */\n      dup7\n        /* \"#utility.yul\":16419:16433   */\n      add\n        /* \"#utility.yul\":16412:16450   */\n      mstore\n        /* \"#utility.yul\":16471:16544   */\n      tag_342\n        /* \"#utility.yul\":16539:16543   */\n      dup3\n        /* \"#utility.yul\":16525:16537   */\n      dup3\n        /* \"#utility.yul\":16471:16544   */\n      tag_147\n      jump\t// in\n    tag_342:\n        /* \"#utility.yul\":16463:16544   */\n      swap2\n      pop\n        /* \"#utility.yul\":16320:16555   */\n      pop\n        /* \"#utility.yul\":16636:16640   */\n      0x20\n        /* \"#utility.yul\":16629:16634   */\n      dup4\n        /* \"#utility.yul\":16625:16641   */\n      add\n        /* \"#utility.yul\":16619:16642   */\n      mload\n        /* \"#utility.yul\":16655:16718   */\n      tag_343\n        /* \"#utility.yul\":16712:16716   */\n      0x20\n        /* \"#utility.yul\":16707:16710   */\n      dup7\n        /* \"#utility.yul\":16703:16717   */\n      add\n        /* \"#utility.yul\":16689:16701   */\n      dup3\n        /* \"#utility.yul\":16655:16718   */\n      tag_148\n      jump\t// in\n    tag_343:\n        /* \"#utility.yul\":16565:16728   */\n      pop\n        /* \"#utility.yul\":16814:16818   */\n      0x40\n        /* \"#utility.yul\":16807:16812   */\n      dup4\n        /* \"#utility.yul\":16803:16819   */\n      add\n        /* \"#utility.yul\":16797:16820   */\n      mload\n        /* \"#utility.yul\":16867:16870   */\n      dup5\n        /* \"#utility.yul\":16861:16865   */\n      dup3\n        /* \"#utility.yul\":16857:16871   */\n      sub\n        /* \"#utility.yul\":16850:16854   */\n      0x40\n        /* \"#utility.yul\":16845:16848   */\n      dup7\n        /* \"#utility.yul\":16841:16855   */\n      add\n        /* \"#utility.yul\":16834:16872   */\n      mstore\n        /* \"#utility.yul\":16893:16966   */\n      tag_344\n        /* \"#utility.yul\":16961:16965   */\n      dup3\n        /* \"#utility.yul\":16947:16959   */\n      dup3\n        /* \"#utility.yul\":16893:16966   */\n      tag_147\n      jump\t// in\n    tag_344:\n        /* \"#utility.yul\":16885:16966   */\n      swap2\n      pop\n        /* \"#utility.yul\":16738:16977   */\n      pop\n        /* \"#utility.yul\":17069:17073   */\n      0x60\n        /* \"#utility.yul\":17062:17067   */\n      dup4\n        /* \"#utility.yul\":17058:17074   */\n      add\n        /* \"#utility.yul\":17052:17075   */\n      mload\n        /* \"#utility.yul\":17088:17151   */\n      tag_345\n        /* \"#utility.yul\":17145:17149   */\n      0x60\n        /* \"#utility.yul\":17140:17143   */\n      dup7\n        /* \"#utility.yul\":17136:17150   */\n      add\n        /* \"#utility.yul\":17122:17134   */\n      dup3\n        /* \"#utility.yul\":17088:17151   */\n      tag_148\n      jump\t// in\n    tag_345:\n        /* \"#utility.yul\":16987:17161   */\n      pop\n        /* \"#utility.yul\":17248:17252   */\n      0x80\n        /* \"#utility.yul\":17241:17246   */\n      dup4\n        /* \"#utility.yul\":17237:17253   */\n      add\n        /* \"#utility.yul\":17231:17254   */\n      mload\n        /* \"#utility.yul\":17267:17330   */\n      tag_346\n        /* \"#utility.yul\":17324:17328   */\n      0x80\n        /* \"#utility.yul\":17319:17322   */\n      dup7\n        /* \"#utility.yul\":17315:17329   */\n      add\n        /* \"#utility.yul\":17301:17313   */\n      dup3\n        /* \"#utility.yul\":17267:17330   */\n      tag_148\n      jump\t// in\n    tag_346:\n        /* \"#utility.yul\":17171:17340   */\n      pop\n        /* \"#utility.yul\":17434:17438   */\n      0xa0\n        /* \"#utility.yul\":17427:17432   */\n      dup4\n        /* \"#utility.yul\":17423:17439   */\n      add\n        /* \"#utility.yul\":17417:17440   */\n      mload\n        /* \"#utility.yul\":17487:17490   */\n      dup5\n        /* \"#utility.yul\":17481:17485   */\n      dup3\n        /* \"#utility.yul\":17477:17491   */\n      sub\n        /* \"#utility.yul\":17470:17474   */\n      0xa0\n        /* \"#utility.yul\":17465:17468   */\n      dup7\n        /* \"#utility.yul\":17461:17475   */\n      add\n        /* \"#utility.yul\":17454:17492   */\n      mstore\n        /* \"#utility.yul\":17513:17586   */\n      tag_347\n        /* \"#utility.yul\":17581:17585   */\n      dup3\n        /* \"#utility.yul\":17567:17579   */\n      dup3\n        /* \"#utility.yul\":17513:17586   */\n      tag_147\n      jump\t// in\n    tag_347:\n        /* \"#utility.yul\":17505:17586   */\n      swap2\n      pop\n        /* \"#utility.yul\":17350:17597   */\n      pop\n        /* \"#utility.yul\":17677:17681   */\n      0xc0\n        /* \"#utility.yul\":17670:17675   */\n      dup4\n        /* \"#utility.yul\":17666:17682   */\n      add\n        /* \"#utility.yul\":17660:17683   */\n      mload\n        /* \"#utility.yul\":17730:17733   */\n      dup5\n        /* \"#utility.yul\":17724:17728   */\n      dup3\n        /* \"#utility.yul\":17720:17734   */\n      sub\n        /* \"#utility.yul\":17713:17717   */\n      0xc0\n        /* \"#utility.yul\":17708:17711   */\n      dup7\n        /* \"#utility.yul\":17704:17718   */\n      add\n        /* \"#utility.yul\":17697:17735   */\n      mstore\n        /* \"#utility.yul\":17756:17923   */\n      tag_348\n        /* \"#utility.yul\":17918:17922   */\n      dup3\n        /* \"#utility.yul\":17904:17916   */\n      dup3\n        /* \"#utility.yul\":17756:17923   */\n      tag_162\n      jump\t// in\n    tag_348:\n        /* \"#utility.yul\":17748:17923   */\n      swap2\n      pop\n        /* \"#utility.yul\":17607:17934   */\n      pop\n        /* \"#utility.yul\":17951:17955   */\n      dup1\n        /* \"#utility.yul\":17944:17955   */\n      swap2\n      pop\n        /* \"#utility.yul\":16274:17961   */\n      pop\n        /* \"#utility.yul\":16130:17961   */\n      swap3\n      swap2\n      pop\n      pop\n      jump\t// out\n        /* \"#utility.yul\":17967:18380   */\n    tag_24:\n        /* \"#utility.yul\":18130:18134   */\n      0x00\n        /* \"#utility.yul\":18168:18170   */\n      0x20\n        /* \"#utility.yul\":18157:18166   */\n      dup3\n        /* \"#utility.yul\":18153:18171   */\n      add\n        /* \"#utility.yul\":18145:18171   */\n      swap1\n      pop\n        /* \"#utility.yul\":18217:18226   */\n      dup2\n        /* \"#utility.yul\":18211:18215   */\n      dup2\n        /* \"#utility.yul\":18207:18227   */\n      sub\n        /* \"#utility.yul\":18203:18204   */\n      0x00\n        /* \"#utility.yul\":18192:18201   */\n      dup4\n        /* \"#utility.yul\":18188:18205   */\n      add\n        /* \"#utility.yul\":18181:18228   */\n      mstore\n        /* \"#utility.yul\":18245:18373   */\n      tag_350\n        /* \"#utility.yul\":18368:18372   */\n      dup2\n        /* \"#utility.yul\":18359:18365   */\n      dup5\n        /* \"#utility.yul\":18245:18373   */\n      tag_171\n      jump\t// in\n    tag_350:\n        /* \"#utility.yul\":18237:18373   */\n      swap1\n      pop\n        /* \"#utility.yul\":17967:18380   */\n      swap3\n      swap2\n      pop\n      pop\n      jump\t// out\n        /* \"#utility.yul\":18386:18555   */\n    tag_172:\n        /* \"#utility.yul\":18470:18481   */\n      0x00\n        /* \"#utility.yul\":18504:18510   */\n      dup3\n        /* \"#utility.yul\":18499:18502   */\n      dup3\n        /* \"#utility.yul\":18492:18511   */\n      mstore\n        /* \"#utility.yul\":18544:18548   */\n      0x20\n        /* \"#utility.yul\":18539:18542   */\n      dup3\n        /* \"#utility.yul\":18535:18549   */\n      add\n        /* \"#utility.yul\":18520:18549   */\n      swap1\n      pop\n        /* \"#utility.yul\":18386:18555   */\n      swap3\n      swap2\n      pop\n      pop\n      jump\t// out\n        /* \"#utility.yul\":18561:18784   */\n    tag_173:\n        /* \"#utility.yul\":18701:18735   */\n      0x6f6e6c79206f776e6565722063616e207265676973746572206e657720706174\n        /* \"#utility.yul\":18697:18698   */\n      0x00\n        /* \"#utility.yul\":18689:18695   */\n      dup3\n        /* \"#utility.yul\":18685:18699   */\n      add\n        /* \"#utility.yul\":18678:18736   */\n      mstore\n        /* \"#utility.yul\":18770:18776   */\n      0x69656e7400000000000000000000000000000000000000000000000000000000\n        /* \"#utility.yul\":18765:18767   */\n      0x20\n        /* \"#utility.yul\":18757:18763   */\n      dup3\n        /* \"#utility.yul\":18753:18768   */\n      add\n        /* \"#utility.yul\":18746:18777   */\n      mstore\n        /* \"#utility.yul\":18561:18784   */\n      pop\n      jump\t// out\n        /* \"#utility.yul\":18790:19156   */\n    tag_174:\n        /* \"#utility.yul\":18932:18935   */\n      0x00\n        /* \"#utility.yul\":18953:19020   */\n      tag_354\n        /* \"#utility.yul\":19017:19019   */\n      0x24\n        /* \"#utility.yul\":19012:19015   */\n      dup4\n        /* \"#utility.yul\":18953:19020   */\n      tag_172\n      jump\t// in\n    tag_354:\n        /* \"#utility.yul\":18946:19020   */\n      swap2\n      pop\n        /* \"#utility.yul\":19029:19122   */\n      tag_355\n        /* \"#utility.yul\":19118:19121   */\n      dup3\n        /* \"#utility.yul\":19029:19122   */\n      tag_173\n      jump\t// in\n    tag_355:\n        /* \"#utility.yul\":19147:19149   */\n      0x40\n        /* \"#utility.yul\":19142:19145   */\n      dup3\n        /* \"#utility.yul\":19138:19150   */\n      add\n        /* \"#utility.yul\":19131:19150   */\n      swap1\n      pop\n        /* \"#utility.yul\":18790:19156   */\n      swap2\n      swap1\n      pop\n      jump\t// out\n        /* \"#utility.yul\":19162:19581   */\n    tag_28:\n        /* \"#utility.yul\":19328:19332   */\n      0x00\n        /* \"#utility.yul\":19366:19368   */\n      0x20\n        /* \"#utility.yul\":19355:19364   */\n      dup3\n        /* \"#utility.yul\":19351:19369   */\n      add\n        /* \"#utility.yul\":19343:19369   */\n      swap1\n      pop\n        /* \"#utility.yul\":19415:19424   */\n      dup2\n        /* \"#utility.yul\":19409:19413   */\n      dup2\n        /* \"#utility.yul\":19405:19425   */\n      sub\n        /* \"#utility.yul\":19401:19402   */\n      0x00\n        /* \"#utility.yul\":19390:19399   */\n      dup4\n        /* \"#utility.yul\":19386:19403   */\n      add\n        /* \"#utility.yul\":19379:19426   */\n      mstore\n        /* \"#utility.yul\":19443:19574   */\n      tag_357\n        /* \"#utility.yul\":19569:19573   */\n      dup2\n        /* \"#utility.yul\":19443:19574   */\n      tag_174\n      jump\t// in\n    tag_357:\n        /* \"#utility.yul\":19435:19574   */\n      swap1\n      pop\n        /* \"#utility.yul\":19162:19581   */\n      swap2\n      swap1\n      pop\n      jump\t// out\n        /* \"#utility.yul\":19587:19767   */\n    tag_32:\n        /* \"#utility.yul\":19635:19712   */\n      0x4e487b7100000000000000000000000000000000000000000000000000000000\n        /* \"#utility.yul\":19632:19633   */\n      0x00\n        /* \"#utility.yul\":19625:19713   */\n      mstore\n        /* \"#utility.yul\":19732:19736   */\n      0x32\n        /* \"#utility.yul\":19729:19730   */\n      0x04\n        /* \"#utility.yul\":19722:19737   */\n      mstore\n        /* \"#utility.yul\":19756:19760   */\n      0x24\n        /* \"#utility.yul\":19753:19754   */\n      0x00\n        /* \"#utility.yul\":19746:19761   */\n      revert\n        /* \"#utility.yul\":19773:19953   */\n    tag_175:\n        /* \"#utility.yul\":19821:19898   */\n      0x4e487b7100000000000000000000000000000000000000000000000000000000\n        /* \"#utility.yul\":19818:19819   */\n      0x00\n        /* \"#utility.yul\":19811:19899   */\n      mstore\n        /* \"#utility.yul\":19918:19922   */\n      0x22\n        /* \"#utility.yul\":19915:19916   */\n      0x04\n        /* \"#utility.yul\":19908:19923   */\n      mstore\n        /* \"#utility.yul\":19942:19946   */\n      0x24\n        /* \"#utility.yul\":19939:19940   */\n      0x00\n        /* \"#utility.yul\":19932:19947   */\n      revert\n        /* \"#utility.yul\":19959:20279   */\n    tag_60:\n        /* \"#utility.yul\":20003:20009   */\n      0x00\n        /* \"#utility.yul\":20040:20041   */\n      0x02\n        /* \"#utility.yul\":20034:20038   */\n      dup3\n        /* \"#utility.yul\":20030:20042   */\n      div\n        /* \"#utility.yul\":20020:20042   */\n      swap1\n      pop\n        /* \"#utility.yul\":20087:20088   */\n      0x01\n        /* \"#utility.yul\":20081:20085   */\n      dup3\n        /* \"#utility.yul\":20077:20089   */\n      and\n        /* \"#utility.yul\":20108:20126   */\n      dup1\n        /* \"#utility.yul\":20098:20179   */\n      tag_361\n      jumpi\n        /* \"#utility.yul\":20164:20168   */\n      0x7f\n        /* \"#utility.yul\":20156:20162   */\n      dup3\n        /* \"#utility.yul\":20152:20169   */\n      and\n        /* \"#utility.yul\":20142:20169   */\n      swap2\n      pop\n        /* \"#utility.yul\":20098:20179   */\n    tag_361:\n        /* \"#utility.yul\":20226:20228   */\n      0x20\n        /* \"#utility.yul\":20218:20224   */\n      dup3\n        /* \"#utility.yul\":20215:20229   */\n      lt\n        /* \"#utility.yul\":20195:20213   */\n      dup2\n        /* \"#utility.yul\":20192:20230   */\n      sub\n        /* \"#utility.yul\":20189:20273   */\n      tag_362\n      jumpi\n        /* \"#utility.yul\":20245:20263   */\n      tag_363\n      tag_175\n      jump\t// in\n    tag_363:\n        /* \"#utility.yul\":20189:20273   */\n    tag_362:\n        /* \"#utility.yul\":20010:20279   */\n      pop\n        /* \"#utility.yul\":19959:20279   */\n      swap2\n      swap1\n      pop\n      jump\t// out\n        /* \"#utility.yul\":20285:20426   */\n    tag_176:\n        /* \"#utility.yul\":20334:20338   */\n      0x00\n        /* \"#utility.yul\":20357:20360   */\n      dup2\n        /* \"#utility.yul\":20349:20360   */\n      swap1\n      pop\n        /* \"#utility.yul\":20380:20383   */\n      dup2\n        /* \"#utility.yul\":20377:20378   */\n      0x00\n        /* \"#utility.yul\":20370:20384   */\n      mstore\n        /* \"#utility.yul\":20414:20418   */\n      0x20\n        /* \"#utility.yul\":20411:20412   */\n      0x00\n        /* \"#utility.yul\":20401:20419   */\n      keccak256\n        /* \"#utility.yul\":20393:20419   */\n      swap1\n      pop\n        /* \"#utility.yul\":20285:20426   */\n      swap2\n      swap1\n      pop\n      jump\t// out\n        /* \"#utility.yul\":20432:20525   */\n    tag_177:\n        /* \"#utility.yul\":20469:20475   */\n      0x00\n        /* \"#utility.yul\":20516:20518   */\n      0x20\n        /* \"#utility.yul\":20511:20513   */\n      0x1f\n        /* \"#utility.yul\":20504:20509   */\n      dup4\n        /* \"#utility.yul\":20500:20514   */\n      add\n        /* \"#utility.yul\":20496:20519   */\n      div\n        /* \"#utility.yul\":20486:20519   */\n      swap1\n      pop\n        /* \"#utility.yul\":20432:20525   */\n      swap2\n      swap1\n      pop\n      jump\t// out\n        /* \"#utility.yul\":20531:20638   */\n    tag_178:\n        /* \"#utility.yul\":20575:20583   */\n      0x00\n        /* \"#utility.yul\":20625:20630   */\n      dup3\n        /* \"#utility.yul\":20619:20623   */\n      dup3\n        /* \"#utility.yul\":20615:20631   */\n      shl\n        /* \"#utility.yul\":20594:20631   */\n      swap1\n      pop\n        /* \"#utility.yul\":20531:20638   */\n      swap3\n      swap2\n      pop\n      pop\n      jump\t// out\n        /* \"#utility.yul\":20644:21037   */\n    tag_179:\n        /* \"#utility.yul\":20713:20719   */\n      0x00\n        /* \"#utility.yul\":20763:20764   */\n      0x08\n        /* \"#utility.yul\":20751:20761   */\n      dup4\n        /* \"#utility.yul\":20747:20765   */\n      mul\n        /* \"#utility.yul\":20786:20883   */\n      tag_368\n        /* \"#utility.yul\":20816:20882   */\n      0xffffffffffffffffffffffffffffffffffffffffffffffffffffffffffffffff\n        /* \"#utility.yul\":20805:20814   */\n      dup3\n        /* \"#utility.yul\":20786:20883   */\n      tag_178\n      jump\t// in\n    tag_368:\n        /* \"#utility.yul\":20904:20943   */\n      tag_369\n        /* \"#utility.yul\":20934:20942   */\n      dup7\n        /* \"#utility.yul\":20923:20932   */\n      dup4\n        /* \"#utility.yul\":20904:20943   */\n      tag_178\n      jump\t// in\n    tag_369:\n        /* \"#utility.yul\":20892:20943   */\n      swap6\n      pop\n        /* \"#utility.yul\":20976:20980   */\n      dup1\n        /* \"#utility.yul\":20972:20981   */\n      not\n        /* \"#utility.yul\":20965:20970   */\n      dup5\n        /* \"#utility.yul\":20961:20982   */\n      and\n        /* \"#utility.yul\":20952:20982   */\n      swap4\n      pop\n        /* \"#utility.yul\":21025:21029   */\n      dup1\n        /* \"#utility.yul\":21015:21023   */\n      dup7\n        /* \"#utility.yul\":21011:21030   */\n      and\n        /* \"#utility.yul\":21004:21009   */\n      dup5\n        /* \"#utility.yul\":21001:21031   */\n      or\n        /* \"#utility.yul\":20991:21031   */\n      swap3\n      pop\n        /* \"#utility.yul\":20720:21037   */\n      pop\n      pop\n        /* \"#utility.yul\":20644:21037   */\n      swap4\n      swap3\n      pop\n      pop\n      pop\n      jump\t// out\n        /* \"#utility.yul\":21043:21103   */\n    tag_180:\n        /* \"#utility.yul\":21071:21074   */\n      0x00\n        /* \"#utility.yul\":21092:21097   */\n      dup2\n        /* \"#utility.yul\":21085:21097   */\n      swap1\n      pop\n        /* \"#utility.yul\":21043:21103   */\n      swap2\n      swap1\n      pop\n      jump\t// out\n        /* \"#utility.yul\":21109:21251   */\n    tag_181:\n        /* \"#utility.yul\":21159:21168   */\n      0x00\n        /* \"#utility.yul\":21192:21245   */\n      tag_372\n        /* \"#utility.yul\":21210:21244   */\n      tag_373\n        /* \"#utility.yul\":21219:21243   */\n      tag_374\n        /* \"#utility.yul\":21237:21242   */\n      dup5\n        /* \"#utility.yul\":21219:21243   */\n      tag_138\n      jump\t// in\n    tag_374:\n        /* \"#utility.yul\":21210:21244   */\n      tag_180\n      jump\t// in\n    tag_373:\n        /* \"#utility.yul\":21192:21245   */\n      tag_138\n      jump\t// in\n    tag_372:\n        /* \"#utility.yul\":21179:21245   */\n      swap1\n      pop\n        /* \"#utility.yul\":21109:21251   */\n      swap2\n      swap1\n      pop\n      jump\t// out\n        /* \"#utility.yul\":21257:21332   */\n    tag_182:\n        /* \"#utility.yul\":21300:21303   */\n      0x00\n        /* \"#utility.yul\":21321:21326   */\n      dup2\n        /* \"#utility.yul\":21314:21326   */\n      swap1\n      pop\n        /* \"#utility.yul\":21257:21332   */\n      swap2\n      swap1\n      pop\n      jump\t// out\n        /* \"#utility.yul\":21338:21607   */\n    tag_183:\n        /* \"#utility.yul\":21448:21487   */\n      tag_377\n        /* \"#utility.yul\":21479:21486   */\n      dup4\n        /* \"#utility.yul\":21448:21487   */\n      tag_181\n      jump\t// in\n    tag_377:\n        /* \"#utility.yul\":21509:21600   */\n      tag_378\n        /* \"#utility.yul\":21558:21599   */\n      tag_379\n        /* \"#utility.yul\":21582:21598   */\n      dup3\n        /* \"#utility.yul\":21558:21599   */\n      tag_182\n      jump\t// in\n    tag_379:\n        /* \"#utility.yul\":21550:21556   */\n      dup5\n        /* \"#utility.yul\":21543:21547   */\n      dup5\n        /* \"#utility.yul\":21537:21548   */\n      sload\n        /* \"#utility.yul\":21509:21600   */\n      tag_179\n      jump\t// in\n    tag_378:\n        /* \"#utility.yul\":21503:21507   */\n      dup3\n        /* \"#utility.yul\":21496:21601   */\n      sstore\n        /* \"#utility.yul\":21414:21607   */\n      pop\n        /* \"#utility.yul\":21338:21607   */\n      pop\n      pop\n      pop\n      jump\t// out\n        /* \"#utility.yul\":21613:21686   */\n    tag_184:\n        /* \"#utility.yul\":21658:21661   */\n      0x00\n        /* \"#utility.yul\":21613:21686   */\n      swap1\n      jump\t// out\n        /* \"#utility.yul\":21692:21881   */\n    tag_185:\n        /* \"#utility.yul\":21769:21801   */\n      tag_382\n      tag_184\n      jump\t// in\n    tag_382:\n        /* \"#utility.yul\":21810:21875   */\n      tag_383\n        /* \"#utility.yul\":21868:21874   */\n      dup2\n        /* \"#utility.yul\":21860:21866   */\n      dup5\n        /* \"#utility.yul\":21854:21858   */\n      dup5\n        /* \"#utility.yul\":21810:21875   */\n      tag_183\n      jump\t// in\n    tag_383:\n        /* \"#utility.yul\":21745:21881   */\n      pop\n        /* \"#utility.yul\":21692:21881   */\n      pop\n      pop\n      jump\t// out\n        /* \"#utility.yul\":21887:22073   */\n    tag_186:\n        /* \"#utility.yul\":21947:22067   */\n    tag_385:\n        /* \"#utility.yul\":21964:21967   */\n      dup2\n        /* \"#utility.yul\":21957:21962   */\n      dup2\n        /* \"#utility.yul\":21954:21968   */\n      lt\n        /* \"#utility.yul\":21947:22067   */\n      iszero\n      tag_387\n      jumpi\n        /* \"#utility.yul\":22018:22057   */\n      tag_388\n        /* \"#utility.yul\":22055:22056   */\n      0x00\n        /* \"#utility.yul\":22048:22053   */\n      dup3\n        /* \"#utility.yul\":22018:22057   */\n      tag_185\n      jump\t// in\n    tag_388:\n        /* \"#utility.yul\":21991:21992   */\n      0x01\n        /* \"#utility.yul\":21984:21989   */\n      dup2\n        /* \"#utility.yul\":21980:21993   */\n      add\n        /* \"#utility.yul\":21971:21993   */\n      swap1\n      pop\n        /* \"#utility.yul\":21947:22067   */\n      jump(tag_385)\n    tag_387:\n        /* \"#utility.yul\":21887:22073   */\n      pop\n      pop\n      jump\t// out\n        /* \"#utility.yul\":22079:22622   */\n    tag_187:\n        /* \"#utility.yul\":22180:22182   */\n      0x1f\n        /* \"#utility.yul\":22175:22178   */\n      dup3\n        /* \"#utility.yul\":22172:22183   */\n      gt\n        /* \"#utility.yul\":22169:22615   */\n      iszero\n      tag_390\n      jumpi\n        /* \"#utility.yul\":22214:22252   */\n      tag_391\n        /* \"#utility.yul\":22246:22251   */\n      dup2\n        /* \"#utility.yul\":22214:22252   */\n      tag_176\n      jump\t// in\n    tag_391:\n        /* \"#utility.yul\":22298:22327   */\n      tag_392\n        /* \"#utility.yul\":22316:22326   */\n      dup5\n        /* \"#utility.yul\":22298:22327   */\n      tag_177\n      jump\t// in\n    tag_392:\n        /* \"#utility.yul\":22288:22296   */\n      dup2\n        /* \"#utility.yul\":22284:22328   */\n      add\n        /* \"#utility.yul\":22481:22483   */\n      0x20\n        /* \"#utility.yul\":22469:22479   */\n      dup6\n        /* \"#utility.yul\":22466:22484   */\n      lt\n        /* \"#utility.yul\":22463:22512   */\n      iszero\n      tag_393\n      jumpi\n        /* \"#utility.yul\":22502:22510   */\n      dup2\n        /* \"#utility.yul\":22487:22510   */\n      swap1\n      pop\n        /* \"#utility.yul\":22463:22512   */\n    tag_393:\n        /* \"#utility.yul\":22525:22605   */\n      tag_394\n        /* \"#utility.yul\":22581:22603   */\n      tag_395\n        /* \"#utility.yul\":22599:22602   */\n      dup6\n        /* \"#utility.yul\":22581:22603   */\n      tag_177\n      jump\t// in\n    tag_395:\n        /* \"#utility.yul\":22571:22579   */\n      dup4\n        /* \"#utility.yul\":22567:22604   */\n      add\n        /* \"#utility.yul\":22554:22565   */\n      dup3\n        /* \"#utility.yul\":22525:22605   */\n      tag_186\n      jump\t// in\n    tag_394:\n        /* \"#utility.yul\":22184:22615   */\n      pop\n      pop\n        /* \"#utility.yul\":22169:22615   */\n    tag_390:\n        /* \"#utility.yul\":22079:22622   */\n      pop\n      pop\n      pop\n      jump\t// out\n        /* \"#utility.yul\":22628:22745   */\n    tag_188:\n        /* \"#utility.yul\":22682:22690   */\n      0x00\n        /* \"#utility.yul\":22732:22737   */\n      dup3\n        /* \"#utility.yul\":22726:22730   */\n      dup3\n        /* \"#utility.yul\":22722:22738   */\n      shr\n        /* \"#utility.yul\":22701:22738   */\n      swap1\n      pop\n        /* \"#utility.yul\":22628:22745   */\n      swap3\n      swap2\n      pop\n      pop\n      jump\t// out\n        /* \"#utility.yul\":22751:22920   */\n    tag_189:\n        /* \"#utility.yul\":22795:22801   */\n      0x00\n        /* \"#utility.yul\":22828:22879   */\n      tag_398\n        /* \"#utility.yul\":22876:22877   */\n      0x00\n        /* \"#utility.yul\":22872:22878   */\n      not\n        /* \"#utility.yul\":22864:22869   */\n      dup5\n        /* \"#utility.yul\":22861:22862   */\n      0x08\n        /* \"#utility.yul\":22857:22870   */\n      mul\n        /* \"#utility.yul\":22828:22879   */\n      tag_188\n      jump\t// in\n    tag_398:\n        /* \"#utility.yul\":22824:22880   */\n      not\n        /* \"#utility.yul\":22909:22913   */\n      dup1\n        /* \"#utility.yul\":22903:22907   */\n      dup4\n        /* \"#utility.yul\":22899:22914   */\n      and\n        /* \"#utility.yul\":22889:22914   */\n      swap2\n      pop\n        /* \"#utility.yul\":22802:22920   */\n      pop\n        /* \"#utility.yul\":22751:22920   */\n      swap3\n      swap2\n      pop\n      pop\n      jump\t// out\n        /* \"#utility.yul\":22925:23220   */\n    tag_190:\n        /* \"#utility.yul\":23001:23005   */\n      0x00\n        /* \"#utility.yul\":23147:23176   */\n      tag_400\n        /* \"#utility.yul\":23172:23175   */\n      dup4\n        /* \"#utility.yul\":23166:23170   */\n      dup4\n        /* \"#utility.yul\":23147:23176   */\n      tag_189\n      jump\t// in\n    tag_400:\n        /* \"#utility.yul\":23139:23176   */\n      swap2\n      pop\n        /* \"#utility.yul\":23209:23212   */\n      dup3\n        /* \"#utility.yul\":23206:23207   */\n      0x02\n        /* \"#utility.yul\":23202:23213   */\n      mul\n        /* \"#utility.yul\":23196:23200   */\n      dup3\n        /* \"#utility.yul\":23193:23214   */\n      or\n        /* \"#utility.yul\":23185:23214   */\n      swap1\n      pop\n        /* \"#utility.yul\":22925:23220   */\n      swap3\n      swap2\n      pop\n      pop\n      jump\t// out\n        /* \"#utility.yul\":23225:24620   */\n    tag_35:\n        /* \"#utility.yul\":23342:23379   */\n      tag_402\n        /* \"#utility.yul\":23375:23378   */\n      dup3\n        /* \"#utility.yul\":23342:23379   */\n      tag_144\n      jump\t// in\n    tag_402:\n        /* \"#utility.yul\":23444:23462   */\n      0xffffffffffffffff\n        /* \"#utility.yul\":23436:23442   */\n      dup2\n        /* \"#utility.yul\":23433:23463   */\n      gt\n        /* \"#utility.yul\":23430:23486   */\n      iszero\n      tag_403\n      jumpi\n        /* \"#utility.yul\":23466:23484   */\n      tag_404\n      tag_131\n      jump\t// in\n    tag_404:\n        /* \"#utility.yul\":23430:23486   */\n    tag_403:\n        /* \"#utility.yul\":23510:23548   */\n      tag_405\n        /* \"#utility.yul\":23542:23546   */\n      dup3\n        /* \"#utility.yul\":23536:23547   */\n      sload\n        /* \"#utility.yul\":23510:23548   */\n      tag_60\n      jump\t// in\n    tag_405:\n        /* \"#utility.yul\":23595:23662   */\n      tag_406\n        /* \"#utility.yul\":23655:23661   */\n      dup3\n        /* \"#utility.yul\":23647:23653   */\n      dup3\n        /* \"#utility.yul\":23641:23645   */\n      dup6\n        /* \"#utility.yul\":23595:23662   */\n      tag_187\n      jump\t// in\n    tag_406:\n        /* \"#utility.yul\":23689:23690   */\n      0x00\n        /* \"#utility.yul\":23713:23717   */\n      0x20\n        /* \"#utility.yul\":23700:23717   */\n      swap1\n      pop\n        /* \"#utility.yul\":23745:23747   */\n      0x1f\n        /* \"#utility.yul\":23737:23743   */\n      dup4\n        /* \"#utility.yul\":23734:23748   */\n      gt\n        /* \"#utility.yul\":23762:23763   */\n      0x01\n        /* \"#utility.yul\":23757:24375   */\n      dup2\n      eq\n      tag_408\n      jumpi\n        /* \"#utility.yul\":24419:24420   */\n      0x00\n        /* \"#utility.yul\":24436:24442   */\n      dup5\n        /* \"#utility.yul\":24433:24510   */\n      iszero\n      tag_409\n      jumpi\n        /* \"#utility.yul\":24485:24494   */\n      dup3\n        /* \"#utility.yul\":24480:24483   */\n      dup8\n        /* \"#utility.yul\":24476:24495   */\n      add\n        /* \"#utility.yul\":24470:24496   */\n      mload\n        /* \"#utility.yul\":24461:24496   */\n      swap1\n      pop\n        /* \"#utility.yul\":24433:24510   */\n    tag_409:\n        /* \"#utility.yul\":24536:24603   */\n      tag_410\n        /* \"#utility.yul\":24596:24602   */\n      dup6\n        /* \"#utility.yul\":24589:24594   */\n      dup3\n        /* \"#utility.yul\":24536:24603   */\n      tag_190\n      jump\t// in\n    tag_410:\n        /* \"#utility.yul\":24530:24534   */\n      dup7\n        /* \"#utility.yul\":24523:24604   */\n      sstore\n        /* \"#utility.yul\":24392:24614   */\n      pop\n        /* \"#utility.yul\":23727:24614   */\n      jump(tag_407)\n        /* \"#utility.yul\":23757:24375   */\n    tag_408:\n        /* \"#utility.yul\":23809:23813   */\n      0x1f\n        /* \"#utility.yul\":23805:23814   */\n      not\n        /* \"#utility.yul\":23797:23803   */\n      dup5\n        /* \"#utility.yul\":23793:23815   */\n      and\n        /* \"#utility.yul\":23843:23880   */\n      tag_411\n        /* \"#utility.yul\":23875:23879   */\n      dup7\n        /* \"#utility.yul\":23843:23880   */\n      tag_176\n      jump\t// in\n    tag_411:\n        /* \"#utility.yul\":23902:23903   */\n      0x00\n        /* \"#utility.yul\":23916:24124   */\n    tag_412:\n        /* \"#utility.yul\":23930:23937   */\n      dup3\n        /* \"#utility.yul\":23927:23928   */\n      dup2\n        /* \"#utility.yul\":23924:23938   */\n      lt\n        /* \"#utility.yul\":23916:24124   */\n      iszero\n      tag_414\n      jumpi\n        /* \"#utility.yul\":24009:24018   */\n      dup5\n        /* \"#utility.yul\":24004:24007   */\n      dup10\n        /* \"#utility.yul\":24000:24019   */\n      add\n        /* \"#utility.yul\":23994:24020   */\n      mload\n        /* \"#utility.yul\":23986:23992   */\n      dup3\n        /* \"#utility.yul\":23979:24021   */\n      sstore\n        /* \"#utility.yul\":24060:24061   */\n      0x01\n        /* \"#utility.yul\":24052:24058   */\n      dup3\n        /* \"#utility.yul\":24048:24062   */\n      add\n        /* \"#utility.yul\":24038:24062   */\n      swap2\n      pop\n        /* \"#utility.yul\":24107:24109   */\n      0x20\n        /* \"#utility.yul\":24096:24105   */\n      dup6\n        /* \"#utility.yul\":24092:24110   */\n      add\n        /* \"#utility.yul\":24079:24110   */\n      swap5\n      pop\n        /* \"#utility.yul\":23953:23957   */\n      0x20\n        /* \"#utility.yul\":23950:23951   */\n      dup2\n        /* \"#utility.yul\":23946:23958   */\n      add\n        /* \"#utility.yul\":23941:23958   */\n      swap1\n      pop\n        /* \"#utility.yul\":23916:24124   */\n      jump(tag_412)\n    tag_414:\n        /* \"#utility.yul\":24152:24158   */\n      dup7\n        /* \"#utility.yul\":24143:24150   */\n      dup4\n        /* \"#utility.yul\":24140:24159   */\n      lt\n        /* \"#utility.yul\":24137:24316   */\n      iszero\n      tag_415\n      jumpi\n        /* \"#utility.yul\":24210:24219   */\n      dup5\n        /* \"#utility.yul\":24205:24208   */\n      dup10\n        /* \"#utility.yul\":24201:24220   */\n      add\n        /* \"#utility.yul\":24195:24221   */\n      mload\n        /* \"#utility.yul\":24253:24301   */\n      tag_416\n        /* \"#utility.yul\":24295:24299   */\n      0x1f\n        /* \"#utility.yul\":24287:24293   */\n      dup10\n        /* \"#utility.yul\":24283:24300   */\n      and\n        /* \"#utility.yul\":24272:24281   */\n      dup3\n        /* \"#utility.yul\":24253:24301   */\n      tag_189\n      jump\t// in\n    tag_416:\n        /* \"#utility.yul\":24245:24251   */\n      dup4\n        /* \"#utility.yul\":24238:24302   */\n      sstore\n        /* \"#utility.yul\":24160:24316   */\n      pop\n        /* \"#utility.yul\":24137:24316   */\n    tag_415:\n        /* \"#utility.yul\":24362:24363   */\n      0x01\n        /* \"#utility.yul\":24358:24359   */\n      0x02\n        /* \"#utility.yul\":24350:24356   */\n      dup9\n        /* \"#utility.yul\":24346:24360   */\n      mul\n        /* \"#utility.yul\":24342:24364   */\n      add\n        /* \"#utility.yul\":24336:24340   */\n      dup9\n        /* \"#utility.yul\":24329:24365   */\n      sstore\n        /* \"#utility.yul\":23764:24375   */\n      pop\n      pop\n      pop\n        /* \"#utility.yul\":23727:24614   */\n    tag_407:\n      pop\n        /* \"#utility.yul\":23317:24620   */\n      pop\n      pop\n      pop\n        /* \"#utility.yul\":23225:24620   */\n      pop\n      pop\n      jump\t// out\n        /* \"#utility.yul\":24626:24805   */\n    tag_191:\n        /* \"#utility.yul\":24766:24797   */\n      0x6e657750617469656e74206164646564207375636365737366756c6c79000000\n        /* \"#utility.yul\":24762:24763   */\n      0x00\n        /* \"#utility.yul\":24754:24760   */\n      dup3\n        /* \"#utility.yul\":24750:24764   */\n      add\n        /* \"#utility.yul\":24743:24798   */\n      mstore\n        /* \"#utility.yul\":24626:24805   */\n      pop\n      jump\t// out\n        /* \"#utility.yul\":24811:25177   */\n    tag_192:\n        /* \"#utility.yul\":24953:24956   */\n      0x00\n        /* \"#utility.yul\":24974:25041   */\n      tag_419\n        /* \"#utility.yul\":25038:25040   */\n      0x1d\n        /* \"#utility.yul\":25033:25036   */\n      dup4\n        /* \"#utility.yul\":24974:25041   */\n      tag_172\n      jump\t// in\n    tag_419:\n        /* \"#utility.yul\":24967:25041   */\n      swap2\n      pop\n        /* \"#utility.yul\":25050:25143   */\n      tag_420\n        /* \"#utility.yul\":25139:25142   */\n      dup3\n        /* \"#utility.yul\":25050:25143   */\n      tag_191\n      jump\t// in\n    tag_420:\n        /* \"#utility.yul\":25168:25170   */\n      0x20\n        /* \"#utility.yul\":25163:25166   */\n      dup3\n        /* \"#utility.yul\":25159:25171   */\n      add\n        /* \"#utility.yul\":25152:25171   */\n      swap1\n      pop\n        /* \"#utility.yul\":24811:25177   */\n      swap2\n      swap1\n      pop\n      jump\t// out\n        /* \"#utility.yul\":25183:25602   */\n    tag_54:\n        /* \"#utility.yul\":25349:25353   */\n      0x00\n        /* \"#utility.yul\":25387:25389   */\n      0x20\n        /* \"#utility.yul\":25376:25385   */\n      dup3\n        /* \"#utility.yul\":25372:25390   */\n      add\n        /* \"#utility.yul\":25364:25390   */\n      swap1\n      pop\n        /* \"#utility.yul\":25436:25445   */\n      dup2\n        /* \"#utility.yul\":25430:25434   */\n      dup2\n        /* \"#utility.yul\":25426:25446   */\n      sub\n        /* \"#utility.yul\":25422:25423   */\n      0x00\n        /* \"#utility.yul\":25411:25420   */\n      dup4\n        /* \"#utility.yul\":25407:25424   */\n      add\n        /* \"#utility.yul\":25400:25447   */\n      mstore\n        /* \"#utility.yul\":25464:25595   */\n      tag_422\n        /* \"#utility.yul\":25590:25594   */\n      dup2\n        /* \"#utility.yul\":25464:25595   */\n      tag_192\n      jump\t// in\n    tag_422:\n        /* \"#utility.yul\":25456:25595   */\n      swap1\n      pop\n        /* \"#utility.yul\":25183:25602   */\n      swap2\n      swap1\n      pop\n      jump\t// out\n        /* \"#utility.yul\":25608:25788   */\n    tag_193:\n        /* \"#utility.yul\":25748:25780   */\n      0x6f6e6c79206f6e65722063616e20757064617465207468697320646174610000\n        /* \"#utility.yul\":25744:25745   */\n      0x00\n        /* \"#utility.yul\":25736:25742   */\n      dup3\n        /* \"#utility.yul\":25732:25746   */\n      add\n        /* \"#utility.yul\":25725:25781   */\n      mstore\n        /* \"#utility.yul\":25608:25788   */\n      pop\n      jump\t// out\n        /* \"#utility.yul\":25794:26160   */\n    tag_194:\n        /* \"#utility.yul\":25936:25939   */\n      0x00\n        /* \"#utility.yul\":25957:26024   */\n      tag_425\n        /* \"#utility.yul\":26021:26023   */\n      0x1e\n        /* \"#utility.yul\":26016:26019   */\n      dup4\n        /* \"#utility.yul\":25957:26024   */\n      tag_172\n      jump\t// in\n    tag_425:\n        /* \"#utility.yul\":25950:26024   */\n      swap2\n      pop\n        /* \"#utility.yul\":26033:26126   */\n      tag_426\n        /* \"#utility.yul\":26122:26125   */\n      dup3\n        /* \"#utility.yul\":26033:26126   */\n      tag_193\n      jump\t// in\n    tag_426:\n        /* \"#utility.yul\":26151:26153   */\n      0x20\n        /* \"#utility.yul\":26146:26149   */\n      dup3\n        /* \"#utility.yul\":26142:26154   */\n      add\n        /* \"#utility.yul\":26135:26154   */\n      swap1\n      pop\n        /* \"#utility.yul\":25794:26160   */\n      swap2\n      swap1\n      pop\n      jump\t// out\n        /* \"#utility.yul\":26166:26585   */\n    tag_86:\n        /* \"#utility.yul\":26332:26336   */\n      0x00\n        /* \"#utility.yul\":26370:26372   */\n      0x20\n        /* \"#utility.yul\":26359:26368   */\n      dup3\n        /* \"#utility.yul\":26355:26373   */\n      add\n        /* \"#utility.yul\":26347:26373   */\n      swap1\n      pop\n        /* \"#utility.yul\":26419:26428   */\n      dup2\n        /* \"#utility.yul\":26413:26417   */\n      dup2\n        /* \"#utility.yul\":26409:26429   */\n      sub\n        /* \"#utility.yul\":26405:26406   */\n      0x00\n        /* \"#utility.yul\":26394:26403   */\n      dup4\n        /* \"#utility.yul\":26390:26407   */\n      add\n        /* \"#utility.yul\":26383:26430   */\n      mstore\n        /* \"#utility.yul\":26447:26578   */\n      tag_428\n        /* \"#utility.yul\":26573:26577   */\n      dup2\n        /* \"#utility.yul\":26447:26578   */\n      tag_194\n      jump\t// in\n    tag_428:\n        /* \"#utility.yul\":26439:26578   */\n      swap1\n      pop\n        /* \"#utility.yul\":26166:26585   */\n      swap2\n      swap1\n      pop\n      jump\t// out\n        /* \"#utility.yul\":26591:26813   */\n    tag_195:\n        /* \"#utility.yul\":26731:26765   */\n      0x6e65772070617469656e74207570646174652064617461207375636365736675\n        /* \"#utility.yul\":26727:26728   */\n      0x00\n        /* \"#utility.yul\":26719:26725   */\n      dup3\n        /* \"#utility.yul\":26715:26729   */\n      add\n        /* \"#utility.yul\":26708:26766   */\n      mstore\n        /* \"#utility.yul\":26800:26805   */\n      0x6c6c790000000000000000000000000000000000000000000000000000000000\n        /* \"#utility.yul\":26795:26797   */\n      0x20\n        /* \"#utility.yul\":26787:26793   */\n      dup3\n        /* \"#utility.yul\":26783:26798   */\n      add\n        /* \"#utility.yul\":26776:26806   */\n      mstore\n        /* \"#utility.yul\":26591:26813   */\n      pop\n      jump\t// out\n        /* \"#utility.yul\":26819:27185   */\n    tag_196:\n        /* \"#utility.yul\":26961:26964   */\n      0x00\n        /* \"#utility.yul\":26982:27049   */\n      tag_431\n        /* \"#utility.yul\":27046:27048   */\n      0x23\n        /* \"#utility.yul\":27041:27044   */\n      dup4\n        /* \"#utility.yul\":26982:27049   */\n      tag_172\n      jump\t// in\n    tag_431:\n        /* \"#utility.yul\":26975:27049   */\n      swap2\n      pop\n        /* \"#utility.yul\":27058:27151   */\n      tag_432\n        /* \"#utility.yul\":27147:27150   */\n      dup3\n        /* \"#utility.yul\":27058:27151   */\n      tag_195\n      jump\t// in\n    tag_432:\n        /* \"#utility.yul\":27176:27178   */\n      0x40\n        /* \"#utility.yul\":27171:27174   */\n      dup3\n        /* \"#utility.yul\":27167:27179   */\n      add\n        /* \"#utility.yul\":27160:27179   */\n      swap1\n      pop\n        /* \"#utility.yul\":26819:27185   */\n      swap2\n      swap1\n      pop\n      jump\t// out\n        /* \"#utility.yul\":27191:27610   */\n    tag_96:\n        /* \"#utility.yul\":27357:27361   */\n      0x00\n        /* \"#utility.yul\":27395:27397   */\n      0x20\n        /* \"#utility.yul\":27384:27393   */\n      dup3\n        /* \"#utility.yul\":27380:27398   */\n      add\n        /* \"#utility.yul\":27372:27398   */\n      swap1\n      pop\n        /* \"#utility.yul\":27444:27453   */\n      dup2\n        /* \"#utility.yul\":27438:27442   */\n      dup2\n        /* \"#utility.yul\":27434:27454   */\n      sub\n        /* \"#utility.yul\":27430:27431   */\n      0x00\n        /* \"#utility.yul\":27419:27428   */\n      dup4\n        /* \"#utility.yul\":27415:27432   */\n      add\n        /* \"#utility.yul\":27408:27455   */\n      mstore\n        /* \"#utility.yul\":27472:27603   */\n      tag_434\n        /* \"#utility.yul\":27598:27602   */\n      dup2\n        /* \"#utility.yul\":27472:27603   */\n      tag_196\n      jump\t// in\n    tag_434:\n        /* \"#utility.yul\":27464:27603   */\n      swap1\n      pop\n        /* \"#utility.yul\":27191:27610   */\n      swap2\n      swap1\n      pop\n      jump\t// out\n\n    auxdata: 0xa2646970667358221220b34ffaf06363f0aa08506230587fab77aa133f26c0a42436bff7d34b63ed7bd164736f6c63430008120033\n}\n",
				"bytecode": {
					"linkReferences": {},
					"object": "608060405234801561001057600080fd5b50336000806101000a81548173ffffffffffffffffffffffffffffffffffffffff021916908373ffffffffffffffffffffffffffffffffffffffff1602179055506119e9806100606000396000f3fe608060405234801561001057600080fd5b506004361061004c5760003560e01c80631a290b7a146100515780634968cf211461006d5780637e3237e31461008b578063b9fff11b146100a7575b600080fd5b61006b60048036038101906100669190610e21565b6100d7565b005b6100756102f9565b60405161008291906112bf565b60405180910390f35b6100a560048036038101906100a09190611332565b61067c565b005b6100c160048036038101906100bc9190611399565b6108db565b6040516100ce9190611477565b60405180910390f35b60008054906101000a900473ffffffffffffffffffffffffffffffffffffffff1673ffffffffffffffffffffffffffffffffffffffff163373ffffffffffffffffffffffffffffffffffffffff1614610165576040517f08c379a000000000000000000000000000000000000000000000000000000000815260040161015c9061151c565b60405180910390fd5b60006001805490509050600180816001815401808255809150500390600052602060002090505086600182815481106101a1576101a061153c565b5b906000526020600020906007020160000190816101be9190611777565b5085600182815481106101d4576101d361153c565b5b90600052602060002090600702016001018190555084600182815481106101fe576101fd61153c565b5b9060005260206000209060070201600201908161021b9190611777565b5083600182815481106102315761023061153c565b5b906000526020600020906007020160030181905550826001828154811061025b5761025a61153c565b5b90600052602060002090600702016004018190555081600182815481106102855761028461153c565b5b906000526020600020906007020160050190816102a29190611777565b508060026000858152602001908152602001600020819055507f3c33ba9853a78dcaeb50be0f15e1be558cc38978243329bbdaee54a8f5ae4fec6040516102e890611895565b60405180910390a150505050505050565b60606001805480602002602001604051908101604052809291908181526020016000905b8282101561067357838290600052602060002090600702016040518060e00160405290816000820180546103509061159a565b80601f016020809104026020016040519081016040528092919081815260200182805461037c9061159a565b80156103c95780601f1061039e576101008083540402835291602001916103c9565b820191906000526020600020905b8154815290600101906020018083116103ac57829003601f168201915b50505050508152602001600182015481526020016002820180546103ec9061159a565b80601f01602080910402602001604051908101604052809291908181526020018280546104189061159a565b80156104655780601f1061043a57610100808354040283529160200191610465565b820191906000526020600020905b81548152906001019060200180831161044857829003601f168201915b5050505050815260200160038201548152602001600482015481526020016005820180546104929061159a565b80601f01602080910402602001604051908101604052809291908181526020018280546104be9061159a565b801561050b5780601f106104e05761010080835404028352916020019161050b565b820191906000526020600020905b8154815290600101906020018083116104ee57829003601f168201915b5050505050815260200160068201805480602002602001604051908101604052809291908181526020016000905b8282101561065c57838290600052602060002090600402016040518060800160405290816000820160009054906101000a900460ff16600181111561058157610580610fe8565b5b600181111561059357610592610fe8565b5b8152602001600182015481526020016002820160009054906101000a900473ffffffffffffffffffffffffffffffffffffffff1673ffffffffffffffffffffffffffffffffffffffff1673ffffffffffffffffffffffffffffffffffffffff1681526020016003820160009054906101000a900473ffffffffffffffffffffffffffffffffffffffff1673ffffffffffffffffffffffffffffffffffffffff1673ffffffffffffffffffffffffffffffffffffffff168152505081526020019060010190610539565b50505050815250508152602001906001019061031d565b50505050905090565b60008054906101000a900473ffffffffffffffffffffffffffffffffffffffff1673ffffffffffffffffffffffffffffffffffffffff163373ffffffffffffffffffffffffffffffffffffffff161461070a576040517f08c379a000000000000000000000000000000000000000000000000000000000815260040161070190611901565b60405180910390fd5b6000600260008681526020019081526020016000205490506000604051806080016040528086600181111561074257610741610fe8565b5b81526020014281526020018573ffffffffffffffffffffffffffffffffffffffff1681526020018473ffffffffffffffffffffffffffffffffffffffff168152509050600182815481106107995761079861153c565b5b906000526020600020906007020160060181908060018154018082558091505060019003906000526020600020906004020160009091909190915060008201518160000160006101000a81548160ff021916908360018111156107ff576107fe610fe8565b5b02179055506020820151816001015560408201518160020160006101000a81548173ffffffffffffffffffffffffffffffffffffffff021916908373ffffffffffffffffffffffffffffffffffffffff16021790555060608201518160030160006101000a81548173ffffffffffffffffffffffffffffffffffffffff021916908373ffffffffffffffffffffffffffffffffffffffff16021790555050507f3c33ba9853a78dcaeb50be0f15e1be558cc38978243329bbdaee54a8f5ae4fec6040516108cb90611993565b60405180910390a1505050505050565b6108e3610c54565b6000600260008481526020019081526020016000205490506001818154811061090f5761090e61153c565b5b90600052602060002090600702016040518060e00160405290816000820180546109389061159a565b80601f01602080910402602001604051908101604052809291908181526020018280546109649061159a565b80156109b15780601f10610986576101008083540402835291602001916109b1565b820191906000526020600020905b81548152906001019060200180831161099457829003601f168201915b50505050508152602001600182015481526020016002820180546109d49061159a565b80601f0160208091040260200160405190810160405280929190818152602001828054610a009061159a565b8015610a4d5780601f10610a2257610100808354040283529160200191610a4d565b820191906000526020600020905b815481529060010190602001808311610a3057829003601f168201915b505050505081526020016003820154815260200160048201548152602001600582018054610a7a9061159a565b80601f0160208091040260200160405190810160405280929190818152602001828054610aa69061159a565b8015610af35780601f10610ac857610100808354040283529160200191610af3565b820191906000526020600020905b815481529060010190602001808311610ad657829003601f168201915b5050505050815260200160068201805480602002602001604051908101604052809291908181526020016000905b82821015610c4457838290600052602060002090600402016040518060800160405290816000820160009054906101000a900460ff166001811115610b6957610b68610fe8565b5b6001811115610b7b57610b7a610fe8565b5b8152602001600182015481526020016002820160009054906101000a900473ffffffffffffffffffffffffffffffffffffffff1673ffffffffffffffffffffffffffffffffffffffff1673ffffffffffffffffffffffffffffffffffffffff1681526020016003820160009054906101000a900473ffffffffffffffffffffffffffffffffffffffff1673ffffffffffffffffffffffffffffffffffffffff1673ffffffffffffffffffffffffffffffffffffffff168152505081526020019060010190610b21565b5050505081525050915050919050565b6040518060e00160405280606081526020016000815260200160608152602001600081526020016000815260200160608152602001606081525090565b6000604051905090565b600080fd5b600080fd5b600080fd5b600080fd5b6000601f19601f8301169050919050565b7f4e487b7100000000000000000000000000000000000000000000000000000000600052604160045260246000fd5b610cf882610caf565b810181811067ffffffffffffffff82111715610d1757610d16610cc0565b5b80604052505050565b6000610d2a610c91565b9050610d368282610cef565b919050565b600067ffffffffffffffff821115610d5657610d55610cc0565b5b610d5f82610caf565b9050602081019050919050565b82818337600083830152505050565b6000610d8e610d8984610d3b565b610d20565b905082815260208101848484011115610daa57610da9610caa565b5b610db5848285610d6c565b509392505050565b600082601f830112610dd257610dd1610ca5565b5b8135610de2848260208601610d7b565b91505092915050565b6000819050919050565b610dfe81610deb565b8114610e0957600080fd5b50565b600081359050610e1b81610df5565b92915050565b60008060008060008060c08789031215610e3e57610e3d610c9b565b5b600087013567ffffffffffffffff811115610e5c57610e5b610ca0565b5b610e6889828a01610dbd565b9650506020610e7989828a01610e0c565b955050604087013567ffffffffffffffff811115610e9a57610e99610ca0565b5b610ea689828a01610dbd565b9450506060610eb789828a01610e0c565b9350506080610ec889828a01610e0c565b92505060a087013567ffffffffffffffff811115610ee957610ee8610ca0565b5b610ef589828a01610dbd565b9150509295509295509295565b600081519050919050565b600082825260208201905092915050565b6000819050602082019050919050565b600081519050919050565b600082825260208201905092915050565b60005b83811015610f68578082015181840152602081019050610f4d565b60008484015250505050565b6000610f7f82610f2e565b610f898185610f39565b9350610f99818560208601610f4a565b610fa281610caf565b840191505092915050565b610fb681610deb565b82525050565b600081519050919050565b600082825260208201905092915050565b6000819050602082019050919050565b7f4e487b7100000000000000000000000000000000000000000000000000000000600052602160045260246000fd5b6002811061102857611027610fe8565b5b50565b600081905061103982611017565b919050565b60006110498261102b565b9050919050565b6110598161103e565b82525050565b600073ffffffffffffffffffffffffffffffffffffffff82169050919050565b600061108a8261105f565b9050919050565b61109a8161107f565b82525050565b6080820160008201516110b66000850182611050565b5060208201516110c96020850182610fad565b5060408201516110dc6040850182611091565b5060608201516110ef6060850182611091565b50505050565b600061110183836110a0565b60808301905092915050565b6000602082019050919050565b600061112582610fbc565b61112f8185610fc7565b935061113a83610fd8565b8060005b8381101561116b57815161115288826110f5565b975061115d8361110d565b92505060018101905061113e565b5085935050505092915050565b600060e08301600083015184820360008601526111958282610f74565b91505060208301516111aa6020860182610fad565b50604083015184820360408601526111c28282610f74565b91505060608301516111d76060860182610fad565b5060808301516111ea6080860182610fad565b5060a083015184820360a08601526112028282610f74565b91505060c083015184820360c086015261121c828261111a565b9150508091505092915050565b60006112358383611178565b905092915050565b6000602082019050919050565b600061125582610f02565b61125f8185610f0d565b93508360208202850161127185610f1e565b8060005b858110156112ad578484038952815161128e8582611229565b94506112998361123d565b925060208a01995050600181019050611275565b50829750879550505050505092915050565b600060208201905081810360008301526112d9818461124a565b905092915050565b600281106112ee57600080fd5b50565b600081359050611300816112e1565b92915050565b61130f8161107f565b811461131a57600080fd5b50565b60008135905061132c81611306565b92915050565b6000806000806080858703121561134c5761134b610c9b565b5b600061135a87828801610e0c565b945050602061136b878288016112f1565b935050604061137c8782880161131d565b925050606061138d8782880161131d565b91505092959194509250565b6000602082840312156113af576113ae610c9b565b5b60006113bd84828501610e0c565b91505092915050565b600060e08301600083015184820360008601526113e38282610f74565b91505060208301516113f86020860182610fad565b50604083015184820360408601526114108282610f74565b91505060608301516114256060860182610fad565b5060808301516114386080860182610fad565b5060a083015184820360a08601526114508282610f74565b91505060c083015184820360c086015261146a828261111a565b9150508091505092915050565b6000602082019050818103600083015261149181846113c6565b905092915050565b600082825260208201905092915050565b7f6f6e6c79206f776e6565722063616e207265676973746572206e65772070617460008201527f69656e7400000000000000000000000000000000000000000000000000000000602082015250565b6000611506602483611499565b9150611511826114aa565b604082019050919050565b60006020820190508181036000830152611535816114f9565b9050919050565b7f4e487b7100000000000000000000000000000000000000000000000000000000600052603260045260246000fd5b7f4e487b7100000000000000000000000000000000000000000000000000000000600052602260045260246000fd5b600060028204905060018216806115b257607f821691505b6020821081036115c5576115c461156b565b5b50919050565b60008190508160005260206000209050919050565b60006020601f8301049050919050565b600082821b905092915050565b60006008830261162d7fffffffffffffffffffffffffffffffffffffffffffffffffffffffffffffffff826115f0565b61163786836115f0565b95508019841693508086168417925050509392505050565b6000819050919050565b600061167461166f61166a84610deb565b61164f565b610deb565b9050919050565b6000819050919050565b61168e83611659565b6116a261169a8261167b565b8484546115fd565b825550505050565b600090565b6116b76116aa565b6116c2818484611685565b505050565b5b818110156116e6576116db6000826116af565b6001810190506116c8565b5050565b601f82111561172b576116fc816115cb565b611705846115e0565b81016020851015611714578190505b611728611720856115e0565b8301826116c7565b50505b505050565b600082821c905092915050565b600061174e60001984600802611730565b1980831691505092915050565b6000611767838361173d565b9150826002028217905092915050565b61178082610f2e565b67ffffffffffffffff81111561179957611798610cc0565b5b6117a3825461159a565b6117ae8282856116ea565b600060209050601f8311600181146117e157600084156117cf578287015190505b6117d9858261175b565b865550611841565b601f1984166117ef866115cb565b60005b82811015611817578489015182556001820191506020850194506020810190506117f2565b868310156118345784890151611830601f89168261173d565b8355505b6001600288020188555050505b505050505050565b7f6e657750617469656e74206164646564207375636365737366756c6c79000000600082015250565b600061187f601d83611499565b915061188a82611849565b602082019050919050565b600060208201905081810360008301526118ae81611872565b9050919050565b7f6f6e6c79206f6e65722063616e20757064617465207468697320646174610000600082015250565b60006118eb601e83611499565b91506118f6826118b5565b602082019050919050565b6000602082019050818103600083015261191a816118de565b9050919050565b7f6e65772070617469656e7420757064617465206461746120737563636573667560008201527f6c6c790000000000000000000000000000000000000000000000000000000000602082015250565b600061197d602383611499565b915061198882611921565b604082019050919050565b600060208201905081810360008301526119ac81611970565b905091905056fea2646970667358221220b34ffaf06363f0aa08506230587fab77aa133f26c0a42436bff7d34b63ed7bd164736f6c63430008120033",
					"opcodes": "PUSH1 0x80 PUSH1 0x40 MSTORE CALLVALUE DUP1 ISZERO PUSH2 0x10 JUMPI PUSH1 0x0 DUP1 REVERT JUMPDEST POP CALLER PUSH1 0x0 DUP1 PUSH2 0x100 EXP DUP2 SLOAD DUP2 PUSH20 0xFFFFFFFFFFFFFFFFFFFFFFFFFFFFFFFFFFFFFFFF MUL NOT AND SWAP1 DUP4 PUSH20 0xFFFFFFFFFFFFFFFFFFFFFFFFFFFFFFFFFFFFFFFF AND MUL OR SWAP1 SSTORE POP PUSH2 0x19E9 DUP1 PUSH2 0x60 PUSH1 0x0 CODECOPY PUSH1 0x0 RETURN INVALID PUSH1 0x80 PUSH1 0x40 MSTORE CALLVALUE DUP1 ISZERO PUSH2 0x10 JUMPI PUSH1 0x0 DUP1 REVERT JUMPDEST POP PUSH1 0x4 CALLDATASIZE LT PUSH2 0x4C JUMPI PUSH1 0x0 CALLDATALOAD PUSH1 0xE0 SHR DUP1 PUSH4 0x1A290B7A EQ PUSH2 0x51 JUMPI DUP1 PUSH4 0x4968CF21 EQ PUSH2 0x6D JUMPI DUP1 PUSH4 0x7E3237E3 EQ PUSH2 0x8B JUMPI DUP1 PUSH4 0xB9FFF11B EQ PUSH2 0xA7 JUMPI JUMPDEST PUSH1 0x0 DUP1 REVERT JUMPDEST PUSH2 0x6B PUSH1 0x4 DUP1 CALLDATASIZE SUB DUP2 ADD SWAP1 PUSH2 0x66 SWAP2 SWAP1 PUSH2 0xE21 JUMP JUMPDEST PUSH2 0xD7 JUMP JUMPDEST STOP JUMPDEST PUSH2 0x75 PUSH2 0x2F9 JUMP JUMPDEST PUSH1 0x40 MLOAD PUSH2 0x82 SWAP2 SWAP1 PUSH2 0x12BF JUMP JUMPDEST PUSH1 0x40 MLOAD DUP1 SWAP2 SUB SWAP1 RETURN JUMPDEST PUSH2 0xA5 PUSH1 0x4 DUP1 CALLDATASIZE SUB DUP2 ADD SWAP1 PUSH2 0xA0 SWAP2 SWAP1 PUSH2 0x1332 JUMP JUMPDEST PUSH2 0x67C JUMP JUMPDEST STOP JUMPDEST PUSH2 0xC1 PUSH1 0x4 DUP1 CALLDATASIZE SUB DUP2 ADD SWAP1 PUSH2 0xBC SWAP2 SWAP1 PUSH2 0x1399 JUMP JUMPDEST PUSH2 0x8DB JUMP JUMPDEST PUSH1 0x40 MLOAD PUSH2 0xCE SWAP2 SWAP1 PUSH2 0x1477 JUMP JUMPDEST PUSH1 0x40 MLOAD DUP1 SWAP2 SUB SWAP1 RETURN JUMPDEST PUSH1 0x0 DUP1 SLOAD SWAP1 PUSH2 0x100 EXP SWAP1 DIV PUSH20 0xFFFFFFFFFFFFFFFFFFFFFFFFFFFFFFFFFFFFFFFF AND PUSH20 0xFFFFFFFFFFFFFFFFFFFFFFFFFFFFFFFFFFFFFFFF AND CALLER PUSH20 0xFFFFFFFFFFFFFFFFFFFFFFFFFFFFFFFFFFFFFFFF AND EQ PUSH2 0x165 JUMPI PUSH1 0x40 MLOAD PUSH32 0x8C379A000000000000000000000000000000000000000000000000000000000 DUP2 MSTORE PUSH1 0x4 ADD PUSH2 0x15C SWAP1 PUSH2 0x151C JUMP JUMPDEST PUSH1 0x40 MLOAD DUP1 SWAP2 SUB SWAP1 REVERT JUMPDEST PUSH1 0x0 PUSH1 0x1 DUP1 SLOAD SWAP1 POP SWAP1 POP PUSH1 0x1 DUP1 DUP2 PUSH1 0x1 DUP2 SLOAD ADD DUP1 DUP3 SSTORE DUP1 SWAP2 POP POP SUB SWAP1 PUSH1 0x0 MSTORE PUSH1 0x20 PUSH1 0x0 KECCAK256 SWAP1 POP POP DUP7 PUSH1 0x1 DUP3 DUP2 SLOAD DUP2 LT PUSH2 0x1A1 JUMPI PUSH2 0x1A0 PUSH2 0x153C JUMP JUMPDEST JUMPDEST SWAP1 PUSH1 0x0 MSTORE PUSH1 0x20 PUSH1 0x0 KECCAK256 SWAP1 PUSH1 0x7 MUL ADD PUSH1 0x0 ADD SWAP1 DUP2 PUSH2 0x1BE SWAP2 SWAP1 PUSH2 0x1777 JUMP JUMPDEST POP DUP6 PUSH1 0x1 DUP3 DUP2 SLOAD DUP2 LT PUSH2 0x1D4 JUMPI PUSH2 0x1D3 PUSH2 0x153C JUMP JUMPDEST JUMPDEST SWAP1 PUSH1 0x0 MSTORE PUSH1 0x20 PUSH1 0x0 KECCAK256 SWAP1 PUSH1 0x7 MUL ADD PUSH1 0x1 ADD DUP2 SWAP1 SSTORE POP DUP5 PUSH1 0x1 DUP3 DUP2 SLOAD DUP2 LT PUSH2 0x1FE JUMPI PUSH2 0x1FD PUSH2 0x153C JUMP JUMPDEST JUMPDEST SWAP1 PUSH1 0x0 MSTORE PUSH1 0x20 PUSH1 0x0 KECCAK256 SWAP1 PUSH1 0x7 MUL ADD PUSH1 0x2 ADD SWAP1 DUP2 PUSH2 0x21B SWAP2 SWAP1 PUSH2 0x1777 JUMP JUMPDEST POP DUP4 PUSH1 0x1 DUP3 DUP2 SLOAD DUP2 LT PUSH2 0x231 JUMPI PUSH2 0x230 PUSH2 0x153C JUMP JUMPDEST JUMPDEST SWAP1 PUSH1 0x0 MSTORE PUSH1 0x20 PUSH1 0x0 KECCAK256 SWAP1 PUSH1 0x7 MUL ADD PUSH1 0x3 ADD DUP2 SWAP1 SSTORE POP DUP3 PUSH1 0x1 DUP3 DUP2 SLOAD DUP2 LT PUSH2 0x25B JUMPI PUSH2 0x25A PUSH2 0x153C JUMP JUMPDEST JUMPDEST SWAP1 PUSH1 0x0 MSTORE PUSH1 0x20 PUSH1 0x0 KECCAK256 SWAP1 PUSH1 0x7 MUL ADD PUSH1 0x4 ADD DUP2 SWAP1 SSTORE POP DUP2 PUSH1 0x1 DUP3 DUP2 SLOAD DUP2 LT PUSH2 0x285 JUMPI PUSH2 0x284 PUSH2 0x153C JUMP JUMPDEST JUMPDEST SWAP1 PUSH1 0x0 MSTORE PUSH1 0x20 PUSH1 0x0 KECCAK256 SWAP1 PUSH1 0x7 MUL ADD PUSH1 0x5 ADD SWAP1 DUP2 PUSH2 0x2A2 SWAP2 SWAP1 PUSH2 0x1777 JUMP JUMPDEST POP DUP1 PUSH1 0x2 PUSH1 0x0 DUP6 DUP2 MSTORE PUSH1 0x20 ADD SWAP1 DUP2 MSTORE PUSH1 0x20 ADD PUSH1 0x0 KECCAK256 DUP2 SWAP1 SSTORE POP PUSH32 0x3C33BA9853A78DCAEB50BE0F15E1BE558CC38978243329BBDAEE54A8F5AE4FEC PUSH1 0x40 MLOAD PUSH2 0x2E8 SWAP1 PUSH2 0x1895 JUMP JUMPDEST PUSH1 0x40 MLOAD DUP1 SWAP2 SUB SWAP1 LOG1 POP POP POP POP POP POP POP JUMP JUMPDEST PUSH1 0x60 PUSH1 0x1 DUP1 SLOAD DUP1 PUSH1 0x20 MUL PUSH1 0x20 ADD PUSH1 0x40 MLOAD SWAP1 DUP2 ADD PUSH1 0x40 MSTORE DUP1 SWAP3 SWAP2 SWAP1 DUP2 DUP2 MSTORE PUSH1 0x20 ADD PUSH1 0x0 SWAP1 JUMPDEST DUP3 DUP3 LT ISZERO PUSH2 0x673 JUMPI DUP4 DUP3 SWAP1 PUSH1 0x0 MSTORE PUSH1 0x20 PUSH1 0x0 KECCAK256 SWAP1 PUSH1 0x7 MUL ADD PUSH1 0x40 MLOAD DUP1 PUSH1 0xE0 ADD PUSH1 0x40 MSTORE SWAP1 DUP2 PUSH1 0x0 DUP3 ADD DUP1 SLOAD PUSH2 0x350 SWAP1 PUSH2 0x159A JUMP JUMPDEST DUP1 PUSH1 0x1F ADD PUSH1 0x20 DUP1 SWAP2 DIV MUL PUSH1 0x20 ADD PUSH1 0x40 MLOAD SWAP1 DUP2 ADD PUSH1 0x40 MSTORE DUP1 SWAP3 SWAP2 SWAP1 DUP2 DUP2 MSTORE PUSH1 0x20 ADD DUP3 DUP1 SLOAD PUSH2 0x37C SWAP1 PUSH2 0x159A JUMP JUMPDEST DUP1 ISZERO PUSH2 0x3C9 JUMPI DUP1 PUSH1 0x1F LT PUSH2 0x39E JUMPI PUSH2 0x100 DUP1 DUP4 SLOAD DIV MUL DUP4 MSTORE SWAP2 PUSH1 0x20 ADD SWAP2 PUSH2 0x3C9 JUMP JUMPDEST DUP3 ADD SWAP2 SWAP1 PUSH1 0x0 MSTORE PUSH1 0x20 PUSH1 0x0 KECCAK256 SWAP1 JUMPDEST DUP2 SLOAD DUP2 MSTORE SWAP1 PUSH1 0x1 ADD SWAP1 PUSH1 0x20 ADD DUP1 DUP4 GT PUSH2 0x3AC JUMPI DUP3 SWAP1 SUB PUSH1 0x1F AND DUP3 ADD SWAP2 JUMPDEST POP POP POP POP POP DUP2 MSTORE PUSH1 0x20 ADD PUSH1 0x1 DUP3 ADD SLOAD DUP2 MSTORE PUSH1 0x20 ADD PUSH1 0x2 DUP3 ADD DUP1 SLOAD PUSH2 0x3EC SWAP1 PUSH2 0x159A JUMP JUMPDEST DUP1 PUSH1 0x1F ADD PUSH1 0x20 DUP1 SWAP2 DIV MUL PUSH1 0x20 ADD PUSH1 0x40 MLOAD SWAP1 DUP2 ADD PUSH1 0x40 MSTORE DUP1 SWAP3 SWAP2 SWAP1 DUP2 DUP2 MSTORE PUSH1 0x20 ADD DUP3 DUP1 SLOAD PUSH2 0x418 SWAP1 PUSH2 0x159A JUMP JUMPDEST DUP1 ISZERO PUSH2 0x465 JUMPI DUP1 PUSH1 0x1F LT PUSH2 0x43A JUMPI PUSH2 0x100 DUP1 DUP4 SLOAD DIV MUL DUP4 MSTORE SWAP2 PUSH1 0x20 ADD SWAP2 PUSH2 0x465 JUMP JUMPDEST DUP3 ADD SWAP2 SWAP1 PUSH1 0x0 MSTORE PUSH1 0x20 PUSH1 0x0 KECCAK256 SWAP1 JUMPDEST DUP2 SLOAD DUP2 MSTORE SWAP1 PUSH1 0x1 ADD SWAP1 PUSH1 0x20 ADD DUP1 DUP4 GT PUSH2 0x448 JUMPI DUP3 SWAP1 SUB PUSH1 0x1F AND DUP3 ADD SWAP2 JUMPDEST POP POP POP POP POP DUP2 MSTORE PUSH1 0x20 ADD PUSH1 0x3 DUP3 ADD SLOAD DUP2 MSTORE PUSH1 0x20 ADD PUSH1 0x4 DUP3 ADD SLOAD DUP2 MSTORE PUSH1 0x20 ADD PUSH1 0x5 DUP3 ADD DUP1 SLOAD PUSH2 0x492 SWAP1 PUSH2 0x159A JUMP JUMPDEST DUP1 PUSH1 0x1F ADD PUSH1 0x20 DUP1 SWAP2 DIV MUL PUSH1 0x20 ADD PUSH1 0x40 MLOAD SWAP1 DUP2 ADD PUSH1 0x40 MSTORE DUP1 SWAP3 SWAP2 SWAP1 DUP2 DUP2 MSTORE PUSH1 0x20 ADD DUP3 DUP1 SLOAD PUSH2 0x4BE SWAP1 PUSH2 0x159A JUMP JUMPDEST DUP1 ISZERO PUSH2 0x50B JUMPI DUP1 PUSH1 0x1F LT PUSH2 0x4E0 JUMPI PUSH2 0x100 DUP1 DUP4 SLOAD DIV MUL DUP4 MSTORE SWAP2 PUSH1 0x20 ADD SWAP2 PUSH2 0x50B JUMP JUMPDEST DUP3 ADD SWAP2 SWAP1 PUSH1 0x0 MSTORE PUSH1 0x20 PUSH1 0x0 KECCAK256 SWAP1 JUMPDEST DUP2 SLOAD DUP2 MSTORE SWAP1 PUSH1 0x1 ADD SWAP1 PUSH1 0x20 ADD DUP1 DUP4 GT PUSH2 0x4EE JUMPI DUP3 SWAP1 SUB PUSH1 0x1F AND DUP3 ADD SWAP2 JUMPDEST POP POP POP POP POP DUP2 MSTORE PUSH1 0x20 ADD PUSH1 0x6 DUP3 ADD DUP1 SLOAD DUP1 PUSH1 0x20 MUL PUSH1 0x20 ADD PUSH1 0x40 MLOAD SWAP1 DUP2 ADD PUSH1 0x40 MSTORE DUP1 SWAP3 SWAP2 SWAP1 DUP2 DUP2 MSTORE PUSH1 0x20 ADD PUSH1 0x0 SWAP1 JUMPDEST DUP3 DUP3 LT ISZERO PUSH2 0x65C JUMPI DUP4 DUP3 SWAP1 PUSH1 0x0 MSTORE PUSH1 0x20 PUSH1 0x0 KECCAK256 SWAP1 PUSH1 0x4 MUL ADD PUSH1 0x40 MLOAD DUP1 PUSH1 0x80 ADD PUSH1 0x40 MSTORE SWAP1 DUP2 PUSH1 0x0 DUP3 ADD PUSH1 0x0 SWAP1 SLOAD SWAP1 PUSH2 0x100 EXP SWAP1 DIV PUSH1 0xFF AND PUSH1 0x1 DUP2 GT ISZERO PUSH2 0x581 JUMPI PUSH2 0x580 PUSH2 0xFE8 JUMP JUMPDEST JUMPDEST PUSH1 0x1 DUP2 GT ISZERO PUSH2 0x593 JUMPI PUSH2 0x592 PUSH2 0xFE8 JUMP JUMPDEST JUMPDEST DUP2 MSTORE PUSH1 0x20 ADD PUSH1 0x1 DUP3 ADD SLOAD DUP2 MSTORE PUSH1 0x20 ADD PUSH1 0x2 DUP3 ADD PUSH1 0x0 SWAP1 SLOAD SWAP1 PUSH2 0x100 EXP SWAP1 DIV PUSH20 0xFFFFFFFFFFFFFFFFFFFFFFFFFFFFFFFFFFFFFFFF AND PUSH20 0xFFFFFFFFFFFFFFFFFFFFFFFFFFFFFFFFFFFFFFFF AND PUSH20 0xFFFFFFFFFFFFFFFFFFFFFFFFFFFFFFFFFFFFFFFF AND DUP2 MSTORE PUSH1 0x20 ADD PUSH1 0x3 DUP3 ADD PUSH1 0x0 SWAP1 SLOAD SWAP1 PUSH2 0x100 EXP SWAP1 DIV PUSH20 0xFFFFFFFFFFFFFFFFFFFFFFFFFFFFFFFFFFFFFFFF AND PUSH20 0xFFFFFFFFFFFFFFFFFFFFFFFFFFFFFFFFFFFFFFFF AND PUSH20 0xFFFFFFFFFFFFFFFFFFFFFFFFFFFFFFFFFFFFFFFF AND DUP2 MSTORE POP POP DUP2 MSTORE PUSH1 0x20 ADD SWAP1 PUSH1 0x1 ADD SWAP1 PUSH2 0x539 JUMP JUMPDEST POP POP POP POP DUP2 MSTORE POP POP DUP2 MSTORE PUSH1 0x20 ADD SWAP1 PUSH1 0x1 ADD SWAP1 PUSH2 0x31D JUMP JUMPDEST POP POP POP POP SWAP1 POP SWAP1 JUMP JUMPDEST PUSH1 0x0 DUP1 SLOAD SWAP1 PUSH2 0x100 EXP SWAP1 DIV PUSH20 0xFFFFFFFFFFFFFFFFFFFFFFFFFFFFFFFFFFFFFFFF AND PUSH20 0xFFFFFFFFFFFFFFFFFFFFFFFFFFFFFFFFFFFFFFFF AND CALLER PUSH20 0xFFFFFFFFFFFFFFFFFFFFFFFFFFFFFFFFFFFFFFFF AND EQ PUSH2 0x70A JUMPI PUSH1 0x40 MLOAD PUSH32 0x8C379A000000000000000000000000000000000000000000000000000000000 DUP2 MSTORE PUSH1 0x4 ADD PUSH2 0x701 SWAP1 PUSH2 0x1901 JUMP JUMPDEST PUSH1 0x40 MLOAD DUP1 SWAP2 SUB SWAP1 REVERT JUMPDEST PUSH1 0x0 PUSH1 0x2 PUSH1 0x0 DUP7 DUP2 MSTORE PUSH1 0x20 ADD SWAP1 DUP2 MSTORE PUSH1 0x20 ADD PUSH1 0x0 KECCAK256 SLOAD SWAP1 POP PUSH1 0x0 PUSH1 0x40 MLOAD DUP1 PUSH1 0x80 ADD PUSH1 0x40 MSTORE DUP1 DUP7 PUSH1 0x1 DUP2 GT ISZERO PUSH2 0x742 JUMPI PUSH2 0x741 PUSH2 0xFE8 JUMP JUMPDEST JUMPDEST DUP2 MSTORE PUSH1 0x20 ADD TIMESTAMP DUP2 MSTORE PUSH1 0x20 ADD DUP6 PUSH20 0xFFFFFFFFFFFFFFFFFFFFFFFFFFFFFFFFFFFFFFFF AND DUP2 MSTORE PUSH1 0x20 ADD DUP5 PUSH20 0xFFFFFFFFFFFFFFFFFFFFFFFFFFFFFFFFFFFFFFFF AND DUP2 MSTORE POP SWAP1 POP PUSH1 0x1 DUP3 DUP2 SLOAD DUP2 LT PUSH2 0x799 JUMPI PUSH2 0x798 PUSH2 0x153C JUMP JUMPDEST JUMPDEST SWAP1 PUSH1 0x0 MSTORE PUSH1 0x20 PUSH1 0x0 KECCAK256 SWAP1 PUSH1 0x7 MUL ADD PUSH1 0x6 ADD DUP2 SWAP1 DUP1 PUSH1 0x1 DUP2 SLOAD ADD DUP1 DUP3 SSTORE DUP1 SWAP2 POP POP PUSH1 0x1 SWAP1 SUB SWAP1 PUSH1 0x0 MSTORE PUSH1 0x20 PUSH1 0x0 KECCAK256 SWAP1 PUSH1 0x4 MUL ADD PUSH1 0x0 SWAP1 SWAP2 SWAP1 SWAP2 SWAP1 SWAP2 POP PUSH1 0x0 DUP3 ADD MLOAD DUP2 PUSH1 0x0 ADD PUSH1 0x0 PUSH2 0x100 EXP DUP2 SLOAD DUP2 PUSH1 0xFF MUL NOT AND SWAP1 DUP4 PUSH1 0x1 DUP2 GT ISZERO PUSH2 0x7FF JUMPI PUSH2 0x7FE PUSH2 0xFE8 JUMP JUMPDEST JUMPDEST MUL OR SWAP1 SSTORE POP PUSH1 0x20 DUP3 ADD MLOAD DUP2 PUSH1 0x1 ADD SSTORE PUSH1 0x40 DUP3 ADD MLOAD DUP2 PUSH1 0x2 ADD PUSH1 0x0 PUSH2 0x100 EXP DUP2 SLOAD DUP2 PUSH20 0xFFFFFFFFFFFFFFFFFFFFFFFFFFFFFFFFFFFFFFFF MUL NOT AND SWAP1 DUP4 PUSH20 0xFFFFFFFFFFFFFFFFFFFFFFFFFFFFFFFFFFFFFFFF AND MUL OR SWAP1 SSTORE POP PUSH1 0x60 DUP3 ADD MLOAD DUP2 PUSH1 0x3 ADD PUSH1 0x0 PUSH2 0x100 EXP DUP2 SLOAD DUP2 PUSH20 0xFFFFFFFFFFFFFFFFFFFFFFFFFFFFFFFFFFFFFFFF MUL NOT AND SWAP1 DUP4 PUSH20 0xFFFFFFFFFFFFFFFFFFFFFFFFFFFFFFFFFFFFFFFF AND MUL OR SWAP1 SSTORE POP POP POP PUSH32 0x3C33BA9853A78DCAEB50BE0F15E1BE558CC38978243329BBDAEE54A8F5AE4FEC PUSH1 0x40 MLOAD PUSH2 0x8CB SWAP1 PUSH2 0x1993 JUMP JUMPDEST PUSH1 0x40 MLOAD DUP1 SWAP2 SUB SWAP1 LOG1 POP POP POP POP POP POP JUMP JUMPDEST PUSH2 0x8E3 PUSH2 0xC54 JUMP JUMPDEST PUSH1 0x0 PUSH1 0x2 PUSH1 0x0 DUP5 DUP2 MSTORE PUSH1 0x20 ADD SWAP1 DUP2 MSTORE PUSH1 0x20 ADD PUSH1 0x0 KECCAK256 SLOAD SWAP1 POP PUSH1 0x1 DUP2 DUP2 SLOAD DUP2 LT PUSH2 0x90F JUMPI PUSH2 0x90E PUSH2 0x153C JUMP JUMPDEST JUMPDEST SWAP1 PUSH1 0x0 MSTORE PUSH1 0x20 PUSH1 0x0 KECCAK256 SWAP1 PUSH1 0x7 MUL ADD PUSH1 0x40 MLOAD DUP1 PUSH1 0xE0 ADD PUSH1 0x40 MSTORE SWAP1 DUP2 PUSH1 0x0 DUP3 ADD DUP1 SLOAD PUSH2 0x938 SWAP1 PUSH2 0x159A JUMP JUMPDEST DUP1 PUSH1 0x1F ADD PUSH1 0x20 DUP1 SWAP2 DIV MUL PUSH1 0x20 ADD PUSH1 0x40 MLOAD SWAP1 DUP2 ADD PUSH1 0x40 MSTORE DUP1 SWAP3 SWAP2 SWAP1 DUP2 DUP2 MSTORE PUSH1 0x20 ADD DUP3 DUP1 SLOAD PUSH2 0x964 SWAP1 PUSH2 0x159A JUMP JUMPDEST DUP1 ISZERO PUSH2 0x9B1 JUMPI DUP1 PUSH1 0x1F LT PUSH2 0x986 JUMPI PUSH2 0x100 DUP1 DUP4 SLOAD DIV MUL DUP4 MSTORE SWAP2 PUSH1 0x20 ADD SWAP2 PUSH2 0x9B1 JUMP JUMPDEST DUP3 ADD SWAP2 SWAP1 PUSH1 0x0 MSTORE PUSH1 0x20 PUSH1 0x0 KECCAK256 SWAP1 JUMPDEST DUP2 SLOAD DUP2 MSTORE SWAP1 PUSH1 0x1 ADD SWAP1 PUSH1 0x20 ADD DUP1 DUP4 GT PUSH2 0x994 JUMPI DUP3 SWAP1 SUB PUSH1 0x1F AND DUP3 ADD SWAP2 JUMPDEST POP POP POP POP POP DUP2 MSTORE PUSH1 0x20 ADD PUSH1 0x1 DUP3 ADD SLOAD DUP2 MSTORE PUSH1 0x20 ADD PUSH1 0x2 DUP3 ADD DUP1 SLOAD PUSH2 0x9D4 SWAP1 PUSH2 0x159A JUMP JUMPDEST DUP1 PUSH1 0x1F ADD PUSH1 0x20 DUP1 SWAP2 DIV MUL PUSH1 0x20 ADD PUSH1 0x40 MLOAD SWAP1 DUP2 ADD PUSH1 0x40 MSTORE DUP1 SWAP3 SWAP2 SWAP1 DUP2 DUP2 MSTORE PUSH1 0x20 ADD DUP3 DUP1 SLOAD PUSH2 0xA00 SWAP1 PUSH2 0x159A JUMP JUMPDEST DUP1 ISZERO PUSH2 0xA4D JUMPI DUP1 PUSH1 0x1F LT PUSH2 0xA22 JUMPI PUSH2 0x100 DUP1 DUP4 SLOAD DIV MUL DUP4 MSTORE SWAP2 PUSH1 0x20 ADD SWAP2 PUSH2 0xA4D JUMP JUMPDEST DUP3 ADD SWAP2 SWAP1 PUSH1 0x0 MSTORE PUSH1 0x20 PUSH1 0x0 KECCAK256 SWAP1 JUMPDEST DUP2 SLOAD DUP2 MSTORE SWAP1 PUSH1 0x1 ADD SWAP1 PUSH1 0x20 ADD DUP1 DUP4 GT PUSH2 0xA30 JUMPI DUP3 SWAP1 SUB PUSH1 0x1F AND DUP3 ADD SWAP2 JUMPDEST POP POP POP POP POP DUP2 MSTORE PUSH1 0x20 ADD PUSH1 0x3 DUP3 ADD SLOAD DUP2 MSTORE PUSH1 0x20 ADD PUSH1 0x4 DUP3 ADD SLOAD DUP2 MSTORE PUSH1 0x20 ADD PUSH1 0x5 DUP3 ADD DUP1 SLOAD PUSH2 0xA7A SWAP1 PUSH2 0x159A JUMP JUMPDEST DUP1 PUSH1 0x1F ADD PUSH1 0x20 DUP1 SWAP2 DIV MUL PUSH1 0x20 ADD PUSH1 0x40 MLOAD SWAP1 DUP2 ADD PUSH1 0x40 MSTORE DUP1 SWAP3 SWAP2 SWAP1 DUP2 DUP2 MSTORE PUSH1 0x20 ADD DUP3 DUP1 SLOAD PUSH2 0xAA6 SWAP1 PUSH2 0x159A JUMP JUMPDEST DUP1 ISZERO PUSH2 0xAF3 JUMPI DUP1 PUSH1 0x1F LT PUSH2 0xAC8 JUMPI PUSH2 0x100 DUP1 DUP4 SLOAD DIV MUL DUP4 MSTORE SWAP2 PUSH1 0x20 ADD SWAP2 PUSH2 0xAF3 JUMP JUMPDEST DUP3 ADD SWAP2 SWAP1 PUSH1 0x0 MSTORE PUSH1 0x20 PUSH1 0x0 KECCAK256 SWAP1 JUMPDEST DUP2 SLOAD DUP2 MSTORE SWAP1 PUSH1 0x1 ADD SWAP1 PUSH1 0x20 ADD DUP1 DUP4 GT PUSH2 0xAD6 JUMPI DUP3 SWAP1 SUB PUSH1 0x1F AND DUP3 ADD SWAP2 JUMPDEST POP POP POP POP POP DUP2 MSTORE PUSH1 0x20 ADD PUSH1 0x6 DUP3 ADD DUP1 SLOAD DUP1 PUSH1 0x20 MUL PUSH1 0x20 ADD PUSH1 0x40 MLOAD SWAP1 DUP2 ADD PUSH1 0x40 MSTORE DUP1 SWAP3 SWAP2 SWAP1 DUP2 DUP2 MSTORE PUSH1 0x20 ADD PUSH1 0x0 SWAP1 JUMPDEST DUP3 DUP3 LT ISZERO PUSH2 0xC44 JUMPI DUP4 DUP3 SWAP1 PUSH1 0x0 MSTORE PUSH1 0x20 PUSH1 0x0 KECCAK256 SWAP1 PUSH1 0x4 MUL ADD PUSH1 0x40 MLOAD DUP1 PUSH1 0x80 ADD PUSH1 0x40 MSTORE SWAP1 DUP2 PUSH1 0x0 DUP3 ADD PUSH1 0x0 SWAP1 SLOAD SWAP1 PUSH2 0x100 EXP SWAP1 DIV PUSH1 0xFF AND PUSH1 0x1 DUP2 GT ISZERO PUSH2 0xB69 JUMPI PUSH2 0xB68 PUSH2 0xFE8 JUMP JUMPDEST JUMPDEST PUSH1 0x1 DUP2 GT ISZERO PUSH2 0xB7B JUMPI PUSH2 0xB7A PUSH2 0xFE8 JUMP JUMPDEST JUMPDEST DUP2 MSTORE PUSH1 0x20 ADD PUSH1 0x1 DUP3 ADD SLOAD DUP2 MSTORE PUSH1 0x20 ADD PUSH1 0x2 DUP3 ADD PUSH1 0x0 SWAP1 SLOAD SWAP1 PUSH2 0x100 EXP SWAP1 DIV PUSH20 0xFFFFFFFFFFFFFFFFFFFFFFFFFFFFFFFFFFFFFFFF AND PUSH20 0xFFFFFFFFFFFFFFFFFFFFFFFFFFFFFFFFFFFFFFFF AND PUSH20 0xFFFFFFFFFFFFFFFFFFFFFFFFFFFFFFFFFFFFFFFF AND DUP2 MSTORE PUSH1 0x20 ADD PUSH1 0x3 DUP3 ADD PUSH1 0x0 SWAP1 SLOAD SWAP1 PUSH2 0x100 EXP SWAP1 DIV PUSH20 0xFFFFFFFFFFFFFFFFFFFFFFFFFFFFFFFFFFFFFFFF AND PUSH20 0xFFFFFFFFFFFFFFFFFFFFFFFFFFFFFFFFFFFFFFFF AND PUSH20 0xFFFFFFFFFFFFFFFFFFFFFFFFFFFFFFFFFFFFFFFF AND DUP2 MSTORE POP POP DUP2 MSTORE PUSH1 0x20 ADD SWAP1 PUSH1 0x1 ADD SWAP1 PUSH2 0xB21 JUMP JUMPDEST POP POP POP POP DUP2 MSTORE POP POP SWAP2 POP POP SWAP2 SWAP1 POP JUMP JUMPDEST PUSH1 0x40 MLOAD DUP1 PUSH1 0xE0 ADD PUSH1 0x40 MSTORE DUP1 PUSH1 0x60 DUP2 MSTORE PUSH1 0x20 ADD PUSH1 0x0 DUP2 MSTORE PUSH1 0x20 ADD PUSH1 0x60 DUP2 MSTORE PUSH1 0x20 ADD PUSH1 0x0 DUP2 MSTORE PUSH1 0x20 ADD PUSH1 0x0 DUP2 MSTORE PUSH1 0x20 ADD PUSH1 0x60 DUP2 MSTORE PUSH1 0x20 ADD PUSH1 0x60 DUP2 MSTORE POP SWAP1 JUMP JUMPDEST PUSH1 0x0 PUSH1 0x40 MLOAD SWAP1 POP SWAP1 JUMP JUMPDEST PUSH1 0x0 DUP1 REVERT JUMPDEST PUSH1 0x0 DUP1 REVERT JUMPDEST PUSH1 0x0 DUP1 REVERT JUMPDEST PUSH1 0x0 DUP1 REVERT JUMPDEST PUSH1 0x0 PUSH1 0x1F NOT PUSH1 0x1F DUP4 ADD AND SWAP1 POP SWAP2 SWAP1 POP JUMP JUMPDEST PUSH32 0x4E487B7100000000000000000000000000000000000000000000000000000000 PUSH1 0x0 MSTORE PUSH1 0x41 PUSH1 0x4 MSTORE PUSH1 0x24 PUSH1 0x0 REVERT JUMPDEST PUSH2 0xCF8 DUP3 PUSH2 0xCAF JUMP JUMPDEST DUP2 ADD DUP2 DUP2 LT PUSH8 0xFFFFFFFFFFFFFFFF DUP3 GT OR ISZERO PUSH2 0xD17 JUMPI PUSH2 0xD16 PUSH2 0xCC0 JUMP JUMPDEST JUMPDEST DUP1 PUSH1 0x40 MSTORE POP POP POP JUMP JUMPDEST PUSH1 0x0 PUSH2 0xD2A PUSH2 0xC91 JUMP JUMPDEST SWAP1 POP PUSH2 0xD36 DUP3 DUP3 PUSH2 0xCEF JUMP JUMPDEST SWAP2 SWAP1 POP JUMP JUMPDEST PUSH1 0x0 PUSH8 0xFFFFFFFFFFFFFFFF DUP3 GT ISZERO PUSH2 0xD56 JUMPI PUSH2 0xD55 PUSH2 0xCC0 JUMP JUMPDEST JUMPDEST PUSH2 0xD5F DUP3 PUSH2 0xCAF JUMP JUMPDEST SWAP1 POP PUSH1 0x20 DUP2 ADD SWAP1 POP SWAP2 SWAP1 POP JUMP JUMPDEST DUP3 DUP2 DUP4 CALLDATACOPY PUSH1 0x0 DUP4 DUP4 ADD MSTORE POP POP POP JUMP JUMPDEST PUSH1 0x0 PUSH2 0xD8E PUSH2 0xD89 DUP5 PUSH2 0xD3B JUMP JUMPDEST PUSH2 0xD20 JUMP JUMPDEST SWAP1 POP DUP3 DUP2 MSTORE PUSH1 0x20 DUP2 ADD DUP5 DUP5 DUP5 ADD GT ISZERO PUSH2 0xDAA JUMPI PUSH2 0xDA9 PUSH2 0xCAA JUMP JUMPDEST JUMPDEST PUSH2 0xDB5 DUP5 DUP3 DUP6 PUSH2 0xD6C JUMP JUMPDEST POP SWAP4 SWAP3 POP POP POP JUMP JUMPDEST PUSH1 0x0 DUP3 PUSH1 0x1F DUP4 ADD SLT PUSH2 0xDD2 JUMPI PUSH2 0xDD1 PUSH2 0xCA5 JUMP JUMPDEST JUMPDEST DUP2 CALLDATALOAD PUSH2 0xDE2 DUP5 DUP3 PUSH1 0x20 DUP7 ADD PUSH2 0xD7B JUMP JUMPDEST SWAP2 POP POP SWAP3 SWAP2 POP POP JUMP JUMPDEST PUSH1 0x0 DUP2 SWAP1 POP SWAP2 SWAP1 POP JUMP JUMPDEST PUSH2 0xDFE DUP2 PUSH2 0xDEB JUMP JUMPDEST DUP2 EQ PUSH2 0xE09 JUMPI PUSH1 0x0 DUP1 REVERT JUMPDEST POP JUMP JUMPDEST PUSH1 0x0 DUP2 CALLDATALOAD SWAP1 POP PUSH2 0xE1B DUP2 PUSH2 0xDF5 JUMP JUMPDEST SWAP3 SWAP2 POP POP JUMP JUMPDEST PUSH1 0x0 DUP1 PUSH1 0x0 DUP1 PUSH1 0x0 DUP1 PUSH1 0xC0 DUP8 DUP10 SUB SLT ISZERO PUSH2 0xE3E JUMPI PUSH2 0xE3D PUSH2 0xC9B JUMP JUMPDEST JUMPDEST PUSH1 0x0 DUP8 ADD CALLDATALOAD PUSH8 0xFFFFFFFFFFFFFFFF DUP2 GT ISZERO PUSH2 0xE5C JUMPI PUSH2 0xE5B PUSH2 0xCA0 JUMP JUMPDEST JUMPDEST PUSH2 0xE68 DUP10 DUP3 DUP11 ADD PUSH2 0xDBD JUMP JUMPDEST SWAP7 POP POP PUSH1 0x20 PUSH2 0xE79 DUP10 DUP3 DUP11 ADD PUSH2 0xE0C JUMP JUMPDEST SWAP6 POP POP PUSH1 0x40 DUP8 ADD CALLDATALOAD PUSH8 0xFFFFFFFFFFFFFFFF DUP2 GT ISZERO PUSH2 0xE9A JUMPI PUSH2 0xE99 PUSH2 0xCA0 JUMP JUMPDEST JUMPDEST PUSH2 0xEA6 DUP10 DUP3 DUP11 ADD PUSH2 0xDBD JUMP JUMPDEST SWAP5 POP POP PUSH1 0x60 PUSH2 0xEB7 DUP10 DUP3 DUP11 ADD PUSH2 0xE0C JUMP JUMPDEST SWAP4 POP POP PUSH1 0x80 PUSH2 0xEC8 DUP10 DUP3 DUP11 ADD PUSH2 0xE0C JUMP JUMPDEST SWAP3 POP POP PUSH1 0xA0 DUP8 ADD CALLDATALOAD PUSH8 0xFFFFFFFFFFFFFFFF DUP2 GT ISZERO PUSH2 0xEE9 JUMPI PUSH2 0xEE8 PUSH2 0xCA0 JUMP JUMPDEST JUMPDEST PUSH2 0xEF5 DUP10 DUP3 DUP11 ADD PUSH2 0xDBD JUMP JUMPDEST SWAP2 POP POP SWAP3 SWAP6 POP SWAP3 SWAP6 POP SWAP3 SWAP6 JUMP JUMPDEST PUSH1 0x0 DUP2 MLOAD SWAP1 POP SWAP2 SWAP1 POP JUMP JUMPDEST PUSH1 0x0 DUP3 DUP3 MSTORE PUSH1 0x20 DUP3 ADD SWAP1 POP SWAP3 SWAP2 POP POP JUMP JUMPDEST PUSH1 0x0 DUP2 SWAP1 POP PUSH1 0x20 DUP3 ADD SWAP1 POP SWAP2 SWAP1 POP JUMP JUMPDEST PUSH1 0x0 DUP2 MLOAD SWAP1 POP SWAP2 SWAP1 POP JUMP JUMPDEST PUSH1 0x0 DUP3 DUP3 MSTORE PUSH1 0x20 DUP3 ADD SWAP1 POP SWAP3 SWAP2 POP POP JUMP JUMPDEST PUSH1 0x0 JUMPDEST DUP4 DUP2 LT ISZERO PUSH2 0xF68 JUMPI DUP1 DUP3 ADD MLOAD DUP2 DUP5 ADD MSTORE PUSH1 0x20 DUP2 ADD SWAP1 POP PUSH2 0xF4D JUMP JUMPDEST PUSH1 0x0 DUP5 DUP5 ADD MSTORE POP POP POP POP JUMP JUMPDEST PUSH1 0x0 PUSH2 0xF7F DUP3 PUSH2 0xF2E JUMP JUMPDEST PUSH2 0xF89 DUP2 DUP6 PUSH2 0xF39 JUMP JUMPDEST SWAP4 POP PUSH2 0xF99 DUP2 DUP6 PUSH1 0x20 DUP7 ADD PUSH2 0xF4A JUMP JUMPDEST PUSH2 0xFA2 DUP2 PUSH2 0xCAF JUMP JUMPDEST DUP5 ADD SWAP2 POP POP SWAP3 SWAP2 POP POP JUMP JUMPDEST PUSH2 0xFB6 DUP2 PUSH2 0xDEB JUMP JUMPDEST DUP3 MSTORE POP POP JUMP JUMPDEST PUSH1 0x0 DUP2 MLOAD SWAP1 POP SWAP2 SWAP1 POP JUMP JUMPDEST PUSH1 0x0 DUP3 DUP3 MSTORE PUSH1 0x20 DUP3 ADD SWAP1 POP SWAP3 SWAP2 POP POP JUMP JUMPDEST PUSH1 0x0 DUP2 SWAP1 POP PUSH1 0x20 DUP3 ADD SWAP1 POP SWAP2 SWAP1 POP JUMP JUMPDEST PUSH32 0x4E487B7100000000000000000000000000000000000000000000000000000000 PUSH1 0x0 MSTORE PUSH1 0x21 PUSH1 0x4 MSTORE PUSH1 0x24 PUSH1 0x0 REVERT JUMPDEST PUSH1 0x2 DUP2 LT PUSH2 0x1028 JUMPI PUSH2 0x1027 PUSH2 0xFE8 JUMP JUMPDEST JUMPDEST POP JUMP JUMPDEST PUSH1 0x0 DUP2 SWAP1 POP PUSH2 0x1039 DUP3 PUSH2 0x1017 JUMP JUMPDEST SWAP2 SWAP1 POP JUMP JUMPDEST PUSH1 0x0 PUSH2 0x1049 DUP3 PUSH2 0x102B JUMP JUMPDEST SWAP1 POP SWAP2 SWAP1 POP JUMP JUMPDEST PUSH2 0x1059 DUP2 PUSH2 0x103E JUMP JUMPDEST DUP3 MSTORE POP POP JUMP JUMPDEST PUSH1 0x0 PUSH20 0xFFFFFFFFFFFFFFFFFFFFFFFFFFFFFFFFFFFFFFFF DUP3 AND SWAP1 POP SWAP2 SWAP1 POP JUMP JUMPDEST PUSH1 0x0 PUSH2 0x108A DUP3 PUSH2 0x105F JUMP JUMPDEST SWAP1 POP SWAP2 SWAP1 POP JUMP JUMPDEST PUSH2 0x109A DUP2 PUSH2 0x107F JUMP JUMPDEST DUP3 MSTORE POP POP JUMP JUMPDEST PUSH1 0x80 DUP3 ADD PUSH1 0x0 DUP3 ADD MLOAD PUSH2 0x10B6 PUSH1 0x0 DUP6 ADD DUP3 PUSH2 0x1050 JUMP JUMPDEST POP PUSH1 0x20 DUP3 ADD MLOAD PUSH2 0x10C9 PUSH1 0x20 DUP6 ADD DUP3 PUSH2 0xFAD JUMP JUMPDEST POP PUSH1 0x40 DUP3 ADD MLOAD PUSH2 0x10DC PUSH1 0x40 DUP6 ADD DUP3 PUSH2 0x1091 JUMP JUMPDEST POP PUSH1 0x60 DUP3 ADD MLOAD PUSH2 0x10EF PUSH1 0x60 DUP6 ADD DUP3 PUSH2 0x1091 JUMP JUMPDEST POP POP POP POP JUMP JUMPDEST PUSH1 0x0 PUSH2 0x1101 DUP4 DUP4 PUSH2 0x10A0 JUMP JUMPDEST PUSH1 0x80 DUP4 ADD SWAP1 POP SWAP3 SWAP2 POP POP JUMP JUMPDEST PUSH1 0x0 PUSH1 0x20 DUP3 ADD SWAP1 POP SWAP2 SWAP1 POP JUMP JUMPDEST PUSH1 0x0 PUSH2 0x1125 DUP3 PUSH2 0xFBC JUMP JUMPDEST PUSH2 0x112F DUP2 DUP6 PUSH2 0xFC7 JUMP JUMPDEST SWAP4 POP PUSH2 0x113A DUP4 PUSH2 0xFD8 JUMP JUMPDEST DUP1 PUSH1 0x0 JUMPDEST DUP4 DUP2 LT ISZERO PUSH2 0x116B JUMPI DUP2 MLOAD PUSH2 0x1152 DUP9 DUP3 PUSH2 0x10F5 JUMP JUMPDEST SWAP8 POP PUSH2 0x115D DUP4 PUSH2 0x110D JUMP JUMPDEST SWAP3 POP POP PUSH1 0x1 DUP2 ADD SWAP1 POP PUSH2 0x113E JUMP JUMPDEST POP DUP6 SWAP4 POP POP POP POP SWAP3 SWAP2 POP POP JUMP JUMPDEST PUSH1 0x0 PUSH1 0xE0 DUP4 ADD PUSH1 0x0 DUP4 ADD MLOAD DUP5 DUP3 SUB PUSH1 0x0 DUP7 ADD MSTORE PUSH2 0x1195 DUP3 DUP3 PUSH2 0xF74 JUMP JUMPDEST SWAP2 POP POP PUSH1 0x20 DUP4 ADD MLOAD PUSH2 0x11AA PUSH1 0x20 DUP7 ADD DUP3 PUSH2 0xFAD JUMP JUMPDEST POP PUSH1 0x40 DUP4 ADD MLOAD DUP5 DUP3 SUB PUSH1 0x40 DUP7 ADD MSTORE PUSH2 0x11C2 DUP3 DUP3 PUSH2 0xF74 JUMP JUMPDEST SWAP2 POP POP PUSH1 0x60 DUP4 ADD MLOAD PUSH2 0x11D7 PUSH1 0x60 DUP7 ADD DUP3 PUSH2 0xFAD JUMP JUMPDEST POP PUSH1 0x80 DUP4 ADD MLOAD PUSH2 0x11EA PUSH1 0x80 DUP7 ADD DUP3 PUSH2 0xFAD JUMP JUMPDEST POP PUSH1 0xA0 DUP4 ADD MLOAD DUP5 DUP3 SUB PUSH1 0xA0 DUP7 ADD MSTORE PUSH2 0x1202 DUP3 DUP3 PUSH2 0xF74 JUMP JUMPDEST SWAP2 POP POP PUSH1 0xC0 DUP4 ADD MLOAD DUP5 DUP3 SUB PUSH1 0xC0 DUP7 ADD MSTORE PUSH2 0x121C DUP3 DUP3 PUSH2 0x111A JUMP JUMPDEST SWAP2 POP POP DUP1 SWAP2 POP POP SWAP3 SWAP2 POP POP JUMP JUMPDEST PUSH1 0x0 PUSH2 0x1235 DUP4 DUP4 PUSH2 0x1178 JUMP JUMPDEST SWAP1 POP SWAP3 SWAP2 POP POP JUMP JUMPDEST PUSH1 0x0 PUSH1 0x20 DUP3 ADD SWAP1 POP SWAP2 SWAP1 POP JUMP JUMPDEST PUSH1 0x0 PUSH2 0x1255 DUP3 PUSH2 0xF02 JUMP JUMPDEST PUSH2 0x125F DUP2 DUP6 PUSH2 0xF0D JUMP JUMPDEST SWAP4 POP DUP4 PUSH1 0x20 DUP3 MUL DUP6 ADD PUSH2 0x1271 DUP6 PUSH2 0xF1E JUMP JUMPDEST DUP1 PUSH1 0x0 JUMPDEST DUP6 DUP2 LT ISZERO PUSH2 0x12AD JUMPI DUP5 DUP5 SUB DUP10 MSTORE DUP2 MLOAD PUSH2 0x128E DUP6 DUP3 PUSH2 0x1229 JUMP JUMPDEST SWAP5 POP PUSH2 0x1299 DUP4 PUSH2 0x123D JUMP JUMPDEST SWAP3 POP PUSH1 0x20 DUP11 ADD SWAP10 POP POP PUSH1 0x1 DUP2 ADD SWAP1 POP PUSH2 0x1275 JUMP JUMPDEST POP DUP3 SWAP8 POP DUP8 SWAP6 POP POP POP POP POP POP SWAP3 SWAP2 POP POP JUMP JUMPDEST PUSH1 0x0 PUSH1 0x20 DUP3 ADD SWAP1 POP DUP2 DUP2 SUB PUSH1 0x0 DUP4 ADD MSTORE PUSH2 0x12D9 DUP2 DUP5 PUSH2 0x124A JUMP JUMPDEST SWAP1 POP SWAP3 SWAP2 POP POP JUMP JUMPDEST PUSH1 0x2 DUP2 LT PUSH2 0x12EE JUMPI PUSH1 0x0 DUP1 REVERT JUMPDEST POP JUMP JUMPDEST PUSH1 0x0 DUP2 CALLDATALOAD SWAP1 POP PUSH2 0x1300 DUP2 PUSH2 0x12E1 JUMP JUMPDEST SWAP3 SWAP2 POP POP JUMP JUMPDEST PUSH2 0x130F DUP2 PUSH2 0x107F JUMP JUMPDEST DUP2 EQ PUSH2 0x131A JUMPI PUSH1 0x0 DUP1 REVERT JUMPDEST POP JUMP JUMPDEST PUSH1 0x0 DUP2 CALLDATALOAD SWAP1 POP PUSH2 0x132C DUP2 PUSH2 0x1306 JUMP JUMPDEST SWAP3 SWAP2 POP POP JUMP JUMPDEST PUSH1 0x0 DUP1 PUSH1 0x0 DUP1 PUSH1 0x80 DUP6 DUP8 SUB SLT ISZERO PUSH2 0x134C JUMPI PUSH2 0x134B PUSH2 0xC9B JUMP JUMPDEST JUMPDEST PUSH1 0x0 PUSH2 0x135A DUP8 DUP3 DUP9 ADD PUSH2 0xE0C JUMP JUMPDEST SWAP5 POP POP PUSH1 0x20 PUSH2 0x136B DUP8 DUP3 DUP9 ADD PUSH2 0x12F1 JUMP JUMPDEST SWAP4 POP POP PUSH1 0x40 PUSH2 0x137C DUP8 DUP3 DUP9 ADD PUSH2 0x131D JUMP JUMPDEST SWAP3 POP POP PUSH1 0x60 PUSH2 0x138D DUP8 DUP3 DUP9 ADD PUSH2 0x131D JUMP JUMPDEST SWAP2 POP POP SWAP3 SWAP6 SWAP2 SWAP5 POP SWAP3 POP JUMP JUMPDEST PUSH1 0x0 PUSH1 0x20 DUP3 DUP5 SUB SLT ISZERO PUSH2 0x13AF JUMPI PUSH2 0x13AE PUSH2 0xC9B JUMP JUMPDEST JUMPDEST PUSH1 0x0 PUSH2 0x13BD DUP5 DUP3 DUP6 ADD PUSH2 0xE0C JUMP JUMPDEST SWAP2 POP POP SWAP3 SWAP2 POP POP JUMP JUMPDEST PUSH1 0x0 PUSH1 0xE0 DUP4 ADD PUSH1 0x0 DUP4 ADD MLOAD DUP5 DUP3 SUB PUSH1 0x0 DUP7 ADD MSTORE PUSH2 0x13E3 DUP3 DUP3 PUSH2 0xF74 JUMP JUMPDEST SWAP2 POP POP PUSH1 0x20 DUP4 ADD MLOAD PUSH2 0x13F8 PUSH1 0x20 DUP7 ADD DUP3 PUSH2 0xFAD JUMP JUMPDEST POP PUSH1 0x40 DUP4 ADD MLOAD DUP5 DUP3 SUB PUSH1 0x40 DUP7 ADD MSTORE PUSH2 0x1410 DUP3 DUP3 PUSH2 0xF74 JUMP JUMPDEST SWAP2 POP POP PUSH1 0x60 DUP4 ADD MLOAD PUSH2 0x1425 PUSH1 0x60 DUP7 ADD DUP3 PUSH2 0xFAD JUMP JUMPDEST POP PUSH1 0x80 DUP4 ADD MLOAD PUSH2 0x1438 PUSH1 0x80 DUP7 ADD DUP3 PUSH2 0xFAD JUMP JUMPDEST POP PUSH1 0xA0 DUP4 ADD MLOAD DUP5 DUP3 SUB PUSH1 0xA0 DUP7 ADD MSTORE PUSH2 0x1450 DUP3 DUP3 PUSH2 0xF74 JUMP JUMPDEST SWAP2 POP POP PUSH1 0xC0 DUP4 ADD MLOAD DUP5 DUP3 SUB PUSH1 0xC0 DUP7 ADD MSTORE PUSH2 0x146A DUP3 DUP3 PUSH2 0x111A JUMP JUMPDEST SWAP2 POP POP DUP1 SWAP2 POP POP SWAP3 SWAP2 POP POP JUMP JUMPDEST PUSH1 0x0 PUSH1 0x20 DUP3 ADD SWAP1 POP DUP2 DUP2 SUB PUSH1 0x0 DUP4 ADD MSTORE PUSH2 0x1491 DUP2 DUP5 PUSH2 0x13C6 JUMP JUMPDEST SWAP1 POP SWAP3 SWAP2 POP POP JUMP JUMPDEST PUSH1 0x0 DUP3 DUP3 MSTORE PUSH1 0x20 DUP3 ADD SWAP1 POP SWAP3 SWAP2 POP POP JUMP JUMPDEST PUSH32 0x6F6E6C79206F776E6565722063616E207265676973746572206E657720706174 PUSH1 0x0 DUP3 ADD MSTORE PUSH32 0x69656E7400000000000000000000000000000000000000000000000000000000 PUSH1 0x20 DUP3 ADD MSTORE POP JUMP JUMPDEST PUSH1 0x0 PUSH2 0x1506 PUSH1 0x24 DUP4 PUSH2 0x1499 JUMP JUMPDEST SWAP2 POP PUSH2 0x1511 DUP3 PUSH2 0x14AA JUMP JUMPDEST PUSH1 0x40 DUP3 ADD SWAP1 POP SWAP2 SWAP1 POP JUMP JUMPDEST PUSH1 0x0 PUSH1 0x20 DUP3 ADD SWAP1 POP DUP2 DUP2 SUB PUSH1 0x0 DUP4 ADD MSTORE PUSH2 0x1535 DUP2 PUSH2 0x14F9 JUMP JUMPDEST SWAP1 POP SWAP2 SWAP1 POP JUMP JUMPDEST PUSH32 0x4E487B7100000000000000000000000000000000000000000000000000000000 PUSH1 0x0 MSTORE PUSH1 0x32 PUSH1 0x4 MSTORE PUSH1 0x24 PUSH1 0x0 REVERT JUMPDEST PUSH32 0x4E487B7100000000000000000000000000000000000000000000000000000000 PUSH1 0x0 MSTORE PUSH1 0x22 PUSH1 0x4 MSTORE PUSH1 0x24 PUSH1 0x0 REVERT JUMPDEST PUSH1 0x0 PUSH1 0x2 DUP3 DIV SWAP1 POP PUSH1 0x1 DUP3 AND DUP1 PUSH2 0x15B2 JUMPI PUSH1 0x7F DUP3 AND SWAP2 POP JUMPDEST PUSH1 0x20 DUP3 LT DUP2 SUB PUSH2 0x15C5 JUMPI PUSH2 0x15C4 PUSH2 0x156B JUMP JUMPDEST JUMPDEST POP SWAP2 SWAP1 POP JUMP JUMPDEST PUSH1 0x0 DUP2 SWAP1 POP DUP2 PUSH1 0x0 MSTORE PUSH1 0x20 PUSH1 0x0 KECCAK256 SWAP1 POP SWAP2 SWAP1 POP JUMP JUMPDEST PUSH1 0x0 PUSH1 0x20 PUSH1 0x1F DUP4 ADD DIV SWAP1 POP SWAP2 SWAP1 POP JUMP JUMPDEST PUSH1 0x0 DUP3 DUP3 SHL SWAP1 POP SWAP3 SWAP2 POP POP JUMP JUMPDEST PUSH1 0x0 PUSH1 0x8 DUP4 MUL PUSH2 0x162D PUSH32 0xFFFFFFFFFFFFFFFFFFFFFFFFFFFFFFFFFFFFFFFFFFFFFFFFFFFFFFFFFFFFFFFF DUP3 PUSH2 0x15F0 JUMP JUMPDEST PUSH2 0x1637 DUP7 DUP4 PUSH2 0x15F0 JUMP JUMPDEST SWAP6 POP DUP1 NOT DUP5 AND SWAP4 POP DUP1 DUP7 AND DUP5 OR SWAP3 POP POP POP SWAP4 SWAP3 POP POP POP JUMP JUMPDEST PUSH1 0x0 DUP2 SWAP1 POP SWAP2 SWAP1 POP JUMP JUMPDEST PUSH1 0x0 PUSH2 0x1674 PUSH2 0x166F PUSH2 0x166A DUP5 PUSH2 0xDEB JUMP JUMPDEST PUSH2 0x164F JUMP JUMPDEST PUSH2 0xDEB JUMP JUMPDEST SWAP1 POP SWAP2 SWAP1 POP JUMP JUMPDEST PUSH1 0x0 DUP2 SWAP1 POP SWAP2 SWAP1 POP JUMP JUMPDEST PUSH2 0x168E DUP4 PUSH2 0x1659 JUMP JUMPDEST PUSH2 0x16A2 PUSH2 0x169A DUP3 PUSH2 0x167B JUMP JUMPDEST DUP5 DUP5 SLOAD PUSH2 0x15FD JUMP JUMPDEST DUP3 SSTORE POP POP POP POP JUMP JUMPDEST PUSH1 0x0 SWAP1 JUMP JUMPDEST PUSH2 0x16B7 PUSH2 0x16AA JUMP JUMPDEST PUSH2 0x16C2 DUP2 DUP5 DUP5 PUSH2 0x1685 JUMP JUMPDEST POP POP POP JUMP JUMPDEST JUMPDEST DUP2 DUP2 LT ISZERO PUSH2 0x16E6 JUMPI PUSH2 0x16DB PUSH1 0x0 DUP3 PUSH2 0x16AF JUMP JUMPDEST PUSH1 0x1 DUP2 ADD SWAP1 POP PUSH2 0x16C8 JUMP JUMPDEST POP POP JUMP JUMPDEST PUSH1 0x1F DUP3 GT ISZERO PUSH2 0x172B JUMPI PUSH2 0x16FC DUP2 PUSH2 0x15CB JUMP JUMPDEST PUSH2 0x1705 DUP5 PUSH2 0x15E0 JUMP JUMPDEST DUP2 ADD PUSH1 0x20 DUP6 LT ISZERO PUSH2 0x1714 JUMPI DUP2 SWAP1 POP JUMPDEST PUSH2 0x1728 PUSH2 0x1720 DUP6 PUSH2 0x15E0 JUMP JUMPDEST DUP4 ADD DUP3 PUSH2 0x16C7 JUMP JUMPDEST POP POP JUMPDEST POP POP POP JUMP JUMPDEST PUSH1 0x0 DUP3 DUP3 SHR SWAP1 POP SWAP3 SWAP2 POP POP JUMP JUMPDEST PUSH1 0x0 PUSH2 0x174E PUSH1 0x0 NOT DUP5 PUSH1 0x8 MUL PUSH2 0x1730 JUMP JUMPDEST NOT DUP1 DUP4 AND SWAP2 POP POP SWAP3 SWAP2 POP POP JUMP JUMPDEST PUSH1 0x0 PUSH2 0x1767 DUP4 DUP4 PUSH2 0x173D JUMP JUMPDEST SWAP2 POP DUP3 PUSH1 0x2 MUL DUP3 OR SWAP1 POP SWAP3 SWAP2 POP POP JUMP JUMPDEST PUSH2 0x1780 DUP3 PUSH2 0xF2E JUMP JUMPDEST PUSH8 0xFFFFFFFFFFFFFFFF DUP2 GT ISZERO PUSH2 0x1799 JUMPI PUSH2 0x1798 PUSH2 0xCC0 JUMP JUMPDEST JUMPDEST PUSH2 0x17A3 DUP3 SLOAD PUSH2 0x159A JUMP JUMPDEST PUSH2 0x17AE DUP3 DUP3 DUP6 PUSH2 0x16EA JUMP JUMPDEST PUSH1 0x0 PUSH1 0x20 SWAP1 POP PUSH1 0x1F DUP4 GT PUSH1 0x1 DUP2 EQ PUSH2 0x17E1 JUMPI PUSH1 0x0 DUP5 ISZERO PUSH2 0x17CF JUMPI DUP3 DUP8 ADD MLOAD SWAP1 POP JUMPDEST PUSH2 0x17D9 DUP6 DUP3 PUSH2 0x175B JUMP JUMPDEST DUP7 SSTORE POP PUSH2 0x1841 JUMP JUMPDEST PUSH1 0x1F NOT DUP5 AND PUSH2 0x17EF DUP7 PUSH2 0x15CB JUMP JUMPDEST PUSH1 0x0 JUMPDEST DUP3 DUP2 LT ISZERO PUSH2 0x1817 JUMPI DUP5 DUP10 ADD MLOAD DUP3 SSTORE PUSH1 0x1 DUP3 ADD SWAP2 POP PUSH1 0x20 DUP6 ADD SWAP5 POP PUSH1 0x20 DUP2 ADD SWAP1 POP PUSH2 0x17F2 JUMP JUMPDEST DUP7 DUP4 LT ISZERO PUSH2 0x1834 JUMPI DUP5 DUP10 ADD MLOAD PUSH2 0x1830 PUSH1 0x1F DUP10 AND DUP3 PUSH2 0x173D JUMP JUMPDEST DUP4 SSTORE POP JUMPDEST PUSH1 0x1 PUSH1 0x2 DUP9 MUL ADD DUP9 SSTORE POP POP POP JUMPDEST POP POP POP POP POP POP JUMP JUMPDEST PUSH32 0x6E657750617469656E74206164646564207375636365737366756C6C79000000 PUSH1 0x0 DUP3 ADD MSTORE POP JUMP JUMPDEST PUSH1 0x0 PUSH2 0x187F PUSH1 0x1D DUP4 PUSH2 0x1499 JUMP JUMPDEST SWAP2 POP PUSH2 0x188A DUP3 PUSH2 0x1849 JUMP JUMPDEST PUSH1 0x20 DUP3 ADD SWAP1 POP SWAP2 SWAP1 POP JUMP JUMPDEST PUSH1 0x0 PUSH1 0x20 DUP3 ADD SWAP1 POP DUP2 DUP2 SUB PUSH1 0x0 DUP4 ADD MSTORE PUSH2 0x18AE DUP2 PUSH2 0x1872 JUMP JUMPDEST SWAP1 POP SWAP2 SWAP1 POP JUMP JUMPDEST PUSH32 0x6F6E6C79206F6E65722063616E20757064617465207468697320646174610000 PUSH1 0x0 DUP3 ADD MSTORE POP JUMP JUMPDEST PUSH1 0x0 PUSH2 0x18EB PUSH1 0x1E DUP4 PUSH2 0x1499 JUMP JUMPDEST SWAP2 POP PUSH2 0x18F6 DUP3 PUSH2 0x18B5 JUMP JUMPDEST PUSH1 0x20 DUP3 ADD SWAP1 POP SWAP2 SWAP1 POP JUMP JUMPDEST PUSH1 0x0 PUSH1 0x20 DUP3 ADD SWAP1 POP DUP2 DUP2 SUB PUSH1 0x0 DUP4 ADD MSTORE PUSH2 0x191A DUP2 PUSH2 0x18DE JUMP JUMPDEST SWAP1 POP SWAP2 SWAP1 POP JUMP JUMPDEST PUSH32 0x6E65772070617469656E74207570646174652064617461207375636365736675 PUSH1 0x0 DUP3 ADD MSTORE PUSH32 0x6C6C790000000000000000000000000000000000000000000000000000000000 PUSH1 0x20 DUP3 ADD MSTORE POP JUMP JUMPDEST PUSH1 0x0 PUSH2 0x197D PUSH1 0x23 DUP4 PUSH2 0x1499 JUMP JUMPDEST SWAP2 POP PUSH2 0x1988 DUP3 PUSH2 0x1921 JUMP JUMPDEST PUSH1 0x40 DUP3 ADD SWAP1 POP SWAP2 SWAP1 POP JUMP JUMPDEST PUSH1 0x0 PUSH1 0x20 DUP3 ADD SWAP1 POP DUP2 DUP2 SUB PUSH1 0x0 DUP4 ADD MSTORE PUSH2 0x19AC DUP2 PUSH2 0x1970 JUMP JUMPDEST SWAP1 POP SWAP2 SWAP1 POP JUMP INVALID LOG2 PUSH5 0x6970667358 0x22 SLT KECCAK256 0xB3 0x4F STATICCALL CREATE PUSH4 0x63F0AA08 POP PUSH3 0x30587F 0xAB PUSH24 0xAA133F26C0A42436BFF7D34B63ED7BD164736F6C63430008 SLT STOP CALLER "
				},
				"gasEstimates": {
					"creation": {
						"codeDepositCost": "1326600",
						"executionCost": "25649",
						"totalCost": "1352249"
					},
					"external": {
						"bloodTransactionAllData(uint256,uint8,address,address)": "infinite",
						"getAllPatientRecord()": "infinite",
						"getPatientRecord(uint256)": "infinite",
						"newPatientRegistration(string,uint256,string,uint256,uint256,string)": "infinite"
					}
				},
				"methodIdentifiers": {
					"bloodTransactionAllData(uint256,uint8,address,address)": "7e3237e3",
					"getAllPatientRecord()": "4968cf21",
					"getPatientRecord(uint256)": "b9fff11b",
					"newPatientRegistration(string,uint256,string,uint256,uint256,string)": "1a290b7a"
				}
			},
			"storageLayout": {
				"storage": [
					{
						"astId": 3,
						"contract": "practies.sol:Hospital",
						"label": "owner",
						"offset": 0,
						"slot": "0",
						"type": "t_address"
					},
					{
						"astId": 46,
						"contract": "practies.sol:Hospital",
						"label": "patientRecord",
						"offset": 0,
						"slot": "1",
						"type": "t_array(t_struct(patientRegistration)42_storage)dyn_storage"
					},
					{
						"astId": 50,
						"contract": "practies.sol:Hospital",
						"label": "PatientRecordIndex",
						"offset": 0,
						"slot": "2",
						"type": "t_mapping(t_uint256,t_uint256)"
					}
				],
				"types": {
					"t_address": {
						"encoding": "inplace",
						"label": "address",
						"numberOfBytes": "20"
					},
					"t_array(t_struct(bloodTransaction)25_storage)dyn_storage": {
						"base": "t_struct(bloodTransaction)25_storage",
						"encoding": "dynamic_array",
						"label": "struct Hospital.bloodTransaction[]",
						"numberOfBytes": "32"
					},
					"t_array(t_struct(patientRegistration)42_storage)dyn_storage": {
						"base": "t_struct(patientRegistration)42_storage",
						"encoding": "dynamic_array",
						"label": "struct Hospital.patientRegistration[]",
						"numberOfBytes": "32"
					},
					"t_enum(patientType)15": {
						"encoding": "inplace",
						"label": "enum Hospital.patientType",
						"numberOfBytes": "1"
					},
					"t_mapping(t_uint256,t_uint256)": {
						"encoding": "mapping",
						"key": "t_uint256",
						"label": "mapping(uint256 => uint256)",
						"numberOfBytes": "32",
						"value": "t_uint256"
					},
					"t_string_storage": {
						"encoding": "bytes",
						"label": "string",
						"numberOfBytes": "32"
					},
					"t_struct(bloodTransaction)25_storage": {
						"encoding": "inplace",
						"label": "struct Hospital.bloodTransaction",
						"members": [
							{
								"astId": 18,
								"contract": "practies.sol:Hospital",
								"label": "PatientType",
								"offset": 0,
								"slot": "0",
								"type": "t_enum(patientType)15"
							},
							{
								"astId": 20,
								"contract": "practies.sol:Hospital",
								"label": "timestamping",
								"offset": 0,
								"slot": "1",
								"type": "t_uint256"
							},
							{
								"astId": 22,
								"contract": "practies.sol:Hospital",
								"label": "from",
								"offset": 0,
								"slot": "2",
								"type": "t_address"
							},
							{
								"astId": 24,
								"contract": "practies.sol:Hospital",
								"label": "to",
								"offset": 0,
								"slot": "3",
								"type": "t_address"
							}
						],
						"numberOfBytes": "128"
					},
					"t_struct(patientRegistration)42_storage": {
						"encoding": "inplace",
						"label": "struct Hospital.patientRegistration",
						"members": [
							{
								"astId": 27,
								"contract": "practies.sol:Hospital",
								"label": "name",
								"offset": 0,
								"slot": "0",
								"type": "t_string_storage"
							},
							{
								"astId": 29,
								"contract": "practies.sol:Hospital",
								"label": "age",
								"offset": 0,
								"slot": "1",
								"type": "t_uint256"
							},
							{
								"astId": 31,
								"contract": "practies.sol:Hospital",
								"label": "location",
								"offset": 0,
								"slot": "2",
								"type": "t_string_storage"
							},
							{
								"astId": 33,
								"contract": "practies.sol:Hospital",
								"label": "contractNumber",
								"offset": 0,
								"slot": "3",
								"type": "t_uint256"
							},
							{
								"astId": 35,
								"contract": "practies.sol:Hospital",
								"label": "nidNumber",
								"offset": 0,
								"slot": "4",
								"type": "t_uint256"
							},
							{
								"astId": 37,
								"contract": "practies.sol:Hospital",
								"label": "parmanentAddress",
								"offset": 0,
								"slot": "5",
								"type": "t_string_storage"
							},
							{
								"astId": 41,
								"contract": "practies.sol:Hospital",
								"label": "bT",
								"offset": 0,
								"slot": "6",
								"type": "t_array(t_struct(bloodTransaction)25_storage)dyn_storage"
							}
						],
						"numberOfBytes": "224"
					},
					"t_uint256": {
						"encoding": "inplace",
						"label": "uint256",
						"numberOfBytes": "32"
					}
				}
			},
			"userdoc": {
				"kind": "user",
				"methods": {},
				"version": 1
			}
		}
	}
}