{
	"practies.sol": {
		"Parcties": {
			"abi": [
				{
					"inputs": [],
					"name": "getDay",
					"outputs": [
						{
							"internalType": "enum Parcties.Day",
							"name": "",
							"type": "uint8"
						}
					],
					"stateMutability": "view",
					"type": "function"
				},
				{
					"inputs": [],
					"name": "selectedDay",
					"outputs": [
						{
							"internalType": "enum Parcties.Day",
							"name": "",
							"type": "uint8"
						}
					],
					"stateMutability": "view",
					"type": "function"
				},
				{
					"inputs": [
						{
							"internalType": "enum Parcties.Day",
							"name": "_day",
							"type": "uint8"
						}
					],
					"name": "setDay",
					"outputs": [],
					"stateMutability": "nonpayable",
					"type": "function"
				}
			],
			"devdoc": {
				"kind": "dev",
				"methods": {},
				"version": 1
			},
			"evm": {
				"assembly": "    /* \"practies.sol\":63:390  contract Parcties{... */\n  mstore(0x40, 0x80)\n  callvalue\n  dup1\n  iszero\n  tag_1\n  jumpi\n  0x00\n  dup1\n  revert\ntag_1:\n  pop\n  dataSize(sub_0)\n  dup1\n  dataOffset(sub_0)\n  0x00\n  codecopy\n  0x00\n  return\nstop\n\nsub_0: assembly {\n        /* \"practies.sol\":63:390  contract Parcties{... */\n      mstore(0x40, 0x80)\n      callvalue\n      dup1\n      iszero\n      tag_1\n      jumpi\n      0x00\n      dup1\n      revert\n    tag_1:\n      pop\n      jumpi(tag_2, lt(calldatasize, 0x04))\n      shr(0xe0, calldataload(0x00))\n      dup1\n      0x14ba5c09\n      eq\n      tag_3\n      jumpi\n      dup1\n      0x2f00bfcb\n      eq\n      tag_4\n      jumpi\n      dup1\n      0xaa55a178\n      eq\n      tag_5\n      jumpi\n    tag_2:\n      0x00\n      dup1\n      revert\n        /* \"practies.sol\":306:387  function getDay() public view returns (Day) {... */\n    tag_3:\n      tag_6\n      tag_7\n      jump\t// in\n    tag_6:\n      mload(0x40)\n      tag_8\n      swap2\n      swap1\n      tag_9\n      jump\t// in\n    tag_8:\n      mload(0x40)\n      dup1\n      swap2\n      sub\n      swap1\n      return\n        /* \"practies.sol\":228:298  function setDay(Day _day) public {... */\n    tag_4:\n      tag_10\n      0x04\n      dup1\n      calldatasize\n      sub\n      dup2\n      add\n      swap1\n      tag_11\n      swap2\n      swap1\n      tag_12\n      jump\t// in\n    tag_11:\n      tag_13\n      jump\t// in\n    tag_10:\n      stop\n        /* \"practies.sol\":197:219  Day public selectedDay */\n    tag_5:\n      tag_14\n      tag_15\n      jump\t// in\n    tag_14:\n      mload(0x40)\n      tag_16\n      swap2\n      swap1\n      tag_9\n      jump\t// in\n    tag_16:\n      mload(0x40)\n      dup1\n      swap2\n      sub\n      swap1\n      return\n        /* \"practies.sol\":306:387  function getDay() public view returns (Day) {... */\n    tag_7:\n        /* \"practies.sol\":345:348  Day */\n      0x00\n        /* \"practies.sol\":368:379  selectedDay */\n      dup1\n      0x00\n      swap1\n      sload\n      swap1\n      0x0100\n      exp\n      swap1\n      div\n      0xff\n      and\n        /* \"practies.sol\":361:379  return selectedDay */\n      swap1\n      pop\n        /* \"practies.sol\":306:387  function getDay() public view returns (Day) {... */\n      swap1\n      jump\t// out\n        /* \"practies.sol\":228:298  function setDay(Day _day) public {... */\n    tag_13:\n        /* \"practies.sol\":286:290  _day */\n      dup1\n        /* \"practies.sol\":272:283  selectedDay */\n      0x00\n      dup1\n        /* \"practies.sol\":272:290  selectedDay = _day */\n      0x0100\n      exp\n      dup2\n      sload\n      dup2\n      0xff\n      mul\n      not\n      and\n      swap1\n      dup4\n      0x06\n      dup2\n      gt\n      iszero\n      tag_19\n      jumpi\n      tag_20\n      tag_21\n      jump\t// in\n    tag_20:\n    tag_19:\n      mul\n      or\n      swap1\n      sstore\n      pop\n        /* \"practies.sol\":228:298  function setDay(Day _day) public {... */\n      pop\n      jump\t// out\n        /* \"practies.sol\":197:219  Day public selectedDay */\n    tag_15:\n      0x00\n      dup1\n      sload\n      swap1\n      0x0100\n      exp\n      swap1\n      div\n      0xff\n      and\n      dup2\n      jump\t// out\n        /* \"#utility.yul\":7:187   */\n    tag_21:\n        /* \"#utility.yul\":55:132   */\n      0x4e487b7100000000000000000000000000000000000000000000000000000000\n        /* \"#utility.yul\":52:53   */\n      0x00\n        /* \"#utility.yul\":45:133   */\n      mstore\n        /* \"#utility.yul\":152:156   */\n      0x21\n        /* \"#utility.yul\":149:150   */\n      0x04\n        /* \"#utility.yul\":142:157   */\n      mstore\n        /* \"#utility.yul\":176:180   */\n      0x24\n        /* \"#utility.yul\":173:174   */\n      0x00\n        /* \"#utility.yul\":166:181   */\n      revert\n        /* \"#utility.yul\":193:303   */\n    tag_22:\n        /* \"#utility.yul\":271:272   */\n      0x07\n        /* \"#utility.yul\":264:269   */\n      dup2\n        /* \"#utility.yul\":261:273   */\n      lt\n        /* \"#utility.yul\":251:297   */\n      tag_34\n      jumpi\n        /* \"#utility.yul\":277:295   */\n      tag_35\n      tag_21\n      jump\t// in\n    tag_35:\n        /* \"#utility.yul\":251:297   */\n    tag_34:\n        /* \"#utility.yul\":193:303   */\n      pop\n      jump\t// out\n        /* \"#utility.yul\":309:430   */\n    tag_23:\n        /* \"#utility.yul\":351:358   */\n      0x00\n        /* \"#utility.yul\":380:385   */\n      dup2\n        /* \"#utility.yul\":369:385   */\n      swap1\n      pop\n        /* \"#utility.yul\":386:424   */\n      tag_37\n        /* \"#utility.yul\":418:423   */\n      dup3\n        /* \"#utility.yul\":386:424   */\n      tag_22\n      jump\t// in\n    tag_37:\n        /* \"#utility.yul\":309:430   */\n      swap2\n      swap1\n      pop\n      jump\t// out\n        /* \"#utility.yul\":436:557   */\n    tag_24:\n        /* \"#utility.yul\":489:498   */\n      0x00\n        /* \"#utility.yul\":522:551   */\n      tag_39\n        /* \"#utility.yul\":545:550   */\n      dup3\n        /* \"#utility.yul\":522:551   */\n      tag_23\n      jump\t// in\n    tag_39:\n        /* \"#utility.yul\":509:551   */\n      swap1\n      pop\n        /* \"#utility.yul\":436:557   */\n      swap2\n      swap1\n      pop\n      jump\t// out\n        /* \"#utility.yul\":563:700   */\n    tag_25:\n        /* \"#utility.yul\":653:693   */\n      tag_41\n        /* \"#utility.yul\":687:692   */\n      dup2\n        /* \"#utility.yul\":653:693   */\n      tag_24\n      jump\t// in\n    tag_41:\n        /* \"#utility.yul\":648:651   */\n      dup3\n        /* \"#utility.yul\":641:694   */\n      mstore\n        /* \"#utility.yul\":563:700   */\n      pop\n      pop\n      jump\t// out\n        /* \"#utility.yul\":706:934   */\n    tag_9:\n        /* \"#utility.yul\":802:806   */\n      0x00\n        /* \"#utility.yul\":840:842   */\n      0x20\n        /* \"#utility.yul\":829:838   */\n      dup3\n        /* \"#utility.yul\":825:843   */\n      add\n        /* \"#utility.yul\":817:843   */\n      swap1\n      pop\n        /* \"#utility.yul\":853:927   */\n      tag_43\n        /* \"#utility.yul\":924:925   */\n      0x00\n        /* \"#utility.yul\":913:922   */\n      dup4\n        /* \"#utility.yul\":909:926   */\n      add\n        /* \"#utility.yul\":900:906   */\n      dup5\n        /* \"#utility.yul\":853:927   */\n      tag_25\n      jump\t// in\n    tag_43:\n        /* \"#utility.yul\":706:934   */\n      swap3\n      swap2\n      pop\n      pop\n      jump\t// out\n        /* \"#utility.yul\":1021:1138   */\n    tag_27:\n        /* \"#utility.yul\":1130:1131   */\n      0x00\n        /* \"#utility.yul\":1127:1128   */\n      dup1\n        /* \"#utility.yul\":1120:1132   */\n      revert\n        /* \"#utility.yul\":1267:1371   */\n    tag_29:\n        /* \"#utility.yul\":1345:1346   */\n      0x07\n        /* \"#utility.yul\":1338:1343   */\n      dup2\n        /* \"#utility.yul\":1335:1347   */\n      lt\n        /* \"#utility.yul\":1325:1365   */\n      tag_48\n      jumpi\n        /* \"#utility.yul\":1361:1362   */\n      0x00\n        /* \"#utility.yul\":1358:1359   */\n      dup1\n        /* \"#utility.yul\":1351:1363   */\n      revert\n        /* \"#utility.yul\":1325:1365   */\n    tag_48:\n        /* \"#utility.yul\":1267:1371   */\n      pop\n      jump\t// out\n        /* \"#utility.yul\":1377:1526   */\n    tag_30:\n        /* \"#utility.yul\":1428:1433   */\n      0x00\n        /* \"#utility.yul\":1466:1472   */\n      dup2\n        /* \"#utility.yul\":1453:1473   */\n      calldataload\n        /* \"#utility.yul\":1444:1473   */\n      swap1\n      pop\n        /* \"#utility.yul\":1482:1520   */\n      tag_50\n        /* \"#utility.yul\":1514:1519   */\n      dup2\n        /* \"#utility.yul\":1482:1520   */\n      tag_29\n      jump\t// in\n    tag_50:\n        /* \"#utility.yul\":1377:1526   */\n      swap3\n      swap2\n      pop\n      pop\n      jump\t// out\n        /* \"#utility.yul\":1532:1871   */\n    tag_12:\n        /* \"#utility.yul\":1596:1602   */\n      0x00\n        /* \"#utility.yul\":1645:1647   */\n      0x20\n        /* \"#utility.yul\":1633:1642   */\n      dup3\n        /* \"#utility.yul\":1624:1631   */\n      dup5\n        /* \"#utility.yul\":1620:1643   */\n      sub\n        /* \"#utility.yul\":1616:1648   */\n      slt\n        /* \"#utility.yul\":1613:1732   */\n      iszero\n      tag_52\n      jumpi\n        /* \"#utility.yul\":1651:1730   */\n      tag_53\n      tag_27\n      jump\t// in\n    tag_53:\n        /* \"#utility.yul\":1613:1732   */\n    tag_52:\n        /* \"#utility.yul\":1771:1772   */\n      0x00\n        /* \"#utility.yul\":1796:1854   */\n      tag_54\n        /* \"#utility.yul\":1846:1853   */\n      dup5\n        /* \"#utility.yul\":1837:1843   */\n      dup3\n        /* \"#utility.yul\":1826:1835   */\n      dup6\n        /* \"#utility.yul\":1822:1844   */\n      add\n        /* \"#utility.yul\":1796:1854   */\n      tag_30\n      jump\t// in\n    tag_54:\n        /* \"#utility.yul\":1786:1854   */\n      swap2\n      pop\n        /* \"#utility.yul\":1742:1864   */\n      pop\n        /* \"#utility.yul\":1532:1871   */\n      swap3\n      swap2\n      pop\n      pop\n      jump\t// out\n\n    auxdata: 0xa2646970667358221220a6bacae66af44a7bfd825bbb681787fc7d227f30c51f677eda915eb1d749431c64736f6c63430008120033\n}\n",
				"bytecode": {
					"linkReferences": {},
					"object": "608060405234801561001057600080fd5b50610210806100206000396000f3fe608060405234801561001057600080fd5b50600436106100415760003560e01c806314ba5c09146100465780632f00bfcb14610064578063aa55a17814610080575b600080fd5b61004e61009e565b60405161005b9190610168565b60405180910390f35b61007e600480360381019061007991906101ad565b6100b4565b005b6100886100e0565b6040516100959190610168565b60405180910390f35b60008060009054906101000a900460ff16905090565b806000806101000a81548160ff021916908360068111156100d8576100d76100f1565b5b021790555050565b60008054906101000a900460ff1681565b7f4e487b7100000000000000000000000000000000000000000000000000000000600052602160045260246000fd5b60078110610131576101306100f1565b5b50565b600081905061014282610120565b919050565b600061015282610134565b9050919050565b61016281610147565b82525050565b600060208201905061017d6000830184610159565b92915050565b600080fd5b6007811061019557600080fd5b50565b6000813590506101a781610188565b92915050565b6000602082840312156101c3576101c2610183565b5b60006101d184828501610198565b9150509291505056fea2646970667358221220a6bacae66af44a7bfd825bbb681787fc7d227f30c51f677eda915eb1d749431c64736f6c63430008120033",
					"opcodes": "PUSH1 0x80 PUSH1 0x40 MSTORE CALLVALUE DUP1 ISZERO PUSH2 0x10 JUMPI PUSH1 0x0 DUP1 REVERT JUMPDEST POP PUSH2 0x210 DUP1 PUSH2 0x20 PUSH1 0x0 CODECOPY PUSH1 0x0 RETURN INVALID PUSH1 0x80 PUSH1 0x40 MSTORE CALLVALUE DUP1 ISZERO PUSH2 0x10 JUMPI PUSH1 0x0 DUP1 REVERT JUMPDEST POP PUSH1 0x4 CALLDATASIZE LT PUSH2 0x41 JUMPI PUSH1 0x0 CALLDATALOAD PUSH1 0xE0 SHR DUP1 PUSH4 0x14BA5C09 EQ PUSH2 0x46 JUMPI DUP1 PUSH4 0x2F00BFCB EQ PUSH2 0x64 JUMPI DUP1 PUSH4 0xAA55A178 EQ PUSH2 0x80 JUMPI JUMPDEST PUSH1 0x0 DUP1 REVERT JUMPDEST PUSH2 0x4E PUSH2 0x9E JUMP JUMPDEST PUSH1 0x40 MLOAD PUSH2 0x5B SWAP2 SWAP1 PUSH2 0x168 JUMP JUMPDEST PUSH1 0x40 MLOAD DUP1 SWAP2 SUB SWAP1 RETURN JUMPDEST PUSH2 0x7E PUSH1 0x4 DUP1 CALLDATASIZE SUB DUP2 ADD SWAP1 PUSH2 0x79 SWAP2 SWAP1 PUSH2 0x1AD JUMP JUMPDEST PUSH2 0xB4 JUMP JUMPDEST STOP JUMPDEST PUSH2 0x88 PUSH2 0xE0 JUMP JUMPDEST PUSH1 0x40 MLOAD PUSH2 0x95 SWAP2 SWAP1 PUSH2 0x168 JUMP JUMPDEST PUSH1 0x40 MLOAD DUP1 SWAP2 SUB SWAP1 RETURN JUMPDEST PUSH1 0x0 DUP1 PUSH1 0x0 SWAP1 SLOAD SWAP1 PUSH2 0x100 EXP SWAP1 DIV PUSH1 0xFF AND SWAP1 POP SWAP1 JUMP JUMPDEST DUP1 PUSH1 0x0 DUP1 PUSH2 0x100 EXP DUP2 SLOAD DUP2 PUSH1 0xFF MUL NOT AND SWAP1 DUP4 PUSH1 0x6 DUP2 GT ISZERO PUSH2 0xD8 JUMPI PUSH2 0xD7 PUSH2 0xF1 JUMP JUMPDEST JUMPDEST MUL OR SWAP1 SSTORE POP POP JUMP JUMPDEST PUSH1 0x0 DUP1 SLOAD SWAP1 PUSH2 0x100 EXP SWAP1 DIV PUSH1 0xFF AND DUP2 JUMP JUMPDEST PUSH32 0x4E487B7100000000000000000000000000000000000000000000000000000000 PUSH1 0x0 MSTORE PUSH1 0x21 PUSH1 0x4 MSTORE PUSH1 0x24 PUSH1 0x0 REVERT JUMPDEST PUSH1 0x7 DUP2 LT PUSH2 0x131 JUMPI PUSH2 0x130 PUSH2 0xF1 JUMP JUMPDEST JUMPDEST POP JUMP JUMPDEST PUSH1 0x0 DUP2 SWAP1 POP PUSH2 0x142 DUP3 PUSH2 0x120 JUMP JUMPDEST SWAP2 SWAP1 POP JUMP JUMPDEST PUSH1 0x0 PUSH2 0x152 DUP3 PUSH2 0x134 JUMP JUMPDEST SWAP1 POP SWAP2 SWAP1 POP JUMP JUMPDEST PUSH2 0x162 DUP2 PUSH2 0x147 JUMP JUMPDEST DUP3 MSTORE POP POP JUMP JUMPDEST PUSH1 0x0 PUSH1 0x20 DUP3 ADD SWAP1 POP PUSH2 0x17D PUSH1 0x0 DUP4 ADD DUP5 PUSH2 0x159 JUMP JUMPDEST SWAP3 SWAP2 POP POP JUMP JUMPDEST PUSH1 0x0 DUP1 REVERT JUMPDEST PUSH1 0x7 DUP2 LT PUSH2 0x195 JUMPI PUSH1 0x0 DUP1 REVERT JUMPDEST POP JUMP JUMPDEST PUSH1 0x0 DUP2 CALLDATALOAD SWAP1 POP PUSH2 0x1A7 DUP2 PUSH2 0x188 JUMP JUMPDEST SWAP3 SWAP2 POP POP JUMP JUMPDEST PUSH1 0x0 PUSH1 0x20 DUP3 DUP5 SUB SLT ISZERO PUSH2 0x1C3 JUMPI PUSH2 0x1C2 PUSH2 0x183 JUMP JUMPDEST JUMPDEST PUSH1 0x0 PUSH2 0x1D1 DUP5 DUP3 DUP6 ADD PUSH2 0x198 JUMP JUMPDEST SWAP2 POP POP SWAP3 SWAP2 POP POP JUMP INVALID LOG2 PUSH5 0x6970667358 0x22 SLT KECCAK256 0xA6 0xBA 0xCA 0xE6 PUSH11 0xF44A7BFD825BBB681787FC PUSH30 0x227F30C51F677EDA915EB1D749431C64736F6C6343000812003300000000 "
				},
				"gasEstimates": {
					"creation": {
						"codeDepositCost": "105600",
						"executionCost": "153",
						"totalCost": "105753"
					},
					"external": {
						"getDay()": "2546",
						"selectedDay()": "2579",
						"setDay(uint8)": "24650"
					}
				},
				"methodIdentifiers": {
					"getDay()": "14ba5c09",
					"selectedDay()": "aa55a178",
					"setDay(uint8)": "2f00bfcb"
				}
			},
			"storageLayout": {
				"storage": [
					{
						"astId": 12,
						"contract": "practies.sol:Parcties",
						"label": "selectedDay",
						"offset": 0,
						"slot": "0",
						"type": "t_enum(Day)9"
					}
				],
				"types": {
					"t_enum(Day)9": {
						"encoding": "inplace",
						"label": "enum Parcties.Day",
						"numberOfBytes": "1"
					}
				}
			},
			"userdoc": {
				"kind": "user",
				"methods": {},
				"version": 1
			}
		}
	}
}