{
	"solidity.sol": {
		"BloodBank": {
			"abi": [
				{
					"inputs": [],
					"stateMutability": "nonpayable",
					"type": "constructor"
				},
				{
					"anonymous": false,
					"inputs": [
						{
							"indexed": false,
							"internalType": "string",
							"name": "message",
							"type": "string"
						}
					],
					"name": "Successfull",
					"type": "event"
				},
				{
					"inputs": [
						{
							"internalType": "uint256",
							"name": "_aadhar",
							"type": "uint256"
						},
						{
							"internalType": "enum BloodBank.PatientType",
							"name": "_type",
							"type": "uint8"
						},
						{
							"internalType": "address",
							"name": "_from",
							"type": "address"
						},
						{
							"internalType": "address",
							"name": "_to",
							"type": "address"
						}
					],
					"name": "bloodTransaction",
					"outputs": [],
					"stateMutability": "nonpayable",
					"type": "function"
				},
				{
					"inputs": [],
					"name": "getAllRecord",
					"outputs": [
						{
							"components": [
								{
									"internalType": "uint256",
									"name": "aadhar",
									"type": "uint256"
								},
								{
									"internalType": "string",
									"name": "name",
									"type": "string"
								},
								{
									"internalType": "uint256",
									"name": "age",
									"type": "uint256"
								},
								{
									"internalType": "string",
									"name": "bloodGroup",
									"type": "string"
								},
								{
									"internalType": "uint256",
									"name": "contact",
									"type": "uint256"
								},
								{
									"internalType": "string",
									"name": "homeAddress",
									"type": "string"
								},
								{
									"components": [
										{
											"internalType": "enum BloodBank.PatientType",
											"name": "patientType",
											"type": "uint8"
										},
										{
											"internalType": "uint256",
											"name": "time",
											"type": "uint256"
										},
										{
											"internalType": "address",
											"name": "from",
											"type": "address"
										},
										{
											"internalType": "address",
											"name": "to",
											"type": "address"
										}
									],
									"internalType": "struct BloodBank.BloodTransaction[]",
									"name": "bT",
									"type": "tuple[]"
								}
							],
							"internalType": "struct BloodBank.Patient[]",
							"name": "",
							"type": "tuple[]"
						}
					],
					"stateMutability": "view",
					"type": "function"
				},
				{
					"inputs": [
						{
							"internalType": "uint256",
							"name": "_aadhar",
							"type": "uint256"
						}
					],
					"name": "getPatientRecord",
					"outputs": [
						{
							"components": [
								{
									"internalType": "uint256",
									"name": "aadhar",
									"type": "uint256"
								},
								{
									"internalType": "string",
									"name": "name",
									"type": "string"
								},
								{
									"internalType": "uint256",
									"name": "age",
									"type": "uint256"
								},
								{
									"internalType": "string",
									"name": "bloodGroup",
									"type": "string"
								},
								{
									"internalType": "uint256",
									"name": "contact",
									"type": "uint256"
								},
								{
									"internalType": "string",
									"name": "homeAddress",
									"type": "string"
								},
								{
									"components": [
										{
											"internalType": "enum BloodBank.PatientType",
											"name": "patientType",
											"type": "uint8"
										},
										{
											"internalType": "uint256",
											"name": "time",
											"type": "uint256"
										},
										{
											"internalType": "address",
											"name": "from",
											"type": "address"
										},
										{
											"internalType": "address",
											"name": "to",
											"type": "address"
										}
									],
									"internalType": "struct BloodBank.BloodTransaction[]",
									"name": "bT",
									"type": "tuple[]"
								}
							],
							"internalType": "struct BloodBank.Patient",
							"name": "",
							"type": "tuple"
						}
					],
					"stateMutability": "view",
					"type": "function"
				},
				{
					"inputs": [
						{
							"internalType": "string",
							"name": "_name",
							"type": "string"
						},
						{
							"internalType": "uint256",
							"name": "_age",
							"type": "uint256"
						},
						{
							"internalType": "string",
							"name": "_bloodGroup",
							"type": "string"
						},
						{
							"internalType": "uint256",
							"name": "_contact",
							"type": "uint256"
						},
						{
							"internalType": "string",
							"name": "_homeAddress",
							"type": "string"
						},
						{
							"internalType": "uint256",
							"name": "_aadhar",
							"type": "uint256"
						}
					],
					"name": "newPatient",
					"outputs": [],
					"stateMutability": "nonpayable",
					"type": "function"
				}
			],
			"devdoc": {
				"kind": "dev",
				"methods": {},
				"version": 1
			},
			"evm": {
				"assembly": "    /* \"solidity.sol\":66:3826  contract BloodBank {... */\n  mstore(0x40, 0x80)\n    /* \"solidity.sol\":152:203  constructor() {... */\n  callvalue\n  dup1\n  iszero\n  tag_1\n  jumpi\n  0x00\n  dup1\n  revert\ntag_1:\n  pop\n    /* \"solidity.sol\":185:195  msg.sender */\n  caller\n    /* \"solidity.sol\":177:182  owner */\n  0x00\n  dup1\n    /* \"solidity.sol\":177:195  owner = msg.sender */\n  0x0100\n  exp\n  dup2\n  sload\n  dup2\n  0xffffffffffffffffffffffffffffffffffffffff\n  mul\n  not\n  and\n  swap1\n  dup4\n  0xffffffffffffffffffffffffffffffffffffffff\n  and\n  mul\n  or\n  swap1\n  sstore\n  pop\n    /* \"solidity.sol\":66:3826  contract BloodBank {... */\n  dataSize(sub_0)\n  dup1\n  dataOffset(sub_0)\n  0x00\n  codecopy\n  0x00\n  return\nstop\n\nsub_0: assembly {\n        /* \"solidity.sol\":66:3826  contract BloodBank {... */\n      mstore(0x40, 0x80)\n      callvalue\n      dup1\n      iszero\n      tag_1\n      jumpi\n      0x00\n      dup1\n      revert\n    tag_1:\n      pop\n      jumpi(tag_2, lt(calldatasize, 0x04))\n      shr(0xe0, calldataload(0x00))\n      dup1\n      0x9954f30a\n      eq\n      tag_3\n      jumpi\n      dup1\n      0xb9fff11b\n      eq\n      tag_4\n      jumpi\n      dup1\n      0xd5a9f003\n      eq\n      tag_5\n      jumpi\n      dup1\n      0xf2c4e0c6\n      eq\n      tag_6\n      jumpi\n    tag_2:\n      0x00\n      dup1\n      revert\n        /* \"solidity.sol\":1255:2316  function newPatient(... */\n    tag_3:\n      tag_7\n      0x04\n      dup1\n      calldatasize\n      sub\n      dup2\n      add\n      swap1\n      tag_8\n      swap2\n      swap1\n      tag_9\n      jump\t// in\n    tag_8:\n      tag_10\n      jump\t// in\n    tag_7:\n      stop\n        /* \"solidity.sol\":2367:2581  function getPatientRecord(uint256 _aadhar)... */\n    tag_4:\n      tag_11\n      0x04\n      dup1\n      calldatasize\n      sub\n      dup2\n      add\n      swap1\n      tag_12\n      swap2\n      swap1\n      tag_13\n      jump\t// in\n    tag_12:\n      tag_14\n      jump\t// in\n    tag_11:\n      mload(0x40)\n      tag_15\n      swap2\n      swap1\n      tag_16\n      jump\t// in\n    tag_15:\n      mload(0x40)\n      dup1\n      swap2\n      sub\n      swap1\n      return\n        /* \"solidity.sol\":2629:2733  function getAllRecord() external view returns (Patient[] memory) {... */\n    tag_5:\n      tag_17\n      tag_18\n      jump\t// in\n    tag_17:\n      mload(0x40)\n      tag_19\n      swap2\n      swap1\n      tag_20\n      jump\t// in\n    tag_19:\n      mload(0x40)\n      dup1\n      swap2\n      sub\n      swap1\n      return\n        /* \"solidity.sol\":2769:3823  function bloodTransaction(... */\n    tag_6:\n      tag_21\n      0x04\n      dup1\n      calldatasize\n      sub\n      dup2\n      add\n      swap1\n      tag_22\n      swap2\n      swap1\n      tag_23\n      jump\t// in\n    tag_22:\n      tag_24\n      jump\t// in\n    tag_21:\n      stop\n        /* \"solidity.sol\":1255:2316  function newPatient(... */\n    tag_10:\n        /* \"solidity.sol\":1638:1643  owner */\n      0x00\n      dup1\n      sload\n      swap1\n      0x0100\n      exp\n      swap1\n      div\n      0xffffffffffffffffffffffffffffffffffffffff\n      and\n        /* \"solidity.sol\":1624:1643  msg.sender == owner */\n      0xffffffffffffffffffffffffffffffffffffffff\n      and\n        /* \"solidity.sol\":1624:1634  msg.sender */\n      caller\n        /* \"solidity.sol\":1624:1643  msg.sender == owner */\n      0xffffffffffffffffffffffffffffffffffffffff\n      and\n      eq\n        /* \"solidity.sol\":1616:1683  require(msg.sender == owner, \"only admin can register new patient\") */\n      tag_26\n      jumpi\n      mload(0x40)\n      0x08c379a000000000000000000000000000000000000000000000000000000000\n      dup2\n      mstore\n      0x04\n      add\n      tag_27\n      swap1\n      tag_28\n      jump\t// in\n    tag_27:\n      mload(0x40)\n      dup1\n      swap2\n      sub\n      swap1\n      revert\n    tag_26:\n        /* \"solidity.sol\":1731:1744  uint256 index */\n      0x00\n        /* \"solidity.sol\":1747:1760  PatientRecord */\n      0x01\n        /* \"solidity.sol\":1747:1767  PatientRecord.length */\n      dup1\n      sload\n      swap1\n      pop\n        /* \"solidity.sol\":1731:1767  uint256 index = PatientRecord.length */\n      swap1\n      pop\n        /* \"solidity.sol\":1807:1820  PatientRecord */\n      0x01\n        /* \"solidity.sol\":1807:1827  PatientRecord.push() */\n      dup1\n      dup2\n      0x01\n      dup2\n      sload\n      add\n      dup1\n      dup3\n      sstore\n      dup1\n      swap2\n      pop\n      pop\n      sub\n      swap1\n      0x00\n      mstore\n      keccak256(0x00, 0x20)\n      swap1\n      pop\n      pop\n        /* \"solidity.sol\":1866:1871  _name */\n      dup7\n        /* \"solidity.sol\":1838:1851  PatientRecord */\n      0x01\n        /* \"solidity.sol\":1852:1857  index */\n      dup3\n        /* \"solidity.sol\":1838:1858  PatientRecord[index] */\n      dup2\n      sload\n      dup2\n      lt\n      tag_30\n      jumpi\n      tag_31\n      tag_32\n      jump\t// in\n    tag_31:\n    tag_30:\n      swap1\n      0x00\n      mstore\n      keccak256(0x00, 0x20)\n      swap1\n      0x07\n      mul\n      add\n        /* \"solidity.sol\":1838:1863  PatientRecord[index].name */\n      0x01\n      add\n        /* \"solidity.sol\":1838:1871  PatientRecord[index].name = _name */\n      swap1\n      dup2\n      tag_34\n      swap2\n      swap1\n      tag_35\n      jump\t// in\n    tag_34:\n      pop\n        /* \"solidity.sol\":1909:1913  _age */\n      dup6\n        /* \"solidity.sol\":1882:1895  PatientRecord */\n      0x01\n        /* \"solidity.sol\":1896:1901  index */\n      dup3\n        /* \"solidity.sol\":1882:1902  PatientRecord[index] */\n      dup2\n      sload\n      dup2\n      lt\n      tag_36\n      jumpi\n      tag_37\n      tag_32\n      jump\t// in\n    tag_37:\n    tag_36:\n      swap1\n      0x00\n      mstore\n      keccak256(0x00, 0x20)\n      swap1\n      0x07\n      mul\n      add\n        /* \"solidity.sol\":1882:1906  PatientRecord[index].age */\n      0x02\n      add\n        /* \"solidity.sol\":1882:1913  PatientRecord[index].age = _age */\n      dup2\n      swap1\n      sstore\n      pop\n        /* \"solidity.sol\":1958:1969  _bloodGroup */\n      dup5\n        /* \"solidity.sol\":1924:1937  PatientRecord */\n      0x01\n        /* \"solidity.sol\":1938:1943  index */\n      dup3\n        /* \"solidity.sol\":1924:1944  PatientRecord[index] */\n      dup2\n      sload\n      dup2\n      lt\n      tag_39\n      jumpi\n      tag_40\n      tag_32\n      jump\t// in\n    tag_40:\n    tag_39:\n      swap1\n      0x00\n      mstore\n      keccak256(0x00, 0x20)\n      swap1\n      0x07\n      mul\n      add\n        /* \"solidity.sol\":1924:1955  PatientRecord[index].bloodGroup */\n      0x03\n      add\n        /* \"solidity.sol\":1924:1969  PatientRecord[index].bloodGroup = _bloodGroup */\n      swap1\n      dup2\n      tag_42\n      swap2\n      swap1\n      tag_35\n      jump\t// in\n    tag_42:\n      pop\n        /* \"solidity.sol\":2011:2019  _contact */\n      dup4\n        /* \"solidity.sol\":1980:1993  PatientRecord */\n      0x01\n        /* \"solidity.sol\":1994:1999  index */\n      dup3\n        /* \"solidity.sol\":1980:2000  PatientRecord[index] */\n      dup2\n      sload\n      dup2\n      lt\n      tag_43\n      jumpi\n      tag_44\n      tag_32\n      jump\t// in\n    tag_44:\n    tag_43:\n      swap1\n      0x00\n      mstore\n      keccak256(0x00, 0x20)\n      swap1\n      0x07\n      mul\n      add\n        /* \"solidity.sol\":1980:2008  PatientRecord[index].contact */\n      0x04\n      add\n        /* \"solidity.sol\":1980:2019  PatientRecord[index].contact = _contact */\n      dup2\n      swap1\n      sstore\n      pop\n        /* \"solidity.sol\":2065:2077  _homeAddress */\n      dup3\n        /* \"solidity.sol\":2030:2043  PatientRecord */\n      0x01\n        /* \"solidity.sol\":2044:2049  index */\n      dup3\n        /* \"solidity.sol\":2030:2050  PatientRecord[index] */\n      dup2\n      sload\n      dup2\n      lt\n      tag_46\n      jumpi\n      tag_47\n      tag_32\n      jump\t// in\n    tag_47:\n    tag_46:\n      swap1\n      0x00\n      mstore\n      keccak256(0x00, 0x20)\n      swap1\n      0x07\n      mul\n      add\n        /* \"solidity.sol\":2030:2062  PatientRecord[index].homeAddress */\n      0x05\n      add\n        /* \"solidity.sol\":2030:2077  PatientRecord[index].homeAddress = _homeAddress */\n      swap1\n      dup2\n      tag_49\n      swap2\n      swap1\n      tag_35\n      jump\t// in\n    tag_49:\n      pop\n        /* \"solidity.sol\":2118:2125  _aadhar */\n      dup2\n        /* \"solidity.sol\":2088:2101  PatientRecord */\n      0x01\n        /* \"solidity.sol\":2102:2107  index */\n      dup3\n        /* \"solidity.sol\":2088:2108  PatientRecord[index] */\n      dup2\n      sload\n      dup2\n      lt\n      tag_50\n      jumpi\n      tag_51\n      tag_32\n      jump\t// in\n    tag_51:\n    tag_50:\n      swap1\n      0x00\n      mstore\n      keccak256(0x00, 0x20)\n      swap1\n      0x07\n      mul\n      add\n        /* \"solidity.sol\":2088:2115  PatientRecord[index].aadhar */\n      0x00\n      add\n        /* \"solidity.sol\":2088:2125  PatientRecord[index].aadhar = _aadhar */\n      dup2\n      swap1\n      sstore\n      pop\n        /* \"solidity.sol\":2244:2249  index */\n      dup1\n        /* \"solidity.sol\":2214:2232  PatientRecordIndex */\n      0x02\n        /* \"solidity.sol\":2214:2241  PatientRecordIndex[_aadhar] */\n      0x00\n        /* \"solidity.sol\":2233:2240  _aadhar */\n      dup5\n        /* \"solidity.sol\":2214:2241  PatientRecordIndex[_aadhar] */\n      dup2\n      mstore\n      0x20\n      add\n      swap1\n      dup2\n      mstore\n      0x20\n      add\n      0x00\n      keccak256\n        /* \"solidity.sol\":2214:2249  PatientRecordIndex[_aadhar] = index */\n      dup2\n      swap1\n      sstore\n      pop\n        /* \"solidity.sol\":2267:2308  Successfull(\"Patient added successfully\") */\n      0x3c33ba9853a78dcaeb50be0f15e1be558cc38978243329bbdaee54a8f5ae4fec\n      mload(0x40)\n      tag_53\n      swap1\n      tag_54\n      jump\t// in\n    tag_53:\n      mload(0x40)\n      dup1\n      swap2\n      sub\n      swap1\n      log1\n        /* \"solidity.sol\":1470:2316  {... */\n      pop\n        /* \"solidity.sol\":1255:2316  function newPatient(... */\n      pop\n      pop\n      pop\n      pop\n      pop\n      pop\n      jump\t// out\n        /* \"solidity.sol\":2367:2581  function getPatientRecord(uint256 _aadhar)... */\n    tag_14:\n        /* \"solidity.sol\":2460:2474  Patient memory */\n      tag_55\n      tag_56\n      jump\t// in\n    tag_55:\n        /* \"solidity.sol\":2492:2505  uint256 index */\n      0x00\n        /* \"solidity.sol\":2508:2526  PatientRecordIndex */\n      0x02\n        /* \"solidity.sol\":2508:2535  PatientRecordIndex[_aadhar] */\n      0x00\n        /* \"solidity.sol\":2527:2534  _aadhar */\n      dup5\n        /* \"solidity.sol\":2508:2535  PatientRecordIndex[_aadhar] */\n      dup2\n      mstore\n      0x20\n      add\n      swap1\n      dup2\n      mstore\n      0x20\n      add\n      0x00\n      keccak256\n      sload\n        /* \"solidity.sol\":2492:2535  uint256 index = PatientRecordIndex[_aadhar] */\n      swap1\n      pop\n        /* \"solidity.sol\":2553:2566  PatientRecord */\n      0x01\n        /* \"solidity.sol\":2567:2572  index */\n      dup2\n        /* \"solidity.sol\":2553:2573  PatientRecord[index] */\n      dup2\n      sload\n      dup2\n      lt\n      tag_58\n      jumpi\n      tag_59\n      tag_32\n      jump\t// in\n    tag_59:\n    tag_58:\n      swap1\n      0x00\n      mstore\n      keccak256(0x00, 0x20)\n      swap1\n      0x07\n      mul\n      add\n        /* \"solidity.sol\":2546:2573  return PatientRecord[index] */\n      mload(0x40)\n      dup1\n      0xe0\n      add\n      0x40\n      mstore\n      swap1\n      dup2\n      0x00\n      dup3\n      add\n      sload\n      dup2\n      mstore\n      0x20\n      add\n      0x01\n      dup3\n      add\n      dup1\n      sload\n      tag_61\n      swap1\n      tag_62\n      jump\t// in\n    tag_61:\n      dup1\n      0x1f\n      add\n      0x20\n      dup1\n      swap2\n      div\n      mul\n      0x20\n      add\n      mload(0x40)\n      swap1\n      dup2\n      add\n      0x40\n      mstore\n      dup1\n      swap3\n      swap2\n      swap1\n      dup2\n      dup2\n      mstore\n      0x20\n      add\n      dup3\n      dup1\n      sload\n      tag_63\n      swap1\n      tag_62\n      jump\t// in\n    tag_63:\n      dup1\n      iszero\n      tag_64\n      jumpi\n      dup1\n      0x1f\n      lt\n      tag_65\n      jumpi\n      0x0100\n      dup1\n      dup4\n      sload\n      div\n      mul\n      dup4\n      mstore\n      swap2\n      0x20\n      add\n      swap2\n      jump(tag_64)\n    tag_65:\n      dup3\n      add\n      swap2\n      swap1\n      0x00\n      mstore\n      keccak256(0x00, 0x20)\n      swap1\n    tag_66:\n      dup2\n      sload\n      dup2\n      mstore\n      swap1\n      0x01\n      add\n      swap1\n      0x20\n      add\n      dup1\n      dup4\n      gt\n      tag_66\n      jumpi\n      dup3\n      swap1\n      sub\n      0x1f\n      and\n      dup3\n      add\n      swap2\n    tag_64:\n      pop\n      pop\n      pop\n      pop\n      pop\n      dup2\n      mstore\n      0x20\n      add\n      0x02\n      dup3\n      add\n      sload\n      dup2\n      mstore\n      0x20\n      add\n      0x03\n      dup3\n      add\n      dup1\n      sload\n      tag_67\n      swap1\n      tag_62\n      jump\t// in\n    tag_67:\n      dup1\n      0x1f\n      add\n      0x20\n      dup1\n      swap2\n      div\n      mul\n      0x20\n      add\n      mload(0x40)\n      swap1\n      dup2\n      add\n      0x40\n      mstore\n      dup1\n      swap3\n      swap2\n      swap1\n      dup2\n      dup2\n      mstore\n      0x20\n      add\n      dup3\n      dup1\n      sload\n      tag_68\n      swap1\n      tag_62\n      jump\t// in\n    tag_68:\n      dup1\n      iszero\n      tag_69\n      jumpi\n      dup1\n      0x1f\n      lt\n      tag_70\n      jumpi\n      0x0100\n      dup1\n      dup4\n      sload\n      div\n      mul\n      dup4\n      mstore\n      swap2\n      0x20\n      add\n      swap2\n      jump(tag_69)\n    tag_70:\n      dup3\n      add\n      swap2\n      swap1\n      0x00\n      mstore\n      keccak256(0x00, 0x20)\n      swap1\n    tag_71:\n      dup2\n      sload\n      dup2\n      mstore\n      swap1\n      0x01\n      add\n      swap1\n      0x20\n      add\n      dup1\n      dup4\n      gt\n      tag_71\n      jumpi\n      dup3\n      swap1\n      sub\n      0x1f\n      and\n      dup3\n      add\n      swap2\n    tag_69:\n      pop\n      pop\n      pop\n      pop\n      pop\n      dup2\n      mstore\n      0x20\n      add\n      0x04\n      dup3\n      add\n      sload\n      dup2\n      mstore\n      0x20\n      add\n      0x05\n      dup3\n      add\n      dup1\n      sload\n      tag_72\n      swap1\n      tag_62\n      jump\t// in\n    tag_72:\n      dup1\n      0x1f\n      add\n      0x20\n      dup1\n      swap2\n      div\n      mul\n      0x20\n      add\n      mload(0x40)\n      swap1\n      dup2\n      add\n      0x40\n      mstore\n      dup1\n      swap3\n      swap2\n      swap1\n      dup2\n      dup2\n      mstore\n      0x20\n      add\n      dup3\n      dup1\n      sload\n      tag_73\n      swap1\n      tag_62\n      jump\t// in\n    tag_73:\n      dup1\n      iszero\n      tag_74\n      jumpi\n      dup1\n      0x1f\n      lt\n      tag_75\n      jumpi\n      0x0100\n      dup1\n      dup4\n      sload\n      div\n      mul\n      dup4\n      mstore\n      swap2\n      0x20\n      add\n      swap2\n      jump(tag_74)\n    tag_75:\n      dup3\n      add\n      swap2\n      swap1\n      0x00\n      mstore\n      keccak256(0x00, 0x20)\n      swap1\n    tag_76:\n      dup2\n      sload\n      dup2\n      mstore\n      swap1\n      0x01\n      add\n      swap1\n      0x20\n      add\n      dup1\n      dup4\n      gt\n      tag_76\n      jumpi\n      dup3\n      swap1\n      sub\n      0x1f\n      and\n      dup3\n      add\n      swap2\n    tag_74:\n      pop\n      pop\n      pop\n      pop\n      pop\n      dup2\n      mstore\n      0x20\n      add\n      0x06\n      dup3\n      add\n      dup1\n      sload\n      dup1\n      0x20\n      mul\n      0x20\n      add\n      mload(0x40)\n      swap1\n      dup2\n      add\n      0x40\n      mstore\n      dup1\n      swap3\n      swap2\n      swap1\n      dup2\n      dup2\n      mstore\n      0x20\n      add\n      0x00\n      swap1\n    tag_77:\n      dup3\n      dup3\n      lt\n      iszero\n      tag_78\n      jumpi\n      dup4\n      dup3\n      swap1\n      0x00\n      mstore\n      keccak256(0x00, 0x20)\n      swap1\n      0x04\n      mul\n      add\n      mload(0x40)\n      dup1\n      0x80\n      add\n      0x40\n      mstore\n      swap1\n      dup2\n      0x00\n      dup3\n      add\n      0x00\n      swap1\n      sload\n      swap1\n      0x0100\n      exp\n      swap1\n      div\n      0xff\n      and\n      0x01\n      dup2\n      gt\n      iszero\n      tag_80\n      jumpi\n      tag_81\n      tag_82\n      jump\t// in\n    tag_81:\n    tag_80:\n      0x01\n      dup2\n      gt\n      iszero\n      tag_83\n      jumpi\n      tag_84\n      tag_82\n      jump\t// in\n    tag_84:\n    tag_83:\n      dup2\n      mstore\n      0x20\n      add\n      0x01\n      dup3\n      add\n      sload\n      dup2\n      mstore\n      0x20\n      add\n      0x02\n      dup3\n      add\n      0x00\n      swap1\n      sload\n      swap1\n      0x0100\n      exp\n      swap1\n      div\n      0xffffffffffffffffffffffffffffffffffffffff\n      and\n      0xffffffffffffffffffffffffffffffffffffffff\n      and\n      0xffffffffffffffffffffffffffffffffffffffff\n      and\n      dup2\n      mstore\n      0x20\n      add\n      0x03\n      dup3\n      add\n      0x00\n      swap1\n      sload\n      swap1\n      0x0100\n      exp\n      swap1\n      div\n      0xffffffffffffffffffffffffffffffffffffffff\n      and\n      0xffffffffffffffffffffffffffffffffffffffff\n      and\n      0xffffffffffffffffffffffffffffffffffffffff\n      and\n      dup2\n      mstore\n      pop\n      pop\n      dup2\n      mstore\n      0x20\n      add\n      swap1\n      0x01\n      add\n      swap1\n      jump(tag_77)\n    tag_78:\n      pop\n      pop\n      pop\n      pop\n      dup2\n      mstore\n      pop\n      pop\n      swap2\n      pop\n      pop\n        /* \"solidity.sol\":2367:2581  function getPatientRecord(uint256 _aadhar)... */\n      swap2\n      swap1\n      pop\n      jump\t// out\n        /* \"solidity.sol\":2629:2733  function getAllRecord() external view returns (Patient[] memory) {... */\n    tag_18:\n        /* \"solidity.sol\":2676:2692  Patient[] memory */\n      0x60\n        /* \"solidity.sol\":2712:2725  PatientRecord */\n      0x01\n        /* \"solidity.sol\":2705:2725  return PatientRecord */\n      dup1\n      sload\n      dup1\n      0x20\n      mul\n      0x20\n      add\n      mload(0x40)\n      swap1\n      dup2\n      add\n      0x40\n      mstore\n      dup1\n      swap3\n      swap2\n      swap1\n      dup2\n      dup2\n      mstore\n      0x20\n      add\n      0x00\n      swap1\n    tag_86:\n      dup3\n      dup3\n      lt\n      iszero\n      tag_87\n      jumpi\n      dup4\n      dup3\n      swap1\n      0x00\n      mstore\n      keccak256(0x00, 0x20)\n      swap1\n      0x07\n      mul\n      add\n      mload(0x40)\n      dup1\n      0xe0\n      add\n      0x40\n      mstore\n      swap1\n      dup2\n      0x00\n      dup3\n      add\n      sload\n      dup2\n      mstore\n      0x20\n      add\n      0x01\n      dup3\n      add\n      dup1\n      sload\n      tag_89\n      swap1\n      tag_62\n      jump\t// in\n    tag_89:\n      dup1\n      0x1f\n      add\n      0x20\n      dup1\n      swap2\n      div\n      mul\n      0x20\n      add\n      mload(0x40)\n      swap1\n      dup2\n      add\n      0x40\n      mstore\n      dup1\n      swap3\n      swap2\n      swap1\n      dup2\n      dup2\n      mstore\n      0x20\n      add\n      dup3\n      dup1\n      sload\n      tag_90\n      swap1\n      tag_62\n      jump\t// in\n    tag_90:\n      dup1\n      iszero\n      tag_91\n      jumpi\n      dup1\n      0x1f\n      lt\n      tag_92\n      jumpi\n      0x0100\n      dup1\n      dup4\n      sload\n      div\n      mul\n      dup4\n      mstore\n      swap2\n      0x20\n      add\n      swap2\n      jump(tag_91)\n    tag_92:\n      dup3\n      add\n      swap2\n      swap1\n      0x00\n      mstore\n      keccak256(0x00, 0x20)\n      swap1\n    tag_93:\n      dup2\n      sload\n      dup2\n      mstore\n      swap1\n      0x01\n      add\n      swap1\n      0x20\n      add\n      dup1\n      dup4\n      gt\n      tag_93\n      jumpi\n      dup3\n      swap1\n      sub\n      0x1f\n      and\n      dup3\n      add\n      swap2\n    tag_91:\n      pop\n      pop\n      pop\n      pop\n      pop\n      dup2\n      mstore\n      0x20\n      add\n      0x02\n      dup3\n      add\n      sload\n      dup2\n      mstore\n      0x20\n      add\n      0x03\n      dup3\n      add\n      dup1\n      sload\n      tag_94\n      swap1\n      tag_62\n      jump\t// in\n    tag_94:\n      dup1\n      0x1f\n      add\n      0x20\n      dup1\n      swap2\n      div\n      mul\n      0x20\n      add\n      mload(0x40)\n      swap1\n      dup2\n      add\n      0x40\n      mstore\n      dup1\n      swap3\n      swap2\n      swap1\n      dup2\n      dup2\n      mstore\n      0x20\n      add\n      dup3\n      dup1\n      sload\n      tag_95\n      swap1\n      tag_62\n      jump\t// in\n    tag_95:\n      dup1\n      iszero\n      tag_96\n      jumpi\n      dup1\n      0x1f\n      lt\n      tag_97\n      jumpi\n      0x0100\n      dup1\n      dup4\n      sload\n      div\n      mul\n      dup4\n      mstore\n      swap2\n      0x20\n      add\n      swap2\n      jump(tag_96)\n    tag_97:\n      dup3\n      add\n      swap2\n      swap1\n      0x00\n      mstore\n      keccak256(0x00, 0x20)\n      swap1\n    tag_98:\n      dup2\n      sload\n      dup2\n      mstore\n      swap1\n      0x01\n      add\n      swap1\n      0x20\n      add\n      dup1\n      dup4\n      gt\n      tag_98\n      jumpi\n      dup3\n      swap1\n      sub\n      0x1f\n      and\n      dup3\n      add\n      swap2\n    tag_96:\n      pop\n      pop\n      pop\n      pop\n      pop\n      dup2\n      mstore\n      0x20\n      add\n      0x04\n      dup3\n      add\n      sload\n      dup2\n      mstore\n      0x20\n      add\n      0x05\n      dup3\n      add\n      dup1\n      sload\n      tag_99\n      swap1\n      tag_62\n      jump\t// in\n    tag_99:\n      dup1\n      0x1f\n      add\n      0x20\n      dup1\n      swap2\n      div\n      mul\n      0x20\n      add\n      mload(0x40)\n      swap1\n      dup2\n      add\n      0x40\n      mstore\n      dup1\n      swap3\n      swap2\n      swap1\n      dup2\n      dup2\n      mstore\n      0x20\n      add\n      dup3\n      dup1\n      sload\n      tag_100\n      swap1\n      tag_62\n      jump\t// in\n    tag_100:\n      dup1\n      iszero\n      tag_101\n      jumpi\n      dup1\n      0x1f\n      lt\n      tag_102\n      jumpi\n      0x0100\n      dup1\n      dup4\n      sload\n      div\n      mul\n      dup4\n      mstore\n      swap2\n      0x20\n      add\n      swap2\n      jump(tag_101)\n    tag_102:\n      dup3\n      add\n      swap2\n      swap1\n      0x00\n      mstore\n      keccak256(0x00, 0x20)\n      swap1\n    tag_103:\n      dup2\n      sload\n      dup2\n      mstore\n      swap1\n      0x01\n      add\n      swap1\n      0x20\n      add\n      dup1\n      dup4\n      gt\n      tag_103\n      jumpi\n      dup3\n      swap1\n      sub\n      0x1f\n      and\n      dup3\n      add\n      swap2\n    tag_101:\n      pop\n      pop\n      pop\n      pop\n      pop\n      dup2\n      mstore\n      0x20\n      add\n      0x06\n      dup3\n      add\n      dup1\n      sload\n      dup1\n      0x20\n      mul\n      0x20\n      add\n      mload(0x40)\n      swap1\n      dup2\n      add\n      0x40\n      mstore\n      dup1\n      swap3\n      swap2\n      swap1\n      dup2\n      dup2\n      mstore\n      0x20\n      add\n      0x00\n      swap1\n    tag_104:\n      dup3\n      dup3\n      lt\n      iszero\n      tag_105\n      jumpi\n      dup4\n      dup3\n      swap1\n      0x00\n      mstore\n      keccak256(0x00, 0x20)\n      swap1\n      0x04\n      mul\n      add\n      mload(0x40)\n      dup1\n      0x80\n      add\n      0x40\n      mstore\n      swap1\n      dup2\n      0x00\n      dup3\n      add\n      0x00\n      swap1\n      sload\n      swap1\n      0x0100\n      exp\n      swap1\n      div\n      0xff\n      and\n      0x01\n      dup2\n      gt\n      iszero\n      tag_107\n      jumpi\n      tag_108\n      tag_82\n      jump\t// in\n    tag_108:\n    tag_107:\n      0x01\n      dup2\n      gt\n      iszero\n      tag_109\n      jumpi\n      tag_110\n      tag_82\n      jump\t// in\n    tag_110:\n    tag_109:\n      dup2\n      mstore\n      0x20\n      add\n      0x01\n      dup3\n      add\n      sload\n      dup2\n      mstore\n      0x20\n      add\n      0x02\n      dup3\n      add\n      0x00\n      swap1\n      sload\n      swap1\n      0x0100\n      exp\n      swap1\n      div\n      0xffffffffffffffffffffffffffffffffffffffff\n      and\n      0xffffffffffffffffffffffffffffffffffffffff\n      and\n      0xffffffffffffffffffffffffffffffffffffffff\n      and\n      dup2\n      mstore\n      0x20\n      add\n      0x03\n      dup3\n      add\n      0x00\n      swap1\n      sload\n      swap1\n      0x0100\n      exp\n      swap1\n      div\n      0xffffffffffffffffffffffffffffffffffffffff\n      and\n      0xffffffffffffffffffffffffffffffffffffffff\n      and\n      0xffffffffffffffffffffffffffffffffffffffff\n      and\n      dup2\n      mstore\n      pop\n      pop\n      dup2\n      mstore\n      0x20\n      add\n      swap1\n      0x01\n      add\n      swap1\n      jump(tag_104)\n    tag_105:\n      pop\n      pop\n      pop\n      pop\n      dup2\n      mstore\n      pop\n      pop\n      dup2\n      mstore\n      0x20\n      add\n      swap1\n      0x01\n      add\n      swap1\n      jump(tag_86)\n    tag_87:\n      pop\n      pop\n      pop\n      pop\n      swap1\n      pop\n        /* \"solidity.sol\":2629:2733  function getAllRecord() external view returns (Patient[] memory) {... */\n      swap1\n      jump\t// out\n        /* \"solidity.sol\":2769:3823  function bloodTransaction(... */\n    tag_24:\n        /* \"solidity.sol\":3005:3010  owner */\n      0x00\n      dup1\n      sload\n      swap1\n      0x0100\n      exp\n      swap1\n      div\n      0xffffffffffffffffffffffffffffffffffffffff\n      and\n        /* \"solidity.sol\":2991:3010  msg.sender == owner */\n      0xffffffffffffffffffffffffffffffffffffffff\n      and\n        /* \"solidity.sol\":2991:3001  msg.sender */\n      caller\n        /* \"solidity.sol\":2991:3010  msg.sender == owner */\n      0xffffffffffffffffffffffffffffffffffffffff\n      and\n      eq\n        /* \"solidity.sol\":2969:3099  require(... */\n      tag_112\n      jumpi\n      mload(0x40)\n      0x08c379a000000000000000000000000000000000000000000000000000000000\n      dup2\n      mstore\n      0x04\n      add\n      tag_113\n      swap1\n      tag_114\n      jump\t// in\n    tag_113:\n      mload(0x40)\n      dup1\n      swap2\n      sub\n      swap1\n      revert\n    tag_112:\n        /* \"solidity.sol\":3186:3199  uint256 index */\n      0x00\n        /* \"solidity.sol\":3202:3220  PatientRecordIndex */\n      0x02\n        /* \"solidity.sol\":3202:3229  PatientRecordIndex[_aadhar] */\n      0x00\n        /* \"solidity.sol\":3221:3228  _aadhar */\n      dup7\n        /* \"solidity.sol\":3202:3229  PatientRecordIndex[_aadhar] */\n      dup2\n      mstore\n      0x20\n      add\n      swap1\n      dup2\n      mstore\n      0x20\n      add\n      0x00\n      keccak256\n      sload\n        /* \"solidity.sol\":3186:3229  uint256 index = PatientRecordIndex[_aadhar] */\n      swap1\n      pop\n        /* \"solidity.sol\":3295:3324  BloodTransaction memory txObj */\n      0x00\n        /* \"solidity.sol\":3327:3473  BloodTransaction({... */\n      mload(0x40)\n      dup1\n      0x80\n      add\n      0x40\n      mstore\n      dup1\n        /* \"solidity.sol\":3372:3377  _type */\n      dup7\n        /* \"solidity.sol\":3327:3473  BloodTransaction({... */\n      0x01\n      dup2\n      gt\n      iszero\n      tag_115\n      jumpi\n      tag_116\n      tag_82\n      jump\t// in\n    tag_116:\n    tag_115:\n      dup2\n      mstore\n      0x20\n      add\n        /* \"solidity.sol\":3398:3413  block.timestamp */\n      timestamp\n        /* \"solidity.sol\":3327:3473  BloodTransaction({... */\n      dup2\n      mstore\n      0x20\n      add\n        /* \"solidity.sol\":3434:3439  _from */\n      dup6\n        /* \"solidity.sol\":3327:3473  BloodTransaction({... */\n      0xffffffffffffffffffffffffffffffffffffffff\n      and\n      dup2\n      mstore\n      0x20\n      add\n        /* \"solidity.sol\":3458:3461  _to */\n      dup5\n        /* \"solidity.sol\":3327:3473  BloodTransaction({... */\n      0xffffffffffffffffffffffffffffffffffffffff\n      and\n      dup2\n      mstore\n      pop\n        /* \"solidity.sol\":3295:3473  BloodTransaction memory txObj = BloodTransaction({... */\n      swap1\n      pop\n        /* \"solidity.sol\":3497:3510  PatientRecord */\n      0x01\n        /* \"solidity.sol\":3511:3516  index */\n      dup3\n        /* \"solidity.sol\":3497:3517  PatientRecord[index] */\n      dup2\n      sload\n      dup2\n      lt\n      tag_117\n      jumpi\n      tag_118\n      tag_32\n      jump\t// in\n    tag_118:\n    tag_117:\n      swap1\n      0x00\n      mstore\n      keccak256(0x00, 0x20)\n      swap1\n      0x07\n      mul\n      add\n        /* \"solidity.sol\":3497:3520  PatientRecord[index].bT */\n      0x06\n      add\n        /* \"solidity.sol\":3526:3531  txObj */\n      dup2\n        /* \"solidity.sol\":3497:3532  PatientRecord[index].bT.push(txObj) */\n      swap1\n      dup1\n      0x01\n      dup2\n      sload\n      add\n      dup1\n      dup3\n      sstore\n      dup1\n      swap2\n      pop\n      pop\n      0x01\n      swap1\n      sub\n      swap1\n      0x00\n      mstore\n      keccak256(0x00, 0x20)\n      swap1\n      0x04\n      mul\n      add\n      0x00\n      swap1\n      swap2\n      swap1\n      swap2\n      swap1\n      swap2\n      pop\n      0x00\n      dup3\n      add\n      mload\n      dup2\n      0x00\n      add\n      exp(0x0100, 0x00)\n      dup2\n      sload\n      dup2\n      0xff\n      mul\n      not\n      and\n      swap1\n      dup4\n      0x01\n      dup2\n      gt\n      iszero\n      tag_121\n      jumpi\n      tag_122\n      tag_82\n      jump\t// in\n    tag_122:\n    tag_121:\n      mul\n      or\n      swap1\n      sstore\n      pop\n      0x20\n      dup3\n      add\n      mload\n      dup2\n      0x01\n      add\n      sstore\n      0x40\n      dup3\n      add\n      mload\n      dup2\n      0x02\n      add\n      exp(0x0100, 0x00)\n      dup2\n      sload\n      dup2\n      0xffffffffffffffffffffffffffffffffffffffff\n      mul\n      not\n      and\n      swap1\n      dup4\n      0xffffffffffffffffffffffffffffffffffffffff\n      and\n      mul\n      or\n      swap1\n      sstore\n      pop\n      0x60\n      dup3\n      add\n      mload\n      dup2\n      0x03\n      add\n      exp(0x0100, 0x00)\n      dup2\n      sload\n      dup2\n      0xffffffffffffffffffffffffffffffffffffffff\n      mul\n      not\n      and\n      swap1\n      dup4\n      0xffffffffffffffffffffffffffffffffffffffff\n      and\n      mul\n      or\n      swap1\n      sstore\n      pop\n      pop\n      pop\n        /* \"solidity.sol\":3722:3815  Successfull(... */\n      0x3c33ba9853a78dcaeb50be0f15e1be558cc38978243329bbdaee54a8f5ae4fec\n      mload(0x40)\n      tag_123\n      swap1\n      tag_124\n      jump\t// in\n    tag_123:\n      mload(0x40)\n      dup1\n      swap2\n      sub\n      swap1\n      log1\n        /* \"solidity.sol\":2911:3823  {... */\n      pop\n      pop\n        /* \"solidity.sol\":2769:3823  function bloodTransaction(... */\n      pop\n      pop\n      pop\n      pop\n      jump\t// out\n    tag_56:\n      mload(0x40)\n      dup1\n      0xe0\n      add\n      0x40\n      mstore\n      dup1\n      0x00\n      dup2\n      mstore\n      0x20\n      add\n      0x60\n      dup2\n      mstore\n      0x20\n      add\n      0x00\n      dup2\n      mstore\n      0x20\n      add\n      0x60\n      dup2\n      mstore\n      0x20\n      add\n      0x00\n      dup2\n      mstore\n      0x20\n      add\n      0x60\n      dup2\n      mstore\n      0x20\n      add\n      0x60\n      dup2\n      mstore\n      pop\n      swap1\n      jump\t// out\n        /* \"#utility.yul\":7:82   */\n    tag_125:\n        /* \"#utility.yul\":40:46   */\n      0x00\n        /* \"#utility.yul\":73:75   */\n      0x40\n        /* \"#utility.yul\":67:76   */\n      mload\n        /* \"#utility.yul\":57:76   */\n      swap1\n      pop\n        /* \"#utility.yul\":7:82   */\n      swap1\n      jump\t// out\n        /* \"#utility.yul\":88:205   */\n    tag_126:\n        /* \"#utility.yul\":197:198   */\n      0x00\n        /* \"#utility.yul\":194:195   */\n      dup1\n        /* \"#utility.yul\":187:199   */\n      revert\n        /* \"#utility.yul\":211:328   */\n    tag_127:\n        /* \"#utility.yul\":320:321   */\n      0x00\n        /* \"#utility.yul\":317:318   */\n      dup1\n        /* \"#utility.yul\":310:322   */\n      revert\n        /* \"#utility.yul\":334:451   */\n    tag_128:\n        /* \"#utility.yul\":443:444   */\n      0x00\n        /* \"#utility.yul\":440:441   */\n      dup1\n        /* \"#utility.yul\":433:445   */\n      revert\n        /* \"#utility.yul\":457:574   */\n    tag_129:\n        /* \"#utility.yul\":566:567   */\n      0x00\n        /* \"#utility.yul\":563:564   */\n      dup1\n        /* \"#utility.yul\":556:568   */\n      revert\n        /* \"#utility.yul\":580:682   */\n    tag_130:\n        /* \"#utility.yul\":621:627   */\n      0x00\n        /* \"#utility.yul\":672:674   */\n      0x1f\n        /* \"#utility.yul\":668:675   */\n      not\n        /* \"#utility.yul\":663:665   */\n      0x1f\n        /* \"#utility.yul\":656:661   */\n      dup4\n        /* \"#utility.yul\":652:666   */\n      add\n        /* \"#utility.yul\":648:676   */\n      and\n        /* \"#utility.yul\":638:676   */\n      swap1\n      pop\n        /* \"#utility.yul\":580:682   */\n      swap2\n      swap1\n      pop\n      jump\t// out\n        /* \"#utility.yul\":688:868   */\n    tag_131:\n        /* \"#utility.yul\":736:813   */\n      0x4e487b7100000000000000000000000000000000000000000000000000000000\n        /* \"#utility.yul\":733:734   */\n      0x00\n        /* \"#utility.yul\":726:814   */\n      mstore\n        /* \"#utility.yul\":833:837   */\n      0x41\n        /* \"#utility.yul\":830:831   */\n      0x04\n        /* \"#utility.yul\":823:838   */\n      mstore\n        /* \"#utility.yul\":857:861   */\n      0x24\n        /* \"#utility.yul\":854:855   */\n      0x00\n        /* \"#utility.yul\":847:862   */\n      revert\n        /* \"#utility.yul\":874:1155   */\n    tag_132:\n        /* \"#utility.yul\":957:984   */\n      tag_206\n        /* \"#utility.yul\":979:983   */\n      dup3\n        /* \"#utility.yul\":957:984   */\n      tag_130\n      jump\t// in\n    tag_206:\n        /* \"#utility.yul\":949:955   */\n      dup2\n        /* \"#utility.yul\":945:985   */\n      add\n        /* \"#utility.yul\":1087:1093   */\n      dup2\n        /* \"#utility.yul\":1075:1085   */\n      dup2\n        /* \"#utility.yul\":1072:1094   */\n      lt\n        /* \"#utility.yul\":1051:1069   */\n      0xffffffffffffffff\n        /* \"#utility.yul\":1039:1049   */\n      dup3\n        /* \"#utility.yul\":1036:1070   */\n      gt\n        /* \"#utility.yul\":1033:1095   */\n      or\n        /* \"#utility.yul\":1030:1118   */\n      iszero\n      tag_207\n      jumpi\n        /* \"#utility.yul\":1098:1116   */\n      tag_208\n      tag_131\n      jump\t// in\n    tag_208:\n        /* \"#utility.yul\":1030:1118   */\n    tag_207:\n        /* \"#utility.yul\":1138:1148   */\n      dup1\n        /* \"#utility.yul\":1134:1136   */\n      0x40\n        /* \"#utility.yul\":1127:1149   */\n      mstore\n        /* \"#utility.yul\":917:1155   */\n      pop\n        /* \"#utility.yul\":874:1155   */\n      pop\n      pop\n      jump\t// out\n        /* \"#utility.yul\":1161:1290   */\n    tag_133:\n        /* \"#utility.yul\":1195:1201   */\n      0x00\n        /* \"#utility.yul\":1222:1242   */\n      tag_210\n      tag_125\n      jump\t// in\n    tag_210:\n        /* \"#utility.yul\":1212:1242   */\n      swap1\n      pop\n        /* \"#utility.yul\":1251:1284   */\n      tag_211\n        /* \"#utility.yul\":1279:1283   */\n      dup3\n        /* \"#utility.yul\":1271:1277   */\n      dup3\n        /* \"#utility.yul\":1251:1284   */\n      tag_132\n      jump\t// in\n    tag_211:\n        /* \"#utility.yul\":1161:1290   */\n      swap2\n      swap1\n      pop\n      jump\t// out\n        /* \"#utility.yul\":1296:1604   */\n    tag_134:\n        /* \"#utility.yul\":1358:1362   */\n      0x00\n        /* \"#utility.yul\":1448:1466   */\n      0xffffffffffffffff\n        /* \"#utility.yul\":1440:1446   */\n      dup3\n        /* \"#utility.yul\":1437:1467   */\n      gt\n        /* \"#utility.yul\":1434:1490   */\n      iszero\n      tag_213\n      jumpi\n        /* \"#utility.yul\":1470:1488   */\n      tag_214\n      tag_131\n      jump\t// in\n    tag_214:\n        /* \"#utility.yul\":1434:1490   */\n    tag_213:\n        /* \"#utility.yul\":1508:1537   */\n      tag_215\n        /* \"#utility.yul\":1530:1536   */\n      dup3\n        /* \"#utility.yul\":1508:1537   */\n      tag_130\n      jump\t// in\n    tag_215:\n        /* \"#utility.yul\":1500:1537   */\n      swap1\n      pop\n        /* \"#utility.yul\":1592:1596   */\n      0x20\n        /* \"#utility.yul\":1586:1590   */\n      dup2\n        /* \"#utility.yul\":1582:1597   */\n      add\n        /* \"#utility.yul\":1574:1597   */\n      swap1\n      pop\n        /* \"#utility.yul\":1296:1604   */\n      swap2\n      swap1\n      pop\n      jump\t// out\n        /* \"#utility.yul\":1610:1756   */\n    tag_135:\n        /* \"#utility.yul\":1707:1713   */\n      dup3\n        /* \"#utility.yul\":1702:1705   */\n      dup2\n        /* \"#utility.yul\":1697:1700   */\n      dup4\n        /* \"#utility.yul\":1684:1714   */\n      calldatacopy\n        /* \"#utility.yul\":1748:1749   */\n      0x00\n        /* \"#utility.yul\":1739:1745   */\n      dup4\n        /* \"#utility.yul\":1734:1737   */\n      dup4\n        /* \"#utility.yul\":1730:1746   */\n      add\n        /* \"#utility.yul\":1723:1750   */\n      mstore\n        /* \"#utility.yul\":1610:1756   */\n      pop\n      pop\n      pop\n      jump\t// out\n        /* \"#utility.yul\":1762:2187   */\n    tag_136:\n        /* \"#utility.yul\":1840:1845   */\n      0x00\n        /* \"#utility.yul\":1865:1931   */\n      tag_218\n        /* \"#utility.yul\":1881:1930   */\n      tag_219\n        /* \"#utility.yul\":1923:1929   */\n      dup5\n        /* \"#utility.yul\":1881:1930   */\n      tag_134\n      jump\t// in\n    tag_219:\n        /* \"#utility.yul\":1865:1931   */\n      tag_133\n      jump\t// in\n    tag_218:\n        /* \"#utility.yul\":1856:1931   */\n      swap1\n      pop\n        /* \"#utility.yul\":1954:1960   */\n      dup3\n        /* \"#utility.yul\":1947:1952   */\n      dup2\n        /* \"#utility.yul\":1940:1961   */\n      mstore\n        /* \"#utility.yul\":1992:1996   */\n      0x20\n        /* \"#utility.yul\":1985:1990   */\n      dup2\n        /* \"#utility.yul\":1981:1997   */\n      add\n        /* \"#utility.yul\":2030:2033   */\n      dup5\n        /* \"#utility.yul\":2021:2027   */\n      dup5\n        /* \"#utility.yul\":2016:2019   */\n      dup5\n        /* \"#utility.yul\":2012:2028   */\n      add\n        /* \"#utility.yul\":2009:2034   */\n      gt\n        /* \"#utility.yul\":2006:2118   */\n      iszero\n      tag_220\n      jumpi\n        /* \"#utility.yul\":2037:2116   */\n      tag_221\n      tag_129\n      jump\t// in\n    tag_221:\n        /* \"#utility.yul\":2006:2118   */\n    tag_220:\n        /* \"#utility.yul\":2127:2181   */\n      tag_222\n        /* \"#utility.yul\":2174:2180   */\n      dup5\n        /* \"#utility.yul\":2169:2172   */\n      dup3\n        /* \"#utility.yul\":2164:2167   */\n      dup6\n        /* \"#utility.yul\":2127:2181   */\n      tag_135\n      jump\t// in\n    tag_222:\n        /* \"#utility.yul\":1846:2187   */\n      pop\n        /* \"#utility.yul\":1762:2187   */\n      swap4\n      swap3\n      pop\n      pop\n      pop\n      jump\t// out\n        /* \"#utility.yul\":2207:2547   */\n    tag_137:\n        /* \"#utility.yul\":2263:2268   */\n      0x00\n        /* \"#utility.yul\":2312:2315   */\n      dup3\n        /* \"#utility.yul\":2305:2309   */\n      0x1f\n        /* \"#utility.yul\":2297:2303   */\n      dup4\n        /* \"#utility.yul\":2293:2310   */\n      add\n        /* \"#utility.yul\":2289:2316   */\n      slt\n        /* \"#utility.yul\":2279:2401   */\n      tag_224\n      jumpi\n        /* \"#utility.yul\":2320:2399   */\n      tag_225\n      tag_128\n      jump\t// in\n    tag_225:\n        /* \"#utility.yul\":2279:2401   */\n    tag_224:\n        /* \"#utility.yul\":2437:2443   */\n      dup2\n        /* \"#utility.yul\":2424:2444   */\n      calldataload\n        /* \"#utility.yul\":2462:2541   */\n      tag_226\n        /* \"#utility.yul\":2537:2540   */\n      dup5\n        /* \"#utility.yul\":2529:2535   */\n      dup3\n        /* \"#utility.yul\":2522:2526   */\n      0x20\n        /* \"#utility.yul\":2514:2520   */\n      dup7\n        /* \"#utility.yul\":2510:2527   */\n      add\n        /* \"#utility.yul\":2462:2541   */\n      tag_136\n      jump\t// in\n    tag_226:\n        /* \"#utility.yul\":2453:2541   */\n      swap2\n      pop\n        /* \"#utility.yul\":2269:2547   */\n      pop\n        /* \"#utility.yul\":2207:2547   */\n      swap3\n      swap2\n      pop\n      pop\n      jump\t// out\n        /* \"#utility.yul\":2553:2630   */\n    tag_138:\n        /* \"#utility.yul\":2590:2597   */\n      0x00\n        /* \"#utility.yul\":2619:2624   */\n      dup2\n        /* \"#utility.yul\":2608:2624   */\n      swap1\n      pop\n        /* \"#utility.yul\":2553:2630   */\n      swap2\n      swap1\n      pop\n      jump\t// out\n        /* \"#utility.yul\":2636:2758   */\n    tag_139:\n        /* \"#utility.yul\":2709:2733   */\n      tag_229\n        /* \"#utility.yul\":2727:2732   */\n      dup2\n        /* \"#utility.yul\":2709:2733   */\n      tag_138\n      jump\t// in\n    tag_229:\n        /* \"#utility.yul\":2702:2707   */\n      dup2\n        /* \"#utility.yul\":2699:2734   */\n      eq\n        /* \"#utility.yul\":2689:2752   */\n      tag_230\n      jumpi\n        /* \"#utility.yul\":2748:2749   */\n      0x00\n        /* \"#utility.yul\":2745:2746   */\n      dup1\n        /* \"#utility.yul\":2738:2750   */\n      revert\n        /* \"#utility.yul\":2689:2752   */\n    tag_230:\n        /* \"#utility.yul\":2636:2758   */\n      pop\n      jump\t// out\n        /* \"#utility.yul\":2764:2903   */\n    tag_140:\n        /* \"#utility.yul\":2810:2815   */\n      0x00\n        /* \"#utility.yul\":2848:2854   */\n      dup2\n        /* \"#utility.yul\":2835:2855   */\n      calldataload\n        /* \"#utility.yul\":2826:2855   */\n      swap1\n      pop\n        /* \"#utility.yul\":2864:2897   */\n      tag_232\n        /* \"#utility.yul\":2891:2896   */\n      dup2\n        /* \"#utility.yul\":2864:2897   */\n      tag_139\n      jump\t// in\n    tag_232:\n        /* \"#utility.yul\":2764:2903   */\n      swap3\n      swap2\n      pop\n      pop\n      jump\t// out\n        /* \"#utility.yul\":2909:4506   */\n    tag_9:\n        /* \"#utility.yul\":3043:3049   */\n      0x00\n        /* \"#utility.yul\":3051:3057   */\n      dup1\n        /* \"#utility.yul\":3059:3065   */\n      0x00\n        /* \"#utility.yul\":3067:3073   */\n      dup1\n        /* \"#utility.yul\":3075:3081   */\n      0x00\n        /* \"#utility.yul\":3083:3089   */\n      dup1\n        /* \"#utility.yul\":3132:3135   */\n      0xc0\n        /* \"#utility.yul\":3120:3129   */\n      dup8\n        /* \"#utility.yul\":3111:3118   */\n      dup10\n        /* \"#utility.yul\":3107:3130   */\n      sub\n        /* \"#utility.yul\":3103:3136   */\n      slt\n        /* \"#utility.yul\":3100:3220   */\n      iszero\n      tag_234\n      jumpi\n        /* \"#utility.yul\":3139:3218   */\n      tag_235\n      tag_126\n      jump\t// in\n    tag_235:\n        /* \"#utility.yul\":3100:3220   */\n    tag_234:\n        /* \"#utility.yul\":3287:3288   */\n      0x00\n        /* \"#utility.yul\":3276:3285   */\n      dup8\n        /* \"#utility.yul\":3272:3289   */\n      add\n        /* \"#utility.yul\":3259:3290   */\n      calldataload\n        /* \"#utility.yul\":3317:3335   */\n      0xffffffffffffffff\n        /* \"#utility.yul\":3309:3315   */\n      dup2\n        /* \"#utility.yul\":3306:3336   */\n      gt\n        /* \"#utility.yul\":3303:3420   */\n      iszero\n      tag_236\n      jumpi\n        /* \"#utility.yul\":3339:3418   */\n      tag_237\n      tag_127\n      jump\t// in\n    tag_237:\n        /* \"#utility.yul\":3303:3420   */\n    tag_236:\n        /* \"#utility.yul\":3444:3507   */\n      tag_238\n        /* \"#utility.yul\":3499:3506   */\n      dup10\n        /* \"#utility.yul\":3490:3496   */\n      dup3\n        /* \"#utility.yul\":3479:3488   */\n      dup11\n        /* \"#utility.yul\":3475:3497   */\n      add\n        /* \"#utility.yul\":3444:3507   */\n      tag_137\n      jump\t// in\n    tag_238:\n        /* \"#utility.yul\":3434:3507   */\n      swap7\n      pop\n        /* \"#utility.yul\":3230:3517   */\n      pop\n        /* \"#utility.yul\":3556:3558   */\n      0x20\n        /* \"#utility.yul\":3582:3635   */\n      tag_239\n        /* \"#utility.yul\":3627:3634   */\n      dup10\n        /* \"#utility.yul\":3618:3624   */\n      dup3\n        /* \"#utility.yul\":3607:3616   */\n      dup11\n        /* \"#utility.yul\":3603:3625   */\n      add\n        /* \"#utility.yul\":3582:3635   */\n      tag_140\n      jump\t// in\n    tag_239:\n        /* \"#utility.yul\":3572:3635   */\n      swap6\n      pop\n        /* \"#utility.yul\":3527:3645   */\n      pop\n        /* \"#utility.yul\":3712:3714   */\n      0x40\n        /* \"#utility.yul\":3701:3710   */\n      dup8\n        /* \"#utility.yul\":3697:3715   */\n      add\n        /* \"#utility.yul\":3684:3716   */\n      calldataload\n        /* \"#utility.yul\":3743:3761   */\n      0xffffffffffffffff\n        /* \"#utility.yul\":3735:3741   */\n      dup2\n        /* \"#utility.yul\":3732:3762   */\n      gt\n        /* \"#utility.yul\":3729:3846   */\n      iszero\n      tag_240\n      jumpi\n        /* \"#utility.yul\":3765:3844   */\n      tag_241\n      tag_127\n      jump\t// in\n    tag_241:\n        /* \"#utility.yul\":3729:3846   */\n    tag_240:\n        /* \"#utility.yul\":3870:3933   */\n      tag_242\n        /* \"#utility.yul\":3925:3932   */\n      dup10\n        /* \"#utility.yul\":3916:3922   */\n      dup3\n        /* \"#utility.yul\":3905:3914   */\n      dup11\n        /* \"#utility.yul\":3901:3923   */\n      add\n        /* \"#utility.yul\":3870:3933   */\n      tag_137\n      jump\t// in\n    tag_242:\n        /* \"#utility.yul\":3860:3933   */\n      swap5\n      pop\n        /* \"#utility.yul\":3655:3943   */\n      pop\n        /* \"#utility.yul\":3982:3984   */\n      0x60\n        /* \"#utility.yul\":4008:4061   */\n      tag_243\n        /* \"#utility.yul\":4053:4060   */\n      dup10\n        /* \"#utility.yul\":4044:4050   */\n      dup3\n        /* \"#utility.yul\":4033:4042   */\n      dup11\n        /* \"#utility.yul\":4029:4051   */\n      add\n        /* \"#utility.yul\":4008:4061   */\n      tag_140\n      jump\t// in\n    tag_243:\n        /* \"#utility.yul\":3998:4061   */\n      swap4\n      pop\n        /* \"#utility.yul\":3953:4071   */\n      pop\n        /* \"#utility.yul\":4138:4141   */\n      0x80\n        /* \"#utility.yul\":4127:4136   */\n      dup8\n        /* \"#utility.yul\":4123:4142   */\n      add\n        /* \"#utility.yul\":4110:4143   */\n      calldataload\n        /* \"#utility.yul\":4170:4188   */\n      0xffffffffffffffff\n        /* \"#utility.yul\":4162:4168   */\n      dup2\n        /* \"#utility.yul\":4159:4189   */\n      gt\n        /* \"#utility.yul\":4156:4273   */\n      iszero\n      tag_244\n      jumpi\n        /* \"#utility.yul\":4192:4271   */\n      tag_245\n      tag_127\n      jump\t// in\n    tag_245:\n        /* \"#utility.yul\":4156:4273   */\n    tag_244:\n        /* \"#utility.yul\":4297:4360   */\n      tag_246\n        /* \"#utility.yul\":4352:4359   */\n      dup10\n        /* \"#utility.yul\":4343:4349   */\n      dup3\n        /* \"#utility.yul\":4332:4341   */\n      dup11\n        /* \"#utility.yul\":4328:4350   */\n      add\n        /* \"#utility.yul\":4297:4360   */\n      tag_137\n      jump\t// in\n    tag_246:\n        /* \"#utility.yul\":4287:4360   */\n      swap3\n      pop\n        /* \"#utility.yul\":4081:4370   */\n      pop\n        /* \"#utility.yul\":4409:4412   */\n      0xa0\n        /* \"#utility.yul\":4436:4489   */\n      tag_247\n        /* \"#utility.yul\":4481:4488   */\n      dup10\n        /* \"#utility.yul\":4472:4478   */\n      dup3\n        /* \"#utility.yul\":4461:4470   */\n      dup11\n        /* \"#utility.yul\":4457:4479   */\n      add\n        /* \"#utility.yul\":4436:4489   */\n      tag_140\n      jump\t// in\n    tag_247:\n        /* \"#utility.yul\":4426:4489   */\n      swap2\n      pop\n        /* \"#utility.yul\":4380:4499   */\n      pop\n        /* \"#utility.yul\":2909:4506   */\n      swap3\n      swap6\n      pop\n      swap3\n      swap6\n      pop\n      swap3\n      swap6\n      jump\t// out\n        /* \"#utility.yul\":4512:4841   */\n    tag_13:\n        /* \"#utility.yul\":4571:4577   */\n      0x00\n        /* \"#utility.yul\":4620:4622   */\n      0x20\n        /* \"#utility.yul\":4608:4617   */\n      dup3\n        /* \"#utility.yul\":4599:4606   */\n      dup5\n        /* \"#utility.yul\":4595:4618   */\n      sub\n        /* \"#utility.yul\":4591:4623   */\n      slt\n        /* \"#utility.yul\":4588:4707   */\n      iszero\n      tag_249\n      jumpi\n        /* \"#utility.yul\":4626:4705   */\n      tag_250\n      tag_126\n      jump\t// in\n    tag_250:\n        /* \"#utility.yul\":4588:4707   */\n    tag_249:\n        /* \"#utility.yul\":4746:4747   */\n      0x00\n        /* \"#utility.yul\":4771:4824   */\n      tag_251\n        /* \"#utility.yul\":4816:4823   */\n      dup5\n        /* \"#utility.yul\":4807:4813   */\n      dup3\n        /* \"#utility.yul\":4796:4805   */\n      dup6\n        /* \"#utility.yul\":4792:4814   */\n      add\n        /* \"#utility.yul\":4771:4824   */\n      tag_140\n      jump\t// in\n    tag_251:\n        /* \"#utility.yul\":4761:4824   */\n      swap2\n      pop\n        /* \"#utility.yul\":4717:4834   */\n      pop\n        /* \"#utility.yul\":4512:4841   */\n      swap3\n      swap2\n      pop\n      pop\n      jump\t// out\n        /* \"#utility.yul\":4847:4955   */\n    tag_141:\n        /* \"#utility.yul\":4924:4948   */\n      tag_253\n        /* \"#utility.yul\":4942:4947   */\n      dup2\n        /* \"#utility.yul\":4924:4948   */\n      tag_138\n      jump\t// in\n    tag_253:\n        /* \"#utility.yul\":4919:4922   */\n      dup3\n        /* \"#utility.yul\":4912:4949   */\n      mstore\n        /* \"#utility.yul\":4847:4955   */\n      pop\n      pop\n      jump\t// out\n        /* \"#utility.yul\":4961:5060   */\n    tag_142:\n        /* \"#utility.yul\":5013:5019   */\n      0x00\n        /* \"#utility.yul\":5047:5052   */\n      dup2\n        /* \"#utility.yul\":5041:5053   */\n      mload\n        /* \"#utility.yul\":5031:5053   */\n      swap1\n      pop\n        /* \"#utility.yul\":4961:5060   */\n      swap2\n      swap1\n      pop\n      jump\t// out\n        /* \"#utility.yul\":5066:5225   */\n    tag_143:\n        /* \"#utility.yul\":5140:5151   */\n      0x00\n        /* \"#utility.yul\":5174:5180   */\n      dup3\n        /* \"#utility.yul\":5169:5172   */\n      dup3\n        /* \"#utility.yul\":5162:5181   */\n      mstore\n        /* \"#utility.yul\":5214:5218   */\n      0x20\n        /* \"#utility.yul\":5209:5212   */\n      dup3\n        /* \"#utility.yul\":5205:5219   */\n      add\n        /* \"#utility.yul\":5190:5219   */\n      swap1\n      pop\n        /* \"#utility.yul\":5066:5225   */\n      swap3\n      swap2\n      pop\n      pop\n      jump\t// out\n        /* \"#utility.yul\":5231:5477   */\n    tag_144:\n        /* \"#utility.yul\":5312:5313   */\n      0x00\n        /* \"#utility.yul\":5322:5435   */\n    tag_257:\n        /* \"#utility.yul\":5336:5342   */\n      dup4\n        /* \"#utility.yul\":5333:5334   */\n      dup2\n        /* \"#utility.yul\":5330:5343   */\n      lt\n        /* \"#utility.yul\":5322:5435   */\n      iszero\n      tag_259\n      jumpi\n        /* \"#utility.yul\":5421:5422   */\n      dup1\n        /* \"#utility.yul\":5416:5419   */\n      dup3\n        /* \"#utility.yul\":5412:5423   */\n      add\n        /* \"#utility.yul\":5406:5424   */\n      mload\n        /* \"#utility.yul\":5402:5403   */\n      dup2\n        /* \"#utility.yul\":5397:5400   */\n      dup5\n        /* \"#utility.yul\":5393:5404   */\n      add\n        /* \"#utility.yul\":5386:5425   */\n      mstore\n        /* \"#utility.yul\":5358:5360   */\n      0x20\n        /* \"#utility.yul\":5355:5356   */\n      dup2\n        /* \"#utility.yul\":5351:5361   */\n      add\n        /* \"#utility.yul\":5346:5361   */\n      swap1\n      pop\n        /* \"#utility.yul\":5322:5435   */\n      jump(tag_257)\n    tag_259:\n        /* \"#utility.yul\":5469:5470   */\n      0x00\n        /* \"#utility.yul\":5460:5466   */\n      dup5\n        /* \"#utility.yul\":5455:5458   */\n      dup5\n        /* \"#utility.yul\":5451:5467   */\n      add\n        /* \"#utility.yul\":5444:5471   */\n      mstore\n        /* \"#utility.yul\":5293:5477   */\n      pop\n        /* \"#utility.yul\":5231:5477   */\n      pop\n      pop\n      pop\n      jump\t// out\n        /* \"#utility.yul\":5483:5840   */\n    tag_145:\n        /* \"#utility.yul\":5561:5564   */\n      0x00\n        /* \"#utility.yul\":5589:5628   */\n      tag_261\n        /* \"#utility.yul\":5622:5627   */\n      dup3\n        /* \"#utility.yul\":5589:5628   */\n      tag_142\n      jump\t// in\n    tag_261:\n        /* \"#utility.yul\":5644:5705   */\n      tag_262\n        /* \"#utility.yul\":5698:5704   */\n      dup2\n        /* \"#utility.yul\":5693:5696   */\n      dup6\n        /* \"#utility.yul\":5644:5705   */\n      tag_143\n      jump\t// in\n    tag_262:\n        /* \"#utility.yul\":5637:5705   */\n      swap4\n      pop\n        /* \"#utility.yul\":5714:5779   */\n      tag_263\n        /* \"#utility.yul\":5772:5778   */\n      dup2\n        /* \"#utility.yul\":5767:5770   */\n      dup6\n        /* \"#utility.yul\":5760:5764   */\n      0x20\n        /* \"#utility.yul\":5753:5758   */\n      dup7\n        /* \"#utility.yul\":5749:5765   */\n      add\n        /* \"#utility.yul\":5714:5779   */\n      tag_144\n      jump\t// in\n    tag_263:\n        /* \"#utility.yul\":5804:5833   */\n      tag_264\n        /* \"#utility.yul\":5826:5832   */\n      dup2\n        /* \"#utility.yul\":5804:5833   */\n      tag_130\n      jump\t// in\n    tag_264:\n        /* \"#utility.yul\":5799:5802   */\n      dup5\n        /* \"#utility.yul\":5795:5834   */\n      add\n        /* \"#utility.yul\":5788:5834   */\n      swap2\n      pop\n        /* \"#utility.yul\":5565:5840   */\n      pop\n        /* \"#utility.yul\":5483:5840   */\n      swap3\n      swap2\n      pop\n      pop\n      jump\t// out\n        /* \"#utility.yul\":5846:5992   */\n    tag_146:\n        /* \"#utility.yul\":5945:5951   */\n      0x00\n        /* \"#utility.yul\":5979:5984   */\n      dup2\n        /* \"#utility.yul\":5973:5985   */\n      mload\n        /* \"#utility.yul\":5963:5985   */\n      swap1\n      pop\n        /* \"#utility.yul\":5846:5992   */\n      swap2\n      swap1\n      pop\n      jump\t// out\n        /* \"#utility.yul\":5998:6204   */\n    tag_147:\n        /* \"#utility.yul\":6119:6130   */\n      0x00\n        /* \"#utility.yul\":6153:6159   */\n      dup3\n        /* \"#utility.yul\":6148:6151   */\n      dup3\n        /* \"#utility.yul\":6141:6160   */\n      mstore\n        /* \"#utility.yul\":6193:6197   */\n      0x20\n        /* \"#utility.yul\":6188:6191   */\n      dup3\n        /* \"#utility.yul\":6184:6198   */\n      add\n        /* \"#utility.yul\":6169:6198   */\n      swap1\n      pop\n        /* \"#utility.yul\":5998:6204   */\n      swap3\n      swap2\n      pop\n      pop\n      jump\t// out\n        /* \"#utility.yul\":6210:6374   */\n    tag_148:\n        /* \"#utility.yul\":6309:6313   */\n      0x00\n        /* \"#utility.yul\":6332:6335   */\n      dup2\n        /* \"#utility.yul\":6324:6335   */\n      swap1\n      pop\n        /* \"#utility.yul\":6362:6366   */\n      0x20\n        /* \"#utility.yul\":6357:6360   */\n      dup3\n        /* \"#utility.yul\":6353:6367   */\n      add\n        /* \"#utility.yul\":6345:6367   */\n      swap1\n      pop\n        /* \"#utility.yul\":6210:6374   */\n      swap2\n      swap1\n      pop\n      jump\t// out\n        /* \"#utility.yul\":6380:6560   */\n    tag_82:\n        /* \"#utility.yul\":6428:6505   */\n      0x4e487b7100000000000000000000000000000000000000000000000000000000\n        /* \"#utility.yul\":6425:6426   */\n      0x00\n        /* \"#utility.yul\":6418:6506   */\n      mstore\n        /* \"#utility.yul\":6525:6529   */\n      0x21\n        /* \"#utility.yul\":6522:6523   */\n      0x04\n        /* \"#utility.yul\":6515:6530   */\n      mstore\n        /* \"#utility.yul\":6549:6553   */\n      0x24\n        /* \"#utility.yul\":6546:6547   */\n      0x00\n        /* \"#utility.yul\":6539:6554   */\n      revert\n        /* \"#utility.yul\":6566:6685   */\n    tag_149:\n        /* \"#utility.yul\":6653:6654   */\n      0x02\n        /* \"#utility.yul\":6646:6651   */\n      dup2\n        /* \"#utility.yul\":6643:6655   */\n      lt\n        /* \"#utility.yul\":6633:6679   */\n      tag_270\n      jumpi\n        /* \"#utility.yul\":6659:6677   */\n      tag_271\n      tag_82\n      jump\t// in\n    tag_271:\n        /* \"#utility.yul\":6633:6679   */\n    tag_270:\n        /* \"#utility.yul\":6566:6685   */\n      pop\n      jump\t// out\n        /* \"#utility.yul\":6691:6830   */\n    tag_150:\n        /* \"#utility.yul\":6742:6749   */\n      0x00\n        /* \"#utility.yul\":6771:6776   */\n      dup2\n        /* \"#utility.yul\":6760:6776   */\n      swap1\n      pop\n        /* \"#utility.yul\":6777:6824   */\n      tag_273\n        /* \"#utility.yul\":6818:6823   */\n      dup3\n        /* \"#utility.yul\":6777:6824   */\n      tag_149\n      jump\t// in\n    tag_273:\n        /* \"#utility.yul\":6691:6830   */\n      swap2\n      swap1\n      pop\n      jump\t// out\n        /* \"#utility.yul\":6836:6975   */\n    tag_151:\n        /* \"#utility.yul\":6898:6907   */\n      0x00\n        /* \"#utility.yul\":6931:6969   */\n      tag_275\n        /* \"#utility.yul\":6963:6968   */\n      dup3\n        /* \"#utility.yul\":6931:6969   */\n      tag_150\n      jump\t// in\n    tag_275:\n        /* \"#utility.yul\":6918:6969   */\n      swap1\n      pop\n        /* \"#utility.yul\":6836:6975   */\n      swap2\n      swap1\n      pop\n      jump\t// out\n        /* \"#utility.yul\":6981:7126   */\n    tag_152:\n        /* \"#utility.yul\":7070:7119   */\n      tag_277\n        /* \"#utility.yul\":7113:7118   */\n      dup2\n        /* \"#utility.yul\":7070:7119   */\n      tag_151\n      jump\t// in\n    tag_277:\n        /* \"#utility.yul\":7065:7068   */\n      dup3\n        /* \"#utility.yul\":7058:7120   */\n      mstore\n        /* \"#utility.yul\":6981:7126   */\n      pop\n      pop\n      jump\t// out\n        /* \"#utility.yul\":7132:7258   */\n    tag_153:\n        /* \"#utility.yul\":7169:7176   */\n      0x00\n        /* \"#utility.yul\":7209:7251   */\n      0xffffffffffffffffffffffffffffffffffffffff\n        /* \"#utility.yul\":7202:7207   */\n      dup3\n        /* \"#utility.yul\":7198:7252   */\n      and\n        /* \"#utility.yul\":7187:7252   */\n      swap1\n      pop\n        /* \"#utility.yul\":7132:7258   */\n      swap2\n      swap1\n      pop\n      jump\t// out\n        /* \"#utility.yul\":7264:7360   */\n    tag_154:\n        /* \"#utility.yul\":7301:7308   */\n      0x00\n        /* \"#utility.yul\":7330:7354   */\n      tag_280\n        /* \"#utility.yul\":7348:7353   */\n      dup3\n        /* \"#utility.yul\":7330:7354   */\n      tag_153\n      jump\t// in\n    tag_280:\n        /* \"#utility.yul\":7319:7354   */\n      swap1\n      pop\n        /* \"#utility.yul\":7264:7360   */\n      swap2\n      swap1\n      pop\n      jump\t// out\n        /* \"#utility.yul\":7366:7474   */\n    tag_155:\n        /* \"#utility.yul\":7443:7467   */\n      tag_282\n        /* \"#utility.yul\":7461:7466   */\n      dup2\n        /* \"#utility.yul\":7443:7467   */\n      tag_154\n      jump\t// in\n    tag_282:\n        /* \"#utility.yul\":7438:7441   */\n      dup3\n        /* \"#utility.yul\":7431:7468   */\n      mstore\n        /* \"#utility.yul\":7366:7474   */\n      pop\n      pop\n      jump\t// out\n        /* \"#utility.yul\":7558:8434   */\n    tag_156:\n        /* \"#utility.yul\":7709:7713   */\n      0x80\n        /* \"#utility.yul\":7704:7707   */\n      dup3\n        /* \"#utility.yul\":7700:7714   */\n      add\n        /* \"#utility.yul\":7803:7807   */\n      0x00\n        /* \"#utility.yul\":7796:7801   */\n      dup3\n        /* \"#utility.yul\":7792:7808   */\n      add\n        /* \"#utility.yul\":7786:7809   */\n      mload\n        /* \"#utility.yul\":7822:7897   */\n      tag_284\n        /* \"#utility.yul\":7891:7895   */\n      0x00\n        /* \"#utility.yul\":7886:7889   */\n      dup6\n        /* \"#utility.yul\":7882:7896   */\n      add\n        /* \"#utility.yul\":7868:7880   */\n      dup3\n        /* \"#utility.yul\":7822:7897   */\n      tag_152\n      jump\t// in\n    tag_284:\n        /* \"#utility.yul\":7724:7907   */\n      pop\n        /* \"#utility.yul\":7989:7993   */\n      0x20\n        /* \"#utility.yul\":7982:7987   */\n      dup3\n        /* \"#utility.yul\":7978:7994   */\n      add\n        /* \"#utility.yul\":7972:7995   */\n      mload\n        /* \"#utility.yul\":8008:8071   */\n      tag_285\n        /* \"#utility.yul\":8065:8069   */\n      0x20\n        /* \"#utility.yul\":8060:8063   */\n      dup6\n        /* \"#utility.yul\":8056:8070   */\n      add\n        /* \"#utility.yul\":8042:8054   */\n      dup3\n        /* \"#utility.yul\":8008:8071   */\n      tag_141\n      jump\t// in\n    tag_285:\n        /* \"#utility.yul\":7917:8081   */\n      pop\n        /* \"#utility.yul\":8163:8167   */\n      0x40\n        /* \"#utility.yul\":8156:8161   */\n      dup3\n        /* \"#utility.yul\":8152:8168   */\n      add\n        /* \"#utility.yul\":8146:8169   */\n      mload\n        /* \"#utility.yul\":8182:8245   */\n      tag_286\n        /* \"#utility.yul\":8239:8243   */\n      0x40\n        /* \"#utility.yul\":8234:8237   */\n      dup6\n        /* \"#utility.yul\":8230:8244   */\n      add\n        /* \"#utility.yul\":8216:8228   */\n      dup3\n        /* \"#utility.yul\":8182:8245   */\n      tag_155\n      jump\t// in\n    tag_286:\n        /* \"#utility.yul\":8091:8255   */\n      pop\n        /* \"#utility.yul\":8335:8339   */\n      0x60\n        /* \"#utility.yul\":8328:8333   */\n      dup3\n        /* \"#utility.yul\":8324:8340   */\n      add\n        /* \"#utility.yul\":8318:8341   */\n      mload\n        /* \"#utility.yul\":8354:8417   */\n      tag_287\n        /* \"#utility.yul\":8411:8415   */\n      0x60\n        /* \"#utility.yul\":8406:8409   */\n      dup6\n        /* \"#utility.yul\":8402:8416   */\n      add\n        /* \"#utility.yul\":8388:8400   */\n      dup3\n        /* \"#utility.yul\":8354:8417   */\n      tag_155\n      jump\t// in\n    tag_287:\n        /* \"#utility.yul\":8265:8427   */\n      pop\n        /* \"#utility.yul\":7678:8434   */\n      pop\n        /* \"#utility.yul\":7558:8434   */\n      pop\n      pop\n      jump\t// out\n        /* \"#utility.yul\":8440:8747   */\n    tag_157:\n        /* \"#utility.yul\":8573:8583   */\n      0x00\n        /* \"#utility.yul\":8594:8704   */\n      tag_289\n        /* \"#utility.yul\":8700:8703   */\n      dup4\n        /* \"#utility.yul\":8692:8698   */\n      dup4\n        /* \"#utility.yul\":8594:8704   */\n      tag_156\n      jump\t// in\n    tag_289:\n        /* \"#utility.yul\":8736:8740   */\n      0x80\n        /* \"#utility.yul\":8731:8734   */\n      dup4\n        /* \"#utility.yul\":8727:8741   */\n      add\n        /* \"#utility.yul\":8713:8741   */\n      swap1\n      pop\n        /* \"#utility.yul\":8440:8747   */\n      swap3\n      swap2\n      pop\n      pop\n      jump\t// out\n        /* \"#utility.yul\":8753:8898   */\n    tag_158:\n        /* \"#utility.yul\":8855:8859   */\n      0x00\n        /* \"#utility.yul\":8887:8891   */\n      0x20\n        /* \"#utility.yul\":8882:8885   */\n      dup3\n        /* \"#utility.yul\":8878:8892   */\n      add\n        /* \"#utility.yul\":8870:8892   */\n      swap1\n      pop\n        /* \"#utility.yul\":8753:8898   */\n      swap2\n      swap1\n      pop\n      jump\t// out\n        /* \"#utility.yul\":8986:9954   */\n    tag_159:\n        /* \"#utility.yul\":9159:9162   */\n      0x00\n        /* \"#utility.yul\":9188:9274   */\n      tag_292\n        /* \"#utility.yul\":9268:9273   */\n      dup3\n        /* \"#utility.yul\":9188:9274   */\n      tag_146\n      jump\t// in\n    tag_292:\n        /* \"#utility.yul\":9290:9398   */\n      tag_293\n        /* \"#utility.yul\":9391:9397   */\n      dup2\n        /* \"#utility.yul\":9386:9389   */\n      dup6\n        /* \"#utility.yul\":9290:9398   */\n      tag_147\n      jump\t// in\n    tag_293:\n        /* \"#utility.yul\":9283:9398   */\n      swap4\n      pop\n        /* \"#utility.yul\":9422:9510   */\n      tag_294\n        /* \"#utility.yul\":9504:9509   */\n      dup4\n        /* \"#utility.yul\":9422:9510   */\n      tag_148\n      jump\t// in\n    tag_294:\n        /* \"#utility.yul\":9533:9540   */\n      dup1\n        /* \"#utility.yul\":9564:9565   */\n      0x00\n        /* \"#utility.yul\":9549:9929   */\n    tag_295:\n        /* \"#utility.yul\":9574:9580   */\n      dup4\n        /* \"#utility.yul\":9571:9572   */\n      dup2\n        /* \"#utility.yul\":9568:9581   */\n      lt\n        /* \"#utility.yul\":9549:9929   */\n      iszero\n      tag_297\n      jumpi\n        /* \"#utility.yul\":9650:9656   */\n      dup2\n        /* \"#utility.yul\":9644:9657   */\n      mload\n        /* \"#utility.yul\":9677:9804   */\n      tag_298\n        /* \"#utility.yul\":9800:9803   */\n      dup9\n        /* \"#utility.yul\":9785:9798   */\n      dup3\n        /* \"#utility.yul\":9677:9804   */\n      tag_157\n      jump\t// in\n    tag_298:\n        /* \"#utility.yul\":9670:9804   */\n      swap8\n      pop\n        /* \"#utility.yul\":9827:9919   */\n      tag_299\n        /* \"#utility.yul\":9912:9918   */\n      dup4\n        /* \"#utility.yul\":9827:9919   */\n      tag_158\n      jump\t// in\n    tag_299:\n        /* \"#utility.yul\":9817:9919   */\n      swap3\n      pop\n        /* \"#utility.yul\":9609:9929   */\n      pop\n        /* \"#utility.yul\":9596:9597   */\n      0x01\n        /* \"#utility.yul\":9593:9594   */\n      dup2\n        /* \"#utility.yul\":9589:9598   */\n      add\n        /* \"#utility.yul\":9584:9598   */\n      swap1\n      pop\n        /* \"#utility.yul\":9549:9929   */\n      jump(tag_295)\n    tag_297:\n        /* \"#utility.yul\":9553:9567   */\n      pop\n        /* \"#utility.yul\":9945:9948   */\n      dup6\n        /* \"#utility.yul\":9938:9948   */\n      swap4\n      pop\n        /* \"#utility.yul\":9164:9954   */\n      pop\n      pop\n      pop\n        /* \"#utility.yul\":8986:9954   */\n      swap3\n      swap2\n      pop\n      pop\n      jump\t// out\n        /* \"#utility.yul\":10020:11814   */\n    tag_160:\n        /* \"#utility.yul\":10135:10138   */\n      0x00\n        /* \"#utility.yul\":10171:10175   */\n      0xe0\n        /* \"#utility.yul\":10166:10169   */\n      dup4\n        /* \"#utility.yul\":10162:10176   */\n      add\n        /* \"#utility.yul\":10260:10264   */\n      0x00\n        /* \"#utility.yul\":10253:10258   */\n      dup4\n        /* \"#utility.yul\":10249:10265   */\n      add\n        /* \"#utility.yul\":10243:10266   */\n      mload\n        /* \"#utility.yul\":10279:10342   */\n      tag_301\n        /* \"#utility.yul\":10336:10340   */\n      0x00\n        /* \"#utility.yul\":10331:10334   */\n      dup7\n        /* \"#utility.yul\":10327:10341   */\n      add\n        /* \"#utility.yul\":10313:10325   */\n      dup3\n        /* \"#utility.yul\":10279:10342   */\n      tag_141\n      jump\t// in\n    tag_301:\n        /* \"#utility.yul\":10186:10352   */\n      pop\n        /* \"#utility.yul\":10434:10438   */\n      0x20\n        /* \"#utility.yul\":10427:10432   */\n      dup4\n        /* \"#utility.yul\":10423:10439   */\n      add\n        /* \"#utility.yul\":10417:10440   */\n      mload\n        /* \"#utility.yul\":10487:10490   */\n      dup5\n        /* \"#utility.yul\":10481:10485   */\n      dup3\n        /* \"#utility.yul\":10477:10491   */\n      sub\n        /* \"#utility.yul\":10470:10474   */\n      0x20\n        /* \"#utility.yul\":10465:10468   */\n      dup7\n        /* \"#utility.yul\":10461:10475   */\n      add\n        /* \"#utility.yul\":10454:10492   */\n      mstore\n        /* \"#utility.yul\":10513:10586   */\n      tag_302\n        /* \"#utility.yul\":10581:10585   */\n      dup3\n        /* \"#utility.yul\":10567:10579   */\n      dup3\n        /* \"#utility.yul\":10513:10586   */\n      tag_145\n      jump\t// in\n    tag_302:\n        /* \"#utility.yul\":10505:10586   */\n      swap2\n      pop\n        /* \"#utility.yul\":10362:10597   */\n      pop\n        /* \"#utility.yul\":10678:10682   */\n      0x40\n        /* \"#utility.yul\":10671:10676   */\n      dup4\n        /* \"#utility.yul\":10667:10683   */\n      add\n        /* \"#utility.yul\":10661:10684   */\n      mload\n        /* \"#utility.yul\":10697:10760   */\n      tag_303\n        /* \"#utility.yul\":10754:10758   */\n      0x40\n        /* \"#utility.yul\":10749:10752   */\n      dup7\n        /* \"#utility.yul\":10745:10759   */\n      add\n        /* \"#utility.yul\":10731:10743   */\n      dup3\n        /* \"#utility.yul\":10697:10760   */\n      tag_141\n      jump\t// in\n    tag_303:\n        /* \"#utility.yul\":10607:10770   */\n      pop\n        /* \"#utility.yul\":10858:10862   */\n      0x60\n        /* \"#utility.yul\":10851:10856   */\n      dup4\n        /* \"#utility.yul\":10847:10863   */\n      add\n        /* \"#utility.yul\":10841:10864   */\n      mload\n        /* \"#utility.yul\":10911:10914   */\n      dup5\n        /* \"#utility.yul\":10905:10909   */\n      dup3\n        /* \"#utility.yul\":10901:10915   */\n      sub\n        /* \"#utility.yul\":10894:10898   */\n      0x60\n        /* \"#utility.yul\":10889:10892   */\n      dup7\n        /* \"#utility.yul\":10885:10899   */\n      add\n        /* \"#utility.yul\":10878:10916   */\n      mstore\n        /* \"#utility.yul\":10937:11010   */\n      tag_304\n        /* \"#utility.yul\":11005:11009   */\n      dup3\n        /* \"#utility.yul\":10991:11003   */\n      dup3\n        /* \"#utility.yul\":10937:11010   */\n      tag_145\n      jump\t// in\n    tag_304:\n        /* \"#utility.yul\":10929:11010   */\n      swap2\n      pop\n        /* \"#utility.yul\":10780:11021   */\n      pop\n        /* \"#utility.yul\":11106:11110   */\n      0x80\n        /* \"#utility.yul\":11099:11104   */\n      dup4\n        /* \"#utility.yul\":11095:11111   */\n      add\n        /* \"#utility.yul\":11089:11112   */\n      mload\n        /* \"#utility.yul\":11125:11188   */\n      tag_305\n        /* \"#utility.yul\":11182:11186   */\n      0x80\n        /* \"#utility.yul\":11177:11180   */\n      dup7\n        /* \"#utility.yul\":11173:11187   */\n      add\n        /* \"#utility.yul\":11159:11171   */\n      dup3\n        /* \"#utility.yul\":11125:11188   */\n      tag_141\n      jump\t// in\n    tag_305:\n        /* \"#utility.yul\":11031:11198   */\n      pop\n        /* \"#utility.yul\":11287:11291   */\n      0xa0\n        /* \"#utility.yul\":11280:11285   */\n      dup4\n        /* \"#utility.yul\":11276:11292   */\n      add\n        /* \"#utility.yul\":11270:11293   */\n      mload\n        /* \"#utility.yul\":11340:11343   */\n      dup5\n        /* \"#utility.yul\":11334:11338   */\n      dup3\n        /* \"#utility.yul\":11330:11344   */\n      sub\n        /* \"#utility.yul\":11323:11327   */\n      0xa0\n        /* \"#utility.yul\":11318:11321   */\n      dup7\n        /* \"#utility.yul\":11314:11328   */\n      add\n        /* \"#utility.yul\":11307:11345   */\n      mstore\n        /* \"#utility.yul\":11366:11439   */\n      tag_306\n        /* \"#utility.yul\":11434:11438   */\n      dup3\n        /* \"#utility.yul\":11420:11432   */\n      dup3\n        /* \"#utility.yul\":11366:11439   */\n      tag_145\n      jump\t// in\n    tag_306:\n        /* \"#utility.yul\":11358:11439   */\n      swap2\n      pop\n        /* \"#utility.yul\":11208:11450   */\n      pop\n        /* \"#utility.yul\":11530:11534   */\n      0xc0\n        /* \"#utility.yul\":11523:11528   */\n      dup4\n        /* \"#utility.yul\":11519:11535   */\n      add\n        /* \"#utility.yul\":11513:11536   */\n      mload\n        /* \"#utility.yul\":11583:11586   */\n      dup5\n        /* \"#utility.yul\":11577:11581   */\n      dup3\n        /* \"#utility.yul\":11573:11587   */\n      sub\n        /* \"#utility.yul\":11566:11570   */\n      0xc0\n        /* \"#utility.yul\":11561:11564   */\n      dup7\n        /* \"#utility.yul\":11557:11571   */\n      add\n        /* \"#utility.yul\":11550:11588   */\n      mstore\n        /* \"#utility.yul\":11609:11776   */\n      tag_307\n        /* \"#utility.yul\":11771:11775   */\n      dup3\n        /* \"#utility.yul\":11757:11769   */\n      dup3\n        /* \"#utility.yul\":11609:11776   */\n      tag_159\n      jump\t// in\n    tag_307:\n        /* \"#utility.yul\":11601:11776   */\n      swap2\n      pop\n        /* \"#utility.yul\":11460:11787   */\n      pop\n        /* \"#utility.yul\":11804:11808   */\n      dup1\n        /* \"#utility.yul\":11797:11808   */\n      swap2\n      pop\n        /* \"#utility.yul\":10140:11814   */\n      pop\n        /* \"#utility.yul\":10020:11814   */\n      swap3\n      swap2\n      pop\n      pop\n      jump\t// out\n        /* \"#utility.yul\":11820:12185   */\n    tag_16:\n        /* \"#utility.yul\":11959:11963   */\n      0x00\n        /* \"#utility.yul\":11997:11999   */\n      0x20\n        /* \"#utility.yul\":11986:11995   */\n      dup3\n        /* \"#utility.yul\":11982:12000   */\n      add\n        /* \"#utility.yul\":11974:12000   */\n      swap1\n      pop\n        /* \"#utility.yul\":12046:12055   */\n      dup2\n        /* \"#utility.yul\":12040:12044   */\n      dup2\n        /* \"#utility.yul\":12036:12056   */\n      sub\n        /* \"#utility.yul\":12032:12033   */\n      0x00\n        /* \"#utility.yul\":12021:12030   */\n      dup4\n        /* \"#utility.yul\":12017:12034   */\n      add\n        /* \"#utility.yul\":12010:12057   */\n      mstore\n        /* \"#utility.yul\":12074:12178   */\n      tag_309\n        /* \"#utility.yul\":12173:12177   */\n      dup2\n        /* \"#utility.yul\":12164:12170   */\n      dup5\n        /* \"#utility.yul\":12074:12178   */\n      tag_160\n      jump\t// in\n    tag_309:\n        /* \"#utility.yul\":12066:12178   */\n      swap1\n      pop\n        /* \"#utility.yul\":11820:12185   */\n      swap3\n      swap2\n      pop\n      pop\n      jump\t// out\n        /* \"#utility.yul\":12191:12328   */\n    tag_161:\n        /* \"#utility.yul\":12281:12287   */\n      0x00\n        /* \"#utility.yul\":12315:12320   */\n      dup2\n        /* \"#utility.yul\":12309:12321   */\n      mload\n        /* \"#utility.yul\":12299:12321   */\n      swap1\n      pop\n        /* \"#utility.yul\":12191:12328   */\n      swap2\n      swap1\n      pop\n      jump\t// out\n        /* \"#utility.yul\":12334:12541   */\n    tag_162:\n        /* \"#utility.yul\":12456:12467   */\n      0x00\n        /* \"#utility.yul\":12490:12496   */\n      dup3\n        /* \"#utility.yul\":12485:12488   */\n      dup3\n        /* \"#utility.yul\":12478:12497   */\n      mstore\n        /* \"#utility.yul\":12530:12534   */\n      0x20\n        /* \"#utility.yul\":12525:12528   */\n      dup3\n        /* \"#utility.yul\":12521:12535   */\n      add\n        /* \"#utility.yul\":12506:12535   */\n      swap1\n      pop\n        /* \"#utility.yul\":12334:12541   */\n      swap3\n      swap2\n      pop\n      pop\n      jump\t// out\n        /* \"#utility.yul\":12547:12702   */\n    tag_163:\n        /* \"#utility.yul\":12637:12641   */\n      0x00\n        /* \"#utility.yul\":12660:12663   */\n      dup2\n        /* \"#utility.yul\":12652:12663   */\n      swap1\n      pop\n        /* \"#utility.yul\":12690:12694   */\n      0x20\n        /* \"#utility.yul\":12685:12688   */\n      dup3\n        /* \"#utility.yul\":12681:12695   */\n      add\n        /* \"#utility.yul\":12673:12695   */\n      swap1\n      pop\n        /* \"#utility.yul\":12547:12702   */\n      swap2\n      swap1\n      pop\n      jump\t// out\n        /* \"#utility.yul\":12768:14552   */\n    tag_164:\n        /* \"#utility.yul\":12873:12876   */\n      0x00\n        /* \"#utility.yul\":12909:12913   */\n      0xe0\n        /* \"#utility.yul\":12904:12907   */\n      dup4\n        /* \"#utility.yul\":12900:12914   */\n      add\n        /* \"#utility.yul\":12998:13002   */\n      0x00\n        /* \"#utility.yul\":12991:12996   */\n      dup4\n        /* \"#utility.yul\":12987:13003   */\n      add\n        /* \"#utility.yul\":12981:13004   */\n      mload\n        /* \"#utility.yul\":13017:13080   */\n      tag_314\n        /* \"#utility.yul\":13074:13078   */\n      0x00\n        /* \"#utility.yul\":13069:13072   */\n      dup7\n        /* \"#utility.yul\":13065:13079   */\n      add\n        /* \"#utility.yul\":13051:13063   */\n      dup3\n        /* \"#utility.yul\":13017:13080   */\n      tag_141\n      jump\t// in\n    tag_314:\n        /* \"#utility.yul\":12924:13090   */\n      pop\n        /* \"#utility.yul\":13172:13176   */\n      0x20\n        /* \"#utility.yul\":13165:13170   */\n      dup4\n        /* \"#utility.yul\":13161:13177   */\n      add\n        /* \"#utility.yul\":13155:13178   */\n      mload\n        /* \"#utility.yul\":13225:13228   */\n      dup5\n        /* \"#utility.yul\":13219:13223   */\n      dup3\n        /* \"#utility.yul\":13215:13229   */\n      sub\n        /* \"#utility.yul\":13208:13212   */\n      0x20\n        /* \"#utility.yul\":13203:13206   */\n      dup7\n        /* \"#utility.yul\":13199:13213   */\n      add\n        /* \"#utility.yul\":13192:13230   */\n      mstore\n        /* \"#utility.yul\":13251:13324   */\n      tag_315\n        /* \"#utility.yul\":13319:13323   */\n      dup3\n        /* \"#utility.yul\":13305:13317   */\n      dup3\n        /* \"#utility.yul\":13251:13324   */\n      tag_145\n      jump\t// in\n    tag_315:\n        /* \"#utility.yul\":13243:13324   */\n      swap2\n      pop\n        /* \"#utility.yul\":13100:13335   */\n      pop\n        /* \"#utility.yul\":13416:13420   */\n      0x40\n        /* \"#utility.yul\":13409:13414   */\n      dup4\n        /* \"#utility.yul\":13405:13421   */\n      add\n        /* \"#utility.yul\":13399:13422   */\n      mload\n        /* \"#utility.yul\":13435:13498   */\n      tag_316\n        /* \"#utility.yul\":13492:13496   */\n      0x40\n        /* \"#utility.yul\":13487:13490   */\n      dup7\n        /* \"#utility.yul\":13483:13497   */\n      add\n        /* \"#utility.yul\":13469:13481   */\n      dup3\n        /* \"#utility.yul\":13435:13498   */\n      tag_141\n      jump\t// in\n    tag_316:\n        /* \"#utility.yul\":13345:13508   */\n      pop\n        /* \"#utility.yul\":13596:13600   */\n      0x60\n        /* \"#utility.yul\":13589:13594   */\n      dup4\n        /* \"#utility.yul\":13585:13601   */\n      add\n        /* \"#utility.yul\":13579:13602   */\n      mload\n        /* \"#utility.yul\":13649:13652   */\n      dup5\n        /* \"#utility.yul\":13643:13647   */\n      dup3\n        /* \"#utility.yul\":13639:13653   */\n      sub\n        /* \"#utility.yul\":13632:13636   */\n      0x60\n        /* \"#utility.yul\":13627:13630   */\n      dup7\n        /* \"#utility.yul\":13623:13637   */\n      add\n        /* \"#utility.yul\":13616:13654   */\n      mstore\n        /* \"#utility.yul\":13675:13748   */\n      tag_317\n        /* \"#utility.yul\":13743:13747   */\n      dup3\n        /* \"#utility.yul\":13729:13741   */\n      dup3\n        /* \"#utility.yul\":13675:13748   */\n      tag_145\n      jump\t// in\n    tag_317:\n        /* \"#utility.yul\":13667:13748   */\n      swap2\n      pop\n        /* \"#utility.yul\":13518:13759   */\n      pop\n        /* \"#utility.yul\":13844:13848   */\n      0x80\n        /* \"#utility.yul\":13837:13842   */\n      dup4\n        /* \"#utility.yul\":13833:13849   */\n      add\n        /* \"#utility.yul\":13827:13850   */\n      mload\n        /* \"#utility.yul\":13863:13926   */\n      tag_318\n        /* \"#utility.yul\":13920:13924   */\n      0x80\n        /* \"#utility.yul\":13915:13918   */\n      dup7\n        /* \"#utility.yul\":13911:13925   */\n      add\n        /* \"#utility.yul\":13897:13909   */\n      dup3\n        /* \"#utility.yul\":13863:13926   */\n      tag_141\n      jump\t// in\n    tag_318:\n        /* \"#utility.yul\":13769:13936   */\n      pop\n        /* \"#utility.yul\":14025:14029   */\n      0xa0\n        /* \"#utility.yul\":14018:14023   */\n      dup4\n        /* \"#utility.yul\":14014:14030   */\n      add\n        /* \"#utility.yul\":14008:14031   */\n      mload\n        /* \"#utility.yul\":14078:14081   */\n      dup5\n        /* \"#utility.yul\":14072:14076   */\n      dup3\n        /* \"#utility.yul\":14068:14082   */\n      sub\n        /* \"#utility.yul\":14061:14065   */\n      0xa0\n        /* \"#utility.yul\":14056:14059   */\n      dup7\n        /* \"#utility.yul\":14052:14066   */\n      add\n        /* \"#utility.yul\":14045:14083   */\n      mstore\n        /* \"#utility.yul\":14104:14177   */\n      tag_319\n        /* \"#utility.yul\":14172:14176   */\n      dup3\n        /* \"#utility.yul\":14158:14170   */\n      dup3\n        /* \"#utility.yul\":14104:14177   */\n      tag_145\n      jump\t// in\n    tag_319:\n        /* \"#utility.yul\":14096:14177   */\n      swap2\n      pop\n        /* \"#utility.yul\":13946:14188   */\n      pop\n        /* \"#utility.yul\":14268:14272   */\n      0xc0\n        /* \"#utility.yul\":14261:14266   */\n      dup4\n        /* \"#utility.yul\":14257:14273   */\n      add\n        /* \"#utility.yul\":14251:14274   */\n      mload\n        /* \"#utility.yul\":14321:14324   */\n      dup5\n        /* \"#utility.yul\":14315:14319   */\n      dup3\n        /* \"#utility.yul\":14311:14325   */\n      sub\n        /* \"#utility.yul\":14304:14308   */\n      0xc0\n        /* \"#utility.yul\":14299:14302   */\n      dup7\n        /* \"#utility.yul\":14295:14309   */\n      add\n        /* \"#utility.yul\":14288:14326   */\n      mstore\n        /* \"#utility.yul\":14347:14514   */\n      tag_320\n        /* \"#utility.yul\":14509:14513   */\n      dup3\n        /* \"#utility.yul\":14495:14507   */\n      dup3\n        /* \"#utility.yul\":14347:14514   */\n      tag_159\n      jump\t// in\n    tag_320:\n        /* \"#utility.yul\":14339:14514   */\n      swap2\n      pop\n        /* \"#utility.yul\":14198:14525   */\n      pop\n        /* \"#utility.yul\":14542:14546   */\n      dup1\n        /* \"#utility.yul\":14535:14546   */\n      swap2\n      pop\n        /* \"#utility.yul\":12878:14552   */\n      pop\n        /* \"#utility.yul\":12768:14552   */\n      swap3\n      swap2\n      pop\n      pop\n      jump\t// out\n        /* \"#utility.yul\":14558:14806   */\n    tag_165:\n        /* \"#utility.yul\":14673:14683   */\n      0x00\n        /* \"#utility.yul\":14708:14800   */\n      tag_322\n        /* \"#utility.yul\":14796:14799   */\n      dup4\n        /* \"#utility.yul\":14788:14794   */\n      dup4\n        /* \"#utility.yul\":14708:14800   */\n      tag_164\n      jump\t// in\n    tag_322:\n        /* \"#utility.yul\":14694:14800   */\n      swap1\n      pop\n        /* \"#utility.yul\":14558:14806   */\n      swap3\n      swap2\n      pop\n      pop\n      jump\t// out\n        /* \"#utility.yul\":14812:14948   */\n    tag_166:\n        /* \"#utility.yul\":14905:14909   */\n      0x00\n        /* \"#utility.yul\":14937:14941   */\n      0x20\n        /* \"#utility.yul\":14932:14935   */\n      dup3\n        /* \"#utility.yul\":14928:14942   */\n      add\n        /* \"#utility.yul\":14920:14942   */\n      swap1\n      pop\n        /* \"#utility.yul\":14812:14948   */\n      swap2\n      swap1\n      pop\n      jump\t// out\n        /* \"#utility.yul\":15018:16113   */\n    tag_167:\n        /* \"#utility.yul\":15183:15186   */\n      0x00\n        /* \"#utility.yul\":15212:15289   */\n      tag_325\n        /* \"#utility.yul\":15283:15288   */\n      dup3\n        /* \"#utility.yul\":15212:15289   */\n      tag_161\n      jump\t// in\n    tag_325:\n        /* \"#utility.yul\":15305:15414   */\n      tag_326\n        /* \"#utility.yul\":15407:15413   */\n      dup2\n        /* \"#utility.yul\":15402:15405   */\n      dup6\n        /* \"#utility.yul\":15305:15414   */\n      tag_162\n      jump\t// in\n    tag_326:\n        /* \"#utility.yul\":15298:15414   */\n      swap4\n      pop\n        /* \"#utility.yul\":15440:15443   */\n      dup4\n        /* \"#utility.yul\":15485:15489   */\n      0x20\n        /* \"#utility.yul\":15477:15483   */\n      dup3\n        /* \"#utility.yul\":15473:15490   */\n      mul\n        /* \"#utility.yul\":15468:15471   */\n      dup6\n        /* \"#utility.yul\":15464:15491   */\n      add\n        /* \"#utility.yul\":15515:15594   */\n      tag_327\n        /* \"#utility.yul\":15588:15593   */\n      dup6\n        /* \"#utility.yul\":15515:15594   */\n      tag_163\n      jump\t// in\n    tag_327:\n        /* \"#utility.yul\":15617:15624   */\n      dup1\n        /* \"#utility.yul\":15648:15649   */\n      0x00\n        /* \"#utility.yul\":15633:16068   */\n    tag_328:\n        /* \"#utility.yul\":15658:15664   */\n      dup6\n        /* \"#utility.yul\":15655:15656   */\n      dup2\n        /* \"#utility.yul\":15652:15665   */\n      lt\n        /* \"#utility.yul\":15633:16068   */\n      iszero\n      tag_330\n      jumpi\n        /* \"#utility.yul\":15729:15738   */\n      dup5\n        /* \"#utility.yul\":15723:15727   */\n      dup5\n        /* \"#utility.yul\":15719:15739   */\n      sub\n        /* \"#utility.yul\":15714:15717   */\n      dup10\n        /* \"#utility.yul\":15707:15740   */\n      mstore\n        /* \"#utility.yul\":15780:15786   */\n      dup2\n        /* \"#utility.yul\":15774:15787   */\n      mload\n        /* \"#utility.yul\":15808:15918   */\n      tag_331\n        /* \"#utility.yul\":15913:15917   */\n      dup6\n        /* \"#utility.yul\":15898:15911   */\n      dup3\n        /* \"#utility.yul\":15808:15918   */\n      tag_165\n      jump\t// in\n    tag_331:\n        /* \"#utility.yul\":15800:15918   */\n      swap5\n      pop\n        /* \"#utility.yul\":15941:16024   */\n      tag_332\n        /* \"#utility.yul\":16017:16023   */\n      dup4\n        /* \"#utility.yul\":15941:16024   */\n      tag_166\n      jump\t// in\n    tag_332:\n        /* \"#utility.yul\":15931:16024   */\n      swap3\n      pop\n        /* \"#utility.yul\":16053:16057   */\n      0x20\n        /* \"#utility.yul\":16048:16051   */\n      dup11\n        /* \"#utility.yul\":16044:16058   */\n      add\n        /* \"#utility.yul\":16037:16058   */\n      swap10\n      pop\n        /* \"#utility.yul\":15693:16068   */\n      pop\n        /* \"#utility.yul\":15680:15681   */\n      0x01\n        /* \"#utility.yul\":15677:15678   */\n      dup2\n        /* \"#utility.yul\":15673:15682   */\n      add\n        /* \"#utility.yul\":15668:15682   */\n      swap1\n      pop\n        /* \"#utility.yul\":15633:16068   */\n      jump(tag_328)\n    tag_330:\n        /* \"#utility.yul\":15637:15651   */\n      pop\n        /* \"#utility.yul\":16084:16088   */\n      dup3\n        /* \"#utility.yul\":16077:16088   */\n      swap8\n      pop\n        /* \"#utility.yul\":16104:16107   */\n      dup8\n        /* \"#utility.yul\":16097:16107   */\n      swap6\n      pop\n        /* \"#utility.yul\":15188:16113   */\n      pop\n      pop\n      pop\n      pop\n      pop\n        /* \"#utility.yul\":15018:16113   */\n      swap3\n      swap2\n      pop\n      pop\n      jump\t// out\n        /* \"#utility.yul\":16119:16584   */\n    tag_20:\n        /* \"#utility.yul\":16308:16312   */\n      0x00\n        /* \"#utility.yul\":16346:16348   */\n      0x20\n        /* \"#utility.yul\":16335:16344   */\n      dup3\n        /* \"#utility.yul\":16331:16349   */\n      add\n        /* \"#utility.yul\":16323:16349   */\n      swap1\n      pop\n        /* \"#utility.yul\":16395:16404   */\n      dup2\n        /* \"#utility.yul\":16389:16393   */\n      dup2\n        /* \"#utility.yul\":16385:16405   */\n      sub\n        /* \"#utility.yul\":16381:16382   */\n      0x00\n        /* \"#utility.yul\":16370:16379   */\n      dup4\n        /* \"#utility.yul\":16366:16383   */\n      add\n        /* \"#utility.yul\":16359:16406   */\n      mstore\n        /* \"#utility.yul\":16423:16577   */\n      tag_334\n        /* \"#utility.yul\":16572:16576   */\n      dup2\n        /* \"#utility.yul\":16563:16569   */\n      dup5\n        /* \"#utility.yul\":16423:16577   */\n      tag_167\n      jump\t// in\n    tag_334:\n        /* \"#utility.yul\":16415:16577   */\n      swap1\n      pop\n        /* \"#utility.yul\":16119:16584   */\n      swap3\n      swap2\n      pop\n      pop\n      jump\t// out\n        /* \"#utility.yul\":16590:16703   */\n    tag_168:\n        /* \"#utility.yul\":16677:16678   */\n      0x02\n        /* \"#utility.yul\":16670:16675   */\n      dup2\n        /* \"#utility.yul\":16667:16679   */\n      lt\n        /* \"#utility.yul\":16657:16697   */\n      tag_336\n      jumpi\n        /* \"#utility.yul\":16693:16694   */\n      0x00\n        /* \"#utility.yul\":16690:16691   */\n      dup1\n        /* \"#utility.yul\":16683:16695   */\n      revert\n        /* \"#utility.yul\":16657:16697   */\n    tag_336:\n        /* \"#utility.yul\":16590:16703   */\n      pop\n      jump\t// out\n        /* \"#utility.yul\":16709:16876   */\n    tag_169:\n        /* \"#utility.yul\":16769:16774   */\n      0x00\n        /* \"#utility.yul\":16807:16813   */\n      dup2\n        /* \"#utility.yul\":16794:16814   */\n      calldataload\n        /* \"#utility.yul\":16785:16814   */\n      swap1\n      pop\n        /* \"#utility.yul\":16823:16870   */\n      tag_338\n        /* \"#utility.yul\":16864:16869   */\n      dup2\n        /* \"#utility.yul\":16823:16870   */\n      tag_168\n      jump\t// in\n    tag_338:\n        /* \"#utility.yul\":16709:16876   */\n      swap3\n      swap2\n      pop\n      pop\n      jump\t// out\n        /* \"#utility.yul\":16882:17004   */\n    tag_170:\n        /* \"#utility.yul\":16955:16979   */\n      tag_340\n        /* \"#utility.yul\":16973:16978   */\n      dup2\n        /* \"#utility.yul\":16955:16979   */\n      tag_154\n      jump\t// in\n    tag_340:\n        /* \"#utility.yul\":16948:16953   */\n      dup2\n        /* \"#utility.yul\":16945:16980   */\n      eq\n        /* \"#utility.yul\":16935:16998   */\n      tag_341\n      jumpi\n        /* \"#utility.yul\":16994:16995   */\n      0x00\n        /* \"#utility.yul\":16991:16992   */\n      dup1\n        /* \"#utility.yul\":16984:16996   */\n      revert\n        /* \"#utility.yul\":16935:16998   */\n    tag_341:\n        /* \"#utility.yul\":16882:17004   */\n      pop\n      jump\t// out\n        /* \"#utility.yul\":17010:17149   */\n    tag_171:\n        /* \"#utility.yul\":17056:17061   */\n      0x00\n        /* \"#utility.yul\":17094:17100   */\n      dup2\n        /* \"#utility.yul\":17081:17101   */\n      calldataload\n        /* \"#utility.yul\":17072:17101   */\n      swap1\n      pop\n        /* \"#utility.yul\":17110:17143   */\n      tag_343\n        /* \"#utility.yul\":17137:17142   */\n      dup2\n        /* \"#utility.yul\":17110:17143   */\n      tag_170\n      jump\t// in\n    tag_343:\n        /* \"#utility.yul\":17010:17149   */\n      swap3\n      swap2\n      pop\n      pop\n      jump\t// out\n        /* \"#utility.yul\":17155:17948   */\n    tag_23:\n        /* \"#utility.yul\":17255:17261   */\n      0x00\n        /* \"#utility.yul\":17263:17269   */\n      dup1\n        /* \"#utility.yul\":17271:17277   */\n      0x00\n        /* \"#utility.yul\":17279:17285   */\n      dup1\n        /* \"#utility.yul\":17328:17331   */\n      0x80\n        /* \"#utility.yul\":17316:17325   */\n      dup6\n        /* \"#utility.yul\":17307:17314   */\n      dup8\n        /* \"#utility.yul\":17303:17326   */\n      sub\n        /* \"#utility.yul\":17299:17332   */\n      slt\n        /* \"#utility.yul\":17296:17416   */\n      iszero\n      tag_345\n      jumpi\n        /* \"#utility.yul\":17335:17414   */\n      tag_346\n      tag_126\n      jump\t// in\n    tag_346:\n        /* \"#utility.yul\":17296:17416   */\n    tag_345:\n        /* \"#utility.yul\":17455:17456   */\n      0x00\n        /* \"#utility.yul\":17480:17533   */\n      tag_347\n        /* \"#utility.yul\":17525:17532   */\n      dup8\n        /* \"#utility.yul\":17516:17522   */\n      dup3\n        /* \"#utility.yul\":17505:17514   */\n      dup9\n        /* \"#utility.yul\":17501:17523   */\n      add\n        /* \"#utility.yul\":17480:17533   */\n      tag_140\n      jump\t// in\n    tag_347:\n        /* \"#utility.yul\":17470:17533   */\n      swap5\n      pop\n        /* \"#utility.yul\":17426:17543   */\n      pop\n        /* \"#utility.yul\":17582:17584   */\n      0x20\n        /* \"#utility.yul\":17608:17675   */\n      tag_348\n        /* \"#utility.yul\":17667:17674   */\n      dup8\n        /* \"#utility.yul\":17658:17664   */\n      dup3\n        /* \"#utility.yul\":17647:17656   */\n      dup9\n        /* \"#utility.yul\":17643:17665   */\n      add\n        /* \"#utility.yul\":17608:17675   */\n      tag_169\n      jump\t// in\n    tag_348:\n        /* \"#utility.yul\":17598:17675   */\n      swap4\n      pop\n        /* \"#utility.yul\":17553:17685   */\n      pop\n        /* \"#utility.yul\":17724:17726   */\n      0x40\n        /* \"#utility.yul\":17750:17803   */\n      tag_349\n        /* \"#utility.yul\":17795:17802   */\n      dup8\n        /* \"#utility.yul\":17786:17792   */\n      dup3\n        /* \"#utility.yul\":17775:17784   */\n      dup9\n        /* \"#utility.yul\":17771:17793   */\n      add\n        /* \"#utility.yul\":17750:17803   */\n      tag_171\n      jump\t// in\n    tag_349:\n        /* \"#utility.yul\":17740:17803   */\n      swap3\n      pop\n        /* \"#utility.yul\":17695:17813   */\n      pop\n        /* \"#utility.yul\":17852:17854   */\n      0x60\n        /* \"#utility.yul\":17878:17931   */\n      tag_350\n        /* \"#utility.yul\":17923:17930   */\n      dup8\n        /* \"#utility.yul\":17914:17920   */\n      dup3\n        /* \"#utility.yul\":17903:17912   */\n      dup9\n        /* \"#utility.yul\":17899:17921   */\n      add\n        /* \"#utility.yul\":17878:17931   */\n      tag_171\n      jump\t// in\n    tag_350:\n        /* \"#utility.yul\":17868:17931   */\n      swap2\n      pop\n        /* \"#utility.yul\":17823:17941   */\n      pop\n        /* \"#utility.yul\":17155:17948   */\n      swap3\n      swap6\n      swap2\n      swap5\n      pop\n      swap3\n      pop\n      jump\t// out\n        /* \"#utility.yul\":17954:18123   */\n    tag_172:\n        /* \"#utility.yul\":18038:18049   */\n      0x00\n        /* \"#utility.yul\":18072:18078   */\n      dup3\n        /* \"#utility.yul\":18067:18070   */\n      dup3\n        /* \"#utility.yul\":18060:18079   */\n      mstore\n        /* \"#utility.yul\":18112:18116   */\n      0x20\n        /* \"#utility.yul\":18107:18110   */\n      dup3\n        /* \"#utility.yul\":18103:18117   */\n      add\n        /* \"#utility.yul\":18088:18117   */\n      swap1\n      pop\n        /* \"#utility.yul\":17954:18123   */\n      swap3\n      swap2\n      pop\n      pop\n      jump\t// out\n        /* \"#utility.yul\":18129:18351   */\n    tag_173:\n        /* \"#utility.yul\":18269:18303   */\n      0x6f6e6c792061646d696e2063616e207265676973746572206e65772070617469\n        /* \"#utility.yul\":18265:18266   */\n      0x00\n        /* \"#utility.yul\":18257:18263   */\n      dup3\n        /* \"#utility.yul\":18253:18267   */\n      add\n        /* \"#utility.yul\":18246:18304   */\n      mstore\n        /* \"#utility.yul\":18338:18343   */\n      0x656e740000000000000000000000000000000000000000000000000000000000\n        /* \"#utility.yul\":18333:18335   */\n      0x20\n        /* \"#utility.yul\":18325:18331   */\n      dup3\n        /* \"#utility.yul\":18321:18336   */\n      add\n        /* \"#utility.yul\":18314:18344   */\n      mstore\n        /* \"#utility.yul\":18129:18351   */\n      pop\n      jump\t// out\n        /* \"#utility.yul\":18357:18723   */\n    tag_174:\n        /* \"#utility.yul\":18499:18502   */\n      0x00\n        /* \"#utility.yul\":18520:18587   */\n      tag_354\n        /* \"#utility.yul\":18584:18586   */\n      0x23\n        /* \"#utility.yul\":18579:18582   */\n      dup4\n        /* \"#utility.yul\":18520:18587   */\n      tag_172\n      jump\t// in\n    tag_354:\n        /* \"#utility.yul\":18513:18587   */\n      swap2\n      pop\n        /* \"#utility.yul\":18596:18689   */\n      tag_355\n        /* \"#utility.yul\":18685:18688   */\n      dup3\n        /* \"#utility.yul\":18596:18689   */\n      tag_173\n      jump\t// in\n    tag_355:\n        /* \"#utility.yul\":18714:18716   */\n      0x40\n        /* \"#utility.yul\":18709:18712   */\n      dup3\n        /* \"#utility.yul\":18705:18717   */\n      add\n        /* \"#utility.yul\":18698:18717   */\n      swap1\n      pop\n        /* \"#utility.yul\":18357:18723   */\n      swap2\n      swap1\n      pop\n      jump\t// out\n        /* \"#utility.yul\":18729:19148   */\n    tag_28:\n        /* \"#utility.yul\":18895:18899   */\n      0x00\n        /* \"#utility.yul\":18933:18935   */\n      0x20\n        /* \"#utility.yul\":18922:18931   */\n      dup3\n        /* \"#utility.yul\":18918:18936   */\n      add\n        /* \"#utility.yul\":18910:18936   */\n      swap1\n      pop\n        /* \"#utility.yul\":18982:18991   */\n      dup2\n        /* \"#utility.yul\":18976:18980   */\n      dup2\n        /* \"#utility.yul\":18972:18992   */\n      sub\n        /* \"#utility.yul\":18968:18969   */\n      0x00\n        /* \"#utility.yul\":18957:18966   */\n      dup4\n        /* \"#utility.yul\":18953:18970   */\n      add\n        /* \"#utility.yul\":18946:18993   */\n      mstore\n        /* \"#utility.yul\":19010:19141   */\n      tag_357\n        /* \"#utility.yul\":19136:19140   */\n      dup2\n        /* \"#utility.yul\":19010:19141   */\n      tag_174\n      jump\t// in\n    tag_357:\n        /* \"#utility.yul\":19002:19141   */\n      swap1\n      pop\n        /* \"#utility.yul\":18729:19148   */\n      swap2\n      swap1\n      pop\n      jump\t// out\n        /* \"#utility.yul\":19154:19334   */\n    tag_32:\n        /* \"#utility.yul\":19202:19279   */\n      0x4e487b7100000000000000000000000000000000000000000000000000000000\n        /* \"#utility.yul\":19199:19200   */\n      0x00\n        /* \"#utility.yul\":19192:19280   */\n      mstore\n        /* \"#utility.yul\":19299:19303   */\n      0x32\n        /* \"#utility.yul\":19296:19297   */\n      0x04\n        /* \"#utility.yul\":19289:19304   */\n      mstore\n        /* \"#utility.yul\":19323:19327   */\n      0x24\n        /* \"#utility.yul\":19320:19321   */\n      0x00\n        /* \"#utility.yul\":19313:19328   */\n      revert\n        /* \"#utility.yul\":19340:19520   */\n    tag_175:\n        /* \"#utility.yul\":19388:19465   */\n      0x4e487b7100000000000000000000000000000000000000000000000000000000\n        /* \"#utility.yul\":19385:19386   */\n      0x00\n        /* \"#utility.yul\":19378:19466   */\n      mstore\n        /* \"#utility.yul\":19485:19489   */\n      0x22\n        /* \"#utility.yul\":19482:19483   */\n      0x04\n        /* \"#utility.yul\":19475:19490   */\n      mstore\n        /* \"#utility.yul\":19509:19513   */\n      0x24\n        /* \"#utility.yul\":19506:19507   */\n      0x00\n        /* \"#utility.yul\":19499:19514   */\n      revert\n        /* \"#utility.yul\":19526:19846   */\n    tag_62:\n        /* \"#utility.yul\":19570:19576   */\n      0x00\n        /* \"#utility.yul\":19607:19608   */\n      0x02\n        /* \"#utility.yul\":19601:19605   */\n      dup3\n        /* \"#utility.yul\":19597:19609   */\n      div\n        /* \"#utility.yul\":19587:19609   */\n      swap1\n      pop\n        /* \"#utility.yul\":19654:19655   */\n      0x01\n        /* \"#utility.yul\":19648:19652   */\n      dup3\n        /* \"#utility.yul\":19644:19656   */\n      and\n        /* \"#utility.yul\":19675:19693   */\n      dup1\n        /* \"#utility.yul\":19665:19746   */\n      tag_361\n      jumpi\n        /* \"#utility.yul\":19731:19735   */\n      0x7f\n        /* \"#utility.yul\":19723:19729   */\n      dup3\n        /* \"#utility.yul\":19719:19736   */\n      and\n        /* \"#utility.yul\":19709:19736   */\n      swap2\n      pop\n        /* \"#utility.yul\":19665:19746   */\n    tag_361:\n        /* \"#utility.yul\":19793:19795   */\n      0x20\n        /* \"#utility.yul\":19785:19791   */\n      dup3\n        /* \"#utility.yul\":19782:19796   */\n      lt\n        /* \"#utility.yul\":19762:19780   */\n      dup2\n        /* \"#utility.yul\":19759:19797   */\n      sub\n        /* \"#utility.yul\":19756:19840   */\n      tag_362\n      jumpi\n        /* \"#utility.yul\":19812:19830   */\n      tag_363\n      tag_175\n      jump\t// in\n    tag_363:\n        /* \"#utility.yul\":19756:19840   */\n    tag_362:\n        /* \"#utility.yul\":19577:19846   */\n      pop\n        /* \"#utility.yul\":19526:19846   */\n      swap2\n      swap1\n      pop\n      jump\t// out\n        /* \"#utility.yul\":19852:19993   */\n    tag_176:\n        /* \"#utility.yul\":19901:19905   */\n      0x00\n        /* \"#utility.yul\":19924:19927   */\n      dup2\n        /* \"#utility.yul\":19916:19927   */\n      swap1\n      pop\n        /* \"#utility.yul\":19947:19950   */\n      dup2\n        /* \"#utility.yul\":19944:19945   */\n      0x00\n        /* \"#utility.yul\":19937:19951   */\n      mstore\n        /* \"#utility.yul\":19981:19985   */\n      0x20\n        /* \"#utility.yul\":19978:19979   */\n      0x00\n        /* \"#utility.yul\":19968:19986   */\n      keccak256\n        /* \"#utility.yul\":19960:19986   */\n      swap1\n      pop\n        /* \"#utility.yul\":19852:19993   */\n      swap2\n      swap1\n      pop\n      jump\t// out\n        /* \"#utility.yul\":19999:20092   */\n    tag_177:\n        /* \"#utility.yul\":20036:20042   */\n      0x00\n        /* \"#utility.yul\":20083:20085   */\n      0x20\n        /* \"#utility.yul\":20078:20080   */\n      0x1f\n        /* \"#utility.yul\":20071:20076   */\n      dup4\n        /* \"#utility.yul\":20067:20081   */\n      add\n        /* \"#utility.yul\":20063:20086   */\n      div\n        /* \"#utility.yul\":20053:20086   */\n      swap1\n      pop\n        /* \"#utility.yul\":19999:20092   */\n      swap2\n      swap1\n      pop\n      jump\t// out\n        /* \"#utility.yul\":20098:20205   */\n    tag_178:\n        /* \"#utility.yul\":20142:20150   */\n      0x00\n        /* \"#utility.yul\":20192:20197   */\n      dup3\n        /* \"#utility.yul\":20186:20190   */\n      dup3\n        /* \"#utility.yul\":20182:20198   */\n      shl\n        /* \"#utility.yul\":20161:20198   */\n      swap1\n      pop\n        /* \"#utility.yul\":20098:20205   */\n      swap3\n      swap2\n      pop\n      pop\n      jump\t// out\n        /* \"#utility.yul\":20211:20604   */\n    tag_179:\n        /* \"#utility.yul\":20280:20286   */\n      0x00\n        /* \"#utility.yul\":20330:20331   */\n      0x08\n        /* \"#utility.yul\":20318:20328   */\n      dup4\n        /* \"#utility.yul\":20314:20332   */\n      mul\n        /* \"#utility.yul\":20353:20450   */\n      tag_368\n        /* \"#utility.yul\":20383:20449   */\n      0xffffffffffffffffffffffffffffffffffffffffffffffffffffffffffffffff\n        /* \"#utility.yul\":20372:20381   */\n      dup3\n        /* \"#utility.yul\":20353:20450   */\n      tag_178\n      jump\t// in\n    tag_368:\n        /* \"#utility.yul\":20471:20510   */\n      tag_369\n        /* \"#utility.yul\":20501:20509   */\n      dup7\n        /* \"#utility.yul\":20490:20499   */\n      dup4\n        /* \"#utility.yul\":20471:20510   */\n      tag_178\n      jump\t// in\n    tag_369:\n        /* \"#utility.yul\":20459:20510   */\n      swap6\n      pop\n        /* \"#utility.yul\":20543:20547   */\n      dup1\n        /* \"#utility.yul\":20539:20548   */\n      not\n        /* \"#utility.yul\":20532:20537   */\n      dup5\n        /* \"#utility.yul\":20528:20549   */\n      and\n        /* \"#utility.yul\":20519:20549   */\n      swap4\n      pop\n        /* \"#utility.yul\":20592:20596   */\n      dup1\n        /* \"#utility.yul\":20582:20590   */\n      dup7\n        /* \"#utility.yul\":20578:20597   */\n      and\n        /* \"#utility.yul\":20571:20576   */\n      dup5\n        /* \"#utility.yul\":20568:20598   */\n      or\n        /* \"#utility.yul\":20558:20598   */\n      swap3\n      pop\n        /* \"#utility.yul\":20287:20604   */\n      pop\n      pop\n        /* \"#utility.yul\":20211:20604   */\n      swap4\n      swap3\n      pop\n      pop\n      pop\n      jump\t// out\n        /* \"#utility.yul\":20610:20670   */\n    tag_180:\n        /* \"#utility.yul\":20638:20641   */\n      0x00\n        /* \"#utility.yul\":20659:20664   */\n      dup2\n        /* \"#utility.yul\":20652:20664   */\n      swap1\n      pop\n        /* \"#utility.yul\":20610:20670   */\n      swap2\n      swap1\n      pop\n      jump\t// out\n        /* \"#utility.yul\":20676:20818   */\n    tag_181:\n        /* \"#utility.yul\":20726:20735   */\n      0x00\n        /* \"#utility.yul\":20759:20812   */\n      tag_372\n        /* \"#utility.yul\":20777:20811   */\n      tag_373\n        /* \"#utility.yul\":20786:20810   */\n      tag_374\n        /* \"#utility.yul\":20804:20809   */\n      dup5\n        /* \"#utility.yul\":20786:20810   */\n      tag_138\n      jump\t// in\n    tag_374:\n        /* \"#utility.yul\":20777:20811   */\n      tag_180\n      jump\t// in\n    tag_373:\n        /* \"#utility.yul\":20759:20812   */\n      tag_138\n      jump\t// in\n    tag_372:\n        /* \"#utility.yul\":20746:20812   */\n      swap1\n      pop\n        /* \"#utility.yul\":20676:20818   */\n      swap2\n      swap1\n      pop\n      jump\t// out\n        /* \"#utility.yul\":20824:20899   */\n    tag_182:\n        /* \"#utility.yul\":20867:20870   */\n      0x00\n        /* \"#utility.yul\":20888:20893   */\n      dup2\n        /* \"#utility.yul\":20881:20893   */\n      swap1\n      pop\n        /* \"#utility.yul\":20824:20899   */\n      swap2\n      swap1\n      pop\n      jump\t// out\n        /* \"#utility.yul\":20905:21174   */\n    tag_183:\n        /* \"#utility.yul\":21015:21054   */\n      tag_377\n        /* \"#utility.yul\":21046:21053   */\n      dup4\n        /* \"#utility.yul\":21015:21054   */\n      tag_181\n      jump\t// in\n    tag_377:\n        /* \"#utility.yul\":21076:21167   */\n      tag_378\n        /* \"#utility.yul\":21125:21166   */\n      tag_379\n        /* \"#utility.yul\":21149:21165   */\n      dup3\n        /* \"#utility.yul\":21125:21166   */\n      tag_182\n      jump\t// in\n    tag_379:\n        /* \"#utility.yul\":21117:21123   */\n      dup5\n        /* \"#utility.yul\":21110:21114   */\n      dup5\n        /* \"#utility.yul\":21104:21115   */\n      sload\n        /* \"#utility.yul\":21076:21167   */\n      tag_179\n      jump\t// in\n    tag_378:\n        /* \"#utility.yul\":21070:21074   */\n      dup3\n        /* \"#utility.yul\":21063:21168   */\n      sstore\n        /* \"#utility.yul\":20981:21174   */\n      pop\n        /* \"#utility.yul\":20905:21174   */\n      pop\n      pop\n      pop\n      jump\t// out\n        /* \"#utility.yul\":21180:21253   */\n    tag_184:\n        /* \"#utility.yul\":21225:21228   */\n      0x00\n        /* \"#utility.yul\":21180:21253   */\n      swap1\n      jump\t// out\n        /* \"#utility.yul\":21259:21448   */\n    tag_185:\n        /* \"#utility.yul\":21336:21368   */\n      tag_382\n      tag_184\n      jump\t// in\n    tag_382:\n        /* \"#utility.yul\":21377:21442   */\n      tag_383\n        /* \"#utility.yul\":21435:21441   */\n      dup2\n        /* \"#utility.yul\":21427:21433   */\n      dup5\n        /* \"#utility.yul\":21421:21425   */\n      dup5\n        /* \"#utility.yul\":21377:21442   */\n      tag_183\n      jump\t// in\n    tag_383:\n        /* \"#utility.yul\":21312:21448   */\n      pop\n        /* \"#utility.yul\":21259:21448   */\n      pop\n      pop\n      jump\t// out\n        /* \"#utility.yul\":21454:21640   */\n    tag_186:\n        /* \"#utility.yul\":21514:21634   */\n    tag_385:\n        /* \"#utility.yul\":21531:21534   */\n      dup2\n        /* \"#utility.yul\":21524:21529   */\n      dup2\n        /* \"#utility.yul\":21521:21535   */\n      lt\n        /* \"#utility.yul\":21514:21634   */\n      iszero\n      tag_387\n      jumpi\n        /* \"#utility.yul\":21585:21624   */\n      tag_388\n        /* \"#utility.yul\":21622:21623   */\n      0x00\n        /* \"#utility.yul\":21615:21620   */\n      dup3\n        /* \"#utility.yul\":21585:21624   */\n      tag_185\n      jump\t// in\n    tag_388:\n        /* \"#utility.yul\":21558:21559   */\n      0x01\n        /* \"#utility.yul\":21551:21556   */\n      dup2\n        /* \"#utility.yul\":21547:21560   */\n      add\n        /* \"#utility.yul\":21538:21560   */\n      swap1\n      pop\n        /* \"#utility.yul\":21514:21634   */\n      jump(tag_385)\n    tag_387:\n        /* \"#utility.yul\":21454:21640   */\n      pop\n      pop\n      jump\t// out\n        /* \"#utility.yul\":21646:22189   */\n    tag_187:\n        /* \"#utility.yul\":21747:21749   */\n      0x1f\n        /* \"#utility.yul\":21742:21745   */\n      dup3\n        /* \"#utility.yul\":21739:21750   */\n      gt\n        /* \"#utility.yul\":21736:22182   */\n      iszero\n      tag_390\n      jumpi\n        /* \"#utility.yul\":21781:21819   */\n      tag_391\n        /* \"#utility.yul\":21813:21818   */\n      dup2\n        /* \"#utility.yul\":21781:21819   */\n      tag_176\n      jump\t// in\n    tag_391:\n        /* \"#utility.yul\":21865:21894   */\n      tag_392\n        /* \"#utility.yul\":21883:21893   */\n      dup5\n        /* \"#utility.yul\":21865:21894   */\n      tag_177\n      jump\t// in\n    tag_392:\n        /* \"#utility.yul\":21855:21863   */\n      dup2\n        /* \"#utility.yul\":21851:21895   */\n      add\n        /* \"#utility.yul\":22048:22050   */\n      0x20\n        /* \"#utility.yul\":22036:22046   */\n      dup6\n        /* \"#utility.yul\":22033:22051   */\n      lt\n        /* \"#utility.yul\":22030:22079   */\n      iszero\n      tag_393\n      jumpi\n        /* \"#utility.yul\":22069:22077   */\n      dup2\n        /* \"#utility.yul\":22054:22077   */\n      swap1\n      pop\n        /* \"#utility.yul\":22030:22079   */\n    tag_393:\n        /* \"#utility.yul\":22092:22172   */\n      tag_394\n        /* \"#utility.yul\":22148:22170   */\n      tag_395\n        /* \"#utility.yul\":22166:22169   */\n      dup6\n        /* \"#utility.yul\":22148:22170   */\n      tag_177\n      jump\t// in\n    tag_395:\n        /* \"#utility.yul\":22138:22146   */\n      dup4\n        /* \"#utility.yul\":22134:22171   */\n      add\n        /* \"#utility.yul\":22121:22132   */\n      dup3\n        /* \"#utility.yul\":22092:22172   */\n      tag_186\n      jump\t// in\n    tag_394:\n        /* \"#utility.yul\":21751:22182   */\n      pop\n      pop\n        /* \"#utility.yul\":21736:22182   */\n    tag_390:\n        /* \"#utility.yul\":21646:22189   */\n      pop\n      pop\n      pop\n      jump\t// out\n        /* \"#utility.yul\":22195:22312   */\n    tag_188:\n        /* \"#utility.yul\":22249:22257   */\n      0x00\n        /* \"#utility.yul\":22299:22304   */\n      dup3\n        /* \"#utility.yul\":22293:22297   */\n      dup3\n        /* \"#utility.yul\":22289:22305   */\n      shr\n        /* \"#utility.yul\":22268:22305   */\n      swap1\n      pop\n        /* \"#utility.yul\":22195:22312   */\n      swap3\n      swap2\n      pop\n      pop\n      jump\t// out\n        /* \"#utility.yul\":22318:22487   */\n    tag_189:\n        /* \"#utility.yul\":22362:22368   */\n      0x00\n        /* \"#utility.yul\":22395:22446   */\n      tag_398\n        /* \"#utility.yul\":22443:22444   */\n      0x00\n        /* \"#utility.yul\":22439:22445   */\n      not\n        /* \"#utility.yul\":22431:22436   */\n      dup5\n        /* \"#utility.yul\":22428:22429   */\n      0x08\n        /* \"#utility.yul\":22424:22437   */\n      mul\n        /* \"#utility.yul\":22395:22446   */\n      tag_188\n      jump\t// in\n    tag_398:\n        /* \"#utility.yul\":22391:22447   */\n      not\n        /* \"#utility.yul\":22476:22480   */\n      dup1\n        /* \"#utility.yul\":22470:22474   */\n      dup4\n        /* \"#utility.yul\":22466:22481   */\n      and\n        /* \"#utility.yul\":22456:22481   */\n      swap2\n      pop\n        /* \"#utility.yul\":22369:22487   */\n      pop\n        /* \"#utility.yul\":22318:22487   */\n      swap3\n      swap2\n      pop\n      pop\n      jump\t// out\n        /* \"#utility.yul\":22492:22787   */\n    tag_190:\n        /* \"#utility.yul\":22568:22572   */\n      0x00\n        /* \"#utility.yul\":22714:22743   */\n      tag_400\n        /* \"#utility.yul\":22739:22742   */\n      dup4\n        /* \"#utility.yul\":22733:22737   */\n      dup4\n        /* \"#utility.yul\":22714:22743   */\n      tag_189\n      jump\t// in\n    tag_400:\n        /* \"#utility.yul\":22706:22743   */\n      swap2\n      pop\n        /* \"#utility.yul\":22776:22779   */\n      dup3\n        /* \"#utility.yul\":22773:22774   */\n      0x02\n        /* \"#utility.yul\":22769:22780   */\n      mul\n        /* \"#utility.yul\":22763:22767   */\n      dup3\n        /* \"#utility.yul\":22760:22781   */\n      or\n        /* \"#utility.yul\":22752:22781   */\n      swap1\n      pop\n        /* \"#utility.yul\":22492:22787   */\n      swap3\n      swap2\n      pop\n      pop\n      jump\t// out\n        /* \"#utility.yul\":22792:24187   */\n    tag_35:\n        /* \"#utility.yul\":22909:22946   */\n      tag_402\n        /* \"#utility.yul\":22942:22945   */\n      dup3\n        /* \"#utility.yul\":22909:22946   */\n      tag_142\n      jump\t// in\n    tag_402:\n        /* \"#utility.yul\":23011:23029   */\n      0xffffffffffffffff\n        /* \"#utility.yul\":23003:23009   */\n      dup2\n        /* \"#utility.yul\":23000:23030   */\n      gt\n        /* \"#utility.yul\":22997:23053   */\n      iszero\n      tag_403\n      jumpi\n        /* \"#utility.yul\":23033:23051   */\n      tag_404\n      tag_131\n      jump\t// in\n    tag_404:\n        /* \"#utility.yul\":22997:23053   */\n    tag_403:\n        /* \"#utility.yul\":23077:23115   */\n      tag_405\n        /* \"#utility.yul\":23109:23113   */\n      dup3\n        /* \"#utility.yul\":23103:23114   */\n      sload\n        /* \"#utility.yul\":23077:23115   */\n      tag_62\n      jump\t// in\n    tag_405:\n        /* \"#utility.yul\":23162:23229   */\n      tag_406\n        /* \"#utility.yul\":23222:23228   */\n      dup3\n        /* \"#utility.yul\":23214:23220   */\n      dup3\n        /* \"#utility.yul\":23208:23212   */\n      dup6\n        /* \"#utility.yul\":23162:23229   */\n      tag_187\n      jump\t// in\n    tag_406:\n        /* \"#utility.yul\":23256:23257   */\n      0x00\n        /* \"#utility.yul\":23280:23284   */\n      0x20\n        /* \"#utility.yul\":23267:23284   */\n      swap1\n      pop\n        /* \"#utility.yul\":23312:23314   */\n      0x1f\n        /* \"#utility.yul\":23304:23310   */\n      dup4\n        /* \"#utility.yul\":23301:23315   */\n      gt\n        /* \"#utility.yul\":23329:23330   */\n      0x01\n        /* \"#utility.yul\":23324:23942   */\n      dup2\n      eq\n      tag_408\n      jumpi\n        /* \"#utility.yul\":23986:23987   */\n      0x00\n        /* \"#utility.yul\":24003:24009   */\n      dup5\n        /* \"#utility.yul\":24000:24077   */\n      iszero\n      tag_409\n      jumpi\n        /* \"#utility.yul\":24052:24061   */\n      dup3\n        /* \"#utility.yul\":24047:24050   */\n      dup8\n        /* \"#utility.yul\":24043:24062   */\n      add\n        /* \"#utility.yul\":24037:24063   */\n      mload\n        /* \"#utility.yul\":24028:24063   */\n      swap1\n      pop\n        /* \"#utility.yul\":24000:24077   */\n    tag_409:\n        /* \"#utility.yul\":24103:24170   */\n      tag_410\n        /* \"#utility.yul\":24163:24169   */\n      dup6\n        /* \"#utility.yul\":24156:24161   */\n      dup3\n        /* \"#utility.yul\":24103:24170   */\n      tag_190\n      jump\t// in\n    tag_410:\n        /* \"#utility.yul\":24097:24101   */\n      dup7\n        /* \"#utility.yul\":24090:24171   */\n      sstore\n        /* \"#utility.yul\":23959:24181   */\n      pop\n        /* \"#utility.yul\":23294:24181   */\n      jump(tag_407)\n        /* \"#utility.yul\":23324:23942   */\n    tag_408:\n        /* \"#utility.yul\":23376:23380   */\n      0x1f\n        /* \"#utility.yul\":23372:23381   */\n      not\n        /* \"#utility.yul\":23364:23370   */\n      dup5\n        /* \"#utility.yul\":23360:23382   */\n      and\n        /* \"#utility.yul\":23410:23447   */\n      tag_411\n        /* \"#utility.yul\":23442:23446   */\n      dup7\n        /* \"#utility.yul\":23410:23447   */\n      tag_176\n      jump\t// in\n    tag_411:\n        /* \"#utility.yul\":23469:23470   */\n      0x00\n        /* \"#utility.yul\":23483:23691   */\n    tag_412:\n        /* \"#utility.yul\":23497:23504   */\n      dup3\n        /* \"#utility.yul\":23494:23495   */\n      dup2\n        /* \"#utility.yul\":23491:23505   */\n      lt\n        /* \"#utility.yul\":23483:23691   */\n      iszero\n      tag_414\n      jumpi\n        /* \"#utility.yul\":23576:23585   */\n      dup5\n        /* \"#utility.yul\":23571:23574   */\n      dup10\n        /* \"#utility.yul\":23567:23586   */\n      add\n        /* \"#utility.yul\":23561:23587   */\n      mload\n        /* \"#utility.yul\":23553:23559   */\n      dup3\n        /* \"#utility.yul\":23546:23588   */\n      sstore\n        /* \"#utility.yul\":23627:23628   */\n      0x01\n        /* \"#utility.yul\":23619:23625   */\n      dup3\n        /* \"#utility.yul\":23615:23629   */\n      add\n        /* \"#utility.yul\":23605:23629   */\n      swap2\n      pop\n        /* \"#utility.yul\":23674:23676   */\n      0x20\n        /* \"#utility.yul\":23663:23672   */\n      dup6\n        /* \"#utility.yul\":23659:23677   */\n      add\n        /* \"#utility.yul\":23646:23677   */\n      swap5\n      pop\n        /* \"#utility.yul\":23520:23524   */\n      0x20\n        /* \"#utility.yul\":23517:23518   */\n      dup2\n        /* \"#utility.yul\":23513:23525   */\n      add\n        /* \"#utility.yul\":23508:23525   */\n      swap1\n      pop\n        /* \"#utility.yul\":23483:23691   */\n      jump(tag_412)\n    tag_414:\n        /* \"#utility.yul\":23719:23725   */\n      dup7\n        /* \"#utility.yul\":23710:23717   */\n      dup4\n        /* \"#utility.yul\":23707:23726   */\n      lt\n        /* \"#utility.yul\":23704:23883   */\n      iszero\n      tag_415\n      jumpi\n        /* \"#utility.yul\":23777:23786   */\n      dup5\n        /* \"#utility.yul\":23772:23775   */\n      dup10\n        /* \"#utility.yul\":23768:23787   */\n      add\n        /* \"#utility.yul\":23762:23788   */\n      mload\n        /* \"#utility.yul\":23820:23868   */\n      tag_416\n        /* \"#utility.yul\":23862:23866   */\n      0x1f\n        /* \"#utility.yul\":23854:23860   */\n      dup10\n        /* \"#utility.yul\":23850:23867   */\n      and\n        /* \"#utility.yul\":23839:23848   */\n      dup3\n        /* \"#utility.yul\":23820:23868   */\n      tag_189\n      jump\t// in\n    tag_416:\n        /* \"#utility.yul\":23812:23818   */\n      dup4\n        /* \"#utility.yul\":23805:23869   */\n      sstore\n        /* \"#utility.yul\":23727:23883   */\n      pop\n        /* \"#utility.yul\":23704:23883   */\n    tag_415:\n        /* \"#utility.yul\":23929:23930   */\n      0x01\n        /* \"#utility.yul\":23925:23926   */\n      0x02\n        /* \"#utility.yul\":23917:23923   */\n      dup9\n        /* \"#utility.yul\":23913:23927   */\n      mul\n        /* \"#utility.yul\":23909:23931   */\n      add\n        /* \"#utility.yul\":23903:23907   */\n      dup9\n        /* \"#utility.yul\":23896:23932   */\n      sstore\n        /* \"#utility.yul\":23331:23942   */\n      pop\n      pop\n      pop\n        /* \"#utility.yul\":23294:24181   */\n    tag_407:\n      pop\n        /* \"#utility.yul\":22884:24187   */\n      pop\n      pop\n      pop\n        /* \"#utility.yul\":22792:24187   */\n      pop\n      pop\n      jump\t// out\n        /* \"#utility.yul\":24193:24369   */\n    tag_191:\n        /* \"#utility.yul\":24333:24361   */\n      0x50617469656e74206164646564207375636365737366756c6c79000000000000\n        /* \"#utility.yul\":24329:24330   */\n      0x00\n        /* \"#utility.yul\":24321:24327   */\n      dup3\n        /* \"#utility.yul\":24317:24331   */\n      add\n        /* \"#utility.yul\":24310:24362   */\n      mstore\n        /* \"#utility.yul\":24193:24369   */\n      pop\n      jump\t// out\n        /* \"#utility.yul\":24375:24741   */\n    tag_192:\n        /* \"#utility.yul\":24517:24520   */\n      0x00\n        /* \"#utility.yul\":24538:24605   */\n      tag_419\n        /* \"#utility.yul\":24602:24604   */\n      0x1a\n        /* \"#utility.yul\":24597:24600   */\n      dup4\n        /* \"#utility.yul\":24538:24605   */\n      tag_172\n      jump\t// in\n    tag_419:\n        /* \"#utility.yul\":24531:24605   */\n      swap2\n      pop\n        /* \"#utility.yul\":24614:24707   */\n      tag_420\n        /* \"#utility.yul\":24703:24706   */\n      dup3\n        /* \"#utility.yul\":24614:24707   */\n      tag_191\n      jump\t// in\n    tag_420:\n        /* \"#utility.yul\":24732:24734   */\n      0x20\n        /* \"#utility.yul\":24727:24730   */\n      dup3\n        /* \"#utility.yul\":24723:24735   */\n      add\n        /* \"#utility.yul\":24716:24735   */\n      swap1\n      pop\n        /* \"#utility.yul\":24375:24741   */\n      swap2\n      swap1\n      pop\n      jump\t// out\n        /* \"#utility.yul\":24747:25166   */\n    tag_54:\n        /* \"#utility.yul\":24913:24917   */\n      0x00\n        /* \"#utility.yul\":24951:24953   */\n      0x20\n        /* \"#utility.yul\":24940:24949   */\n      dup3\n        /* \"#utility.yul\":24936:24954   */\n      add\n        /* \"#utility.yul\":24928:24954   */\n      swap1\n      pop\n        /* \"#utility.yul\":25000:25009   */\n      dup2\n        /* \"#utility.yul\":24994:24998   */\n      dup2\n        /* \"#utility.yul\":24990:25010   */\n      sub\n        /* \"#utility.yul\":24986:24987   */\n      0x00\n        /* \"#utility.yul\":24975:24984   */\n      dup4\n        /* \"#utility.yul\":24971:24988   */\n      add\n        /* \"#utility.yul\":24964:25011   */\n      mstore\n        /* \"#utility.yul\":25028:25159   */\n      tag_422\n        /* \"#utility.yul\":25154:25158   */\n      dup2\n        /* \"#utility.yul\":25028:25159   */\n      tag_192\n      jump\t// in\n    tag_422:\n        /* \"#utility.yul\":25020:25159   */\n      swap1\n      pop\n        /* \"#utility.yul\":24747:25166   */\n      swap2\n      swap1\n      pop\n      jump\t// out\n        /* \"#utility.yul\":25172:25420   */\n    tag_193:\n        /* \"#utility.yul\":25312:25346   */\n      0x6f6e6c7920686f73706974616c2063616e207570646174652074686520706174\n        /* \"#utility.yul\":25308:25309   */\n      0x00\n        /* \"#utility.yul\":25300:25306   */\n      dup3\n        /* \"#utility.yul\":25296:25310   */\n      add\n        /* \"#utility.yul\":25289:25347   */\n      mstore\n        /* \"#utility.yul\":25381:25412   */\n      0x69656e74277320626c6f6f64207472616e73616374696f6e2064617461000000\n        /* \"#utility.yul\":25376:25378   */\n      0x20\n        /* \"#utility.yul\":25368:25374   */\n      dup3\n        /* \"#utility.yul\":25364:25379   */\n      add\n        /* \"#utility.yul\":25357:25413   */\n      mstore\n        /* \"#utility.yul\":25172:25420   */\n      pop\n      jump\t// out\n        /* \"#utility.yul\":25426:25792   */\n    tag_194:\n        /* \"#utility.yul\":25568:25571   */\n      0x00\n        /* \"#utility.yul\":25589:25656   */\n      tag_425\n        /* \"#utility.yul\":25653:25655   */\n      0x3d\n        /* \"#utility.yul\":25648:25651   */\n      dup4\n        /* \"#utility.yul\":25589:25656   */\n      tag_172\n      jump\t// in\n    tag_425:\n        /* \"#utility.yul\":25582:25656   */\n      swap2\n      pop\n        /* \"#utility.yul\":25665:25758   */\n      tag_426\n        /* \"#utility.yul\":25754:25757   */\n      dup3\n        /* \"#utility.yul\":25665:25758   */\n      tag_193\n      jump\t// in\n    tag_426:\n        /* \"#utility.yul\":25783:25785   */\n      0x40\n        /* \"#utility.yul\":25778:25781   */\n      dup3\n        /* \"#utility.yul\":25774:25786   */\n      add\n        /* \"#utility.yul\":25767:25786   */\n      swap1\n      pop\n        /* \"#utility.yul\":25426:25792   */\n      swap2\n      swap1\n      pop\n      jump\t// out\n        /* \"#utility.yul\":25798:26217   */\n    tag_114:\n        /* \"#utility.yul\":25964:25968   */\n      0x00\n        /* \"#utility.yul\":26002:26004   */\n      0x20\n        /* \"#utility.yul\":25991:26000   */\n      dup3\n        /* \"#utility.yul\":25987:26005   */\n      add\n        /* \"#utility.yul\":25979:26005   */\n      swap1\n      pop\n        /* \"#utility.yul\":26051:26060   */\n      dup2\n        /* \"#utility.yul\":26045:26049   */\n      dup2\n        /* \"#utility.yul\":26041:26061   */\n      sub\n        /* \"#utility.yul\":26037:26038   */\n      0x00\n        /* \"#utility.yul\":26026:26035   */\n      dup4\n        /* \"#utility.yul\":26022:26039   */\n      add\n        /* \"#utility.yul\":26015:26062   */\n      mstore\n        /* \"#utility.yul\":26079:26210   */\n      tag_428\n        /* \"#utility.yul\":26205:26209   */\n      dup2\n        /* \"#utility.yul\":26079:26210   */\n      tag_194\n      jump\t// in\n    tag_428:\n        /* \"#utility.yul\":26071:26210   */\n      swap1\n      pop\n        /* \"#utility.yul\":25798:26217   */\n      swap2\n      swap1\n      pop\n      jump\t// out\n        /* \"#utility.yul\":26223:26464   */\n    tag_195:\n        /* \"#utility.yul\":26363:26397   */\n      0x50617469656e7420626c6f6f64207472616e73616374696f6e20646174612069\n        /* \"#utility.yul\":26359:26360   */\n      0x00\n        /* \"#utility.yul\":26351:26357   */\n      dup3\n        /* \"#utility.yul\":26347:26361   */\n      add\n        /* \"#utility.yul\":26340:26398   */\n      mstore\n        /* \"#utility.yul\":26432:26456   */\n      0x732075706461746564207375636365737366756c6c7900000000000000000000\n        /* \"#utility.yul\":26427:26429   */\n      0x20\n        /* \"#utility.yul\":26419:26425   */\n      dup3\n        /* \"#utility.yul\":26415:26430   */\n      add\n        /* \"#utility.yul\":26408:26457   */\n      mstore\n        /* \"#utility.yul\":26223:26464   */\n      pop\n      jump\t// out\n        /* \"#utility.yul\":26470:26836   */\n    tag_196:\n        /* \"#utility.yul\":26612:26615   */\n      0x00\n        /* \"#utility.yul\":26633:26700   */\n      tag_431\n        /* \"#utility.yul\":26697:26699   */\n      0x36\n        /* \"#utility.yul\":26692:26695   */\n      dup4\n        /* \"#utility.yul\":26633:26700   */\n      tag_172\n      jump\t// in\n    tag_431:\n        /* \"#utility.yul\":26626:26700   */\n      swap2\n      pop\n        /* \"#utility.yul\":26709:26802   */\n      tag_432\n        /* \"#utility.yul\":26798:26801   */\n      dup3\n        /* \"#utility.yul\":26709:26802   */\n      tag_195\n      jump\t// in\n    tag_432:\n        /* \"#utility.yul\":26827:26829   */\n      0x40\n        /* \"#utility.yul\":26822:26825   */\n      dup3\n        /* \"#utility.yul\":26818:26830   */\n      add\n        /* \"#utility.yul\":26811:26830   */\n      swap1\n      pop\n        /* \"#utility.yul\":26470:26836   */\n      swap2\n      swap1\n      pop\n      jump\t// out\n        /* \"#utility.yul\":26842:27261   */\n    tag_124:\n        /* \"#utility.yul\":27008:27012   */\n      0x00\n        /* \"#utility.yul\":27046:27048   */\n      0x20\n        /* \"#utility.yul\":27035:27044   */\n      dup3\n        /* \"#utility.yul\":27031:27049   */\n      add\n        /* \"#utility.yul\":27023:27049   */\n      swap1\n      pop\n        /* \"#utility.yul\":27095:27104   */\n      dup2\n        /* \"#utility.yul\":27089:27093   */\n      dup2\n        /* \"#utility.yul\":27085:27105   */\n      sub\n        /* \"#utility.yul\":27081:27082   */\n      0x00\n        /* \"#utility.yul\":27070:27079   */\n      dup4\n        /* \"#utility.yul\":27066:27083   */\n      add\n        /* \"#utility.yul\":27059:27106   */\n      mstore\n        /* \"#utility.yul\":27123:27254   */\n      tag_434\n        /* \"#utility.yul\":27249:27253   */\n      dup2\n        /* \"#utility.yul\":27123:27254   */\n      tag_196\n      jump\t// in\n    tag_434:\n        /* \"#utility.yul\":27115:27254   */\n      swap1\n      pop\n        /* \"#utility.yul\":26842:27261   */\n      swap2\n      swap1\n      pop\n      jump\t// out\n\n    auxdata: 0xa26469706673582212208ba856418ad4450f5d9318314ce3affc5bfb3aab52ce773d83f080f938292b6564736f6c63430008120033\n}\n",
				"bytecode": {
					"linkReferences": {},
					"object": "608060405234801561001057600080fd5b50336000806101000a81548173ffffffffffffffffffffffffffffffffffffffff021916908373ffffffffffffffffffffffffffffffffffffffff160217905550611a0f806100606000396000f3fe608060405234801561001057600080fd5b506004361061004c5760003560e01c80639954f30a14610051578063b9fff11b1461006d578063d5a9f0031461009d578063f2c4e0c6146100bb575b600080fd5b61006b60048036038101906100669190610e21565b6100d7565b005b61008760048036038101906100829190610f02565b6102f9565b604051610094919061122a565b60405180910390f35b6100a5610672565b6040516100b291906113bf565b60405180910390f35b6100d560048036038101906100d09190611432565b6109f5565b005b60008054906101000a900473ffffffffffffffffffffffffffffffffffffffff1673ffffffffffffffffffffffffffffffffffffffff163373ffffffffffffffffffffffffffffffffffffffff1614610165576040517f08c379a000000000000000000000000000000000000000000000000000000000815260040161015c9061151c565b60405180910390fd5b60006001805490509050600180816001815401808255809150500390600052602060002090505086600182815481106101a1576101a061153c565b5b906000526020600020906007020160010190816101be9190611777565b5085600182815481106101d4576101d361153c565b5b90600052602060002090600702016002018190555084600182815481106101fe576101fd61153c565b5b9060005260206000209060070201600301908161021b9190611777565b5083600182815481106102315761023061153c565b5b906000526020600020906007020160040181905550826001828154811061025b5761025a61153c565b5b906000526020600020906007020160050190816102789190611777565b50816001828154811061028e5761028d61153c565b5b9060005260206000209060070201600001819055508060026000848152602001908152602001600020819055507f3c33ba9853a78dcaeb50be0f15e1be558cc38978243329bbdaee54a8f5ae4fec6040516102e890611895565b60405180910390a150505050505050565b610301610c54565b6000600260008481526020019081526020016000205490506001818154811061032d5761032c61153c565b5b90600052602060002090600702016040518060e0016040529081600082015481526020016001820180546103609061159a565b80601f016020809104026020016040519081016040528092919081815260200182805461038c9061159a565b80156103d95780601f106103ae576101008083540402835291602001916103d9565b820191906000526020600020905b8154815290600101906020018083116103bc57829003601f168201915b50505050508152602001600282015481526020016003820180546103fc9061159a565b80601f01602080910402602001604051908101604052809291908181526020018280546104289061159a565b80156104755780601f1061044a57610100808354040283529160200191610475565b820191906000526020600020905b81548152906001019060200180831161045857829003601f168201915b50505050508152602001600482015481526020016005820180546104989061159a565b80601f01602080910402602001604051908101604052809291908181526020018280546104c49061159a565b80156105115780601f106104e657610100808354040283529160200191610511565b820191906000526020600020905b8154815290600101906020018083116104f457829003601f168201915b5050505050815260200160068201805480602002602001604051908101604052809291908181526020016000905b8282101561066257838290600052602060002090600402016040518060800160405290816000820160009054906101000a900460ff16600181111561058757610586610fe9565b5b600181111561059957610598610fe9565b5b8152602001600182015481526020016002820160009054906101000a900473ffffffffffffffffffffffffffffffffffffffff1673ffffffffffffffffffffffffffffffffffffffff1673ffffffffffffffffffffffffffffffffffffffff1681526020016003820160009054906101000a900473ffffffffffffffffffffffffffffffffffffffff1673ffffffffffffffffffffffffffffffffffffffff1673ffffffffffffffffffffffffffffffffffffffff16815250508152602001906001019061053f565b5050505081525050915050919050565b60606001805480602002602001604051908101604052809291908181526020016000905b828210156109ec57838290600052602060002090600702016040518060e0016040529081600082015481526020016001820180546106d39061159a565b80601f01602080910402602001604051908101604052809291908181526020018280546106ff9061159a565b801561074c5780601f106107215761010080835404028352916020019161074c565b820191906000526020600020905b81548152906001019060200180831161072f57829003601f168201915b505050505081526020016002820154815260200160038201805461076f9061159a565b80601f016020809104026020016040519081016040528092919081815260200182805461079b9061159a565b80156107e85780601f106107bd576101008083540402835291602001916107e8565b820191906000526020600020905b8154815290600101906020018083116107cb57829003601f168201915b505050505081526020016004820154815260200160058201805461080b9061159a565b80601f01602080910402602001604051908101604052809291908181526020018280546108379061159a565b80156108845780601f1061085957610100808354040283529160200191610884565b820191906000526020600020905b81548152906001019060200180831161086757829003601f168201915b5050505050815260200160068201805480602002602001604051908101604052809291908181526020016000905b828210156109d557838290600052602060002090600402016040518060800160405290816000820160009054906101000a900460ff1660018111156108fa576108f9610fe9565b5b600181111561090c5761090b610fe9565b5b8152602001600182015481526020016002820160009054906101000a900473ffffffffffffffffffffffffffffffffffffffff1673ffffffffffffffffffffffffffffffffffffffff1673ffffffffffffffffffffffffffffffffffffffff1681526020016003820160009054906101000a900473ffffffffffffffffffffffffffffffffffffffff1673ffffffffffffffffffffffffffffffffffffffff1673ffffffffffffffffffffffffffffffffffffffff1681525050815260200190600101906108b2565b505050508152505081526020019060010190610696565b50505050905090565b60008054906101000a900473ffffffffffffffffffffffffffffffffffffffff1673ffffffffffffffffffffffffffffffffffffffff163373ffffffffffffffffffffffffffffffffffffffff1614610a83576040517f08c379a0000000000000000000000000000000000000000000000000000000008152600401610a7a90611927565b60405180910390fd5b60006002600086815260200190815260200160002054905060006040518060800160405280866001811115610abb57610aba610fe9565b5b81526020014281526020018573ffffffffffffffffffffffffffffffffffffffff1681526020018473ffffffffffffffffffffffffffffffffffffffff16815250905060018281548110610b1257610b1161153c565b5b906000526020600020906007020160060181908060018154018082558091505060019003906000526020600020906004020160009091909190915060008201518160000160006101000a81548160ff02191690836001811115610b7857610b77610fe9565b5b02179055506020820151816001015560408201518160020160006101000a81548173ffffffffffffffffffffffffffffffffffffffff021916908373ffffffffffffffffffffffffffffffffffffffff16021790555060608201518160030160006101000a81548173ffffffffffffffffffffffffffffffffffffffff021916908373ffffffffffffffffffffffffffffffffffffffff16021790555050507f3c33ba9853a78dcaeb50be0f15e1be558cc38978243329bbdaee54a8f5ae4fec604051610c44906119b9565b60405180910390a1505050505050565b6040518060e00160405280600081526020016060815260200160008152602001606081526020016000815260200160608152602001606081525090565b6000604051905090565b600080fd5b600080fd5b600080fd5b600080fd5b6000601f19601f8301169050919050565b7f4e487b7100000000000000000000000000000000000000000000000000000000600052604160045260246000fd5b610cf882610caf565b810181811067ffffffffffffffff82111715610d1757610d16610cc0565b5b80604052505050565b6000610d2a610c91565b9050610d368282610cef565b919050565b600067ffffffffffffffff821115610d5657610d55610cc0565b5b610d5f82610caf565b9050602081019050919050565b82818337600083830152505050565b6000610d8e610d8984610d3b565b610d20565b905082815260208101848484011115610daa57610da9610caa565b5b610db5848285610d6c565b509392505050565b600082601f830112610dd257610dd1610ca5565b5b8135610de2848260208601610d7b565b91505092915050565b6000819050919050565b610dfe81610deb565b8114610e0957600080fd5b50565b600081359050610e1b81610df5565b92915050565b60008060008060008060c08789031215610e3e57610e3d610c9b565b5b600087013567ffffffffffffffff811115610e5c57610e5b610ca0565b5b610e6889828a01610dbd565b9650506020610e7989828a01610e0c565b955050604087013567ffffffffffffffff811115610e9a57610e99610ca0565b5b610ea689828a01610dbd565b9450506060610eb789828a01610e0c565b935050608087013567ffffffffffffffff811115610ed857610ed7610ca0565b5b610ee489828a01610dbd565b92505060a0610ef589828a01610e0c565b9150509295509295509295565b600060208284031215610f1857610f17610c9b565b5b6000610f2684828501610e0c565b91505092915050565b610f3881610deb565b82525050565b600081519050919050565b600082825260208201905092915050565b60005b83811015610f78578082015181840152602081019050610f5d565b60008484015250505050565b6000610f8f82610f3e565b610f998185610f49565b9350610fa9818560208601610f5a565b610fb281610caf565b840191505092915050565b600081519050919050565b600082825260208201905092915050565b6000819050602082019050919050565b7f4e487b7100000000000000000000000000000000000000000000000000000000600052602160045260246000fd5b6002811061102957611028610fe9565b5b50565b600081905061103a82611018565b919050565b600061104a8261102c565b9050919050565b61105a8161103f565b82525050565b600073ffffffffffffffffffffffffffffffffffffffff82169050919050565b600061108b82611060565b9050919050565b61109b81611080565b82525050565b6080820160008201516110b76000850182611051565b5060208201516110ca6020850182610f2f565b5060408201516110dd6040850182611092565b5060608201516110f06060850182611092565b50505050565b600061110283836110a1565b60808301905092915050565b6000602082019050919050565b600061112682610fbd565b6111308185610fc8565b935061113b83610fd9565b8060005b8381101561116c57815161115388826110f6565b975061115e8361110e565b92505060018101905061113f565b5085935050505092915050565b600060e0830160008301516111916000860182610f2f565b50602083015184820360208601526111a98282610f84565b91505060408301516111be6040860182610f2f565b50606083015184820360608601526111d68282610f84565b91505060808301516111eb6080860182610f2f565b5060a083015184820360a08601526112038282610f84565b91505060c083015184820360c086015261121d828261111b565b9150508091505092915050565b600060208201905081810360008301526112448184611179565b905092915050565b600081519050919050565b600082825260208201905092915050565b6000819050602082019050919050565b600060e0830160008301516112906000860182610f2f565b50602083015184820360208601526112a88282610f84565b91505060408301516112bd6040860182610f2f565b50606083015184820360608601526112d58282610f84565b91505060808301516112ea6080860182610f2f565b5060a083015184820360a08601526113028282610f84565b91505060c083015184820360c086015261131c828261111b565b9150508091505092915050565b60006113358383611278565b905092915050565b6000602082019050919050565b60006113558261124c565b61135f8185611257565b93508360208202850161137185611268565b8060005b858110156113ad578484038952815161138e8582611329565b94506113998361133d565b925060208a01995050600181019050611375565b50829750879550505050505092915050565b600060208201905081810360008301526113d9818461134a565b905092915050565b600281106113ee57600080fd5b50565b600081359050611400816113e1565b92915050565b61140f81611080565b811461141a57600080fd5b50565b60008135905061142c81611406565b92915050565b6000806000806080858703121561144c5761144b610c9b565b5b600061145a87828801610e0c565b945050602061146b878288016113f1565b935050604061147c8782880161141d565b925050606061148d8782880161141d565b91505092959194509250565b600082825260208201905092915050565b7f6f6e6c792061646d696e2063616e207265676973746572206e6577207061746960008201527f656e740000000000000000000000000000000000000000000000000000000000602082015250565b6000611506602383611499565b9150611511826114aa565b604082019050919050565b60006020820190508181036000830152611535816114f9565b9050919050565b7f4e487b7100000000000000000000000000000000000000000000000000000000600052603260045260246000fd5b7f4e487b7100000000000000000000000000000000000000000000000000000000600052602260045260246000fd5b600060028204905060018216806115b257607f821691505b6020821081036115c5576115c461156b565b5b50919050565b60008190508160005260206000209050919050565b60006020601f8301049050919050565b600082821b905092915050565b60006008830261162d7fffffffffffffffffffffffffffffffffffffffffffffffffffffffffffffffff826115f0565b61163786836115f0565b95508019841693508086168417925050509392505050565b6000819050919050565b600061167461166f61166a84610deb565b61164f565b610deb565b9050919050565b6000819050919050565b61168e83611659565b6116a261169a8261167b565b8484546115fd565b825550505050565b600090565b6116b76116aa565b6116c2818484611685565b505050565b5b818110156116e6576116db6000826116af565b6001810190506116c8565b5050565b601f82111561172b576116fc816115cb565b611705846115e0565b81016020851015611714578190505b611728611720856115e0565b8301826116c7565b50505b505050565b600082821c905092915050565b600061174e60001984600802611730565b1980831691505092915050565b6000611767838361173d565b9150826002028217905092915050565b61178082610f3e565b67ffffffffffffffff81111561179957611798610cc0565b5b6117a3825461159a565b6117ae8282856116ea565b600060209050601f8311600181146117e157600084156117cf578287015190505b6117d9858261175b565b865550611841565b601f1984166117ef866115cb565b60005b82811015611817578489015182556001820191506020850194506020810190506117f2565b868310156118345784890151611830601f89168261173d565b8355505b6001600288020188555050505b505050505050565b7f50617469656e74206164646564207375636365737366756c6c79000000000000600082015250565b600061187f601a83611499565b915061188a82611849565b602082019050919050565b600060208201905081810360008301526118ae81611872565b9050919050565b7f6f6e6c7920686f73706974616c2063616e20757064617465207468652070617460008201527f69656e74277320626c6f6f64207472616e73616374696f6e2064617461000000602082015250565b6000611911603d83611499565b915061191c826118b5565b604082019050919050565b6000602082019050818103600083015261194081611904565b9050919050565b7f50617469656e7420626c6f6f64207472616e73616374696f6e2064617461206960008201527f732075706461746564207375636365737366756c6c7900000000000000000000602082015250565b60006119a3603683611499565b91506119ae82611947565b604082019050919050565b600060208201905081810360008301526119d281611996565b905091905056fea26469706673582212208ba856418ad4450f5d9318314ce3affc5bfb3aab52ce773d83f080f938292b6564736f6c63430008120033",
					"opcodes": "PUSH1 0x80 PUSH1 0x40 MSTORE CALLVALUE DUP1 ISZERO PUSH2 0x10 JUMPI PUSH1 0x0 DUP1 REVERT JUMPDEST POP CALLER PUSH1 0x0 DUP1 PUSH2 0x100 EXP DUP2 SLOAD DUP2 PUSH20 0xFFFFFFFFFFFFFFFFFFFFFFFFFFFFFFFFFFFFFFFF MUL NOT AND SWAP1 DUP4 PUSH20 0xFFFFFFFFFFFFFFFFFFFFFFFFFFFFFFFFFFFFFFFF AND MUL OR SWAP1 SSTORE POP PUSH2 0x1A0F DUP1 PUSH2 0x60 PUSH1 0x0 CODECOPY PUSH1 0x0 RETURN INVALID PUSH1 0x80 PUSH1 0x40 MSTORE CALLVALUE DUP1 ISZERO PUSH2 0x10 JUMPI PUSH1 0x0 DUP1 REVERT JUMPDEST POP PUSH1 0x4 CALLDATASIZE LT PUSH2 0x4C JUMPI PUSH1 0x0 CALLDATALOAD PUSH1 0xE0 SHR DUP1 PUSH4 0x9954F30A EQ PUSH2 0x51 JUMPI DUP1 PUSH4 0xB9FFF11B EQ PUSH2 0x6D JUMPI DUP1 PUSH4 0xD5A9F003 EQ PUSH2 0x9D JUMPI DUP1 PUSH4 0xF2C4E0C6 EQ PUSH2 0xBB JUMPI JUMPDEST PUSH1 0x0 DUP1 REVERT JUMPDEST PUSH2 0x6B PUSH1 0x4 DUP1 CALLDATASIZE SUB DUP2 ADD SWAP1 PUSH2 0x66 SWAP2 SWAP1 PUSH2 0xE21 JUMP JUMPDEST PUSH2 0xD7 JUMP JUMPDEST STOP JUMPDEST PUSH2 0x87 PUSH1 0x4 DUP1 CALLDATASIZE SUB DUP2 ADD SWAP1 PUSH2 0x82 SWAP2 SWAP1 PUSH2 0xF02 JUMP JUMPDEST PUSH2 0x2F9 JUMP JUMPDEST PUSH1 0x40 MLOAD PUSH2 0x94 SWAP2 SWAP1 PUSH2 0x122A JUMP JUMPDEST PUSH1 0x40 MLOAD DUP1 SWAP2 SUB SWAP1 RETURN JUMPDEST PUSH2 0xA5 PUSH2 0x672 JUMP JUMPDEST PUSH1 0x40 MLOAD PUSH2 0xB2 SWAP2 SWAP1 PUSH2 0x13BF JUMP JUMPDEST PUSH1 0x40 MLOAD DUP1 SWAP2 SUB SWAP1 RETURN JUMPDEST PUSH2 0xD5 PUSH1 0x4 DUP1 CALLDATASIZE SUB DUP2 ADD SWAP1 PUSH2 0xD0 SWAP2 SWAP1 PUSH2 0x1432 JUMP JUMPDEST PUSH2 0x9F5 JUMP JUMPDEST STOP JUMPDEST PUSH1 0x0 DUP1 SLOAD SWAP1 PUSH2 0x100 EXP SWAP1 DIV PUSH20 0xFFFFFFFFFFFFFFFFFFFFFFFFFFFFFFFFFFFFFFFF AND PUSH20 0xFFFFFFFFFFFFFFFFFFFFFFFFFFFFFFFFFFFFFFFF AND CALLER PUSH20 0xFFFFFFFFFFFFFFFFFFFFFFFFFFFFFFFFFFFFFFFF AND EQ PUSH2 0x165 JUMPI PUSH1 0x40 MLOAD PUSH32 0x8C379A000000000000000000000000000000000000000000000000000000000 DUP2 MSTORE PUSH1 0x4 ADD PUSH2 0x15C SWAP1 PUSH2 0x151C JUMP JUMPDEST PUSH1 0x40 MLOAD DUP1 SWAP2 SUB SWAP1 REVERT JUMPDEST PUSH1 0x0 PUSH1 0x1 DUP1 SLOAD SWAP1 POP SWAP1 POP PUSH1 0x1 DUP1 DUP2 PUSH1 0x1 DUP2 SLOAD ADD DUP1 DUP3 SSTORE DUP1 SWAP2 POP POP SUB SWAP1 PUSH1 0x0 MSTORE PUSH1 0x20 PUSH1 0x0 KECCAK256 SWAP1 POP POP DUP7 PUSH1 0x1 DUP3 DUP2 SLOAD DUP2 LT PUSH2 0x1A1 JUMPI PUSH2 0x1A0 PUSH2 0x153C JUMP JUMPDEST JUMPDEST SWAP1 PUSH1 0x0 MSTORE PUSH1 0x20 PUSH1 0x0 KECCAK256 SWAP1 PUSH1 0x7 MUL ADD PUSH1 0x1 ADD SWAP1 DUP2 PUSH2 0x1BE SWAP2 SWAP1 PUSH2 0x1777 JUMP JUMPDEST POP DUP6 PUSH1 0x1 DUP3 DUP2 SLOAD DUP2 LT PUSH2 0x1D4 JUMPI PUSH2 0x1D3 PUSH2 0x153C JUMP JUMPDEST JUMPDEST SWAP1 PUSH1 0x0 MSTORE PUSH1 0x20 PUSH1 0x0 KECCAK256 SWAP1 PUSH1 0x7 MUL ADD PUSH1 0x2 ADD DUP2 SWAP1 SSTORE POP DUP5 PUSH1 0x1 DUP3 DUP2 SLOAD DUP2 LT PUSH2 0x1FE JUMPI PUSH2 0x1FD PUSH2 0x153C JUMP JUMPDEST JUMPDEST SWAP1 PUSH1 0x0 MSTORE PUSH1 0x20 PUSH1 0x0 KECCAK256 SWAP1 PUSH1 0x7 MUL ADD PUSH1 0x3 ADD SWAP1 DUP2 PUSH2 0x21B SWAP2 SWAP1 PUSH2 0x1777 JUMP JUMPDEST POP DUP4 PUSH1 0x1 DUP3 DUP2 SLOAD DUP2 LT PUSH2 0x231 JUMPI PUSH2 0x230 PUSH2 0x153C JUMP JUMPDEST JUMPDEST SWAP1 PUSH1 0x0 MSTORE PUSH1 0x20 PUSH1 0x0 KECCAK256 SWAP1 PUSH1 0x7 MUL ADD PUSH1 0x4 ADD DUP2 SWAP1 SSTORE POP DUP3 PUSH1 0x1 DUP3 DUP2 SLOAD DUP2 LT PUSH2 0x25B JUMPI PUSH2 0x25A PUSH2 0x153C JUMP JUMPDEST JUMPDEST SWAP1 PUSH1 0x0 MSTORE PUSH1 0x20 PUSH1 0x0 KECCAK256 SWAP1 PUSH1 0x7 MUL ADD PUSH1 0x5 ADD SWAP1 DUP2 PUSH2 0x278 SWAP2 SWAP1 PUSH2 0x1777 JUMP JUMPDEST POP DUP2 PUSH1 0x1 DUP3 DUP2 SLOAD DUP2 LT PUSH2 0x28E JUMPI PUSH2 0x28D PUSH2 0x153C JUMP JUMPDEST JUMPDEST SWAP1 PUSH1 0x0 MSTORE PUSH1 0x20 PUSH1 0x0 KECCAK256 SWAP1 PUSH1 0x7 MUL ADD PUSH1 0x0 ADD DUP2 SWAP1 SSTORE POP DUP1 PUSH1 0x2 PUSH1 0x0 DUP5 DUP2 MSTORE PUSH1 0x20 ADD SWAP1 DUP2 MSTORE PUSH1 0x20 ADD PUSH1 0x0 KECCAK256 DUP2 SWAP1 SSTORE POP PUSH32 0x3C33BA9853A78DCAEB50BE0F15E1BE558CC38978243329BBDAEE54A8F5AE4FEC PUSH1 0x40 MLOAD PUSH2 0x2E8 SWAP1 PUSH2 0x1895 JUMP JUMPDEST PUSH1 0x40 MLOAD DUP1 SWAP2 SUB SWAP1 LOG1 POP POP POP POP POP POP POP JUMP JUMPDEST PUSH2 0x301 PUSH2 0xC54 JUMP JUMPDEST PUSH1 0x0 PUSH1 0x2 PUSH1 0x0 DUP5 DUP2 MSTORE PUSH1 0x20 ADD SWAP1 DUP2 MSTORE PUSH1 0x20 ADD PUSH1 0x0 KECCAK256 SLOAD SWAP1 POP PUSH1 0x1 DUP2 DUP2 SLOAD DUP2 LT PUSH2 0x32D JUMPI PUSH2 0x32C PUSH2 0x153C JUMP JUMPDEST JUMPDEST SWAP1 PUSH1 0x0 MSTORE PUSH1 0x20 PUSH1 0x0 KECCAK256 SWAP1 PUSH1 0x7 MUL ADD PUSH1 0x40 MLOAD DUP1 PUSH1 0xE0 ADD PUSH1 0x40 MSTORE SWAP1 DUP2 PUSH1 0x0 DUP3 ADD SLOAD DUP2 MSTORE PUSH1 0x20 ADD PUSH1 0x1 DUP3 ADD DUP1 SLOAD PUSH2 0x360 SWAP1 PUSH2 0x159A JUMP JUMPDEST DUP1 PUSH1 0x1F ADD PUSH1 0x20 DUP1 SWAP2 DIV MUL PUSH1 0x20 ADD PUSH1 0x40 MLOAD SWAP1 DUP2 ADD PUSH1 0x40 MSTORE DUP1 SWAP3 SWAP2 SWAP1 DUP2 DUP2 MSTORE PUSH1 0x20 ADD DUP3 DUP1 SLOAD PUSH2 0x38C SWAP1 PUSH2 0x159A JUMP JUMPDEST DUP1 ISZERO PUSH2 0x3D9 JUMPI DUP1 PUSH1 0x1F LT PUSH2 0x3AE JUMPI PUSH2 0x100 DUP1 DUP4 SLOAD DIV MUL DUP4 MSTORE SWAP2 PUSH1 0x20 ADD SWAP2 PUSH2 0x3D9 JUMP JUMPDEST DUP3 ADD SWAP2 SWAP1 PUSH1 0x0 MSTORE PUSH1 0x20 PUSH1 0x0 KECCAK256 SWAP1 JUMPDEST DUP2 SLOAD DUP2 MSTORE SWAP1 PUSH1 0x1 ADD SWAP1 PUSH1 0x20 ADD DUP1 DUP4 GT PUSH2 0x3BC JUMPI DUP3 SWAP1 SUB PUSH1 0x1F AND DUP3 ADD SWAP2 JUMPDEST POP POP POP POP POP DUP2 MSTORE PUSH1 0x20 ADD PUSH1 0x2 DUP3 ADD SLOAD DUP2 MSTORE PUSH1 0x20 ADD PUSH1 0x3 DUP3 ADD DUP1 SLOAD PUSH2 0x3FC SWAP1 PUSH2 0x159A JUMP JUMPDEST DUP1 PUSH1 0x1F ADD PUSH1 0x20 DUP1 SWAP2 DIV MUL PUSH1 0x20 ADD PUSH1 0x40 MLOAD SWAP1 DUP2 ADD PUSH1 0x40 MSTORE DUP1 SWAP3 SWAP2 SWAP1 DUP2 DUP2 MSTORE PUSH1 0x20 ADD DUP3 DUP1 SLOAD PUSH2 0x428 SWAP1 PUSH2 0x159A JUMP JUMPDEST DUP1 ISZERO PUSH2 0x475 JUMPI DUP1 PUSH1 0x1F LT PUSH2 0x44A JUMPI PUSH2 0x100 DUP1 DUP4 SLOAD DIV MUL DUP4 MSTORE SWAP2 PUSH1 0x20 ADD SWAP2 PUSH2 0x475 JUMP JUMPDEST DUP3 ADD SWAP2 SWAP1 PUSH1 0x0 MSTORE PUSH1 0x20 PUSH1 0x0 KECCAK256 SWAP1 JUMPDEST DUP2 SLOAD DUP2 MSTORE SWAP1 PUSH1 0x1 ADD SWAP1 PUSH1 0x20 ADD DUP1 DUP4 GT PUSH2 0x458 JUMPI DUP3 SWAP1 SUB PUSH1 0x1F AND DUP3 ADD SWAP2 JUMPDEST POP POP POP POP POP DUP2 MSTORE PUSH1 0x20 ADD PUSH1 0x4 DUP3 ADD SLOAD DUP2 MSTORE PUSH1 0x20 ADD PUSH1 0x5 DUP3 ADD DUP1 SLOAD PUSH2 0x498 SWAP1 PUSH2 0x159A JUMP JUMPDEST DUP1 PUSH1 0x1F ADD PUSH1 0x20 DUP1 SWAP2 DIV MUL PUSH1 0x20 ADD PUSH1 0x40 MLOAD SWAP1 DUP2 ADD PUSH1 0x40 MSTORE DUP1 SWAP3 SWAP2 SWAP1 DUP2 DUP2 MSTORE PUSH1 0x20 ADD DUP3 DUP1 SLOAD PUSH2 0x4C4 SWAP1 PUSH2 0x159A JUMP JUMPDEST DUP1 ISZERO PUSH2 0x511 JUMPI DUP1 PUSH1 0x1F LT PUSH2 0x4E6 JUMPI PUSH2 0x100 DUP1 DUP4 SLOAD DIV MUL DUP4 MSTORE SWAP2 PUSH1 0x20 ADD SWAP2 PUSH2 0x511 JUMP JUMPDEST DUP3 ADD SWAP2 SWAP1 PUSH1 0x0 MSTORE PUSH1 0x20 PUSH1 0x0 KECCAK256 SWAP1 JUMPDEST DUP2 SLOAD DUP2 MSTORE SWAP1 PUSH1 0x1 ADD SWAP1 PUSH1 0x20 ADD DUP1 DUP4 GT PUSH2 0x4F4 JUMPI DUP3 SWAP1 SUB PUSH1 0x1F AND DUP3 ADD SWAP2 JUMPDEST POP POP POP POP POP DUP2 MSTORE PUSH1 0x20 ADD PUSH1 0x6 DUP3 ADD DUP1 SLOAD DUP1 PUSH1 0x20 MUL PUSH1 0x20 ADD PUSH1 0x40 MLOAD SWAP1 DUP2 ADD PUSH1 0x40 MSTORE DUP1 SWAP3 SWAP2 SWAP1 DUP2 DUP2 MSTORE PUSH1 0x20 ADD PUSH1 0x0 SWAP1 JUMPDEST DUP3 DUP3 LT ISZERO PUSH2 0x662 JUMPI DUP4 DUP3 SWAP1 PUSH1 0x0 MSTORE PUSH1 0x20 PUSH1 0x0 KECCAK256 SWAP1 PUSH1 0x4 MUL ADD PUSH1 0x40 MLOAD DUP1 PUSH1 0x80 ADD PUSH1 0x40 MSTORE SWAP1 DUP2 PUSH1 0x0 DUP3 ADD PUSH1 0x0 SWAP1 SLOAD SWAP1 PUSH2 0x100 EXP SWAP1 DIV PUSH1 0xFF AND PUSH1 0x1 DUP2 GT ISZERO PUSH2 0x587 JUMPI PUSH2 0x586 PUSH2 0xFE9 JUMP JUMPDEST JUMPDEST PUSH1 0x1 DUP2 GT ISZERO PUSH2 0x599 JUMPI PUSH2 0x598 PUSH2 0xFE9 JUMP JUMPDEST JUMPDEST DUP2 MSTORE PUSH1 0x20 ADD PUSH1 0x1 DUP3 ADD SLOAD DUP2 MSTORE PUSH1 0x20 ADD PUSH1 0x2 DUP3 ADD PUSH1 0x0 SWAP1 SLOAD SWAP1 PUSH2 0x100 EXP SWAP1 DIV PUSH20 0xFFFFFFFFFFFFFFFFFFFFFFFFFFFFFFFFFFFFFFFF AND PUSH20 0xFFFFFFFFFFFFFFFFFFFFFFFFFFFFFFFFFFFFFFFF AND PUSH20 0xFFFFFFFFFFFFFFFFFFFFFFFFFFFFFFFFFFFFFFFF AND DUP2 MSTORE PUSH1 0x20 ADD PUSH1 0x3 DUP3 ADD PUSH1 0x0 SWAP1 SLOAD SWAP1 PUSH2 0x100 EXP SWAP1 DIV PUSH20 0xFFFFFFFFFFFFFFFFFFFFFFFFFFFFFFFFFFFFFFFF AND PUSH20 0xFFFFFFFFFFFFFFFFFFFFFFFFFFFFFFFFFFFFFFFF AND PUSH20 0xFFFFFFFFFFFFFFFFFFFFFFFFFFFFFFFFFFFFFFFF AND DUP2 MSTORE POP POP DUP2 MSTORE PUSH1 0x20 ADD SWAP1 PUSH1 0x1 ADD SWAP1 PUSH2 0x53F JUMP JUMPDEST POP POP POP POP DUP2 MSTORE POP POP SWAP2 POP POP SWAP2 SWAP1 POP JUMP JUMPDEST PUSH1 0x60 PUSH1 0x1 DUP1 SLOAD DUP1 PUSH1 0x20 MUL PUSH1 0x20 ADD PUSH1 0x40 MLOAD SWAP1 DUP2 ADD PUSH1 0x40 MSTORE DUP1 SWAP3 SWAP2 SWAP1 DUP2 DUP2 MSTORE PUSH1 0x20 ADD PUSH1 0x0 SWAP1 JUMPDEST DUP3 DUP3 LT ISZERO PUSH2 0x9EC JUMPI DUP4 DUP3 SWAP1 PUSH1 0x0 MSTORE PUSH1 0x20 PUSH1 0x0 KECCAK256 SWAP1 PUSH1 0x7 MUL ADD PUSH1 0x40 MLOAD DUP1 PUSH1 0xE0 ADD PUSH1 0x40 MSTORE SWAP1 DUP2 PUSH1 0x0 DUP3 ADD SLOAD DUP2 MSTORE PUSH1 0x20 ADD PUSH1 0x1 DUP3 ADD DUP1 SLOAD PUSH2 0x6D3 SWAP1 PUSH2 0x159A JUMP JUMPDEST DUP1 PUSH1 0x1F ADD PUSH1 0x20 DUP1 SWAP2 DIV MUL PUSH1 0x20 ADD PUSH1 0x40 MLOAD SWAP1 DUP2 ADD PUSH1 0x40 MSTORE DUP1 SWAP3 SWAP2 SWAP1 DUP2 DUP2 MSTORE PUSH1 0x20 ADD DUP3 DUP1 SLOAD PUSH2 0x6FF SWAP1 PUSH2 0x159A JUMP JUMPDEST DUP1 ISZERO PUSH2 0x74C JUMPI DUP1 PUSH1 0x1F LT PUSH2 0x721 JUMPI PUSH2 0x100 DUP1 DUP4 SLOAD DIV MUL DUP4 MSTORE SWAP2 PUSH1 0x20 ADD SWAP2 PUSH2 0x74C JUMP JUMPDEST DUP3 ADD SWAP2 SWAP1 PUSH1 0x0 MSTORE PUSH1 0x20 PUSH1 0x0 KECCAK256 SWAP1 JUMPDEST DUP2 SLOAD DUP2 MSTORE SWAP1 PUSH1 0x1 ADD SWAP1 PUSH1 0x20 ADD DUP1 DUP4 GT PUSH2 0x72F JUMPI DUP3 SWAP1 SUB PUSH1 0x1F AND DUP3 ADD SWAP2 JUMPDEST POP POP POP POP POP DUP2 MSTORE PUSH1 0x20 ADD PUSH1 0x2 DUP3 ADD SLOAD DUP2 MSTORE PUSH1 0x20 ADD PUSH1 0x3 DUP3 ADD DUP1 SLOAD PUSH2 0x76F SWAP1 PUSH2 0x159A JUMP JUMPDEST DUP1 PUSH1 0x1F ADD PUSH1 0x20 DUP1 SWAP2 DIV MUL PUSH1 0x20 ADD PUSH1 0x40 MLOAD SWAP1 DUP2 ADD PUSH1 0x40 MSTORE DUP1 SWAP3 SWAP2 SWAP1 DUP2 DUP2 MSTORE PUSH1 0x20 ADD DUP3 DUP1 SLOAD PUSH2 0x79B SWAP1 PUSH2 0x159A JUMP JUMPDEST DUP1 ISZERO PUSH2 0x7E8 JUMPI DUP1 PUSH1 0x1F LT PUSH2 0x7BD JUMPI PUSH2 0x100 DUP1 DUP4 SLOAD DIV MUL DUP4 MSTORE SWAP2 PUSH1 0x20 ADD SWAP2 PUSH2 0x7E8 JUMP JUMPDEST DUP3 ADD SWAP2 SWAP1 PUSH1 0x0 MSTORE PUSH1 0x20 PUSH1 0x0 KECCAK256 SWAP1 JUMPDEST DUP2 SLOAD DUP2 MSTORE SWAP1 PUSH1 0x1 ADD SWAP1 PUSH1 0x20 ADD DUP1 DUP4 GT PUSH2 0x7CB JUMPI DUP3 SWAP1 SUB PUSH1 0x1F AND DUP3 ADD SWAP2 JUMPDEST POP POP POP POP POP DUP2 MSTORE PUSH1 0x20 ADD PUSH1 0x4 DUP3 ADD SLOAD DUP2 MSTORE PUSH1 0x20 ADD PUSH1 0x5 DUP3 ADD DUP1 SLOAD PUSH2 0x80B SWAP1 PUSH2 0x159A JUMP JUMPDEST DUP1 PUSH1 0x1F ADD PUSH1 0x20 DUP1 SWAP2 DIV MUL PUSH1 0x20 ADD PUSH1 0x40 MLOAD SWAP1 DUP2 ADD PUSH1 0x40 MSTORE DUP1 SWAP3 SWAP2 SWAP1 DUP2 DUP2 MSTORE PUSH1 0x20 ADD DUP3 DUP1 SLOAD PUSH2 0x837 SWAP1 PUSH2 0x159A JUMP JUMPDEST DUP1 ISZERO PUSH2 0x884 JUMPI DUP1 PUSH1 0x1F LT PUSH2 0x859 JUMPI PUSH2 0x100 DUP1 DUP4 SLOAD DIV MUL DUP4 MSTORE SWAP2 PUSH1 0x20 ADD SWAP2 PUSH2 0x884 JUMP JUMPDEST DUP3 ADD SWAP2 SWAP1 PUSH1 0x0 MSTORE PUSH1 0x20 PUSH1 0x0 KECCAK256 SWAP1 JUMPDEST DUP2 SLOAD DUP2 MSTORE SWAP1 PUSH1 0x1 ADD SWAP1 PUSH1 0x20 ADD DUP1 DUP4 GT PUSH2 0x867 JUMPI DUP3 SWAP1 SUB PUSH1 0x1F AND DUP3 ADD SWAP2 JUMPDEST POP POP POP POP POP DUP2 MSTORE PUSH1 0x20 ADD PUSH1 0x6 DUP3 ADD DUP1 SLOAD DUP1 PUSH1 0x20 MUL PUSH1 0x20 ADD PUSH1 0x40 MLOAD SWAP1 DUP2 ADD PUSH1 0x40 MSTORE DUP1 SWAP3 SWAP2 SWAP1 DUP2 DUP2 MSTORE PUSH1 0x20 ADD PUSH1 0x0 SWAP1 JUMPDEST DUP3 DUP3 LT ISZERO PUSH2 0x9D5 JUMPI DUP4 DUP3 SWAP1 PUSH1 0x0 MSTORE PUSH1 0x20 PUSH1 0x0 KECCAK256 SWAP1 PUSH1 0x4 MUL ADD PUSH1 0x40 MLOAD DUP1 PUSH1 0x80 ADD PUSH1 0x40 MSTORE SWAP1 DUP2 PUSH1 0x0 DUP3 ADD PUSH1 0x0 SWAP1 SLOAD SWAP1 PUSH2 0x100 EXP SWAP1 DIV PUSH1 0xFF AND PUSH1 0x1 DUP2 GT ISZERO PUSH2 0x8FA JUMPI PUSH2 0x8F9 PUSH2 0xFE9 JUMP JUMPDEST JUMPDEST PUSH1 0x1 DUP2 GT ISZERO PUSH2 0x90C JUMPI PUSH2 0x90B PUSH2 0xFE9 JUMP JUMPDEST JUMPDEST DUP2 MSTORE PUSH1 0x20 ADD PUSH1 0x1 DUP3 ADD SLOAD DUP2 MSTORE PUSH1 0x20 ADD PUSH1 0x2 DUP3 ADD PUSH1 0x0 SWAP1 SLOAD SWAP1 PUSH2 0x100 EXP SWAP1 DIV PUSH20 0xFFFFFFFFFFFFFFFFFFFFFFFFFFFFFFFFFFFFFFFF AND PUSH20 0xFFFFFFFFFFFFFFFFFFFFFFFFFFFFFFFFFFFFFFFF AND PUSH20 0xFFFFFFFFFFFFFFFFFFFFFFFFFFFFFFFFFFFFFFFF AND DUP2 MSTORE PUSH1 0x20 ADD PUSH1 0x3 DUP3 ADD PUSH1 0x0 SWAP1 SLOAD SWAP1 PUSH2 0x100 EXP SWAP1 DIV PUSH20 0xFFFFFFFFFFFFFFFFFFFFFFFFFFFFFFFFFFFFFFFF AND PUSH20 0xFFFFFFFFFFFFFFFFFFFFFFFFFFFFFFFFFFFFFFFF AND PUSH20 0xFFFFFFFFFFFFFFFFFFFFFFFFFFFFFFFFFFFFFFFF AND DUP2 MSTORE POP POP DUP2 MSTORE PUSH1 0x20 ADD SWAP1 PUSH1 0x1 ADD SWAP1 PUSH2 0x8B2 JUMP JUMPDEST POP POP POP POP DUP2 MSTORE POP POP DUP2 MSTORE PUSH1 0x20 ADD SWAP1 PUSH1 0x1 ADD SWAP1 PUSH2 0x696 JUMP JUMPDEST POP POP POP POP SWAP1 POP SWAP1 JUMP JUMPDEST PUSH1 0x0 DUP1 SLOAD SWAP1 PUSH2 0x100 EXP SWAP1 DIV PUSH20 0xFFFFFFFFFFFFFFFFFFFFFFFFFFFFFFFFFFFFFFFF AND PUSH20 0xFFFFFFFFFFFFFFFFFFFFFFFFFFFFFFFFFFFFFFFF AND CALLER PUSH20 0xFFFFFFFFFFFFFFFFFFFFFFFFFFFFFFFFFFFFFFFF AND EQ PUSH2 0xA83 JUMPI PUSH1 0x40 MLOAD PUSH32 0x8C379A000000000000000000000000000000000000000000000000000000000 DUP2 MSTORE PUSH1 0x4 ADD PUSH2 0xA7A SWAP1 PUSH2 0x1927 JUMP JUMPDEST PUSH1 0x40 MLOAD DUP1 SWAP2 SUB SWAP1 REVERT JUMPDEST PUSH1 0x0 PUSH1 0x2 PUSH1 0x0 DUP7 DUP2 MSTORE PUSH1 0x20 ADD SWAP1 DUP2 MSTORE PUSH1 0x20 ADD PUSH1 0x0 KECCAK256 SLOAD SWAP1 POP PUSH1 0x0 PUSH1 0x40 MLOAD DUP1 PUSH1 0x80 ADD PUSH1 0x40 MSTORE DUP1 DUP7 PUSH1 0x1 DUP2 GT ISZERO PUSH2 0xABB JUMPI PUSH2 0xABA PUSH2 0xFE9 JUMP JUMPDEST JUMPDEST DUP2 MSTORE PUSH1 0x20 ADD TIMESTAMP DUP2 MSTORE PUSH1 0x20 ADD DUP6 PUSH20 0xFFFFFFFFFFFFFFFFFFFFFFFFFFFFFFFFFFFFFFFF AND DUP2 MSTORE PUSH1 0x20 ADD DUP5 PUSH20 0xFFFFFFFFFFFFFFFFFFFFFFFFFFFFFFFFFFFFFFFF AND DUP2 MSTORE POP SWAP1 POP PUSH1 0x1 DUP3 DUP2 SLOAD DUP2 LT PUSH2 0xB12 JUMPI PUSH2 0xB11 PUSH2 0x153C JUMP JUMPDEST JUMPDEST SWAP1 PUSH1 0x0 MSTORE PUSH1 0x20 PUSH1 0x0 KECCAK256 SWAP1 PUSH1 0x7 MUL ADD PUSH1 0x6 ADD DUP2 SWAP1 DUP1 PUSH1 0x1 DUP2 SLOAD ADD DUP1 DUP3 SSTORE DUP1 SWAP2 POP POP PUSH1 0x1 SWAP1 SUB SWAP1 PUSH1 0x0 MSTORE PUSH1 0x20 PUSH1 0x0 KECCAK256 SWAP1 PUSH1 0x4 MUL ADD PUSH1 0x0 SWAP1 SWAP2 SWAP1 SWAP2 SWAP1 SWAP2 POP PUSH1 0x0 DUP3 ADD MLOAD DUP2 PUSH1 0x0 ADD PUSH1 0x0 PUSH2 0x100 EXP DUP2 SLOAD DUP2 PUSH1 0xFF MUL NOT AND SWAP1 DUP4 PUSH1 0x1 DUP2 GT ISZERO PUSH2 0xB78 JUMPI PUSH2 0xB77 PUSH2 0xFE9 JUMP JUMPDEST JUMPDEST MUL OR SWAP1 SSTORE POP PUSH1 0x20 DUP3 ADD MLOAD DUP2 PUSH1 0x1 ADD SSTORE PUSH1 0x40 DUP3 ADD MLOAD DUP2 PUSH1 0x2 ADD PUSH1 0x0 PUSH2 0x100 EXP DUP2 SLOAD DUP2 PUSH20 0xFFFFFFFFFFFFFFFFFFFFFFFFFFFFFFFFFFFFFFFF MUL NOT AND SWAP1 DUP4 PUSH20 0xFFFFFFFFFFFFFFFFFFFFFFFFFFFFFFFFFFFFFFFF AND MUL OR SWAP1 SSTORE POP PUSH1 0x60 DUP3 ADD MLOAD DUP2 PUSH1 0x3 ADD PUSH1 0x0 PUSH2 0x100 EXP DUP2 SLOAD DUP2 PUSH20 0xFFFFFFFFFFFFFFFFFFFFFFFFFFFFFFFFFFFFFFFF MUL NOT AND SWAP1 DUP4 PUSH20 0xFFFFFFFFFFFFFFFFFFFFFFFFFFFFFFFFFFFFFFFF AND MUL OR SWAP1 SSTORE POP POP POP PUSH32 0x3C33BA9853A78DCAEB50BE0F15E1BE558CC38978243329BBDAEE54A8F5AE4FEC PUSH1 0x40 MLOAD PUSH2 0xC44 SWAP1 PUSH2 0x19B9 JUMP JUMPDEST PUSH1 0x40 MLOAD DUP1 SWAP2 SUB SWAP1 LOG1 POP POP POP POP POP POP JUMP JUMPDEST PUSH1 0x40 MLOAD DUP1 PUSH1 0xE0 ADD PUSH1 0x40 MSTORE DUP1 PUSH1 0x0 DUP2 MSTORE PUSH1 0x20 ADD PUSH1 0x60 DUP2 MSTORE PUSH1 0x20 ADD PUSH1 0x0 DUP2 MSTORE PUSH1 0x20 ADD PUSH1 0x60 DUP2 MSTORE PUSH1 0x20 ADD PUSH1 0x0 DUP2 MSTORE PUSH1 0x20 ADD PUSH1 0x60 DUP2 MSTORE PUSH1 0x20 ADD PUSH1 0x60 DUP2 MSTORE POP SWAP1 JUMP JUMPDEST PUSH1 0x0 PUSH1 0x40 MLOAD SWAP1 POP SWAP1 JUMP JUMPDEST PUSH1 0x0 DUP1 REVERT JUMPDEST PUSH1 0x0 DUP1 REVERT JUMPDEST PUSH1 0x0 DUP1 REVERT JUMPDEST PUSH1 0x0 DUP1 REVERT JUMPDEST PUSH1 0x0 PUSH1 0x1F NOT PUSH1 0x1F DUP4 ADD AND SWAP1 POP SWAP2 SWAP1 POP JUMP JUMPDEST PUSH32 0x4E487B7100000000000000000000000000000000000000000000000000000000 PUSH1 0x0 MSTORE PUSH1 0x41 PUSH1 0x4 MSTORE PUSH1 0x24 PUSH1 0x0 REVERT JUMPDEST PUSH2 0xCF8 DUP3 PUSH2 0xCAF JUMP JUMPDEST DUP2 ADD DUP2 DUP2 LT PUSH8 0xFFFFFFFFFFFFFFFF DUP3 GT OR ISZERO PUSH2 0xD17 JUMPI PUSH2 0xD16 PUSH2 0xCC0 JUMP JUMPDEST JUMPDEST DUP1 PUSH1 0x40 MSTORE POP POP POP JUMP JUMPDEST PUSH1 0x0 PUSH2 0xD2A PUSH2 0xC91 JUMP JUMPDEST SWAP1 POP PUSH2 0xD36 DUP3 DUP3 PUSH2 0xCEF JUMP JUMPDEST SWAP2 SWAP1 POP JUMP JUMPDEST PUSH1 0x0 PUSH8 0xFFFFFFFFFFFFFFFF DUP3 GT ISZERO PUSH2 0xD56 JUMPI PUSH2 0xD55 PUSH2 0xCC0 JUMP JUMPDEST JUMPDEST PUSH2 0xD5F DUP3 PUSH2 0xCAF JUMP JUMPDEST SWAP1 POP PUSH1 0x20 DUP2 ADD SWAP1 POP SWAP2 SWAP1 POP JUMP JUMPDEST DUP3 DUP2 DUP4 CALLDATACOPY PUSH1 0x0 DUP4 DUP4 ADD MSTORE POP POP POP JUMP JUMPDEST PUSH1 0x0 PUSH2 0xD8E PUSH2 0xD89 DUP5 PUSH2 0xD3B JUMP JUMPDEST PUSH2 0xD20 JUMP JUMPDEST SWAP1 POP DUP3 DUP2 MSTORE PUSH1 0x20 DUP2 ADD DUP5 DUP5 DUP5 ADD GT ISZERO PUSH2 0xDAA JUMPI PUSH2 0xDA9 PUSH2 0xCAA JUMP JUMPDEST JUMPDEST PUSH2 0xDB5 DUP5 DUP3 DUP6 PUSH2 0xD6C JUMP JUMPDEST POP SWAP4 SWAP3 POP POP POP JUMP JUMPDEST PUSH1 0x0 DUP3 PUSH1 0x1F DUP4 ADD SLT PUSH2 0xDD2 JUMPI PUSH2 0xDD1 PUSH2 0xCA5 JUMP JUMPDEST JUMPDEST DUP2 CALLDATALOAD PUSH2 0xDE2 DUP5 DUP3 PUSH1 0x20 DUP7 ADD PUSH2 0xD7B JUMP JUMPDEST SWAP2 POP POP SWAP3 SWAP2 POP POP JUMP JUMPDEST PUSH1 0x0 DUP2 SWAP1 POP SWAP2 SWAP1 POP JUMP JUMPDEST PUSH2 0xDFE DUP2 PUSH2 0xDEB JUMP JUMPDEST DUP2 EQ PUSH2 0xE09 JUMPI PUSH1 0x0 DUP1 REVERT JUMPDEST POP JUMP JUMPDEST PUSH1 0x0 DUP2 CALLDATALOAD SWAP1 POP PUSH2 0xE1B DUP2 PUSH2 0xDF5 JUMP JUMPDEST SWAP3 SWAP2 POP POP JUMP JUMPDEST PUSH1 0x0 DUP1 PUSH1 0x0 DUP1 PUSH1 0x0 DUP1 PUSH1 0xC0 DUP8 DUP10 SUB SLT ISZERO PUSH2 0xE3E JUMPI PUSH2 0xE3D PUSH2 0xC9B JUMP JUMPDEST JUMPDEST PUSH1 0x0 DUP8 ADD CALLDATALOAD PUSH8 0xFFFFFFFFFFFFFFFF DUP2 GT ISZERO PUSH2 0xE5C JUMPI PUSH2 0xE5B PUSH2 0xCA0 JUMP JUMPDEST JUMPDEST PUSH2 0xE68 DUP10 DUP3 DUP11 ADD PUSH2 0xDBD JUMP JUMPDEST SWAP7 POP POP PUSH1 0x20 PUSH2 0xE79 DUP10 DUP3 DUP11 ADD PUSH2 0xE0C JUMP JUMPDEST SWAP6 POP POP PUSH1 0x40 DUP8 ADD CALLDATALOAD PUSH8 0xFFFFFFFFFFFFFFFF DUP2 GT ISZERO PUSH2 0xE9A JUMPI PUSH2 0xE99 PUSH2 0xCA0 JUMP JUMPDEST JUMPDEST PUSH2 0xEA6 DUP10 DUP3 DUP11 ADD PUSH2 0xDBD JUMP JUMPDEST SWAP5 POP POP PUSH1 0x60 PUSH2 0xEB7 DUP10 DUP3 DUP11 ADD PUSH2 0xE0C JUMP JUMPDEST SWAP4 POP POP PUSH1 0x80 DUP8 ADD CALLDATALOAD PUSH8 0xFFFFFFFFFFFFFFFF DUP2 GT ISZERO PUSH2 0xED8 JUMPI PUSH2 0xED7 PUSH2 0xCA0 JUMP JUMPDEST JUMPDEST PUSH2 0xEE4 DUP10 DUP3 DUP11 ADD PUSH2 0xDBD JUMP JUMPDEST SWAP3 POP POP PUSH1 0xA0 PUSH2 0xEF5 DUP10 DUP3 DUP11 ADD PUSH2 0xE0C JUMP JUMPDEST SWAP2 POP POP SWAP3 SWAP6 POP SWAP3 SWAP6 POP SWAP3 SWAP6 JUMP JUMPDEST PUSH1 0x0 PUSH1 0x20 DUP3 DUP5 SUB SLT ISZERO PUSH2 0xF18 JUMPI PUSH2 0xF17 PUSH2 0xC9B JUMP JUMPDEST JUMPDEST PUSH1 0x0 PUSH2 0xF26 DUP5 DUP3 DUP6 ADD PUSH2 0xE0C JUMP JUMPDEST SWAP2 POP POP SWAP3 SWAP2 POP POP JUMP JUMPDEST PUSH2 0xF38 DUP2 PUSH2 0xDEB JUMP JUMPDEST DUP3 MSTORE POP POP JUMP JUMPDEST PUSH1 0x0 DUP2 MLOAD SWAP1 POP SWAP2 SWAP1 POP JUMP JUMPDEST PUSH1 0x0 DUP3 DUP3 MSTORE PUSH1 0x20 DUP3 ADD SWAP1 POP SWAP3 SWAP2 POP POP JUMP JUMPDEST PUSH1 0x0 JUMPDEST DUP4 DUP2 LT ISZERO PUSH2 0xF78 JUMPI DUP1 DUP3 ADD MLOAD DUP2 DUP5 ADD MSTORE PUSH1 0x20 DUP2 ADD SWAP1 POP PUSH2 0xF5D JUMP JUMPDEST PUSH1 0x0 DUP5 DUP5 ADD MSTORE POP POP POP POP JUMP JUMPDEST PUSH1 0x0 PUSH2 0xF8F DUP3 PUSH2 0xF3E JUMP JUMPDEST PUSH2 0xF99 DUP2 DUP6 PUSH2 0xF49 JUMP JUMPDEST SWAP4 POP PUSH2 0xFA9 DUP2 DUP6 PUSH1 0x20 DUP7 ADD PUSH2 0xF5A JUMP JUMPDEST PUSH2 0xFB2 DUP2 PUSH2 0xCAF JUMP JUMPDEST DUP5 ADD SWAP2 POP POP SWAP3 SWAP2 POP POP JUMP JUMPDEST PUSH1 0x0 DUP2 MLOAD SWAP1 POP SWAP2 SWAP1 POP JUMP JUMPDEST PUSH1 0x0 DUP3 DUP3 MSTORE PUSH1 0x20 DUP3 ADD SWAP1 POP SWAP3 SWAP2 POP POP JUMP JUMPDEST PUSH1 0x0 DUP2 SWAP1 POP PUSH1 0x20 DUP3 ADD SWAP1 POP SWAP2 SWAP1 POP JUMP JUMPDEST PUSH32 0x4E487B7100000000000000000000000000000000000000000000000000000000 PUSH1 0x0 MSTORE PUSH1 0x21 PUSH1 0x4 MSTORE PUSH1 0x24 PUSH1 0x0 REVERT JUMPDEST PUSH1 0x2 DUP2 LT PUSH2 0x1029 JUMPI PUSH2 0x1028 PUSH2 0xFE9 JUMP JUMPDEST JUMPDEST POP JUMP JUMPDEST PUSH1 0x0 DUP2 SWAP1 POP PUSH2 0x103A DUP3 PUSH2 0x1018 JUMP JUMPDEST SWAP2 SWAP1 POP JUMP JUMPDEST PUSH1 0x0 PUSH2 0x104A DUP3 PUSH2 0x102C JUMP JUMPDEST SWAP1 POP SWAP2 SWAP1 POP JUMP JUMPDEST PUSH2 0x105A DUP2 PUSH2 0x103F JUMP JUMPDEST DUP3 MSTORE POP POP JUMP JUMPDEST PUSH1 0x0 PUSH20 0xFFFFFFFFFFFFFFFFFFFFFFFFFFFFFFFFFFFFFFFF DUP3 AND SWAP1 POP SWAP2 SWAP1 POP JUMP JUMPDEST PUSH1 0x0 PUSH2 0x108B DUP3 PUSH2 0x1060 JUMP JUMPDEST SWAP1 POP SWAP2 SWAP1 POP JUMP JUMPDEST PUSH2 0x109B DUP2 PUSH2 0x1080 JUMP JUMPDEST DUP3 MSTORE POP POP JUMP JUMPDEST PUSH1 0x80 DUP3 ADD PUSH1 0x0 DUP3 ADD MLOAD PUSH2 0x10B7 PUSH1 0x0 DUP6 ADD DUP3 PUSH2 0x1051 JUMP JUMPDEST POP PUSH1 0x20 DUP3 ADD MLOAD PUSH2 0x10CA PUSH1 0x20 DUP6 ADD DUP3 PUSH2 0xF2F JUMP JUMPDEST POP PUSH1 0x40 DUP3 ADD MLOAD PUSH2 0x10DD PUSH1 0x40 DUP6 ADD DUP3 PUSH2 0x1092 JUMP JUMPDEST POP PUSH1 0x60 DUP3 ADD MLOAD PUSH2 0x10F0 PUSH1 0x60 DUP6 ADD DUP3 PUSH2 0x1092 JUMP JUMPDEST POP POP POP POP JUMP JUMPDEST PUSH1 0x0 PUSH2 0x1102 DUP4 DUP4 PUSH2 0x10A1 JUMP JUMPDEST PUSH1 0x80 DUP4 ADD SWAP1 POP SWAP3 SWAP2 POP POP JUMP JUMPDEST PUSH1 0x0 PUSH1 0x20 DUP3 ADD SWAP1 POP SWAP2 SWAP1 POP JUMP JUMPDEST PUSH1 0x0 PUSH2 0x1126 DUP3 PUSH2 0xFBD JUMP JUMPDEST PUSH2 0x1130 DUP2 DUP6 PUSH2 0xFC8 JUMP JUMPDEST SWAP4 POP PUSH2 0x113B DUP4 PUSH2 0xFD9 JUMP JUMPDEST DUP1 PUSH1 0x0 JUMPDEST DUP4 DUP2 LT ISZERO PUSH2 0x116C JUMPI DUP2 MLOAD PUSH2 0x1153 DUP9 DUP3 PUSH2 0x10F6 JUMP JUMPDEST SWAP8 POP PUSH2 0x115E DUP4 PUSH2 0x110E JUMP JUMPDEST SWAP3 POP POP PUSH1 0x1 DUP2 ADD SWAP1 POP PUSH2 0x113F JUMP JUMPDEST POP DUP6 SWAP4 POP POP POP POP SWAP3 SWAP2 POP POP JUMP JUMPDEST PUSH1 0x0 PUSH1 0xE0 DUP4 ADD PUSH1 0x0 DUP4 ADD MLOAD PUSH2 0x1191 PUSH1 0x0 DUP7 ADD DUP3 PUSH2 0xF2F JUMP JUMPDEST POP PUSH1 0x20 DUP4 ADD MLOAD DUP5 DUP3 SUB PUSH1 0x20 DUP7 ADD MSTORE PUSH2 0x11A9 DUP3 DUP3 PUSH2 0xF84 JUMP JUMPDEST SWAP2 POP POP PUSH1 0x40 DUP4 ADD MLOAD PUSH2 0x11BE PUSH1 0x40 DUP7 ADD DUP3 PUSH2 0xF2F JUMP JUMPDEST POP PUSH1 0x60 DUP4 ADD MLOAD DUP5 DUP3 SUB PUSH1 0x60 DUP7 ADD MSTORE PUSH2 0x11D6 DUP3 DUP3 PUSH2 0xF84 JUMP JUMPDEST SWAP2 POP POP PUSH1 0x80 DUP4 ADD MLOAD PUSH2 0x11EB PUSH1 0x80 DUP7 ADD DUP3 PUSH2 0xF2F JUMP JUMPDEST POP PUSH1 0xA0 DUP4 ADD MLOAD DUP5 DUP3 SUB PUSH1 0xA0 DUP7 ADD MSTORE PUSH2 0x1203 DUP3 DUP3 PUSH2 0xF84 JUMP JUMPDEST SWAP2 POP POP PUSH1 0xC0 DUP4 ADD MLOAD DUP5 DUP3 SUB PUSH1 0xC0 DUP7 ADD MSTORE PUSH2 0x121D DUP3 DUP3 PUSH2 0x111B JUMP JUMPDEST SWAP2 POP POP DUP1 SWAP2 POP POP SWAP3 SWAP2 POP POP JUMP JUMPDEST PUSH1 0x0 PUSH1 0x20 DUP3 ADD SWAP1 POP DUP2 DUP2 SUB PUSH1 0x0 DUP4 ADD MSTORE PUSH2 0x1244 DUP2 DUP5 PUSH2 0x1179 JUMP JUMPDEST SWAP1 POP SWAP3 SWAP2 POP POP JUMP JUMPDEST PUSH1 0x0 DUP2 MLOAD SWAP1 POP SWAP2 SWAP1 POP JUMP JUMPDEST PUSH1 0x0 DUP3 DUP3 MSTORE PUSH1 0x20 DUP3 ADD SWAP1 POP SWAP3 SWAP2 POP POP JUMP JUMPDEST PUSH1 0x0 DUP2 SWAP1 POP PUSH1 0x20 DUP3 ADD SWAP1 POP SWAP2 SWAP1 POP JUMP JUMPDEST PUSH1 0x0 PUSH1 0xE0 DUP4 ADD PUSH1 0x0 DUP4 ADD MLOAD PUSH2 0x1290 PUSH1 0x0 DUP7 ADD DUP3 PUSH2 0xF2F JUMP JUMPDEST POP PUSH1 0x20 DUP4 ADD MLOAD DUP5 DUP3 SUB PUSH1 0x20 DUP7 ADD MSTORE PUSH2 0x12A8 DUP3 DUP3 PUSH2 0xF84 JUMP JUMPDEST SWAP2 POP POP PUSH1 0x40 DUP4 ADD MLOAD PUSH2 0x12BD PUSH1 0x40 DUP7 ADD DUP3 PUSH2 0xF2F JUMP JUMPDEST POP PUSH1 0x60 DUP4 ADD MLOAD DUP5 DUP3 SUB PUSH1 0x60 DUP7 ADD MSTORE PUSH2 0x12D5 DUP3 DUP3 PUSH2 0xF84 JUMP JUMPDEST SWAP2 POP POP PUSH1 0x80 DUP4 ADD MLOAD PUSH2 0x12EA PUSH1 0x80 DUP7 ADD DUP3 PUSH2 0xF2F JUMP JUMPDEST POP PUSH1 0xA0 DUP4 ADD MLOAD DUP5 DUP3 SUB PUSH1 0xA0 DUP7 ADD MSTORE PUSH2 0x1302 DUP3 DUP3 PUSH2 0xF84 JUMP JUMPDEST SWAP2 POP POP PUSH1 0xC0 DUP4 ADD MLOAD DUP5 DUP3 SUB PUSH1 0xC0 DUP7 ADD MSTORE PUSH2 0x131C DUP3 DUP3 PUSH2 0x111B JUMP JUMPDEST SWAP2 POP POP DUP1 SWAP2 POP POP SWAP3 SWAP2 POP POP JUMP JUMPDEST PUSH1 0x0 PUSH2 0x1335 DUP4 DUP4 PUSH2 0x1278 JUMP JUMPDEST SWAP1 POP SWAP3 SWAP2 POP POP JUMP JUMPDEST PUSH1 0x0 PUSH1 0x20 DUP3 ADD SWAP1 POP SWAP2 SWAP1 POP JUMP JUMPDEST PUSH1 0x0 PUSH2 0x1355 DUP3 PUSH2 0x124C JUMP JUMPDEST PUSH2 0x135F DUP2 DUP6 PUSH2 0x1257 JUMP JUMPDEST SWAP4 POP DUP4 PUSH1 0x20 DUP3 MUL DUP6 ADD PUSH2 0x1371 DUP6 PUSH2 0x1268 JUMP JUMPDEST DUP1 PUSH1 0x0 JUMPDEST DUP6 DUP2 LT ISZERO PUSH2 0x13AD JUMPI DUP5 DUP5 SUB DUP10 MSTORE DUP2 MLOAD PUSH2 0x138E DUP6 DUP3 PUSH2 0x1329 JUMP JUMPDEST SWAP5 POP PUSH2 0x1399 DUP4 PUSH2 0x133D JUMP JUMPDEST SWAP3 POP PUSH1 0x20 DUP11 ADD SWAP10 POP POP PUSH1 0x1 DUP2 ADD SWAP1 POP PUSH2 0x1375 JUMP JUMPDEST POP DUP3 SWAP8 POP DUP8 SWAP6 POP POP POP POP POP POP SWAP3 SWAP2 POP POP JUMP JUMPDEST PUSH1 0x0 PUSH1 0x20 DUP3 ADD SWAP1 POP DUP2 DUP2 SUB PUSH1 0x0 DUP4 ADD MSTORE PUSH2 0x13D9 DUP2 DUP5 PUSH2 0x134A JUMP JUMPDEST SWAP1 POP SWAP3 SWAP2 POP POP JUMP JUMPDEST PUSH1 0x2 DUP2 LT PUSH2 0x13EE JUMPI PUSH1 0x0 DUP1 REVERT JUMPDEST POP JUMP JUMPDEST PUSH1 0x0 DUP2 CALLDATALOAD SWAP1 POP PUSH2 0x1400 DUP2 PUSH2 0x13E1 JUMP JUMPDEST SWAP3 SWAP2 POP POP JUMP JUMPDEST PUSH2 0x140F DUP2 PUSH2 0x1080 JUMP JUMPDEST DUP2 EQ PUSH2 0x141A JUMPI PUSH1 0x0 DUP1 REVERT JUMPDEST POP JUMP JUMPDEST PUSH1 0x0 DUP2 CALLDATALOAD SWAP1 POP PUSH2 0x142C DUP2 PUSH2 0x1406 JUMP JUMPDEST SWAP3 SWAP2 POP POP JUMP JUMPDEST PUSH1 0x0 DUP1 PUSH1 0x0 DUP1 PUSH1 0x80 DUP6 DUP8 SUB SLT ISZERO PUSH2 0x144C JUMPI PUSH2 0x144B PUSH2 0xC9B JUMP JUMPDEST JUMPDEST PUSH1 0x0 PUSH2 0x145A DUP8 DUP3 DUP9 ADD PUSH2 0xE0C JUMP JUMPDEST SWAP5 POP POP PUSH1 0x20 PUSH2 0x146B DUP8 DUP3 DUP9 ADD PUSH2 0x13F1 JUMP JUMPDEST SWAP4 POP POP PUSH1 0x40 PUSH2 0x147C DUP8 DUP3 DUP9 ADD PUSH2 0x141D JUMP JUMPDEST SWAP3 POP POP PUSH1 0x60 PUSH2 0x148D DUP8 DUP3 DUP9 ADD PUSH2 0x141D JUMP JUMPDEST SWAP2 POP POP SWAP3 SWAP6 SWAP2 SWAP5 POP SWAP3 POP JUMP JUMPDEST PUSH1 0x0 DUP3 DUP3 MSTORE PUSH1 0x20 DUP3 ADD SWAP1 POP SWAP3 SWAP2 POP POP JUMP JUMPDEST PUSH32 0x6F6E6C792061646D696E2063616E207265676973746572206E65772070617469 PUSH1 0x0 DUP3 ADD MSTORE PUSH32 0x656E740000000000000000000000000000000000000000000000000000000000 PUSH1 0x20 DUP3 ADD MSTORE POP JUMP JUMPDEST PUSH1 0x0 PUSH2 0x1506 PUSH1 0x23 DUP4 PUSH2 0x1499 JUMP JUMPDEST SWAP2 POP PUSH2 0x1511 DUP3 PUSH2 0x14AA JUMP JUMPDEST PUSH1 0x40 DUP3 ADD SWAP1 POP SWAP2 SWAP1 POP JUMP JUMPDEST PUSH1 0x0 PUSH1 0x20 DUP3 ADD SWAP1 POP DUP2 DUP2 SUB PUSH1 0x0 DUP4 ADD MSTORE PUSH2 0x1535 DUP2 PUSH2 0x14F9 JUMP JUMPDEST SWAP1 POP SWAP2 SWAP1 POP JUMP JUMPDEST PUSH32 0x4E487B7100000000000000000000000000000000000000000000000000000000 PUSH1 0x0 MSTORE PUSH1 0x32 PUSH1 0x4 MSTORE PUSH1 0x24 PUSH1 0x0 REVERT JUMPDEST PUSH32 0x4E487B7100000000000000000000000000000000000000000000000000000000 PUSH1 0x0 MSTORE PUSH1 0x22 PUSH1 0x4 MSTORE PUSH1 0x24 PUSH1 0x0 REVERT JUMPDEST PUSH1 0x0 PUSH1 0x2 DUP3 DIV SWAP1 POP PUSH1 0x1 DUP3 AND DUP1 PUSH2 0x15B2 JUMPI PUSH1 0x7F DUP3 AND SWAP2 POP JUMPDEST PUSH1 0x20 DUP3 LT DUP2 SUB PUSH2 0x15C5 JUMPI PUSH2 0x15C4 PUSH2 0x156B JUMP JUMPDEST JUMPDEST POP SWAP2 SWAP1 POP JUMP JUMPDEST PUSH1 0x0 DUP2 SWAP1 POP DUP2 PUSH1 0x0 MSTORE PUSH1 0x20 PUSH1 0x0 KECCAK256 SWAP1 POP SWAP2 SWAP1 POP JUMP JUMPDEST PUSH1 0x0 PUSH1 0x20 PUSH1 0x1F DUP4 ADD DIV SWAP1 POP SWAP2 SWAP1 POP JUMP JUMPDEST PUSH1 0x0 DUP3 DUP3 SHL SWAP1 POP SWAP3 SWAP2 POP POP JUMP JUMPDEST PUSH1 0x0 PUSH1 0x8 DUP4 MUL PUSH2 0x162D PUSH32 0xFFFFFFFFFFFFFFFFFFFFFFFFFFFFFFFFFFFFFFFFFFFFFFFFFFFFFFFFFFFFFFFF DUP3 PUSH2 0x15F0 JUMP JUMPDEST PUSH2 0x1637 DUP7 DUP4 PUSH2 0x15F0 JUMP JUMPDEST SWAP6 POP DUP1 NOT DUP5 AND SWAP4 POP DUP1 DUP7 AND DUP5 OR SWAP3 POP POP POP SWAP4 SWAP3 POP POP POP JUMP JUMPDEST PUSH1 0x0 DUP2 SWAP1 POP SWAP2 SWAP1 POP JUMP JUMPDEST PUSH1 0x0 PUSH2 0x1674 PUSH2 0x166F PUSH2 0x166A DUP5 PUSH2 0xDEB JUMP JUMPDEST PUSH2 0x164F JUMP JUMPDEST PUSH2 0xDEB JUMP JUMPDEST SWAP1 POP SWAP2 SWAP1 POP JUMP JUMPDEST PUSH1 0x0 DUP2 SWAP1 POP SWAP2 SWAP1 POP JUMP JUMPDEST PUSH2 0x168E DUP4 PUSH2 0x1659 JUMP JUMPDEST PUSH2 0x16A2 PUSH2 0x169A DUP3 PUSH2 0x167B JUMP JUMPDEST DUP5 DUP5 SLOAD PUSH2 0x15FD JUMP JUMPDEST DUP3 SSTORE POP POP POP POP JUMP JUMPDEST PUSH1 0x0 SWAP1 JUMP JUMPDEST PUSH2 0x16B7 PUSH2 0x16AA JUMP JUMPDEST PUSH2 0x16C2 DUP2 DUP5 DUP5 PUSH2 0x1685 JUMP JUMPDEST POP POP POP JUMP JUMPDEST JUMPDEST DUP2 DUP2 LT ISZERO PUSH2 0x16E6 JUMPI PUSH2 0x16DB PUSH1 0x0 DUP3 PUSH2 0x16AF JUMP JUMPDEST PUSH1 0x1 DUP2 ADD SWAP1 POP PUSH2 0x16C8 JUMP JUMPDEST POP POP JUMP JUMPDEST PUSH1 0x1F DUP3 GT ISZERO PUSH2 0x172B JUMPI PUSH2 0x16FC DUP2 PUSH2 0x15CB JUMP JUMPDEST PUSH2 0x1705 DUP5 PUSH2 0x15E0 JUMP JUMPDEST DUP2 ADD PUSH1 0x20 DUP6 LT ISZERO PUSH2 0x1714 JUMPI DUP2 SWAP1 POP JUMPDEST PUSH2 0x1728 PUSH2 0x1720 DUP6 PUSH2 0x15E0 JUMP JUMPDEST DUP4 ADD DUP3 PUSH2 0x16C7 JUMP JUMPDEST POP POP JUMPDEST POP POP POP JUMP JUMPDEST PUSH1 0x0 DUP3 DUP3 SHR SWAP1 POP SWAP3 SWAP2 POP POP JUMP JUMPDEST PUSH1 0x0 PUSH2 0x174E PUSH1 0x0 NOT DUP5 PUSH1 0x8 MUL PUSH2 0x1730 JUMP JUMPDEST NOT DUP1 DUP4 AND SWAP2 POP POP SWAP3 SWAP2 POP POP JUMP JUMPDEST PUSH1 0x0 PUSH2 0x1767 DUP4 DUP4 PUSH2 0x173D JUMP JUMPDEST SWAP2 POP DUP3 PUSH1 0x2 MUL DUP3 OR SWAP1 POP SWAP3 SWAP2 POP POP JUMP JUMPDEST PUSH2 0x1780 DUP3 PUSH2 0xF3E JUMP JUMPDEST PUSH8 0xFFFFFFFFFFFFFFFF DUP2 GT ISZERO PUSH2 0x1799 JUMPI PUSH2 0x1798 PUSH2 0xCC0 JUMP JUMPDEST JUMPDEST PUSH2 0x17A3 DUP3 SLOAD PUSH2 0x159A JUMP JUMPDEST PUSH2 0x17AE DUP3 DUP3 DUP6 PUSH2 0x16EA JUMP JUMPDEST PUSH1 0x0 PUSH1 0x20 SWAP1 POP PUSH1 0x1F DUP4 GT PUSH1 0x1 DUP2 EQ PUSH2 0x17E1 JUMPI PUSH1 0x0 DUP5 ISZERO PUSH2 0x17CF JUMPI DUP3 DUP8 ADD MLOAD SWAP1 POP JUMPDEST PUSH2 0x17D9 DUP6 DUP3 PUSH2 0x175B JUMP JUMPDEST DUP7 SSTORE POP PUSH2 0x1841 JUMP JUMPDEST PUSH1 0x1F NOT DUP5 AND PUSH2 0x17EF DUP7 PUSH2 0x15CB JUMP JUMPDEST PUSH1 0x0 JUMPDEST DUP3 DUP2 LT ISZERO PUSH2 0x1817 JUMPI DUP5 DUP10 ADD MLOAD DUP3 SSTORE PUSH1 0x1 DUP3 ADD SWAP2 POP PUSH1 0x20 DUP6 ADD SWAP5 POP PUSH1 0x20 DUP2 ADD SWAP1 POP PUSH2 0x17F2 JUMP JUMPDEST DUP7 DUP4 LT ISZERO PUSH2 0x1834 JUMPI DUP5 DUP10 ADD MLOAD PUSH2 0x1830 PUSH1 0x1F DUP10 AND DUP3 PUSH2 0x173D JUMP JUMPDEST DUP4 SSTORE POP JUMPDEST PUSH1 0x1 PUSH1 0x2 DUP9 MUL ADD DUP9 SSTORE POP POP POP JUMPDEST POP POP POP POP POP POP JUMP JUMPDEST PUSH32 0x50617469656E74206164646564207375636365737366756C6C79000000000000 PUSH1 0x0 DUP3 ADD MSTORE POP JUMP JUMPDEST PUSH1 0x0 PUSH2 0x187F PUSH1 0x1A DUP4 PUSH2 0x1499 JUMP JUMPDEST SWAP2 POP PUSH2 0x188A DUP3 PUSH2 0x1849 JUMP JUMPDEST PUSH1 0x20 DUP3 ADD SWAP1 POP SWAP2 SWAP1 POP JUMP JUMPDEST PUSH1 0x0 PUSH1 0x20 DUP3 ADD SWAP1 POP DUP2 DUP2 SUB PUSH1 0x0 DUP4 ADD MSTORE PUSH2 0x18AE DUP2 PUSH2 0x1872 JUMP JUMPDEST SWAP1 POP SWAP2 SWAP1 POP JUMP JUMPDEST PUSH32 0x6F6E6C7920686F73706974616C2063616E207570646174652074686520706174 PUSH1 0x0 DUP3 ADD MSTORE PUSH32 0x69656E74277320626C6F6F64207472616E73616374696F6E2064617461000000 PUSH1 0x20 DUP3 ADD MSTORE POP JUMP JUMPDEST PUSH1 0x0 PUSH2 0x1911 PUSH1 0x3D DUP4 PUSH2 0x1499 JUMP JUMPDEST SWAP2 POP PUSH2 0x191C DUP3 PUSH2 0x18B5 JUMP JUMPDEST PUSH1 0x40 DUP3 ADD SWAP1 POP SWAP2 SWAP1 POP JUMP JUMPDEST PUSH1 0x0 PUSH1 0x20 DUP3 ADD SWAP1 POP DUP2 DUP2 SUB PUSH1 0x0 DUP4 ADD MSTORE PUSH2 0x1940 DUP2 PUSH2 0x1904 JUMP JUMPDEST SWAP1 POP SWAP2 SWAP1 POP JUMP JUMPDEST PUSH32 0x50617469656E7420626C6F6F64207472616E73616374696F6E20646174612069 PUSH1 0x0 DUP3 ADD MSTORE PUSH32 0x732075706461746564207375636365737366756C6C7900000000000000000000 PUSH1 0x20 DUP3 ADD MSTORE POP JUMP JUMPDEST PUSH1 0x0 PUSH2 0x19A3 PUSH1 0x36 DUP4 PUSH2 0x1499 JUMP JUMPDEST SWAP2 POP PUSH2 0x19AE DUP3 PUSH2 0x1947 JUMP JUMPDEST PUSH1 0x40 DUP3 ADD SWAP1 POP SWAP2 SWAP1 POP JUMP JUMPDEST PUSH1 0x0 PUSH1 0x20 DUP3 ADD SWAP1 POP DUP2 DUP2 SUB PUSH1 0x0 DUP4 ADD MSTORE PUSH2 0x19D2 DUP2 PUSH2 0x1996 JUMP JUMPDEST SWAP1 POP SWAP2 SWAP1 POP JUMP INVALID LOG2 PUSH5 0x6970667358 0x22 SLT KECCAK256 DUP12 0xA8 JUMP COINBASE DUP11 0xD4 GASLIMIT 0xF 0x5D SWAP4 XOR BALANCE 0x4C 0xE3 0xAF 0xFC JUMPDEST 0xFB GASPRICE 0xAB MSTORE 0xCE PUSH24 0x3D83F080F938292B6564736F6C6343000812003300000000 "
				},
				"gasEstimates": {
					"creation": {
						"codeDepositCost": "1334200",
						"executionCost": "25656",
						"totalCost": "1359856"
					},
					"external": {
						"bloodTransaction(uint256,uint8,address,address)": "infinite",
						"getAllRecord()": "infinite",
						"getPatientRecord(uint256)": "infinite",
						"newPatient(string,uint256,string,uint256,string,uint256)": "infinite"
					}
				},
				"methodIdentifiers": {
					"bloodTransaction(uint256,uint8,address,address)": "f2c4e0c6",
					"getAllRecord()": "d5a9f003",
					"getPatientRecord(uint256)": "b9fff11b",
					"newPatient(string,uint256,string,uint256,string,uint256)": "9954f30a"
				}
			},
			"storageLayout": {
				"storage": [
					{
						"astId": 3,
						"contract": "solidity.sol:BloodBank",
						"label": "owner",
						"offset": 0,
						"slot": "0",
						"type": "t_address"
					},
					{
						"astId": 46,
						"contract": "solidity.sol:BloodBank",
						"label": "PatientRecord",
						"offset": 0,
						"slot": "1",
						"type": "t_array(t_struct(Patient)42_storage)dyn_storage"
					},
					{
						"astId": 50,
						"contract": "solidity.sol:BloodBank",
						"label": "PatientRecordIndex",
						"offset": 0,
						"slot": "2",
						"type": "t_mapping(t_uint256,t_uint256)"
					}
				],
				"types": {
					"t_address": {
						"encoding": "inplace",
						"label": "address",
						"numberOfBytes": "20"
					},
					"t_array(t_struct(BloodTransaction)25_storage)dyn_storage": {
						"base": "t_struct(BloodTransaction)25_storage",
						"encoding": "dynamic_array",
						"label": "struct BloodBank.BloodTransaction[]",
						"numberOfBytes": "32"
					},
					"t_array(t_struct(Patient)42_storage)dyn_storage": {
						"base": "t_struct(Patient)42_storage",
						"encoding": "dynamic_array",
						"label": "struct BloodBank.Patient[]",
						"numberOfBytes": "32"
					},
					"t_enum(PatientType)15": {
						"encoding": "inplace",
						"label": "enum BloodBank.PatientType",
						"numberOfBytes": "1"
					},
					"t_mapping(t_uint256,t_uint256)": {
						"encoding": "mapping",
						"key": "t_uint256",
						"label": "mapping(uint256 => uint256)",
						"numberOfBytes": "32",
						"value": "t_uint256"
					},
					"t_string_storage": {
						"encoding": "bytes",
						"label": "string",
						"numberOfBytes": "32"
					},
					"t_struct(BloodTransaction)25_storage": {
						"encoding": "inplace",
						"label": "struct BloodBank.BloodTransaction",
						"members": [
							{
								"astId": 18,
								"contract": "solidity.sol:BloodBank",
								"label": "patientType",
								"offset": 0,
								"slot": "0",
								"type": "t_enum(PatientType)15"
							},
							{
								"astId": 20,
								"contract": "solidity.sol:BloodBank",
								"label": "time",
								"offset": 0,
								"slot": "1",
								"type": "t_uint256"
							},
							{
								"astId": 22,
								"contract": "solidity.sol:BloodBank",
								"label": "from",
								"offset": 0,
								"slot": "2",
								"type": "t_address"
							},
							{
								"astId": 24,
								"contract": "solidity.sol:BloodBank",
								"label": "to",
								"offset": 0,
								"slot": "3",
								"type": "t_address"
							}
						],
						"numberOfBytes": "128"
					},
					"t_struct(Patient)42_storage": {
						"encoding": "inplace",
						"label": "struct BloodBank.Patient",
						"members": [
							{
								"astId": 27,
								"contract": "solidity.sol:BloodBank",
								"label": "aadhar",
								"offset": 0,
								"slot": "0",
								"type": "t_uint256"
							},
							{
								"astId": 29,
								"contract": "solidity.sol:BloodBank",
								"label": "name",
								"offset": 0,
								"slot": "1",
								"type": "t_string_storage"
							},
							{
								"astId": 31,
								"contract": "solidity.sol:BloodBank",
								"label": "age",
								"offset": 0,
								"slot": "2",
								"type": "t_uint256"
							},
							{
								"astId": 33,
								"contract": "solidity.sol:BloodBank",
								"label": "bloodGroup",
								"offset": 0,
								"slot": "3",
								"type": "t_string_storage"
							},
							{
								"astId": 35,
								"contract": "solidity.sol:BloodBank",
								"label": "contact",
								"offset": 0,
								"slot": "4",
								"type": "t_uint256"
							},
							{
								"astId": 37,
								"contract": "solidity.sol:BloodBank",
								"label": "homeAddress",
								"offset": 0,
								"slot": "5",
								"type": "t_string_storage"
							},
							{
								"astId": 41,
								"contract": "solidity.sol:BloodBank",
								"label": "bT",
								"offset": 0,
								"slot": "6",
								"type": "t_array(t_struct(BloodTransaction)25_storage)dyn_storage"
							}
						],
						"numberOfBytes": "224"
					},
					"t_uint256": {
						"encoding": "inplace",
						"label": "uint256",
						"numberOfBytes": "32"
					}
				}
			},
			"userdoc": {
				"kind": "user",
				"methods": {},
				"version": 1
			}
		}
	}
}