{
	"project.sol": {
		"youtubeChanelFundReice": {
			"abi": [
				{
					"inputs": [
						{
							"internalType": "uint256",
							"name": "_totalFundReq",
							"type": "uint256"
						},
						{
							"internalType": "uint256",
							"name": "_endTime",
							"type": "uint256"
						}
					],
					"stateMutability": "nonpayable",
					"type": "constructor"
				},
				{
					"inputs": [],
					"name": "checkBalance",
					"outputs": [
						{
							"internalType": "uint256",
							"name": "",
							"type": "uint256"
						}
					],
					"stateMutability": "view",
					"type": "function"
				},
				{
					"inputs": [],
					"name": "claimedFunction",
					"outputs": [],
					"stateMutability": "nonpayable",
					"type": "function"
				},
				{
					"inputs": [],
					"name": "claimedFund",
					"outputs": [
						{
							"internalType": "bool",
							"name": "",
							"type": "bool"
						}
					],
					"stateMutability": "view",
					"type": "function"
				},
				{
					"inputs": [
						{
							"internalType": "uint256",
							"name": "_votingEndTime",
							"type": "uint256"
						}
					],
					"name": "controlingVotingSystem",
					"outputs": [],
					"stateMutability": "nonpayable",
					"type": "function"
				},
				{
					"inputs": [],
					"name": "depositeFunction",
					"outputs": [],
					"stateMutability": "payable",
					"type": "function"
				},
				{
					"inputs": [
						{
							"internalType": "address",
							"name": "",
							"type": "address"
						}
					],
					"name": "donars",
					"outputs": [
						{
							"internalType": "uint256",
							"name": "",
							"type": "uint256"
						}
					],
					"stateMutability": "view",
					"type": "function"
				},
				{
					"inputs": [],
					"name": "endTime",
					"outputs": [
						{
							"internalType": "uint256",
							"name": "",
							"type": "uint256"
						}
					],
					"stateMutability": "view",
					"type": "function"
				},
				{
					"inputs": [],
					"name": "owner",
					"outputs": [
						{
							"internalType": "address payable",
							"name": "",
							"type": "address"
						}
					],
					"stateMutability": "view",
					"type": "function"
				},
				{
					"inputs": [],
					"name": "puteVoting",
					"outputs": [
						{
							"internalType": "uint256",
							"name": "",
							"type": "uint256"
						}
					],
					"stateMutability": "view",
					"type": "function"
				},
				{
					"inputs": [],
					"name": "puteVotingHere",
					"outputs": [],
					"stateMutability": "nonpayable",
					"type": "function"
				},
				{
					"inputs": [],
					"name": "totalDonors",
					"outputs": [
						{
							"internalType": "uint256",
							"name": "",
							"type": "uint256"
						}
					],
					"stateMutability": "view",
					"type": "function"
				},
				{
					"inputs": [],
					"name": "totalFundReice",
					"outputs": [
						{
							"internalType": "uint256",
							"name": "",
							"type": "uint256"
						}
					],
					"stateMutability": "view",
					"type": "function"
				},
				{
					"inputs": [],
					"name": "totalFundReq",
					"outputs": [
						{
							"internalType": "uint256",
							"name": "",
							"type": "uint256"
						}
					],
					"stateMutability": "view",
					"type": "function"
				},
				{
					"inputs": [],
					"name": "totalVoting",
					"outputs": [
						{
							"internalType": "uint256",
							"name": "",
							"type": "uint256"
						}
					],
					"stateMutability": "view",
					"type": "function"
				},
				{
					"inputs": [
						{
							"internalType": "address",
							"name": "",
							"type": "address"
						}
					],
					"name": "voted",
					"outputs": [
						{
							"internalType": "bool",
							"name": "",
							"type": "bool"
						}
					],
					"stateMutability": "view",
					"type": "function"
				},
				{
					"inputs": [],
					"name": "votingEndTime",
					"outputs": [
						{
							"internalType": "uint256",
							"name": "",
							"type": "uint256"
						}
					],
					"stateMutability": "view",
					"type": "function"
				},
				{
					"inputs": [],
					"name": "votingStatus",
					"outputs": [
						{
							"internalType": "bool",
							"name": "",
							"type": "bool"
						}
					],
					"stateMutability": "view",
					"type": "function"
				}
			],
			"devdoc": {
				"kind": "dev",
				"methods": {},
				"version": 1
			},
			"evm": {
				"assembly": "    /* \"project.sol\":67:3205  contract youtubeChanelFundReice{... */\n  mstore(0x40, 0x80)\n    /* \"project.sol\":364:365  1 */\n  0x01\n    /* \"project.sol\":348:365  uint totalAsk = 1 */\n  0x08\n  sstore\n    /* \"project.sol\":757:937  constructor(uint _totalFundReq,uint _endTime ){... */\n  callvalue\n  dup1\n  iszero\n  tag_1\n  jumpi\n  0x00\n  dup1\n  revert\ntag_1:\n  pop\n  mload(0x40)\n  sub(codesize, bytecodeSize)\n  dup1\n  bytecodeSize\n  dup4\n  codecopy\n  dup2\n  dup2\n  add\n  0x40\n  mstore\n  dup2\n  add\n  swap1\n  tag_2\n  swap2\n  swap1\n  tag_3\n  jump\t// in\ntag_2:\n    /* \"project.sol\":830:840  msg.sender */\n  caller\n    /* \"project.sol\":814:819  owner */\n  0x00\n  dup1\n    /* \"project.sol\":814:841  owner = payable(msg.sender) */\n  0x0100\n  exp\n  dup2\n  sload\n  dup2\n  0xffffffffffffffffffffffffffffffffffffffff\n  mul\n  not\n  and\n  swap1\n  dup4\n  0xffffffffffffffffffffffffffffffffffffffff\n  and\n  mul\n  or\n  swap1\n  sstore\n  pop\n    /* \"project.sol\":869:882  _totalFundReq */\n  dup2\n    /* \"project.sol\":852:866  totalFundReice */\n  0x02\n    /* \"project.sol\":852:882  totalFundReice = _totalFundReq */\n  dup2\n  swap1\n  sstore\n  pop\n    /* \"project.sol\":921:929  _endTime */\n  dup1\n    /* \"project.sol\":903:918  block.timestamp */\n  timestamp\n    /* \"project.sol\":903:929  block.timestamp + _endTime */\n  tag_6\n  swap2\n  swap1\n  tag_7\n  jump\t// in\ntag_6:\n    /* \"project.sol\":893:900  endTime */\n  0x09\n    /* \"project.sol\":893:929  endTime = block.timestamp + _endTime */\n  dup2\n  swap1\n  sstore\n  pop\n    /* \"project.sol\":757:937  constructor(uint _totalFundReq,uint _endTime ){... */\n  pop\n  pop\n    /* \"project.sol\":67:3205  contract youtubeChanelFundReice{... */\n  jump(tag_8)\n    /* \"#utility.yul\":88:205   */\ntag_10:\n    /* \"#utility.yul\":197:198   */\n  0x00\n    /* \"#utility.yul\":194:195   */\n  dup1\n    /* \"#utility.yul\":187:199   */\n  revert\n    /* \"#utility.yul\":334:411   */\ntag_12:\n    /* \"#utility.yul\":371:378   */\n  0x00\n    /* \"#utility.yul\":400:405   */\n  dup2\n    /* \"#utility.yul\":389:405   */\n  swap1\n  pop\n    /* \"#utility.yul\":334:411   */\n  swap2\n  swap1\n  pop\n  jump\t// out\n    /* \"#utility.yul\":417:539   */\ntag_13:\n    /* \"#utility.yul\":490:514   */\n  tag_22\n    /* \"#utility.yul\":508:513   */\n  dup2\n    /* \"#utility.yul\":490:514   */\n  tag_12\n  jump\t// in\ntag_22:\n    /* \"#utility.yul\":483:488   */\n  dup2\n    /* \"#utility.yul\":480:515   */\n  eq\n    /* \"#utility.yul\":470:533   */\n  tag_23\n  jumpi\n    /* \"#utility.yul\":529:530   */\n  0x00\n    /* \"#utility.yul\":526:527   */\n  dup1\n    /* \"#utility.yul\":519:531   */\n  revert\n    /* \"#utility.yul\":470:533   */\ntag_23:\n    /* \"#utility.yul\":417:539   */\n  pop\n  jump\t// out\n    /* \"#utility.yul\":545:688   */\ntag_14:\n    /* \"#utility.yul\":602:607   */\n  0x00\n    /* \"#utility.yul\":633:639   */\n  dup2\n    /* \"#utility.yul\":627:640   */\n  mload\n    /* \"#utility.yul\":618:640   */\n  swap1\n  pop\n    /* \"#utility.yul\":649:682   */\n  tag_25\n    /* \"#utility.yul\":676:681   */\n  dup2\n    /* \"#utility.yul\":649:682   */\n  tag_13\n  jump\t// in\ntag_25:\n    /* \"#utility.yul\":545:688   */\n  swap3\n  swap2\n  pop\n  pop\n  jump\t// out\n    /* \"#utility.yul\":694:1201   */\ntag_3:\n    /* \"#utility.yul\":773:779   */\n  0x00\n    /* \"#utility.yul\":781:787   */\n  dup1\n    /* \"#utility.yul\":830:832   */\n  0x40\n    /* \"#utility.yul\":818:827   */\n  dup4\n    /* \"#utility.yul\":809:816   */\n  dup6\n    /* \"#utility.yul\":805:828   */\n  sub\n    /* \"#utility.yul\":801:833   */\n  slt\n    /* \"#utility.yul\":798:917   */\n  iszero\n  tag_27\n  jumpi\n    /* \"#utility.yul\":836:915   */\n  tag_28\n  tag_10\n  jump\t// in\ntag_28:\n    /* \"#utility.yul\":798:917   */\ntag_27:\n    /* \"#utility.yul\":956:957   */\n  0x00\n    /* \"#utility.yul\":981:1045   */\n  tag_29\n    /* \"#utility.yul\":1037:1044   */\n  dup6\n    /* \"#utility.yul\":1028:1034   */\n  dup3\n    /* \"#utility.yul\":1017:1026   */\n  dup7\n    /* \"#utility.yul\":1013:1035   */\n  add\n    /* \"#utility.yul\":981:1045   */\n  tag_14\n  jump\t// in\ntag_29:\n    /* \"#utility.yul\":971:1045   */\n  swap3\n  pop\n    /* \"#utility.yul\":927:1055   */\n  pop\n    /* \"#utility.yul\":1094:1096   */\n  0x20\n    /* \"#utility.yul\":1120:1184   */\n  tag_30\n    /* \"#utility.yul\":1176:1183   */\n  dup6\n    /* \"#utility.yul\":1167:1173   */\n  dup3\n    /* \"#utility.yul\":1156:1165   */\n  dup7\n    /* \"#utility.yul\":1152:1174   */\n  add\n    /* \"#utility.yul\":1120:1184   */\n  tag_14\n  jump\t// in\ntag_30:\n    /* \"#utility.yul\":1110:1184   */\n  swap2\n  pop\n    /* \"#utility.yul\":1065:1194   */\n  pop\n    /* \"#utility.yul\":694:1201   */\n  swap3\n  pop\n  swap3\n  swap1\n  pop\n  jump\t// out\n    /* \"#utility.yul\":1207:1387   */\ntag_15:\n    /* \"#utility.yul\":1255:1332   */\n  0x4e487b7100000000000000000000000000000000000000000000000000000000\n    /* \"#utility.yul\":1252:1253   */\n  0x00\n    /* \"#utility.yul\":1245:1333   */\n  mstore\n    /* \"#utility.yul\":1352:1356   */\n  0x11\n    /* \"#utility.yul\":1349:1350   */\n  0x04\n    /* \"#utility.yul\":1342:1357   */\n  mstore\n    /* \"#utility.yul\":1376:1380   */\n  0x24\n    /* \"#utility.yul\":1373:1374   */\n  0x00\n    /* \"#utility.yul\":1366:1381   */\n  revert\n    /* \"#utility.yul\":1393:1584   */\ntag_7:\n    /* \"#utility.yul\":1433:1436   */\n  0x00\n    /* \"#utility.yul\":1452:1472   */\n  tag_33\n    /* \"#utility.yul\":1470:1471   */\n  dup3\n    /* \"#utility.yul\":1452:1472   */\n  tag_12\n  jump\t// in\ntag_33:\n    /* \"#utility.yul\":1447:1472   */\n  swap2\n  pop\n    /* \"#utility.yul\":1486:1506   */\n  tag_34\n    /* \"#utility.yul\":1504:1505   */\n  dup4\n    /* \"#utility.yul\":1486:1506   */\n  tag_12\n  jump\t// in\ntag_34:\n    /* \"#utility.yul\":1481:1506   */\n  swap3\n  pop\n    /* \"#utility.yul\":1529:1530   */\n  dup3\n    /* \"#utility.yul\":1526:1527   */\n  dup3\n    /* \"#utility.yul\":1522:1531   */\n  add\n    /* \"#utility.yul\":1515:1531   */\n  swap1\n  pop\n    /* \"#utility.yul\":1550:1553   */\n  dup1\n    /* \"#utility.yul\":1547:1548   */\n  dup3\n    /* \"#utility.yul\":1544:1554   */\n  gt\n    /* \"#utility.yul\":1541:1577   */\n  iszero\n  tag_35\n  jumpi\n    /* \"#utility.yul\":1557:1575   */\n  tag_36\n  tag_15\n  jump\t// in\ntag_36:\n    /* \"#utility.yul\":1541:1577   */\ntag_35:\n    /* \"#utility.yul\":1393:1584   */\n  swap3\n  swap2\n  pop\n  pop\n  jump\t// out\n    /* \"project.sol\":67:3205  contract youtubeChanelFundReice{... */\ntag_8:\n  dataSize(sub_0)\n  dup1\n  dataOffset(sub_0)\n  0x00\n  codecopy\n  0x00\n  return\nstop\n\nsub_0: assembly {\n        /* \"project.sol\":67:3205  contract youtubeChanelFundReice{... */\n      mstore(0x40, 0x80)\n      jumpi(tag_1, lt(calldatasize, 0x04))\n      shr(0xe0, calldataload(0x00))\n      dup1\n      0x3cfe8d23\n      gt\n      tag_19\n      jumpi\n      dup1\n      0xaec2ccae\n      gt\n      tag_20\n      jumpi\n      dup1\n      0xaec2ccae\n      eq\n      tag_14\n      jumpi\n      dup1\n      0xc6b79c61\n      eq\n      tag_15\n      jumpi\n      dup1\n      0xc71daccb\n      eq\n      tag_16\n      jumpi\n      dup1\n      0xe4fbe65e\n      eq\n      tag_17\n      jumpi\n      dup1\n      0xecf87fa1\n      eq\n      tag_18\n      jumpi\n      jump(tag_1)\n    tag_20:\n      dup1\n      0x3cfe8d23\n      eq\n      tag_10\n      jumpi\n      dup1\n      0x5d96aa43\n      eq\n      tag_11\n      jumpi\n      dup1\n      0x5da42035\n      eq\n      tag_12\n      jumpi\n      dup1\n      0x8da5cb5b\n      eq\n      tag_13\n      jumpi\n      jump(tag_1)\n    tag_19:\n      dup1\n      0x1ea736e0\n      gt\n      tag_21\n      jumpi\n      dup1\n      0x1ea736e0\n      eq\n      tag_6\n      jumpi\n      dup1\n      0x25c302e4\n      eq\n      tag_7\n      jumpi\n      dup1\n      0x2eb9b695\n      eq\n      tag_8\n      jumpi\n      dup1\n      0x3197cbb6\n      eq\n      tag_9\n      jumpi\n      jump(tag_1)\n    tag_21:\n      dup1\n      0x076887e8\n      eq\n      tag_2\n      jumpi\n      dup1\n      0x11377e50\n      eq\n      tag_3\n      jumpi\n      dup1\n      0x19f41a40\n      eq\n      tag_4\n      jumpi\n      dup1\n      0x1dd83a49\n      eq\n      tag_5\n      jumpi\n    tag_1:\n      0x00\n      dup1\n      revert\n        /* \"project.sol\":171:197  uint public totalFundReice */\n    tag_2:\n      callvalue\n      dup1\n      iszero\n      tag_22\n      jumpi\n      0x00\n      dup1\n      revert\n    tag_22:\n      pop\n      tag_23\n      tag_24\n      jump\t// in\n    tag_23:\n      mload(0x40)\n      tag_25\n      swap2\n      swap1\n      tag_26\n      jump\t// in\n    tag_25:\n      mload(0x40)\n      dup1\n      swap2\n      sub\n      swap1\n      return\n        /* \"project.sol\":1009:1496  function depositeFunction() external payable{... */\n    tag_3:\n      tag_27\n      tag_28\n      jump\t// in\n    tag_27:\n      stop\n        /* \"project.sol\":398:422  bool public votingStatus */\n    tag_4:\n      callvalue\n      dup1\n      iszero\n      tag_29\n      jumpi\n      0x00\n      dup1\n      revert\n    tag_29:\n      pop\n      tag_30\n      tag_31\n      jump\t// in\n    tag_30:\n      mload(0x40)\n      tag_32\n      swap2\n      swap1\n      tag_33\n      jump\t// in\n    tag_32:\n      mload(0x40)\n      dup1\n      swap2\n      sub\n      swap1\n      return\n        /* \"project.sol\":234:257  uint public totalVoting */\n    tag_5:\n      callvalue\n      dup1\n      iszero\n      tag_34\n      jumpi\n      0x00\n      dup1\n      revert\n    tag_34:\n      pop\n      tag_35\n      tag_36\n      jump\t// in\n    tag_35:\n      mload(0x40)\n      tag_37\n      swap2\n      swap1\n      tag_26\n      jump\t// in\n    tag_37:\n      mload(0x40)\n      dup1\n      swap2\n      sub\n      swap1\n      return\n        /* \"project.sol\":264:289  uint public votingEndTime */\n    tag_6:\n      callvalue\n      dup1\n      iszero\n      tag_38\n      jumpi\n      0x00\n      dup1\n      revert\n    tag_38:\n      pop\n      tag_39\n      tag_40\n      jump\t// in\n    tag_39:\n      mload(0x40)\n      tag_41\n      swap2\n      swap1\n      tag_26\n      jump\t// in\n    tag_41:\n      mload(0x40)\n      dup1\n      swap2\n      sub\n      swap1\n      return\n        /* \"project.sol\":204:227  uint public totalDonors */\n    tag_7:\n      callvalue\n      dup1\n      iszero\n      tag_42\n      jumpi\n      0x00\n      dup1\n      revert\n    tag_42:\n      pop\n      tag_43\n      tag_44\n      jump\t// in\n    tag_43:\n      mload(0x40)\n      tag_45\n      swap2\n      swap1\n      tag_26\n      jump\t// in\n    tag_45:\n      mload(0x40)\n      dup1\n      swap2\n      sub\n      swap1\n      return\n        /* \"project.sol\":429:452  bool public claimedFund */\n    tag_8:\n      callvalue\n      dup1\n      iszero\n      tag_46\n      jumpi\n      0x00\n      dup1\n      revert\n    tag_46:\n      pop\n      tag_47\n      tag_48\n      jump\t// in\n    tag_47:\n      mload(0x40)\n      tag_49\n      swap2\n      swap1\n      tag_33\n      jump\t// in\n    tag_49:\n      mload(0x40)\n      dup1\n      swap2\n      sub\n      swap1\n      return\n        /* \"project.sol\":372:391  uint public endTime */\n    tag_9:\n      callvalue\n      dup1\n      iszero\n      tag_50\n      jumpi\n      0x00\n      dup1\n      revert\n    tag_50:\n      pop\n      tag_51\n      tag_52\n      jump\t// in\n    tag_51:\n      mload(0x40)\n      tag_53\n      swap2\n      swap1\n      tag_26\n      jump\t// in\n    tag_53:\n      mload(0x40)\n      dup1\n      swap2\n      sub\n      swap1\n      return\n        /* \"project.sol\":1613:1906  function controlingVotingSystem(uint _votingEndTime) external{... */\n    tag_10:\n      callvalue\n      dup1\n      iszero\n      tag_54\n      jumpi\n      0x00\n      dup1\n      revert\n    tag_54:\n      pop\n      tag_55\n      0x04\n      dup1\n      calldatasize\n      sub\n      dup2\n      add\n      swap1\n      tag_56\n      swap2\n      swap1\n      tag_57\n      jump\t// in\n    tag_56:\n      tag_58\n      jump\t// in\n    tag_55:\n      stop\n        /* \"project.sol\":1914:2294  function puteVotingHere() external {... */\n    tag_11:\n      callvalue\n      dup1\n      iszero\n      tag_59\n      jumpi\n      0x00\n      dup1\n      revert\n    tag_59:\n      pop\n      tag_60\n      tag_61\n      jump\t// in\n    tag_60:\n      stop\n        /* \"project.sol\":2302:3202  function claimedFunction() public {... */\n    tag_12:\n      callvalue\n      dup1\n      iszero\n      tag_62\n      jumpi\n      0x00\n      dup1\n      revert\n    tag_62:\n      pop\n      tag_63\n      tag_64\n      jump\t// in\n    tag_63:\n      stop\n        /* \"project.sol\":105:133  address payable public owner */\n    tag_13:\n      callvalue\n      dup1\n      iszero\n      tag_65\n      jumpi\n      0x00\n      dup1\n      revert\n    tag_65:\n      pop\n      tag_66\n      tag_67\n      jump\t// in\n    tag_66:\n      mload(0x40)\n      tag_68\n      swap2\n      swap1\n      tag_69\n      jump\t// in\n    tag_68:\n      mload(0x40)\n      dup1\n      swap2\n      sub\n      swap1\n      return\n        /* \"project.sol\":627:664  mapping(address => bool) public voted */\n    tag_14:\n      callvalue\n      dup1\n      iszero\n      tag_70\n      jumpi\n      0x00\n      dup1\n      revert\n    tag_70:\n      pop\n      tag_71\n      0x04\n      dup1\n      calldatasize\n      sub\n      dup2\n      add\n      swap1\n      tag_72\n      swap2\n      swap1\n      tag_73\n      jump\t// in\n    tag_72:\n      tag_74\n      jump\t// in\n    tag_71:\n      mload(0x40)\n      tag_75\n      swap2\n      swap1\n      tag_33\n      jump\t// in\n    tag_75:\n      mload(0x40)\n      dup1\n      swap2\n      sub\n      swap1\n      return\n        /* \"project.sol\":319:341  uint public puteVoting */\n    tag_15:\n      callvalue\n      dup1\n      iszero\n      tag_76\n      jumpi\n      0x00\n      dup1\n      revert\n    tag_76:\n      pop\n      tag_77\n      tag_78\n      jump\t// in\n    tag_77:\n      mload(0x40)\n      tag_79\n      swap2\n      swap1\n      tag_26\n      jump\t// in\n    tag_79:\n      mload(0x40)\n      dup1\n      swap2\n      sub\n      swap1\n      return\n        /* \"project.sol\":1504:1601  function checkBalance() external view returns(uint){... */\n    tag_16:\n      callvalue\n      dup1\n      iszero\n      tag_80\n      jumpi\n      0x00\n      dup1\n      revert\n    tag_80:\n      pop\n      tag_81\n      tag_82\n      jump\t// in\n    tag_81:\n      mload(0x40)\n      tag_83\n      swap2\n      swap1\n      tag_26\n      jump\t// in\n    tag_83:\n      mload(0x40)\n      dup1\n      swap2\n      sub\n      swap1\n      return\n        /* \"project.sol\":140:164  uint public totalFundReq */\n    tag_17:\n      callvalue\n      dup1\n      iszero\n      tag_84\n      jumpi\n      0x00\n      dup1\n      revert\n    tag_84:\n      pop\n      tag_85\n      tag_86\n      jump\t// in\n    tag_85:\n      mload(0x40)\n      tag_87\n      swap2\n      swap1\n      tag_26\n      jump\t// in\n    tag_87:\n      mload(0x40)\n      dup1\n      swap2\n      sub\n      swap1\n      return\n        /* \"project.sol\":516:552  mapping(address=>uint) public donars */\n    tag_18:\n      callvalue\n      dup1\n      iszero\n      tag_88\n      jumpi\n      0x00\n      dup1\n      revert\n    tag_88:\n      pop\n      tag_89\n      0x04\n      dup1\n      calldatasize\n      sub\n      dup2\n      add\n      swap1\n      tag_90\n      swap2\n      swap1\n      tag_73\n      jump\t// in\n    tag_90:\n      tag_91\n      jump\t// in\n    tag_89:\n      mload(0x40)\n      tag_92\n      swap2\n      swap1\n      tag_26\n      jump\t// in\n    tag_92:\n      mload(0x40)\n      dup1\n      swap2\n      sub\n      swap1\n      return\n        /* \"project.sol\":171:197  uint public totalFundReice */\n    tag_24:\n      sload(0x02)\n      dup2\n      jump\t// out\n        /* \"project.sol\":1009:1496  function depositeFunction() external payable{... */\n    tag_28:\n        /* \"project.sol\":1088:1095  endTime */\n      sload(0x09)\n        /* \"project.sol\":1072:1087  block.timestamp */\n      timestamp\n        /* \"project.sol\":1072:1095  block.timestamp<endTime */\n      lt\n        /* \"project.sol\":1064:1124  require(block.timestamp<endTime,\"function also going well!\") */\n      tag_94\n      jumpi\n      mload(0x40)\n      0x08c379a000000000000000000000000000000000000000000000000000000000\n      dup2\n      mstore\n      0x04\n      add\n      tag_95\n      swap1\n      tag_96\n      jump\t// in\n    tag_95:\n      mload(0x40)\n      dup1\n      swap2\n      sub\n      swap1\n      revert\n    tag_94:\n        /* \"project.sol\":1157:1162  owner */\n      0x00\n      dup1\n      sload\n      swap1\n      0x0100\n      exp\n      swap1\n      div\n      0xffffffffffffffffffffffffffffffffffffffff\n      and\n        /* \"project.sol\":1143:1162  msg.sender != owner */\n      0xffffffffffffffffffffffffffffffffffffffff\n      and\n        /* \"project.sol\":1143:1153  msg.sender */\n      caller\n        /* \"project.sol\":1143:1162  msg.sender != owner */\n      0xffffffffffffffffffffffffffffffffffffffff\n      and\n      sub\n        /* \"project.sol\":1135:1191  require(msg.sender != owner,\"you can't give any money!\") */\n      tag_97\n      jumpi\n      mload(0x40)\n      0x08c379a000000000000000000000000000000000000000000000000000000000\n      dup2\n      mstore\n      0x04\n      add\n      tag_98\n      swap1\n      tag_99\n      jump\t// in\n    tag_98:\n      mload(0x40)\n      dup1\n      swap2\n      sub\n      swap1\n      revert\n    tag_97:\n        /* \"project.sol\":1223:1224  0 */\n      0x00\n        /* \"project.sol\":1210:1219  msg.value */\n      callvalue\n        /* \"project.sol\":1210:1224  msg.value == 0 */\n      eq\n        /* \"project.sol\":1202:1261  require(msg.value == 0,\"you can't give 0 miniuem given 1!\") */\n      tag_100\n      jumpi\n      mload(0x40)\n      0x08c379a000000000000000000000000000000000000000000000000000000000\n      dup2\n      mstore\n      0x04\n      add\n      tag_101\n      swap1\n      tag_102\n      jump\t// in\n    tag_101:\n      mload(0x40)\n      dup1\n      swap2\n      sub\n      swap1\n      revert\n    tag_100:\n        /* \"project.sol\":1334:1335  0 */\n      0x00\n        /* \"project.sol\":1314:1320  donars */\n      0x0b\n        /* \"project.sol\":1314:1332  donars[msg.sender] */\n      0x00\n        /* \"project.sol\":1321:1331  msg.sender */\n      caller\n        /* \"project.sol\":1314:1332  donars[msg.sender] */\n      0xffffffffffffffffffffffffffffffffffffffff\n      and\n      0xffffffffffffffffffffffffffffffffffffffff\n      and\n      dup2\n      mstore\n      0x20\n      add\n      swap1\n      dup2\n      mstore\n      0x20\n      add\n      0x00\n      keccak256\n      sload\n        /* \"project.sol\":1314:1335  donars[msg.sender]==0 */\n      sub\n        /* \"project.sol\":1311:1377  if(donars[msg.sender]==0){... */\n      tag_103\n      jumpi\n        /* \"project.sol\":1351:1362  totalDonors */\n      0x03\n      0x00\n        /* \"project.sol\":1351:1365  totalDonors ++ */\n      dup2\n      sload\n      dup1\n      swap3\n      swap2\n      swap1\n      tag_104\n      swap1\n      tag_105\n      jump\t// in\n    tag_104:\n      swap2\n      swap1\n      pop\n      sstore\n      pop\n        /* \"project.sol\":1311:1377  if(donars[msg.sender]==0){... */\n    tag_103:\n        /* \"project.sol\":1427:1436  msg.value */\n      callvalue\n        /* \"project.sol\":1406:1412  donars */\n      0x0b\n        /* \"project.sol\":1406:1424  donars[msg.sender] */\n      0x00\n        /* \"project.sol\":1413:1423  msg.sender */\n      caller\n        /* \"project.sol\":1406:1424  donars[msg.sender] */\n      0xffffffffffffffffffffffffffffffffffffffff\n      and\n      0xffffffffffffffffffffffffffffffffffffffff\n      and\n      dup2\n      mstore\n      0x20\n      add\n      swap1\n      dup2\n      mstore\n      0x20\n      add\n      0x00\n      keccak256\n      sload\n        /* \"project.sol\":1406:1436  donars[msg.sender] + msg.value */\n      tag_106\n      swap2\n      swap1\n      tag_107\n      jump\t// in\n    tag_106:\n        /* \"project.sol\":1385:1391  donars */\n      0x0b\n        /* \"project.sol\":1385:1403  donars[msg.sender] */\n      0x00\n        /* \"project.sol\":1392:1402  msg.sender */\n      caller\n        /* \"project.sol\":1385:1403  donars[msg.sender] */\n      0xffffffffffffffffffffffffffffffffffffffff\n      and\n      0xffffffffffffffffffffffffffffffffffffffff\n      and\n      dup2\n      mstore\n      0x20\n      add\n      swap1\n      dup2\n      mstore\n      0x20\n      add\n      0x00\n      keccak256\n        /* \"project.sol\":1385:1436  donars[msg.sender] = donars[msg.sender] + msg.value */\n      dup2\n      swap1\n      sstore\n      pop\n        /* \"project.sol\":1477:1486  msg.value */\n      callvalue\n        /* \"project.sol\":1460:1474  totalFundReice */\n      sload(0x02)\n        /* \"project.sol\":1460:1486  totalFundReice + msg.value */\n      tag_108\n      swap2\n      swap1\n      tag_107\n      jump\t// in\n    tag_108:\n        /* \"project.sol\":1443:1457  totalFundReice */\n      0x02\n        /* \"project.sol\":1443:1486  totalFundReice = totalFundReice + msg.value */\n      dup2\n      swap1\n      sstore\n      pop\n        /* \"project.sol\":1009:1496  function depositeFunction() external payable{... */\n      jump\t// out\n        /* \"project.sol\":398:422  bool public votingStatus */\n    tag_31:\n      0x0a\n      0x00\n      swap1\n      sload\n      swap1\n      0x0100\n      exp\n      swap1\n      div\n      0xff\n      and\n      dup2\n      jump\t// out\n        /* \"project.sol\":234:257  uint public totalVoting */\n    tag_36:\n      sload(0x04)\n      dup2\n      jump\t// out\n        /* \"project.sol\":264:289  uint public votingEndTime */\n    tag_40:\n      sload(0x05)\n      dup2\n      jump\t// out\n        /* \"project.sol\":204:227  uint public totalDonors */\n    tag_44:\n      sload(0x03)\n      dup2\n      jump\t// out\n        /* \"project.sol\":429:452  bool public claimedFund */\n    tag_48:\n      0x0a\n      0x01\n      swap1\n      sload\n      swap1\n      0x0100\n      exp\n      swap1\n      div\n      0xff\n      and\n      dup2\n      jump\t// out\n        /* \"project.sol\":372:391  uint public endTime */\n    tag_52:\n      sload(0x09)\n      dup2\n      jump\t// out\n        /* \"project.sol\":1613:1906  function controlingVotingSystem(uint _votingEndTime) external{... */\n    tag_58:\n        /* \"project.sol\":1703:1708  owner */\n      0x00\n      dup1\n      sload\n      swap1\n      0x0100\n      exp\n      swap1\n      div\n      0xffffffffffffffffffffffffffffffffffffffff\n      and\n        /* \"project.sol\":1689:1708  msg.sender == owner */\n      0xffffffffffffffffffffffffffffffffffffffff\n      and\n        /* \"project.sol\":1689:1699  msg.sender */\n      caller\n        /* \"project.sol\":1689:1708  msg.sender == owner */\n      0xffffffffffffffffffffffffffffffffffffffff\n      and\n      eq\n        /* \"project.sol\":1681:1749  require(msg.sender == owner,\"this voting system stating only owner\") */\n      tag_110\n      jumpi\n      mload(0x40)\n      0x08c379a000000000000000000000000000000000000000000000000000000000\n      dup2\n      mstore\n      0x04\n      add\n      tag_111\n      swap1\n      tag_112\n      jump\t// in\n    tag_111:\n      mload(0x40)\n      dup1\n      swap2\n      sub\n      swap1\n      revert\n    tag_110:\n        /* \"project.sol\":1780:1787  endTime */\n      sload(0x09)\n        /* \"project.sol\":1764:1779  block.timestamp */\n      timestamp\n        /* \"project.sol\":1764:1787  block.timestamp>endTime */\n      gt\n        /* \"project.sol\":1756:1817  require(block.timestamp>endTime,\"voting system hava stating\") */\n      tag_113\n      jumpi\n      mload(0x40)\n      0x08c379a000000000000000000000000000000000000000000000000000000000\n      dup2\n      mstore\n      0x04\n      add\n      tag_114\n      swap1\n      tag_115\n      jump\t// in\n    tag_114:\n      mload(0x40)\n      dup1\n      swap2\n      sub\n      swap1\n      revert\n    tag_113:\n        /* \"project.sol\":1858:1872  _votingEndTime */\n      dup1\n        /* \"project.sol\":1840:1855  block.timestamp */\n      timestamp\n        /* \"project.sol\":1840:1872  block.timestamp + _votingEndTime */\n      tag_116\n      swap2\n      swap1\n      tag_107\n      jump\t// in\n    tag_116:\n        /* \"project.sol\":1824:1837  votingEndTime */\n      0x05\n        /* \"project.sol\":1824:1872  votingEndTime = block.timestamp + _votingEndTime */\n      dup2\n      swap1\n      sstore\n      pop\n        /* \"project.sol\":1894:1898  true */\n      0x01\n        /* \"project.sol\":1879:1891  votingStatus */\n      0x0a\n      0x00\n        /* \"project.sol\":1879:1898  votingStatus = true */\n      0x0100\n      exp\n      dup2\n      sload\n      dup2\n      0xff\n      mul\n      not\n      and\n      swap1\n      dup4\n      iszero\n      iszero\n      mul\n      or\n      swap1\n      sstore\n      pop\n        /* \"project.sol\":1613:1906  function controlingVotingSystem(uint _votingEndTime) external{... */\n      pop\n      jump\t// out\n        /* \"project.sol\":1914:2294  function puteVotingHere() external {... */\n    tag_61:\n        /* \"project.sol\":1984:1988  true */\n      0x01\n        /* \"project.sol\":1968:1988  votingStatus == true */\n      iszero\n      iszero\n        /* \"project.sol\":1968:1980  votingStatus */\n      0x0a\n      0x00\n      swap1\n      sload\n      swap1\n      0x0100\n      exp\n      swap1\n      div\n      0xff\n      and\n        /* \"project.sol\":1968:1988  votingStatus == true */\n      iszero\n      iszero\n      eq\n        /* \"project.sol\":1960:2017  require(votingStatus == true,\"voting status not stating\") */\n      tag_118\n      jumpi\n      mload(0x40)\n      0x08c379a000000000000000000000000000000000000000000000000000000000\n      dup2\n      mstore\n      0x04\n      add\n      tag_119\n      swap1\n      tag_120\n      jump\t// in\n    tag_119:\n      mload(0x40)\n      dup1\n      swap2\n      sub\n      swap1\n      revert\n    tag_118:\n        /* \"project.sol\":2052:2065  votingEndTime */\n      sload(0x05)\n        /* \"project.sol\":2036:2051  block.timestamp */\n      timestamp\n        /* \"project.sol\":2036:2065  block.timestamp<votingEndTime */\n      lt\n        /* \"project.sol\":2028:2087  require(block.timestamp<votingEndTime,\"voting time finsed\") */\n      tag_121\n      jumpi\n      mload(0x40)\n      0x08c379a000000000000000000000000000000000000000000000000000000000\n      dup2\n      mstore\n      0x04\n      add\n      tag_122\n      swap1\n      tag_123\n      jump\t// in\n    tag_122:\n      mload(0x40)\n      dup1\n      swap2\n      sub\n      swap1\n      revert\n    tag_121:\n        /* \"project.sol\":2128:2129  0 */\n      0x00\n        /* \"project.sol\":2106:2112  donars */\n      0x0b\n        /* \"project.sol\":2106:2124  donars[msg.sender] */\n      0x00\n        /* \"project.sol\":2113:2123  msg.sender */\n      caller\n        /* \"project.sol\":2106:2124  donars[msg.sender] */\n      0xffffffffffffffffffffffffffffffffffffffff\n      and\n      0xffffffffffffffffffffffffffffffffffffffff\n      and\n      dup2\n      mstore\n      0x20\n      add\n      swap1\n      dup2\n      mstore\n      0x20\n      add\n      0x00\n      keccak256\n      sload\n        /* \"project.sol\":2106:2129  donars[msg.sender] != 0 */\n      sub\n        /* \"project.sol\":2098:2158  require(donars[msg.sender] != 0,\"you can't participet here\") */\n      tag_124\n      jumpi\n      mload(0x40)\n      0x08c379a000000000000000000000000000000000000000000000000000000000\n      dup2\n      mstore\n      0x04\n      add\n      tag_125\n      swap1\n      tag_126\n      jump\t// in\n    tag_125:\n      mload(0x40)\n      dup1\n      swap2\n      sub\n      swap1\n      revert\n    tag_124:\n        /* \"project.sol\":2198:2203  false */\n      0x00\n        /* \"project.sol\":2177:2203  voted[msg.sender] == false */\n      iszero\n      iszero\n        /* \"project.sol\":2177:2182  voted */\n      0x0c\n        /* \"project.sol\":2177:2194  voted[msg.sender] */\n      0x00\n        /* \"project.sol\":2183:2193  msg.sender */\n      caller\n        /* \"project.sol\":2177:2194  voted[msg.sender] */\n      0xffffffffffffffffffffffffffffffffffffffff\n      and\n      0xffffffffffffffffffffffffffffffffffffffff\n      and\n      dup2\n      mstore\n      0x20\n      add\n      swap1\n      dup2\n      mstore\n      0x20\n      add\n      0x00\n      keccak256\n      0x00\n      swap1\n      sload\n      swap1\n      0x0100\n      exp\n      swap1\n      div\n      0xff\n      and\n        /* \"project.sol\":2177:2203  voted[msg.sender] == false */\n      iszero\n      iszero\n      eq\n        /* \"project.sol\":2169:2224  require(voted[msg.sender] == false,\"you already voted\") */\n      tag_127\n      jumpi\n      mload(0x40)\n      0x08c379a000000000000000000000000000000000000000000000000000000000\n      dup2\n      mstore\n      0x04\n      add\n      tag_128\n      swap1\n      tag_129\n      jump\t// in\n    tag_128:\n      mload(0x40)\n      dup1\n      swap2\n      sub\n      swap1\n      revert\n    tag_127:\n        /* \"project.sol\":2236:2247  totalVoting */\n      0x04\n      0x00\n        /* \"project.sol\":2236:2250  totalVoting ++ */\n      dup2\n      sload\n      dup1\n      swap3\n      swap2\n      swap1\n      tag_130\n      swap1\n      tag_105\n      jump\t// in\n    tag_130:\n      swap2\n      swap1\n      pop\n      sstore\n      pop\n        /* \"project.sol\":2282:2286  true */\n      0x01\n        /* \"project.sol\":2262:2267  voted */\n      0x0c\n        /* \"project.sol\":2262:2279  voted[msg.sender] */\n      0x00\n        /* \"project.sol\":2268:2278  msg.sender */\n      caller\n        /* \"project.sol\":2262:2279  voted[msg.sender] */\n      0xffffffffffffffffffffffffffffffffffffffff\n      and\n      0xffffffffffffffffffffffffffffffffffffffff\n      and\n      dup2\n      mstore\n      0x20\n      add\n      swap1\n      dup2\n      mstore\n      0x20\n      add\n      0x00\n      keccak256\n      0x00\n        /* \"project.sol\":2262:2286  voted[msg.sender] = true */\n      0x0100\n      exp\n      dup2\n      sload\n      dup2\n      0xff\n      mul\n      not\n      and\n      swap1\n      dup4\n      iszero\n      iszero\n      mul\n      or\n      swap1\n      sstore\n      pop\n        /* \"project.sol\":1914:2294  function puteVotingHere() external {... */\n      jump\t// out\n        /* \"project.sol\":2302:3202  function claimedFunction() public {... */\n    tag_64:\n        /* \"project.sol\":2370:2375  false */\n      0x00\n        /* \"project.sol\":2355:2375  claimedFund == false */\n      iszero\n      iszero\n        /* \"project.sol\":2355:2366  claimedFund */\n      0x0a\n      0x01\n      swap1\n      sload\n      swap1\n      0x0100\n      exp\n      swap1\n      div\n      0xff\n      and\n        /* \"project.sol\":2355:2375  claimedFund == false */\n      iszero\n      iszero\n      eq\n        /* \"project.sol\":2347:2399  require(claimedFund == false,\"fund already claimed\") */\n      tag_132\n      jumpi\n      mload(0x40)\n      0x08c379a000000000000000000000000000000000000000000000000000000000\n      dup2\n      mstore\n      0x04\n      add\n      tag_133\n      swap1\n      tag_134\n      jump\t// in\n    tag_133:\n      mload(0x40)\n      dup1\n      swap2\n      sub\n      swap1\n      revert\n    tag_132:\n        /* \"project.sol\":2432:2437  owner */\n      0x00\n      dup1\n      sload\n      swap1\n      0x0100\n      exp\n      swap1\n      div\n      0xffffffffffffffffffffffffffffffffffffffff\n      and\n        /* \"project.sol\":2418:2437  msg.sender == owner */\n      0xffffffffffffffffffffffffffffffffffffffff\n      and\n        /* \"project.sol\":2418:2428  msg.sender */\n      caller\n        /* \"project.sol\":2418:2437  msg.sender == owner */\n      0xffffffffffffffffffffffffffffffffffffffff\n      and\n      eq\n        /* \"project.sol\":2410:2464  require(msg.sender == owner,\"only can claimed owner!\") */\n      tag_135\n      jumpi\n      mload(0x40)\n      0x08c379a000000000000000000000000000000000000000000000000000000000\n      dup2\n      mstore\n      0x04\n      add\n      tag_136\n      swap1\n      tag_137\n      jump\t// in\n    tag_136:\n      mload(0x40)\n      dup1\n      swap2\n      sub\n      swap1\n      revert\n    tag_135:\n        /* \"project.sol\":2499:2506  endTime */\n      sload(0x09)\n        /* \"project.sol\":2483:2498  block.timestamp */\n      timestamp\n        /* \"project.sol\":2483:2506  block.timestamp>endTime */\n      gt\n        /* \"project.sol\":2475:2557  require(block.timestamp>endTime,\"this fund that mean crowdfunding are not finsed\") */\n      tag_138\n      jumpi\n      mload(0x40)\n      0x08c379a000000000000000000000000000000000000000000000000000000000\n      dup2\n      mstore\n      0x04\n      add\n      tag_139\n      swap1\n      tag_140\n      jump\t// in\n    tag_139:\n      mload(0x40)\n      dup1\n      swap2\n      sub\n      swap1\n      revert\n    tag_138:\n        /* \"project.sol\":2595:2596  1 */\n      0x01\n        /* \"project.sol\":2583:2591  totalAsk */\n      sload(0x08)\n        /* \"project.sol\":2583:2596  totalAsk == 1 */\n      sub\n        /* \"project.sol\":2580:3195  if(totalAsk == 1){... */\n      tag_141\n      jumpi\n        /* \"project.sol\":2612:2631  uint transferAmount */\n      0x00\n        /* \"project.sol\":2650:2652  10 */\n      0x0a\n        /* \"project.sol\":2634:2648  totalFundReice */\n      sload(0x02)\n        /* \"project.sol\":2634:2652  totalFundReice /10 */\n      tag_142\n      swap2\n      swap1\n      tag_143\n      jump\t// in\n    tag_142:\n        /* \"project.sol\":2612:2652  uint transferAmount = totalFundReice /10 */\n      swap1\n      pop\n        /* \"project.sol\":2727:2741  transferAmount */\n      dup1\n        /* \"project.sol\":2710:2724  totalFundReice */\n      sload(0x02)\n        /* \"project.sol\":2710:2741  totalFundReice - transferAmount */\n      tag_144\n      swap2\n      swap1\n      tag_145\n      jump\t// in\n    tag_144:\n        /* \"project.sol\":2696:2707  fundRemning */\n      0x06\n        /* \"project.sol\":2696:2741  fundRemning = totalFundReice - transferAmount */\n      dup2\n      swap1\n      sstore\n      pop\n        /* \"project.sol\":2756:2764  totalAsk */\n      0x08\n      0x00\n        /* \"project.sol\":2756:2767  totalAsk ++ */\n      dup2\n      sload\n      dup1\n      swap3\n      swap2\n      swap1\n      tag_146\n      swap1\n      tag_105\n      jump\t// in\n    tag_146:\n      swap2\n      swap1\n      pop\n      sstore\n      pop\n        /* \"project.sol\":2797:2801  true */\n      0x01\n        /* \"project.sol\":2782:2801  claimedFund == true */\n      iszero\n      iszero\n        /* \"project.sol\":2782:2793  claimedFund */\n      0x0a\n      0x01\n      swap1\n      sload\n      swap1\n      0x0100\n      exp\n      swap1\n      pop\n      pop\n        /* \"project.sol\":2782:2801  claimedFund == true */\n      pop\n        /* \"project.sol\":2816:2821  owner */\n      0x00\n      dup1\n      sload\n      swap1\n      0x0100\n      exp\n      swap1\n      div\n      0xffffffffffffffffffffffffffffffffffffffff\n      and\n        /* \"project.sol\":2816:2830  owner.transfer */\n      0xffffffffffffffffffffffffffffffffffffffff\n      and\n        /* \"project.sol\":2816:2846  owner.transfer(transferAmount) */\n      0x08fc\n        /* \"project.sol\":2831:2845  transferAmount */\n      dup3\n        /* \"project.sol\":2816:2846  owner.transfer(transferAmount) */\n      swap1\n      dup2\n      iszero\n      mul\n      swap1\n      mload(0x40)\n      0x00\n      mload(0x40)\n      dup1\n      dup4\n      sub\n      dup2\n      dup6\n      dup9\n      dup9\n      call\n      swap4\n      pop\n      pop\n      pop\n      pop\n      iszero\n      dup1\n      iszero\n      tag_148\n      jumpi\n      returndatasize\n      0x00\n      dup1\n      returndatacopy\n      revert(0x00, returndatasize)\n    tag_148:\n      pop\n        /* \"project.sol\":2597:2858  {... */\n      pop\n        /* \"project.sol\":2580:3195  if(totalAsk == 1){... */\n      jump(tag_149)\n    tag_141:\n        /* \"project.sol\":2903:2916  votingEndTime */\n      sload(0x05)\n        /* \"project.sol\":2885:2900  block.timestamp */\n      timestamp\n        /* \"project.sol\":2885:2916  block.timestamp > votingEndTime */\n      gt\n        /* \"project.sol\":2877:2947  require(block.timestamp > votingEndTime, \"voting have not yet passed\") */\n      tag_150\n      jumpi\n      mload(0x40)\n      0x08c379a000000000000000000000000000000000000000000000000000000000\n      dup2\n      mstore\n      0x04\n      add\n      tag_151\n      swap1\n      tag_152\n      jump\t// in\n    tag_151:\n      mload(0x40)\n      dup1\n      swap2\n      sub\n      swap1\n      revert\n    tag_150:\n        /* \"project.sol\":2998:2999  2 */\n      0x02\n        /* \"project.sol\":2984:2995  totalDonors */\n      sload(0x03)\n        /* \"project.sol\":2984:2999  totalDonors / 2 */\n      tag_153\n      swap2\n      swap1\n      tag_143\n      jump\t// in\n    tag_153:\n        /* \"project.sol\":2970:2981  totalVoting */\n      sload(0x04)\n        /* \"project.sol\":2970:2999  totalVoting > totalDonors / 2 */\n      gt\n        /* \"project.sol\":2962:3025  require(totalVoting > totalDonors / 2 ,\" herre voting divided\") */\n      tag_154\n      jumpi\n      mload(0x40)\n      0x08c379a000000000000000000000000000000000000000000000000000000000\n      dup2\n      mstore\n      0x04\n      add\n      tag_155\n      swap1\n      tag_156\n      jump\t// in\n    tag_155:\n      mload(0x40)\n      dup1\n      swap2\n      sub\n      swap1\n      revert\n    tag_154:\n        /* \"project.sol\":3056:3060  true */\n      0x01\n        /* \"project.sol\":3040:3060  votingStatus == true */\n      iszero\n      iszero\n        /* \"project.sol\":3040:3052  votingStatus */\n      0x0a\n      0x00\n      swap1\n      sload\n      swap1\n      0x0100\n      exp\n      swap1\n      pop\n      pop\n        /* \"project.sol\":3040:3060  votingStatus == true */\n      pop\n        /* \"project.sol\":3075:3094  uint transferAmount */\n      0x00\n        /* \"project.sol\":3097:3108  fundRemning */\n      sload(0x06)\n        /* \"project.sol\":3075:3108  uint transferAmount = fundRemning */\n      swap1\n      pop\n        /* \"project.sol\":3137:3138  0 */\n      0x00\n        /* \"project.sol\":3123:3134  fundRemning */\n      0x06\n        /* \"project.sol\":3123:3138  fundRemning = 0 */\n      dup2\n      swap1\n      sstore\n      pop\n        /* \"project.sol\":3153:3158  owner */\n      0x00\n      dup1\n      sload\n      swap1\n      0x0100\n      exp\n      swap1\n      div\n      0xffffffffffffffffffffffffffffffffffffffff\n      and\n        /* \"project.sol\":3153:3167  owner.transfer */\n      0xffffffffffffffffffffffffffffffffffffffff\n      and\n        /* \"project.sol\":3153:3183  owner.transfer(transferAmount) */\n      0x08fc\n        /* \"project.sol\":3168:3182  transferAmount */\n      dup3\n        /* \"project.sol\":3153:3183  owner.transfer(transferAmount) */\n      swap1\n      dup2\n      iszero\n      mul\n      swap1\n      mload(0x40)\n      0x00\n      mload(0x40)\n      dup1\n      dup4\n      sub\n      dup2\n      dup6\n      dup9\n      dup9\n      call\n      swap4\n      pop\n      pop\n      pop\n      pop\n      iszero\n      dup1\n      iszero\n      tag_158\n      jumpi\n      returndatasize\n      0x00\n      dup1\n      returndatacopy\n      revert(0x00, returndatasize)\n    tag_158:\n      pop\n        /* \"project.sol\":2862:3195  {... */\n      pop\n        /* \"project.sol\":2580:3195  if(totalAsk == 1){... */\n    tag_149:\n        /* \"project.sol\":2302:3202  function claimedFunction() public {... */\n      jump\t// out\n        /* \"project.sol\":105:133  address payable public owner */\n    tag_67:\n      0x00\n      dup1\n      sload\n      swap1\n      0x0100\n      exp\n      swap1\n      div\n      0xffffffffffffffffffffffffffffffffffffffff\n      and\n      dup2\n      jump\t// out\n        /* \"project.sol\":627:664  mapping(address => bool) public voted */\n    tag_74:\n      mstore(0x20, 0x0c)\n      dup1\n      0x00\n      mstore\n      keccak256(0x00, 0x40)\n      0x00\n      swap2\n      pop\n      sload\n      swap1\n      0x0100\n      exp\n      swap1\n      div\n      0xff\n      and\n      dup2\n      jump\t// out\n        /* \"project.sol\":319:341  uint public puteVoting */\n    tag_78:\n      sload(0x07)\n      dup2\n      jump\t// out\n        /* \"project.sol\":1504:1601  function checkBalance() external view returns(uint){... */\n    tag_82:\n        /* \"project.sol\":1550:1554  uint */\n      0x00\n        /* \"project.sol\":1572:1593  address(this).balance */\n      selfbalance\n        /* \"project.sol\":1565:1593  return address(this).balance */\n      swap1\n      pop\n        /* \"project.sol\":1504:1601  function checkBalance() external view returns(uint){... */\n      swap1\n      jump\t// out\n        /* \"project.sol\":140:164  uint public totalFundReq */\n    tag_86:\n      sload(0x01)\n      dup2\n      jump\t// out\n        /* \"project.sol\":516:552  mapping(address=>uint) public donars */\n    tag_91:\n      mstore(0x20, 0x0b)\n      dup1\n      0x00\n      mstore\n      keccak256(0x00, 0x40)\n      0x00\n      swap2\n      pop\n      swap1\n      pop\n      sload\n      dup2\n      jump\t// out\n        /* \"#utility.yul\":7:84   */\n    tag_160:\n        /* \"#utility.yul\":44:51   */\n      0x00\n        /* \"#utility.yul\":73:78   */\n      dup2\n        /* \"#utility.yul\":62:78   */\n      swap1\n      pop\n        /* \"#utility.yul\":7:84   */\n      swap2\n      swap1\n      pop\n      jump\t// out\n        /* \"#utility.yul\":90:208   */\n    tag_161:\n        /* \"#utility.yul\":177:201   */\n      tag_209\n        /* \"#utility.yul\":195:200   */\n      dup2\n        /* \"#utility.yul\":177:201   */\n      tag_160\n      jump\t// in\n    tag_209:\n        /* \"#utility.yul\":172:175   */\n      dup3\n        /* \"#utility.yul\":165:202   */\n      mstore\n        /* \"#utility.yul\":90:208   */\n      pop\n      pop\n      jump\t// out\n        /* \"#utility.yul\":214:436   */\n    tag_26:\n        /* \"#utility.yul\":307:311   */\n      0x00\n        /* \"#utility.yul\":345:347   */\n      0x20\n        /* \"#utility.yul\":334:343   */\n      dup3\n        /* \"#utility.yul\":330:348   */\n      add\n        /* \"#utility.yul\":322:348   */\n      swap1\n      pop\n        /* \"#utility.yul\":358:429   */\n      tag_211\n        /* \"#utility.yul\":426:427   */\n      0x00\n        /* \"#utility.yul\":415:424   */\n      dup4\n        /* \"#utility.yul\":411:428   */\n      add\n        /* \"#utility.yul\":402:408   */\n      dup5\n        /* \"#utility.yul\":358:429   */\n      tag_161\n      jump\t// in\n    tag_211:\n        /* \"#utility.yul\":214:436   */\n      swap3\n      swap2\n      pop\n      pop\n      jump\t// out\n        /* \"#utility.yul\":442:532   */\n    tag_162:\n        /* \"#utility.yul\":476:483   */\n      0x00\n        /* \"#utility.yul\":519:524   */\n      dup2\n        /* \"#utility.yul\":512:525   */\n      iszero\n        /* \"#utility.yul\":505:526   */\n      iszero\n        /* \"#utility.yul\":494:526   */\n      swap1\n      pop\n        /* \"#utility.yul\":442:532   */\n      swap2\n      swap1\n      pop\n      jump\t// out\n        /* \"#utility.yul\":538:647   */\n    tag_163:\n        /* \"#utility.yul\":619:640   */\n      tag_214\n        /* \"#utility.yul\":634:639   */\n      dup2\n        /* \"#utility.yul\":619:640   */\n      tag_162\n      jump\t// in\n    tag_214:\n        /* \"#utility.yul\":614:617   */\n      dup3\n        /* \"#utility.yul\":607:641   */\n      mstore\n        /* \"#utility.yul\":538:647   */\n      pop\n      pop\n      jump\t// out\n        /* \"#utility.yul\":653:863   */\n    tag_33:\n        /* \"#utility.yul\":740:744   */\n      0x00\n        /* \"#utility.yul\":778:780   */\n      0x20\n        /* \"#utility.yul\":767:776   */\n      dup3\n        /* \"#utility.yul\":763:781   */\n      add\n        /* \"#utility.yul\":755:781   */\n      swap1\n      pop\n        /* \"#utility.yul\":791:856   */\n      tag_216\n        /* \"#utility.yul\":853:854   */\n      0x00\n        /* \"#utility.yul\":842:851   */\n      dup4\n        /* \"#utility.yul\":838:855   */\n      add\n        /* \"#utility.yul\":829:835   */\n      dup5\n        /* \"#utility.yul\":791:856   */\n      tag_163\n      jump\t// in\n    tag_216:\n        /* \"#utility.yul\":653:863   */\n      swap3\n      swap2\n      pop\n      pop\n      jump\t// out\n        /* \"#utility.yul\":950:1067   */\n    tag_165:\n        /* \"#utility.yul\":1059:1060   */\n      0x00\n        /* \"#utility.yul\":1056:1057   */\n      dup1\n        /* \"#utility.yul\":1049:1061   */\n      revert\n        /* \"#utility.yul\":1196:1318   */\n    tag_167:\n        /* \"#utility.yul\":1269:1293   */\n      tag_221\n        /* \"#utility.yul\":1287:1292   */\n      dup2\n        /* \"#utility.yul\":1269:1293   */\n      tag_160\n      jump\t// in\n    tag_221:\n        /* \"#utility.yul\":1262:1267   */\n      dup2\n        /* \"#utility.yul\":1259:1294   */\n      eq\n        /* \"#utility.yul\":1249:1312   */\n      tag_222\n      jumpi\n        /* \"#utility.yul\":1308:1309   */\n      0x00\n        /* \"#utility.yul\":1305:1306   */\n      dup1\n        /* \"#utility.yul\":1298:1310   */\n      revert\n        /* \"#utility.yul\":1249:1312   */\n    tag_222:\n        /* \"#utility.yul\":1196:1318   */\n      pop\n      jump\t// out\n        /* \"#utility.yul\":1324:1463   */\n    tag_168:\n        /* \"#utility.yul\":1370:1375   */\n      0x00\n        /* \"#utility.yul\":1408:1414   */\n      dup2\n        /* \"#utility.yul\":1395:1415   */\n      calldataload\n        /* \"#utility.yul\":1386:1415   */\n      swap1\n      pop\n        /* \"#utility.yul\":1424:1457   */\n      tag_224\n        /* \"#utility.yul\":1451:1456   */\n      dup2\n        /* \"#utility.yul\":1424:1457   */\n      tag_167\n      jump\t// in\n    tag_224:\n        /* \"#utility.yul\":1324:1463   */\n      swap3\n      swap2\n      pop\n      pop\n      jump\t// out\n        /* \"#utility.yul\":1469:1798   */\n    tag_57:\n        /* \"#utility.yul\":1528:1534   */\n      0x00\n        /* \"#utility.yul\":1577:1579   */\n      0x20\n        /* \"#utility.yul\":1565:1574   */\n      dup3\n        /* \"#utility.yul\":1556:1563   */\n      dup5\n        /* \"#utility.yul\":1552:1575   */\n      sub\n        /* \"#utility.yul\":1548:1580   */\n      slt\n        /* \"#utility.yul\":1545:1664   */\n      iszero\n      tag_226\n      jumpi\n        /* \"#utility.yul\":1583:1662   */\n      tag_227\n      tag_165\n      jump\t// in\n    tag_227:\n        /* \"#utility.yul\":1545:1664   */\n    tag_226:\n        /* \"#utility.yul\":1703:1704   */\n      0x00\n        /* \"#utility.yul\":1728:1781   */\n      tag_228\n        /* \"#utility.yul\":1773:1780   */\n      dup5\n        /* \"#utility.yul\":1764:1770   */\n      dup3\n        /* \"#utility.yul\":1753:1762   */\n      dup6\n        /* \"#utility.yul\":1749:1771   */\n      add\n        /* \"#utility.yul\":1728:1781   */\n      tag_168\n      jump\t// in\n    tag_228:\n        /* \"#utility.yul\":1718:1781   */\n      swap2\n      pop\n        /* \"#utility.yul\":1674:1791   */\n      pop\n        /* \"#utility.yul\":1469:1798   */\n      swap3\n      swap2\n      pop\n      pop\n      jump\t// out\n        /* \"#utility.yul\":1804:1930   */\n    tag_169:\n        /* \"#utility.yul\":1841:1848   */\n      0x00\n        /* \"#utility.yul\":1881:1923   */\n      0xffffffffffffffffffffffffffffffffffffffff\n        /* \"#utility.yul\":1874:1879   */\n      dup3\n        /* \"#utility.yul\":1870:1924   */\n      and\n        /* \"#utility.yul\":1859:1924   */\n      swap1\n      pop\n        /* \"#utility.yul\":1804:1930   */\n      swap2\n      swap1\n      pop\n      jump\t// out\n        /* \"#utility.yul\":1936:2040   */\n    tag_170:\n        /* \"#utility.yul\":1981:1988   */\n      0x00\n        /* \"#utility.yul\":2010:2034   */\n      tag_231\n        /* \"#utility.yul\":2028:2033   */\n      dup3\n        /* \"#utility.yul\":2010:2034   */\n      tag_169\n      jump\t// in\n    tag_231:\n        /* \"#utility.yul\":1999:2034   */\n      swap1\n      pop\n        /* \"#utility.yul\":1936:2040   */\n      swap2\n      swap1\n      pop\n      jump\t// out\n        /* \"#utility.yul\":2046:2188   */\n    tag_171:\n        /* \"#utility.yul\":2149:2181   */\n      tag_233\n        /* \"#utility.yul\":2175:2180   */\n      dup2\n        /* \"#utility.yul\":2149:2181   */\n      tag_170\n      jump\t// in\n    tag_233:\n        /* \"#utility.yul\":2144:2147   */\n      dup3\n        /* \"#utility.yul\":2137:2182   */\n      mstore\n        /* \"#utility.yul\":2046:2188   */\n      pop\n      pop\n      jump\t// out\n        /* \"#utility.yul\":2194:2448   */\n    tag_69:\n        /* \"#utility.yul\":2303:2307   */\n      0x00\n        /* \"#utility.yul\":2341:2343   */\n      0x20\n        /* \"#utility.yul\":2330:2339   */\n      dup3\n        /* \"#utility.yul\":2326:2344   */\n      add\n        /* \"#utility.yul\":2318:2344   */\n      swap1\n      pop\n        /* \"#utility.yul\":2354:2441   */\n      tag_235\n        /* \"#utility.yul\":2438:2439   */\n      0x00\n        /* \"#utility.yul\":2427:2436   */\n      dup4\n        /* \"#utility.yul\":2423:2440   */\n      add\n        /* \"#utility.yul\":2414:2420   */\n      dup5\n        /* \"#utility.yul\":2354:2441   */\n      tag_171\n      jump\t// in\n    tag_235:\n        /* \"#utility.yul\":2194:2448   */\n      swap3\n      swap2\n      pop\n      pop\n      jump\t// out\n        /* \"#utility.yul\":2454:2550   */\n    tag_172:\n        /* \"#utility.yul\":2491:2498   */\n      0x00\n        /* \"#utility.yul\":2520:2544   */\n      tag_237\n        /* \"#utility.yul\":2538:2543   */\n      dup3\n        /* \"#utility.yul\":2520:2544   */\n      tag_169\n      jump\t// in\n    tag_237:\n        /* \"#utility.yul\":2509:2544   */\n      swap1\n      pop\n        /* \"#utility.yul\":2454:2550   */\n      swap2\n      swap1\n      pop\n      jump\t// out\n        /* \"#utility.yul\":2556:2678   */\n    tag_173:\n        /* \"#utility.yul\":2629:2653   */\n      tag_239\n        /* \"#utility.yul\":2647:2652   */\n      dup2\n        /* \"#utility.yul\":2629:2653   */\n      tag_172\n      jump\t// in\n    tag_239:\n        /* \"#utility.yul\":2622:2627   */\n      dup2\n        /* \"#utility.yul\":2619:2654   */\n      eq\n        /* \"#utility.yul\":2609:2672   */\n      tag_240\n      jumpi\n        /* \"#utility.yul\":2668:2669   */\n      0x00\n        /* \"#utility.yul\":2665:2666   */\n      dup1\n        /* \"#utility.yul\":2658:2670   */\n      revert\n        /* \"#utility.yul\":2609:2672   */\n    tag_240:\n        /* \"#utility.yul\":2556:2678   */\n      pop\n      jump\t// out\n        /* \"#utility.yul\":2684:2823   */\n    tag_174:\n        /* \"#utility.yul\":2730:2735   */\n      0x00\n        /* \"#utility.yul\":2768:2774   */\n      dup2\n        /* \"#utility.yul\":2755:2775   */\n      calldataload\n        /* \"#utility.yul\":2746:2775   */\n      swap1\n      pop\n        /* \"#utility.yul\":2784:2817   */\n      tag_242\n        /* \"#utility.yul\":2811:2816   */\n      dup2\n        /* \"#utility.yul\":2784:2817   */\n      tag_173\n      jump\t// in\n    tag_242:\n        /* \"#utility.yul\":2684:2823   */\n      swap3\n      swap2\n      pop\n      pop\n      jump\t// out\n        /* \"#utility.yul\":2829:3158   */\n    tag_73:\n        /* \"#utility.yul\":2888:2894   */\n      0x00\n        /* \"#utility.yul\":2937:2939   */\n      0x20\n        /* \"#utility.yul\":2925:2934   */\n      dup3\n        /* \"#utility.yul\":2916:2923   */\n      dup5\n        /* \"#utility.yul\":2912:2935   */\n      sub\n        /* \"#utility.yul\":2908:2940   */\n      slt\n        /* \"#utility.yul\":2905:3024   */\n      iszero\n      tag_244\n      jumpi\n        /* \"#utility.yul\":2943:3022   */\n      tag_245\n      tag_165\n      jump\t// in\n    tag_245:\n        /* \"#utility.yul\":2905:3024   */\n    tag_244:\n        /* \"#utility.yul\":3063:3064   */\n      0x00\n        /* \"#utility.yul\":3088:3141   */\n      tag_246\n        /* \"#utility.yul\":3133:3140   */\n      dup5\n        /* \"#utility.yul\":3124:3130   */\n      dup3\n        /* \"#utility.yul\":3113:3122   */\n      dup6\n        /* \"#utility.yul\":3109:3131   */\n      add\n        /* \"#utility.yul\":3088:3141   */\n      tag_174\n      jump\t// in\n    tag_246:\n        /* \"#utility.yul\":3078:3141   */\n      swap2\n      pop\n        /* \"#utility.yul\":3034:3151   */\n      pop\n        /* \"#utility.yul\":2829:3158   */\n      swap3\n      swap2\n      pop\n      pop\n      jump\t// out\n        /* \"#utility.yul\":3164:3333   */\n    tag_175:\n        /* \"#utility.yul\":3248:3259   */\n      0x00\n        /* \"#utility.yul\":3282:3288   */\n      dup3\n        /* \"#utility.yul\":3277:3280   */\n      dup3\n        /* \"#utility.yul\":3270:3289   */\n      mstore\n        /* \"#utility.yul\":3322:3326   */\n      0x20\n        /* \"#utility.yul\":3317:3320   */\n      dup3\n        /* \"#utility.yul\":3313:3327   */\n      add\n        /* \"#utility.yul\":3298:3327   */\n      swap1\n      pop\n        /* \"#utility.yul\":3164:3333   */\n      swap3\n      swap2\n      pop\n      pop\n      jump\t// out\n        /* \"#utility.yul\":3339:3514   */\n    tag_176:\n        /* \"#utility.yul\":3479:3506   */\n      0x66756e6374696f6e20616c736f20676f696e672077656c6c2100000000000000\n        /* \"#utility.yul\":3475:3476   */\n      0x00\n        /* \"#utility.yul\":3467:3473   */\n      dup3\n        /* \"#utility.yul\":3463:3477   */\n      add\n        /* \"#utility.yul\":3456:3507   */\n      mstore\n        /* \"#utility.yul\":3339:3514   */\n      pop\n      jump\t// out\n        /* \"#utility.yul\":3520:3886   */\n    tag_177:\n        /* \"#utility.yul\":3662:3665   */\n      0x00\n        /* \"#utility.yul\":3683:3750   */\n      tag_250\n        /* \"#utility.yul\":3747:3749   */\n      0x19\n        /* \"#utility.yul\":3742:3745   */\n      dup4\n        /* \"#utility.yul\":3683:3750   */\n      tag_175\n      jump\t// in\n    tag_250:\n        /* \"#utility.yul\":3676:3750   */\n      swap2\n      pop\n        /* \"#utility.yul\":3759:3852   */\n      tag_251\n        /* \"#utility.yul\":3848:3851   */\n      dup3\n        /* \"#utility.yul\":3759:3852   */\n      tag_176\n      jump\t// in\n    tag_251:\n        /* \"#utility.yul\":3877:3879   */\n      0x20\n        /* \"#utility.yul\":3872:3875   */\n      dup3\n        /* \"#utility.yul\":3868:3880   */\n      add\n        /* \"#utility.yul\":3861:3880   */\n      swap1\n      pop\n        /* \"#utility.yul\":3520:3886   */\n      swap2\n      swap1\n      pop\n      jump\t// out\n        /* \"#utility.yul\":3892:4311   */\n    tag_96:\n        /* \"#utility.yul\":4058:4062   */\n      0x00\n        /* \"#utility.yul\":4096:4098   */\n      0x20\n        /* \"#utility.yul\":4085:4094   */\n      dup3\n        /* \"#utility.yul\":4081:4099   */\n      add\n        /* \"#utility.yul\":4073:4099   */\n      swap1\n      pop\n        /* \"#utility.yul\":4145:4154   */\n      dup2\n        /* \"#utility.yul\":4139:4143   */\n      dup2\n        /* \"#utility.yul\":4135:4155   */\n      sub\n        /* \"#utility.yul\":4131:4132   */\n      0x00\n        /* \"#utility.yul\":4120:4129   */\n      dup4\n        /* \"#utility.yul\":4116:4133   */\n      add\n        /* \"#utility.yul\":4109:4156   */\n      mstore\n        /* \"#utility.yul\":4173:4304   */\n      tag_253\n        /* \"#utility.yul\":4299:4303   */\n      dup2\n        /* \"#utility.yul\":4173:4304   */\n      tag_177\n      jump\t// in\n    tag_253:\n        /* \"#utility.yul\":4165:4304   */\n      swap1\n      pop\n        /* \"#utility.yul\":3892:4311   */\n      swap2\n      swap1\n      pop\n      jump\t// out\n        /* \"#utility.yul\":4317:4492   */\n    tag_178:\n        /* \"#utility.yul\":4457:4484   */\n      0x796f752063616e2774206769766520616e79206d6f6e65792100000000000000\n        /* \"#utility.yul\":4453:4454   */\n      0x00\n        /* \"#utility.yul\":4445:4451   */\n      dup3\n        /* \"#utility.yul\":4441:4455   */\n      add\n        /* \"#utility.yul\":4434:4485   */\n      mstore\n        /* \"#utility.yul\":4317:4492   */\n      pop\n      jump\t// out\n        /* \"#utility.yul\":4498:4864   */\n    tag_179:\n        /* \"#utility.yul\":4640:4643   */\n      0x00\n        /* \"#utility.yul\":4661:4728   */\n      tag_256\n        /* \"#utility.yul\":4725:4727   */\n      0x19\n        /* \"#utility.yul\":4720:4723   */\n      dup4\n        /* \"#utility.yul\":4661:4728   */\n      tag_175\n      jump\t// in\n    tag_256:\n        /* \"#utility.yul\":4654:4728   */\n      swap2\n      pop\n        /* \"#utility.yul\":4737:4830   */\n      tag_257\n        /* \"#utility.yul\":4826:4829   */\n      dup3\n        /* \"#utility.yul\":4737:4830   */\n      tag_178\n      jump\t// in\n    tag_257:\n        /* \"#utility.yul\":4855:4857   */\n      0x20\n        /* \"#utility.yul\":4850:4853   */\n      dup3\n        /* \"#utility.yul\":4846:4858   */\n      add\n        /* \"#utility.yul\":4839:4858   */\n      swap1\n      pop\n        /* \"#utility.yul\":4498:4864   */\n      swap2\n      swap1\n      pop\n      jump\t// out\n        /* \"#utility.yul\":4870:5289   */\n    tag_99:\n        /* \"#utility.yul\":5036:5040   */\n      0x00\n        /* \"#utility.yul\":5074:5076   */\n      0x20\n        /* \"#utility.yul\":5063:5072   */\n      dup3\n        /* \"#utility.yul\":5059:5077   */\n      add\n        /* \"#utility.yul\":5051:5077   */\n      swap1\n      pop\n        /* \"#utility.yul\":5123:5132   */\n      dup2\n        /* \"#utility.yul\":5117:5121   */\n      dup2\n        /* \"#utility.yul\":5113:5133   */\n      sub\n        /* \"#utility.yul\":5109:5110   */\n      0x00\n        /* \"#utility.yul\":5098:5107   */\n      dup4\n        /* \"#utility.yul\":5094:5111   */\n      add\n        /* \"#utility.yul\":5087:5134   */\n      mstore\n        /* \"#utility.yul\":5151:5282   */\n      tag_259\n        /* \"#utility.yul\":5277:5281   */\n      dup2\n        /* \"#utility.yul\":5151:5282   */\n      tag_179\n      jump\t// in\n    tag_259:\n        /* \"#utility.yul\":5143:5282   */\n      swap1\n      pop\n        /* \"#utility.yul\":4870:5289   */\n      swap2\n      swap1\n      pop\n      jump\t// out\n        /* \"#utility.yul\":5295:5515   */\n    tag_180:\n        /* \"#utility.yul\":5435:5469   */\n      0x796f752063616e277420676976652030206d696e6975656d20676976656e2031\n        /* \"#utility.yul\":5431:5432   */\n      0x00\n        /* \"#utility.yul\":5423:5429   */\n      dup3\n        /* \"#utility.yul\":5419:5433   */\n      add\n        /* \"#utility.yul\":5412:5470   */\n      mstore\n        /* \"#utility.yul\":5504:5507   */\n      0x2100000000000000000000000000000000000000000000000000000000000000\n        /* \"#utility.yul\":5499:5501   */\n      0x20\n        /* \"#utility.yul\":5491:5497   */\n      dup3\n        /* \"#utility.yul\":5487:5502   */\n      add\n        /* \"#utility.yul\":5480:5508   */\n      mstore\n        /* \"#utility.yul\":5295:5515   */\n      pop\n      jump\t// out\n        /* \"#utility.yul\":5521:5887   */\n    tag_181:\n        /* \"#utility.yul\":5663:5666   */\n      0x00\n        /* \"#utility.yul\":5684:5751   */\n      tag_262\n        /* \"#utility.yul\":5748:5750   */\n      0x21\n        /* \"#utility.yul\":5743:5746   */\n      dup4\n        /* \"#utility.yul\":5684:5751   */\n      tag_175\n      jump\t// in\n    tag_262:\n        /* \"#utility.yul\":5677:5751   */\n      swap2\n      pop\n        /* \"#utility.yul\":5760:5853   */\n      tag_263\n        /* \"#utility.yul\":5849:5852   */\n      dup3\n        /* \"#utility.yul\":5760:5853   */\n      tag_180\n      jump\t// in\n    tag_263:\n        /* \"#utility.yul\":5878:5880   */\n      0x40\n        /* \"#utility.yul\":5873:5876   */\n      dup3\n        /* \"#utility.yul\":5869:5881   */\n      add\n        /* \"#utility.yul\":5862:5881   */\n      swap1\n      pop\n        /* \"#utility.yul\":5521:5887   */\n      swap2\n      swap1\n      pop\n      jump\t// out\n        /* \"#utility.yul\":5893:6312   */\n    tag_102:\n        /* \"#utility.yul\":6059:6063   */\n      0x00\n        /* \"#utility.yul\":6097:6099   */\n      0x20\n        /* \"#utility.yul\":6086:6095   */\n      dup3\n        /* \"#utility.yul\":6082:6100   */\n      add\n        /* \"#utility.yul\":6074:6100   */\n      swap1\n      pop\n        /* \"#utility.yul\":6146:6155   */\n      dup2\n        /* \"#utility.yul\":6140:6144   */\n      dup2\n        /* \"#utility.yul\":6136:6156   */\n      sub\n        /* \"#utility.yul\":6132:6133   */\n      0x00\n        /* \"#utility.yul\":6121:6130   */\n      dup4\n        /* \"#utility.yul\":6117:6134   */\n      add\n        /* \"#utility.yul\":6110:6157   */\n      mstore\n        /* \"#utility.yul\":6174:6305   */\n      tag_265\n        /* \"#utility.yul\":6300:6304   */\n      dup2\n        /* \"#utility.yul\":6174:6305   */\n      tag_181\n      jump\t// in\n    tag_265:\n        /* \"#utility.yul\":6166:6305   */\n      swap1\n      pop\n        /* \"#utility.yul\":5893:6312   */\n      swap2\n      swap1\n      pop\n      jump\t// out\n        /* \"#utility.yul\":6318:6498   */\n    tag_182:\n        /* \"#utility.yul\":6366:6443   */\n      0x4e487b7100000000000000000000000000000000000000000000000000000000\n        /* \"#utility.yul\":6363:6364   */\n      0x00\n        /* \"#utility.yul\":6356:6444   */\n      mstore\n        /* \"#utility.yul\":6463:6467   */\n      0x11\n        /* \"#utility.yul\":6460:6461   */\n      0x04\n        /* \"#utility.yul\":6453:6468   */\n      mstore\n        /* \"#utility.yul\":6487:6491   */\n      0x24\n        /* \"#utility.yul\":6484:6485   */\n      0x00\n        /* \"#utility.yul\":6477:6492   */\n      revert\n        /* \"#utility.yul\":6504:6737   */\n    tag_105:\n        /* \"#utility.yul\":6543:6546   */\n      0x00\n        /* \"#utility.yul\":6566:6590   */\n      tag_268\n        /* \"#utility.yul\":6584:6589   */\n      dup3\n        /* \"#utility.yul\":6566:6590   */\n      tag_160\n      jump\t// in\n    tag_268:\n        /* \"#utility.yul\":6557:6590   */\n      swap2\n      pop\n        /* \"#utility.yul\":6612:6678   */\n      0xffffffffffffffffffffffffffffffffffffffffffffffffffffffffffffffff\n        /* \"#utility.yul\":6605:6610   */\n      dup3\n        /* \"#utility.yul\":6602:6679   */\n      sub\n        /* \"#utility.yul\":6599:6702   */\n      tag_269\n      jumpi\n        /* \"#utility.yul\":6682:6700   */\n      tag_270\n      tag_182\n      jump\t// in\n    tag_270:\n        /* \"#utility.yul\":6599:6702   */\n    tag_269:\n        /* \"#utility.yul\":6729:6730   */\n      0x01\n        /* \"#utility.yul\":6722:6727   */\n      dup3\n        /* \"#utility.yul\":6718:6731   */\n      add\n        /* \"#utility.yul\":6711:6731   */\n      swap1\n      pop\n        /* \"#utility.yul\":6504:6737   */\n      swap2\n      swap1\n      pop\n      jump\t// out\n        /* \"#utility.yul\":6743:6934   */\n    tag_107:\n        /* \"#utility.yul\":6783:6786   */\n      0x00\n        /* \"#utility.yul\":6802:6822   */\n      tag_272\n        /* \"#utility.yul\":6820:6821   */\n      dup3\n        /* \"#utility.yul\":6802:6822   */\n      tag_160\n      jump\t// in\n    tag_272:\n        /* \"#utility.yul\":6797:6822   */\n      swap2\n      pop\n        /* \"#utility.yul\":6836:6856   */\n      tag_273\n        /* \"#utility.yul\":6854:6855   */\n      dup4\n        /* \"#utility.yul\":6836:6856   */\n      tag_160\n      jump\t// in\n    tag_273:\n        /* \"#utility.yul\":6831:6856   */\n      swap3\n      pop\n        /* \"#utility.yul\":6879:6880   */\n      dup3\n        /* \"#utility.yul\":6876:6877   */\n      dup3\n        /* \"#utility.yul\":6872:6881   */\n      add\n        /* \"#utility.yul\":6865:6881   */\n      swap1\n      pop\n        /* \"#utility.yul\":6900:6903   */\n      dup1\n        /* \"#utility.yul\":6897:6898   */\n      dup3\n        /* \"#utility.yul\":6894:6904   */\n      gt\n        /* \"#utility.yul\":6891:6927   */\n      iszero\n      tag_274\n      jumpi\n        /* \"#utility.yul\":6907:6925   */\n      tag_275\n      tag_182\n      jump\t// in\n    tag_275:\n        /* \"#utility.yul\":6891:6927   */\n    tag_274:\n        /* \"#utility.yul\":6743:6934   */\n      swap3\n      swap2\n      pop\n      pop\n      jump\t// out\n        /* \"#utility.yul\":6940:7164   */\n    tag_183:\n        /* \"#utility.yul\":7080:7114   */\n      0x7468697320766f74696e672073797374656d2073746174696e67206f6e6c7920\n        /* \"#utility.yul\":7076:7077   */\n      0x00\n        /* \"#utility.yul\":7068:7074   */\n      dup3\n        /* \"#utility.yul\":7064:7078   */\n      add\n        /* \"#utility.yul\":7057:7115   */\n      mstore\n        /* \"#utility.yul\":7149:7156   */\n      0x6f776e6572000000000000000000000000000000000000000000000000000000\n        /* \"#utility.yul\":7144:7146   */\n      0x20\n        /* \"#utility.yul\":7136:7142   */\n      dup3\n        /* \"#utility.yul\":7132:7147   */\n      add\n        /* \"#utility.yul\":7125:7157   */\n      mstore\n        /* \"#utility.yul\":6940:7164   */\n      pop\n      jump\t// out\n        /* \"#utility.yul\":7170:7536   */\n    tag_184:\n        /* \"#utility.yul\":7312:7315   */\n      0x00\n        /* \"#utility.yul\":7333:7400   */\n      tag_278\n        /* \"#utility.yul\":7397:7399   */\n      0x25\n        /* \"#utility.yul\":7392:7395   */\n      dup4\n        /* \"#utility.yul\":7333:7400   */\n      tag_175\n      jump\t// in\n    tag_278:\n        /* \"#utility.yul\":7326:7400   */\n      swap2\n      pop\n        /* \"#utility.yul\":7409:7502   */\n      tag_279\n        /* \"#utility.yul\":7498:7501   */\n      dup3\n        /* \"#utility.yul\":7409:7502   */\n      tag_183\n      jump\t// in\n    tag_279:\n        /* \"#utility.yul\":7527:7529   */\n      0x40\n        /* \"#utility.yul\":7522:7525   */\n      dup3\n        /* \"#utility.yul\":7518:7530   */\n      add\n        /* \"#utility.yul\":7511:7530   */\n      swap1\n      pop\n        /* \"#utility.yul\":7170:7536   */\n      swap2\n      swap1\n      pop\n      jump\t// out\n        /* \"#utility.yul\":7542:7961   */\n    tag_112:\n        /* \"#utility.yul\":7708:7712   */\n      0x00\n        /* \"#utility.yul\":7746:7748   */\n      0x20\n        /* \"#utility.yul\":7735:7744   */\n      dup3\n        /* \"#utility.yul\":7731:7749   */\n      add\n        /* \"#utility.yul\":7723:7749   */\n      swap1\n      pop\n        /* \"#utility.yul\":7795:7804   */\n      dup2\n        /* \"#utility.yul\":7789:7793   */\n      dup2\n        /* \"#utility.yul\":7785:7805   */\n      sub\n        /* \"#utility.yul\":7781:7782   */\n      0x00\n        /* \"#utility.yul\":7770:7779   */\n      dup4\n        /* \"#utility.yul\":7766:7783   */\n      add\n        /* \"#utility.yul\":7759:7806   */\n      mstore\n        /* \"#utility.yul\":7823:7954   */\n      tag_281\n        /* \"#utility.yul\":7949:7953   */\n      dup2\n        /* \"#utility.yul\":7823:7954   */\n      tag_184\n      jump\t// in\n    tag_281:\n        /* \"#utility.yul\":7815:7954   */\n      swap1\n      pop\n        /* \"#utility.yul\":7542:7961   */\n      swap2\n      swap1\n      pop\n      jump\t// out\n        /* \"#utility.yul\":7967:8143   */\n    tag_185:\n        /* \"#utility.yul\":8107:8135   */\n      0x766f74696e672073797374656d20686176612073746174696e67000000000000\n        /* \"#utility.yul\":8103:8104   */\n      0x00\n        /* \"#utility.yul\":8095:8101   */\n      dup3\n        /* \"#utility.yul\":8091:8105   */\n      add\n        /* \"#utility.yul\":8084:8136   */\n      mstore\n        /* \"#utility.yul\":7967:8143   */\n      pop\n      jump\t// out\n        /* \"#utility.yul\":8149:8515   */\n    tag_186:\n        /* \"#utility.yul\":8291:8294   */\n      0x00\n        /* \"#utility.yul\":8312:8379   */\n      tag_284\n        /* \"#utility.yul\":8376:8378   */\n      0x1a\n        /* \"#utility.yul\":8371:8374   */\n      dup4\n        /* \"#utility.yul\":8312:8379   */\n      tag_175\n      jump\t// in\n    tag_284:\n        /* \"#utility.yul\":8305:8379   */\n      swap2\n      pop\n        /* \"#utility.yul\":8388:8481   */\n      tag_285\n        /* \"#utility.yul\":8477:8480   */\n      dup3\n        /* \"#utility.yul\":8388:8481   */\n      tag_185\n      jump\t// in\n    tag_285:\n        /* \"#utility.yul\":8506:8508   */\n      0x20\n        /* \"#utility.yul\":8501:8504   */\n      dup3\n        /* \"#utility.yul\":8497:8509   */\n      add\n        /* \"#utility.yul\":8490:8509   */\n      swap1\n      pop\n        /* \"#utility.yul\":8149:8515   */\n      swap2\n      swap1\n      pop\n      jump\t// out\n        /* \"#utility.yul\":8521:8940   */\n    tag_115:\n        /* \"#utility.yul\":8687:8691   */\n      0x00\n        /* \"#utility.yul\":8725:8727   */\n      0x20\n        /* \"#utility.yul\":8714:8723   */\n      dup3\n        /* \"#utility.yul\":8710:8728   */\n      add\n        /* \"#utility.yul\":8702:8728   */\n      swap1\n      pop\n        /* \"#utility.yul\":8774:8783   */\n      dup2\n        /* \"#utility.yul\":8768:8772   */\n      dup2\n        /* \"#utility.yul\":8764:8784   */\n      sub\n        /* \"#utility.yul\":8760:8761   */\n      0x00\n        /* \"#utility.yul\":8749:8758   */\n      dup4\n        /* \"#utility.yul\":8745:8762   */\n      add\n        /* \"#utility.yul\":8738:8785   */\n      mstore\n        /* \"#utility.yul\":8802:8933   */\n      tag_287\n        /* \"#utility.yul\":8928:8932   */\n      dup2\n        /* \"#utility.yul\":8802:8933   */\n      tag_186\n      jump\t// in\n    tag_287:\n        /* \"#utility.yul\":8794:8933   */\n      swap1\n      pop\n        /* \"#utility.yul\":8521:8940   */\n      swap2\n      swap1\n      pop\n      jump\t// out\n        /* \"#utility.yul\":8946:9121   */\n    tag_187:\n        /* \"#utility.yul\":9086:9113   */\n      0x766f74696e6720737461747573206e6f742073746174696e6700000000000000\n        /* \"#utility.yul\":9082:9083   */\n      0x00\n        /* \"#utility.yul\":9074:9080   */\n      dup3\n        /* \"#utility.yul\":9070:9084   */\n      add\n        /* \"#utility.yul\":9063:9114   */\n      mstore\n        /* \"#utility.yul\":8946:9121   */\n      pop\n      jump\t// out\n        /* \"#utility.yul\":9127:9493   */\n    tag_188:\n        /* \"#utility.yul\":9269:9272   */\n      0x00\n        /* \"#utility.yul\":9290:9357   */\n      tag_290\n        /* \"#utility.yul\":9354:9356   */\n      0x19\n        /* \"#utility.yul\":9349:9352   */\n      dup4\n        /* \"#utility.yul\":9290:9357   */\n      tag_175\n      jump\t// in\n    tag_290:\n        /* \"#utility.yul\":9283:9357   */\n      swap2\n      pop\n        /* \"#utility.yul\":9366:9459   */\n      tag_291\n        /* \"#utility.yul\":9455:9458   */\n      dup3\n        /* \"#utility.yul\":9366:9459   */\n      tag_187\n      jump\t// in\n    tag_291:\n        /* \"#utility.yul\":9484:9486   */\n      0x20\n        /* \"#utility.yul\":9479:9482   */\n      dup3\n        /* \"#utility.yul\":9475:9487   */\n      add\n        /* \"#utility.yul\":9468:9487   */\n      swap1\n      pop\n        /* \"#utility.yul\":9127:9493   */\n      swap2\n      swap1\n      pop\n      jump\t// out\n        /* \"#utility.yul\":9499:9918   */\n    tag_120:\n        /* \"#utility.yul\":9665:9669   */\n      0x00\n        /* \"#utility.yul\":9703:9705   */\n      0x20\n        /* \"#utility.yul\":9692:9701   */\n      dup3\n        /* \"#utility.yul\":9688:9706   */\n      add\n        /* \"#utility.yul\":9680:9706   */\n      swap1\n      pop\n        /* \"#utility.yul\":9752:9761   */\n      dup2\n        /* \"#utility.yul\":9746:9750   */\n      dup2\n        /* \"#utility.yul\":9742:9762   */\n      sub\n        /* \"#utility.yul\":9738:9739   */\n      0x00\n        /* \"#utility.yul\":9727:9736   */\n      dup4\n        /* \"#utility.yul\":9723:9740   */\n      add\n        /* \"#utility.yul\":9716:9763   */\n      mstore\n        /* \"#utility.yul\":9780:9911   */\n      tag_293\n        /* \"#utility.yul\":9906:9910   */\n      dup2\n        /* \"#utility.yul\":9780:9911   */\n      tag_188\n      jump\t// in\n    tag_293:\n        /* \"#utility.yul\":9772:9911   */\n      swap1\n      pop\n        /* \"#utility.yul\":9499:9918   */\n      swap2\n      swap1\n      pop\n      jump\t// out\n        /* \"#utility.yul\":9924:10092   */\n    tag_189:\n        /* \"#utility.yul\":10064:10084   */\n      0x766f74696e672074696d652066696e7365640000000000000000000000000000\n        /* \"#utility.yul\":10060:10061   */\n      0x00\n        /* \"#utility.yul\":10052:10058   */\n      dup3\n        /* \"#utility.yul\":10048:10062   */\n      add\n        /* \"#utility.yul\":10041:10085   */\n      mstore\n        /* \"#utility.yul\":9924:10092   */\n      pop\n      jump\t// out\n        /* \"#utility.yul\":10098:10464   */\n    tag_190:\n        /* \"#utility.yul\":10240:10243   */\n      0x00\n        /* \"#utility.yul\":10261:10328   */\n      tag_296\n        /* \"#utility.yul\":10325:10327   */\n      0x12\n        /* \"#utility.yul\":10320:10323   */\n      dup4\n        /* \"#utility.yul\":10261:10328   */\n      tag_175\n      jump\t// in\n    tag_296:\n        /* \"#utility.yul\":10254:10328   */\n      swap2\n      pop\n        /* \"#utility.yul\":10337:10430   */\n      tag_297\n        /* \"#utility.yul\":10426:10429   */\n      dup3\n        /* \"#utility.yul\":10337:10430   */\n      tag_189\n      jump\t// in\n    tag_297:\n        /* \"#utility.yul\":10455:10457   */\n      0x20\n        /* \"#utility.yul\":10450:10453   */\n      dup3\n        /* \"#utility.yul\":10446:10458   */\n      add\n        /* \"#utility.yul\":10439:10458   */\n      swap1\n      pop\n        /* \"#utility.yul\":10098:10464   */\n      swap2\n      swap1\n      pop\n      jump\t// out\n        /* \"#utility.yul\":10470:10889   */\n    tag_123:\n        /* \"#utility.yul\":10636:10640   */\n      0x00\n        /* \"#utility.yul\":10674:10676   */\n      0x20\n        /* \"#utility.yul\":10663:10672   */\n      dup3\n        /* \"#utility.yul\":10659:10677   */\n      add\n        /* \"#utility.yul\":10651:10677   */\n      swap1\n      pop\n        /* \"#utility.yul\":10723:10732   */\n      dup2\n        /* \"#utility.yul\":10717:10721   */\n      dup2\n        /* \"#utility.yul\":10713:10733   */\n      sub\n        /* \"#utility.yul\":10709:10710   */\n      0x00\n        /* \"#utility.yul\":10698:10707   */\n      dup4\n        /* \"#utility.yul\":10694:10711   */\n      add\n        /* \"#utility.yul\":10687:10734   */\n      mstore\n        /* \"#utility.yul\":10751:10882   */\n      tag_299\n        /* \"#utility.yul\":10877:10881   */\n      dup2\n        /* \"#utility.yul\":10751:10882   */\n      tag_190\n      jump\t// in\n    tag_299:\n        /* \"#utility.yul\":10743:10882   */\n      swap1\n      pop\n        /* \"#utility.yul\":10470:10889   */\n      swap2\n      swap1\n      pop\n      jump\t// out\n        /* \"#utility.yul\":10895:11070   */\n    tag_191:\n        /* \"#utility.yul\":11035:11062   */\n      0x796f752063616e27742070617274696369706574206865726500000000000000\n        /* \"#utility.yul\":11031:11032   */\n      0x00\n        /* \"#utility.yul\":11023:11029   */\n      dup3\n        /* \"#utility.yul\":11019:11033   */\n      add\n        /* \"#utility.yul\":11012:11063   */\n      mstore\n        /* \"#utility.yul\":10895:11070   */\n      pop\n      jump\t// out\n        /* \"#utility.yul\":11076:11442   */\n    tag_192:\n        /* \"#utility.yul\":11218:11221   */\n      0x00\n        /* \"#utility.yul\":11239:11306   */\n      tag_302\n        /* \"#utility.yul\":11303:11305   */\n      0x19\n        /* \"#utility.yul\":11298:11301   */\n      dup4\n        /* \"#utility.yul\":11239:11306   */\n      tag_175\n      jump\t// in\n    tag_302:\n        /* \"#utility.yul\":11232:11306   */\n      swap2\n      pop\n        /* \"#utility.yul\":11315:11408   */\n      tag_303\n        /* \"#utility.yul\":11404:11407   */\n      dup3\n        /* \"#utility.yul\":11315:11408   */\n      tag_191\n      jump\t// in\n    tag_303:\n        /* \"#utility.yul\":11433:11435   */\n      0x20\n        /* \"#utility.yul\":11428:11431   */\n      dup3\n        /* \"#utility.yul\":11424:11436   */\n      add\n        /* \"#utility.yul\":11417:11436   */\n      swap1\n      pop\n        /* \"#utility.yul\":11076:11442   */\n      swap2\n      swap1\n      pop\n      jump\t// out\n        /* \"#utility.yul\":11448:11867   */\n    tag_126:\n        /* \"#utility.yul\":11614:11618   */\n      0x00\n        /* \"#utility.yul\":11652:11654   */\n      0x20\n        /* \"#utility.yul\":11641:11650   */\n      dup3\n        /* \"#utility.yul\":11637:11655   */\n      add\n        /* \"#utility.yul\":11629:11655   */\n      swap1\n      pop\n        /* \"#utility.yul\":11701:11710   */\n      dup2\n        /* \"#utility.yul\":11695:11699   */\n      dup2\n        /* \"#utility.yul\":11691:11711   */\n      sub\n        /* \"#utility.yul\":11687:11688   */\n      0x00\n        /* \"#utility.yul\":11676:11685   */\n      dup4\n        /* \"#utility.yul\":11672:11689   */\n      add\n        /* \"#utility.yul\":11665:11712   */\n      mstore\n        /* \"#utility.yul\":11729:11860   */\n      tag_305\n        /* \"#utility.yul\":11855:11859   */\n      dup2\n        /* \"#utility.yul\":11729:11860   */\n      tag_192\n      jump\t// in\n    tag_305:\n        /* \"#utility.yul\":11721:11860   */\n      swap1\n      pop\n        /* \"#utility.yul\":11448:11867   */\n      swap2\n      swap1\n      pop\n      jump\t// out\n        /* \"#utility.yul\":11873:12040   */\n    tag_193:\n        /* \"#utility.yul\":12013:12032   */\n      0x796f7520616c726561647920766f746564000000000000000000000000000000\n        /* \"#utility.yul\":12009:12010   */\n      0x00\n        /* \"#utility.yul\":12001:12007   */\n      dup3\n        /* \"#utility.yul\":11997:12011   */\n      add\n        /* \"#utility.yul\":11990:12033   */\n      mstore\n        /* \"#utility.yul\":11873:12040   */\n      pop\n      jump\t// out\n        /* \"#utility.yul\":12046:12412   */\n    tag_194:\n        /* \"#utility.yul\":12188:12191   */\n      0x00\n        /* \"#utility.yul\":12209:12276   */\n      tag_308\n        /* \"#utility.yul\":12273:12275   */\n      0x11\n        /* \"#utility.yul\":12268:12271   */\n      dup4\n        /* \"#utility.yul\":12209:12276   */\n      tag_175\n      jump\t// in\n    tag_308:\n        /* \"#utility.yul\":12202:12276   */\n      swap2\n      pop\n        /* \"#utility.yul\":12285:12378   */\n      tag_309\n        /* \"#utility.yul\":12374:12377   */\n      dup3\n        /* \"#utility.yul\":12285:12378   */\n      tag_193\n      jump\t// in\n    tag_309:\n        /* \"#utility.yul\":12403:12405   */\n      0x20\n        /* \"#utility.yul\":12398:12401   */\n      dup3\n        /* \"#utility.yul\":12394:12406   */\n      add\n        /* \"#utility.yul\":12387:12406   */\n      swap1\n      pop\n        /* \"#utility.yul\":12046:12412   */\n      swap2\n      swap1\n      pop\n      jump\t// out\n        /* \"#utility.yul\":12418:12837   */\n    tag_129:\n        /* \"#utility.yul\":12584:12588   */\n      0x00\n        /* \"#utility.yul\":12622:12624   */\n      0x20\n        /* \"#utility.yul\":12611:12620   */\n      dup3\n        /* \"#utility.yul\":12607:12625   */\n      add\n        /* \"#utility.yul\":12599:12625   */\n      swap1\n      pop\n        /* \"#utility.yul\":12671:12680   */\n      dup2\n        /* \"#utility.yul\":12665:12669   */\n      dup2\n        /* \"#utility.yul\":12661:12681   */\n      sub\n        /* \"#utility.yul\":12657:12658   */\n      0x00\n        /* \"#utility.yul\":12646:12655   */\n      dup4\n        /* \"#utility.yul\":12642:12659   */\n      add\n        /* \"#utility.yul\":12635:12682   */\n      mstore\n        /* \"#utility.yul\":12699:12830   */\n      tag_311\n        /* \"#utility.yul\":12825:12829   */\n      dup2\n        /* \"#utility.yul\":12699:12830   */\n      tag_194\n      jump\t// in\n    tag_311:\n        /* \"#utility.yul\":12691:12830   */\n      swap1\n      pop\n        /* \"#utility.yul\":12418:12837   */\n      swap2\n      swap1\n      pop\n      jump\t// out\n        /* \"#utility.yul\":12843:13013   */\n    tag_195:\n        /* \"#utility.yul\":12983:13005   */\n      0x66756e6420616c726561647920636c61696d6564000000000000000000000000\n        /* \"#utility.yul\":12979:12980   */\n      0x00\n        /* \"#utility.yul\":12971:12977   */\n      dup3\n        /* \"#utility.yul\":12967:12981   */\n      add\n        /* \"#utility.yul\":12960:13006   */\n      mstore\n        /* \"#utility.yul\":12843:13013   */\n      pop\n      jump\t// out\n        /* \"#utility.yul\":13019:13385   */\n    tag_196:\n        /* \"#utility.yul\":13161:13164   */\n      0x00\n        /* \"#utility.yul\":13182:13249   */\n      tag_314\n        /* \"#utility.yul\":13246:13248   */\n      0x14\n        /* \"#utility.yul\":13241:13244   */\n      dup4\n        /* \"#utility.yul\":13182:13249   */\n      tag_175\n      jump\t// in\n    tag_314:\n        /* \"#utility.yul\":13175:13249   */\n      swap2\n      pop\n        /* \"#utility.yul\":13258:13351   */\n      tag_315\n        /* \"#utility.yul\":13347:13350   */\n      dup3\n        /* \"#utility.yul\":13258:13351   */\n      tag_195\n      jump\t// in\n    tag_315:\n        /* \"#utility.yul\":13376:13378   */\n      0x20\n        /* \"#utility.yul\":13371:13374   */\n      dup3\n        /* \"#utility.yul\":13367:13379   */\n      add\n        /* \"#utility.yul\":13360:13379   */\n      swap1\n      pop\n        /* \"#utility.yul\":13019:13385   */\n      swap2\n      swap1\n      pop\n      jump\t// out\n        /* \"#utility.yul\":13391:13810   */\n    tag_134:\n        /* \"#utility.yul\":13557:13561   */\n      0x00\n        /* \"#utility.yul\":13595:13597   */\n      0x20\n        /* \"#utility.yul\":13584:13593   */\n      dup3\n        /* \"#utility.yul\":13580:13598   */\n      add\n        /* \"#utility.yul\":13572:13598   */\n      swap1\n      pop\n        /* \"#utility.yul\":13644:13653   */\n      dup2\n        /* \"#utility.yul\":13638:13642   */\n      dup2\n        /* \"#utility.yul\":13634:13654   */\n      sub\n        /* \"#utility.yul\":13630:13631   */\n      0x00\n        /* \"#utility.yul\":13619:13628   */\n      dup4\n        /* \"#utility.yul\":13615:13632   */\n      add\n        /* \"#utility.yul\":13608:13655   */\n      mstore\n        /* \"#utility.yul\":13672:13803   */\n      tag_317\n        /* \"#utility.yul\":13798:13802   */\n      dup2\n        /* \"#utility.yul\":13672:13803   */\n      tag_196\n      jump\t// in\n    tag_317:\n        /* \"#utility.yul\":13664:13803   */\n      swap1\n      pop\n        /* \"#utility.yul\":13391:13810   */\n      swap2\n      swap1\n      pop\n      jump\t// out\n        /* \"#utility.yul\":13816:13989   */\n    tag_197:\n        /* \"#utility.yul\":13956:13981   */\n      0x6f6e6c792063616e20636c61696d6564206f776e657221000000000000000000\n        /* \"#utility.yul\":13952:13953   */\n      0x00\n        /* \"#utility.yul\":13944:13950   */\n      dup3\n        /* \"#utility.yul\":13940:13954   */\n      add\n        /* \"#utility.yul\":13933:13982   */\n      mstore\n        /* \"#utility.yul\":13816:13989   */\n      pop\n      jump\t// out\n        /* \"#utility.yul\":13995:14361   */\n    tag_198:\n        /* \"#utility.yul\":14137:14140   */\n      0x00\n        /* \"#utility.yul\":14158:14225   */\n      tag_320\n        /* \"#utility.yul\":14222:14224   */\n      0x17\n        /* \"#utility.yul\":14217:14220   */\n      dup4\n        /* \"#utility.yul\":14158:14225   */\n      tag_175\n      jump\t// in\n    tag_320:\n        /* \"#utility.yul\":14151:14225   */\n      swap2\n      pop\n        /* \"#utility.yul\":14234:14327   */\n      tag_321\n        /* \"#utility.yul\":14323:14326   */\n      dup3\n        /* \"#utility.yul\":14234:14327   */\n      tag_197\n      jump\t// in\n    tag_321:\n        /* \"#utility.yul\":14352:14354   */\n      0x20\n        /* \"#utility.yul\":14347:14350   */\n      dup3\n        /* \"#utility.yul\":14343:14355   */\n      add\n        /* \"#utility.yul\":14336:14355   */\n      swap1\n      pop\n        /* \"#utility.yul\":13995:14361   */\n      swap2\n      swap1\n      pop\n      jump\t// out\n        /* \"#utility.yul\":14367:14786   */\n    tag_137:\n        /* \"#utility.yul\":14533:14537   */\n      0x00\n        /* \"#utility.yul\":14571:14573   */\n      0x20\n        /* \"#utility.yul\":14560:14569   */\n      dup3\n        /* \"#utility.yul\":14556:14574   */\n      add\n        /* \"#utility.yul\":14548:14574   */\n      swap1\n      pop\n        /* \"#utility.yul\":14620:14629   */\n      dup2\n        /* \"#utility.yul\":14614:14618   */\n      dup2\n        /* \"#utility.yul\":14610:14630   */\n      sub\n        /* \"#utility.yul\":14606:14607   */\n      0x00\n        /* \"#utility.yul\":14595:14604   */\n      dup4\n        /* \"#utility.yul\":14591:14608   */\n      add\n        /* \"#utility.yul\":14584:14631   */\n      mstore\n        /* \"#utility.yul\":14648:14779   */\n      tag_323\n        /* \"#utility.yul\":14774:14778   */\n      dup2\n        /* \"#utility.yul\":14648:14779   */\n      tag_198\n      jump\t// in\n    tag_323:\n        /* \"#utility.yul\":14640:14779   */\n      swap1\n      pop\n        /* \"#utility.yul\":14367:14786   */\n      swap2\n      swap1\n      pop\n      jump\t// out\n        /* \"#utility.yul\":14792:15026   */\n    tag_199:\n        /* \"#utility.yul\":14932:14966   */\n      0x746869732066756e642074686174206d65616e2063726f776466756e64696e67\n        /* \"#utility.yul\":14928:14929   */\n      0x00\n        /* \"#utility.yul\":14920:14926   */\n      dup3\n        /* \"#utility.yul\":14916:14930   */\n      add\n        /* \"#utility.yul\":14909:14967   */\n      mstore\n        /* \"#utility.yul\":15001:15018   */\n      0x20617265206e6f742066696e7365640000000000000000000000000000000000\n        /* \"#utility.yul\":14996:14998   */\n      0x20\n        /* \"#utility.yul\":14988:14994   */\n      dup3\n        /* \"#utility.yul\":14984:14999   */\n      add\n        /* \"#utility.yul\":14977:15019   */\n      mstore\n        /* \"#utility.yul\":14792:15026   */\n      pop\n      jump\t// out\n        /* \"#utility.yul\":15032:15398   */\n    tag_200:\n        /* \"#utility.yul\":15174:15177   */\n      0x00\n        /* \"#utility.yul\":15195:15262   */\n      tag_326\n        /* \"#utility.yul\":15259:15261   */\n      0x2f\n        /* \"#utility.yul\":15254:15257   */\n      dup4\n        /* \"#utility.yul\":15195:15262   */\n      tag_175\n      jump\t// in\n    tag_326:\n        /* \"#utility.yul\":15188:15262   */\n      swap2\n      pop\n        /* \"#utility.yul\":15271:15364   */\n      tag_327\n        /* \"#utility.yul\":15360:15363   */\n      dup3\n        /* \"#utility.yul\":15271:15364   */\n      tag_199\n      jump\t// in\n    tag_327:\n        /* \"#utility.yul\":15389:15391   */\n      0x40\n        /* \"#utility.yul\":15384:15387   */\n      dup3\n        /* \"#utility.yul\":15380:15392   */\n      add\n        /* \"#utility.yul\":15373:15392   */\n      swap1\n      pop\n        /* \"#utility.yul\":15032:15398   */\n      swap2\n      swap1\n      pop\n      jump\t// out\n        /* \"#utility.yul\":15404:15823   */\n    tag_140:\n        /* \"#utility.yul\":15570:15574   */\n      0x00\n        /* \"#utility.yul\":15608:15610   */\n      0x20\n        /* \"#utility.yul\":15597:15606   */\n      dup3\n        /* \"#utility.yul\":15593:15611   */\n      add\n        /* \"#utility.yul\":15585:15611   */\n      swap1\n      pop\n        /* \"#utility.yul\":15657:15666   */\n      dup2\n        /* \"#utility.yul\":15651:15655   */\n      dup2\n        /* \"#utility.yul\":15647:15667   */\n      sub\n        /* \"#utility.yul\":15643:15644   */\n      0x00\n        /* \"#utility.yul\":15632:15641   */\n      dup4\n        /* \"#utility.yul\":15628:15645   */\n      add\n        /* \"#utility.yul\":15621:15668   */\n      mstore\n        /* \"#utility.yul\":15685:15816   */\n      tag_329\n        /* \"#utility.yul\":15811:15815   */\n      dup2\n        /* \"#utility.yul\":15685:15816   */\n      tag_200\n      jump\t// in\n    tag_329:\n        /* \"#utility.yul\":15677:15816   */\n      swap1\n      pop\n        /* \"#utility.yul\":15404:15823   */\n      swap2\n      swap1\n      pop\n      jump\t// out\n        /* \"#utility.yul\":15829:16009   */\n    tag_201:\n        /* \"#utility.yul\":15877:15954   */\n      0x4e487b7100000000000000000000000000000000000000000000000000000000\n        /* \"#utility.yul\":15874:15875   */\n      0x00\n        /* \"#utility.yul\":15867:15955   */\n      mstore\n        /* \"#utility.yul\":15974:15978   */\n      0x12\n        /* \"#utility.yul\":15971:15972   */\n      0x04\n        /* \"#utility.yul\":15964:15979   */\n      mstore\n        /* \"#utility.yul\":15998:16002   */\n      0x24\n        /* \"#utility.yul\":15995:15996   */\n      0x00\n        /* \"#utility.yul\":15988:16003   */\n      revert\n        /* \"#utility.yul\":16015:16200   */\n    tag_143:\n        /* \"#utility.yul\":16055:16056   */\n      0x00\n        /* \"#utility.yul\":16072:16092   */\n      tag_332\n        /* \"#utility.yul\":16090:16091   */\n      dup3\n        /* \"#utility.yul\":16072:16092   */\n      tag_160\n      jump\t// in\n    tag_332:\n        /* \"#utility.yul\":16067:16092   */\n      swap2\n      pop\n        /* \"#utility.yul\":16106:16126   */\n      tag_333\n        /* \"#utility.yul\":16124:16125   */\n      dup4\n        /* \"#utility.yul\":16106:16126   */\n      tag_160\n      jump\t// in\n    tag_333:\n        /* \"#utility.yul\":16101:16126   */\n      swap3\n      pop\n        /* \"#utility.yul\":16145:16146   */\n      dup3\n        /* \"#utility.yul\":16135:16170   */\n      tag_334\n      jumpi\n        /* \"#utility.yul\":16150:16168   */\n      tag_335\n      tag_201\n      jump\t// in\n    tag_335:\n        /* \"#utility.yul\":16135:16170   */\n    tag_334:\n        /* \"#utility.yul\":16192:16193   */\n      dup3\n        /* \"#utility.yul\":16189:16190   */\n      dup3\n        /* \"#utility.yul\":16185:16194   */\n      div\n        /* \"#utility.yul\":16180:16194   */\n      swap1\n      pop\n        /* \"#utility.yul\":16015:16200   */\n      swap3\n      swap2\n      pop\n      pop\n      jump\t// out\n        /* \"#utility.yul\":16206:16400   */\n    tag_145:\n        /* \"#utility.yul\":16246:16250   */\n      0x00\n        /* \"#utility.yul\":16266:16286   */\n      tag_337\n        /* \"#utility.yul\":16284:16285   */\n      dup3\n        /* \"#utility.yul\":16266:16286   */\n      tag_160\n      jump\t// in\n    tag_337:\n        /* \"#utility.yul\":16261:16286   */\n      swap2\n      pop\n        /* \"#utility.yul\":16300:16320   */\n      tag_338\n        /* \"#utility.yul\":16318:16319   */\n      dup4\n        /* \"#utility.yul\":16300:16320   */\n      tag_160\n      jump\t// in\n    tag_338:\n        /* \"#utility.yul\":16295:16320   */\n      swap3\n      pop\n        /* \"#utility.yul\":16344:16345   */\n      dup3\n        /* \"#utility.yul\":16341:16342   */\n      dup3\n        /* \"#utility.yul\":16337:16346   */\n      sub\n        /* \"#utility.yul\":16329:16346   */\n      swap1\n      pop\n        /* \"#utility.yul\":16368:16369   */\n      dup2\n        /* \"#utility.yul\":16362:16366   */\n      dup2\n        /* \"#utility.yul\":16359:16370   */\n      gt\n        /* \"#utility.yul\":16356:16393   */\n      iszero\n      tag_339\n      jumpi\n        /* \"#utility.yul\":16373:16391   */\n      tag_340\n      tag_182\n      jump\t// in\n    tag_340:\n        /* \"#utility.yul\":16356:16393   */\n    tag_339:\n        /* \"#utility.yul\":16206:16400   */\n      swap3\n      swap2\n      pop\n      pop\n      jump\t// out\n        /* \"#utility.yul\":16406:16582   */\n    tag_202:\n        /* \"#utility.yul\":16546:16574   */\n      0x766f74696e672068617665206e6f742079657420706173736564000000000000\n        /* \"#utility.yul\":16542:16543   */\n      0x00\n        /* \"#utility.yul\":16534:16540   */\n      dup3\n        /* \"#utility.yul\":16530:16544   */\n      add\n        /* \"#utility.yul\":16523:16575   */\n      mstore\n        /* \"#utility.yul\":16406:16582   */\n      pop\n      jump\t// out\n        /* \"#utility.yul\":16588:16954   */\n    tag_203:\n        /* \"#utility.yul\":16730:16733   */\n      0x00\n        /* \"#utility.yul\":16751:16818   */\n      tag_343\n        /* \"#utility.yul\":16815:16817   */\n      0x1a\n        /* \"#utility.yul\":16810:16813   */\n      dup4\n        /* \"#utility.yul\":16751:16818   */\n      tag_175\n      jump\t// in\n    tag_343:\n        /* \"#utility.yul\":16744:16818   */\n      swap2\n      pop\n        /* \"#utility.yul\":16827:16920   */\n      tag_344\n        /* \"#utility.yul\":16916:16919   */\n      dup3\n        /* \"#utility.yul\":16827:16920   */\n      tag_202\n      jump\t// in\n    tag_344:\n        /* \"#utility.yul\":16945:16947   */\n      0x20\n        /* \"#utility.yul\":16940:16943   */\n      dup3\n        /* \"#utility.yul\":16936:16948   */\n      add\n        /* \"#utility.yul\":16929:16948   */\n      swap1\n      pop\n        /* \"#utility.yul\":16588:16954   */\n      swap2\n      swap1\n      pop\n      jump\t// out\n        /* \"#utility.yul\":16960:17379   */\n    tag_152:\n        /* \"#utility.yul\":17126:17130   */\n      0x00\n        /* \"#utility.yul\":17164:17166   */\n      0x20\n        /* \"#utility.yul\":17153:17162   */\n      dup3\n        /* \"#utility.yul\":17149:17167   */\n      add\n        /* \"#utility.yul\":17141:17167   */\n      swap1\n      pop\n        /* \"#utility.yul\":17213:17222   */\n      dup2\n        /* \"#utility.yul\":17207:17211   */\n      dup2\n        /* \"#utility.yul\":17203:17223   */\n      sub\n        /* \"#utility.yul\":17199:17200   */\n      0x00\n        /* \"#utility.yul\":17188:17197   */\n      dup4\n        /* \"#utility.yul\":17184:17201   */\n      add\n        /* \"#utility.yul\":17177:17224   */\n      mstore\n        /* \"#utility.yul\":17241:17372   */\n      tag_346\n        /* \"#utility.yul\":17367:17371   */\n      dup2\n        /* \"#utility.yul\":17241:17372   */\n      tag_203\n      jump\t// in\n    tag_346:\n        /* \"#utility.yul\":17233:17372   */\n      swap1\n      pop\n        /* \"#utility.yul\":16960:17379   */\n      swap2\n      swap1\n      pop\n      jump\t// out\n        /* \"#utility.yul\":17385:17556   */\n    tag_204:\n        /* \"#utility.yul\":17525:17548   */\n      0x20686572726520766f74696e6720646976696465640000000000000000000000\n        /* \"#utility.yul\":17521:17522   */\n      0x00\n        /* \"#utility.yul\":17513:17519   */\n      dup3\n        /* \"#utility.yul\":17509:17523   */\n      add\n        /* \"#utility.yul\":17502:17549   */\n      mstore\n        /* \"#utility.yul\":17385:17556   */\n      pop\n      jump\t// out\n        /* \"#utility.yul\":17562:17928   */\n    tag_205:\n        /* \"#utility.yul\":17704:17707   */\n      0x00\n        /* \"#utility.yul\":17725:17792   */\n      tag_349\n        /* \"#utility.yul\":17789:17791   */\n      0x15\n        /* \"#utility.yul\":17784:17787   */\n      dup4\n        /* \"#utility.yul\":17725:17792   */\n      tag_175\n      jump\t// in\n    tag_349:\n        /* \"#utility.yul\":17718:17792   */\n      swap2\n      pop\n        /* \"#utility.yul\":17801:17894   */\n      tag_350\n        /* \"#utility.yul\":17890:17893   */\n      dup3\n        /* \"#utility.yul\":17801:17894   */\n      tag_204\n      jump\t// in\n    tag_350:\n        /* \"#utility.yul\":17919:17921   */\n      0x20\n        /* \"#utility.yul\":17914:17917   */\n      dup3\n        /* \"#utility.yul\":17910:17922   */\n      add\n        /* \"#utility.yul\":17903:17922   */\n      swap1\n      pop\n        /* \"#utility.yul\":17562:17928   */\n      swap2\n      swap1\n      pop\n      jump\t// out\n        /* \"#utility.yul\":17934:18353   */\n    tag_156:\n        /* \"#utility.yul\":18100:18104   */\n      0x00\n        /* \"#utility.yul\":18138:18140   */\n      0x20\n        /* \"#utility.yul\":18127:18136   */\n      dup3\n        /* \"#utility.yul\":18123:18141   */\n      add\n        /* \"#utility.yul\":18115:18141   */\n      swap1\n      pop\n        /* \"#utility.yul\":18187:18196   */\n      dup2\n        /* \"#utility.yul\":18181:18185   */\n      dup2\n        /* \"#utility.yul\":18177:18197   */\n      sub\n        /* \"#utility.yul\":18173:18174   */\n      0x00\n        /* \"#utility.yul\":18162:18171   */\n      dup4\n        /* \"#utility.yul\":18158:18175   */\n      add\n        /* \"#utility.yul\":18151:18198   */\n      mstore\n        /* \"#utility.yul\":18215:18346   */\n      tag_352\n        /* \"#utility.yul\":18341:18345   */\n      dup2\n        /* \"#utility.yul\":18215:18346   */\n      tag_205\n      jump\t// in\n    tag_352:\n        /* \"#utility.yul\":18207:18346   */\n      swap1\n      pop\n        /* \"#utility.yul\":17934:18353   */\n      swap2\n      swap1\n      pop\n      jump\t// out\n\n    auxdata: 0xa2646970667358221220b7bd8d3becea806dd9631be3bd0e3287d78865d3ecbce6faac99c65bce2e81a664736f6c63430008120033\n}\n",
				"bytecode": {
					"linkReferences": {},
					"object": "608060405260016008553480156200001657600080fd5b50604051620017ca380380620017ca83398181016040528101906200003c9190620000df565b336000806101000a81548173ffffffffffffffffffffffffffffffffffffffff021916908373ffffffffffffffffffffffffffffffffffffffff16021790555081600281905550804262000091919062000155565b600981905550505062000190565b600080fd5b6000819050919050565b620000b981620000a4565b8114620000c557600080fd5b50565b600081519050620000d981620000ae565b92915050565b60008060408385031215620000f957620000f86200009f565b5b60006200010985828601620000c8565b92505060206200011c85828601620000c8565b9150509250929050565b7f4e487b7100000000000000000000000000000000000000000000000000000000600052601160045260246000fd5b60006200016282620000a4565b91506200016f83620000a4565b92508282019050808211156200018a576200018962000126565b5b92915050565b61162a80620001a06000396000f3fe6080604052600436106100fe5760003560e01c80633cfe8d2311610095578063aec2ccae11610064578063aec2ccae146102bc578063c6b79c61146102f9578063c71daccb14610324578063e4fbe65e1461034f578063ecf87fa11461037a576100fe565b80633cfe8d231461023a5780635d96aa43146102635780635da420351461027a5780638da5cb5b14610291576100fe565b80631ea736e0116100d15780631ea736e01461018e57806325c302e4146101b95780632eb9b695146101e45780633197cbb61461020f576100fe565b8063076887e81461010357806311377e501461012e57806319f41a40146101385780631dd83a4914610163575b600080fd5b34801561010f57600080fd5b506101186103b7565b6040516101259190610cd4565b60405180910390f35b6101366103bd565b005b34801561014457600080fd5b5061014d6105d6565b60405161015a9190610d0a565b60405180910390f35b34801561016f57600080fd5b506101786105e9565b6040516101859190610cd4565b60405180910390f35b34801561019a57600080fd5b506101a36105ef565b6040516101b09190610cd4565b60405180910390f35b3480156101c557600080fd5b506101ce6105f5565b6040516101db9190610cd4565b60405180910390f35b3480156101f057600080fd5b506101f96105fb565b6040516102069190610d0a565b60405180910390f35b34801561021b57600080fd5b5061022461060e565b6040516102319190610cd4565b60405180910390f35b34801561024657600080fd5b50610261600480360381019061025c9190610d56565b610614565b005b34801561026f57600080fd5b50610278610716565b005b34801561028657600080fd5b5061028f610937565b005b34801561029d57600080fd5b506102a6610c4b565b6040516102b39190610dc4565b60405180910390f35b3480156102c857600080fd5b506102e360048036038101906102de9190610e1d565b610c6f565b6040516102f09190610d0a565b60405180910390f35b34801561030557600080fd5b5061030e610c8f565b60405161031b9190610cd4565b60405180910390f35b34801561033057600080fd5b50610339610c95565b6040516103469190610cd4565b60405180910390f35b34801561035b57600080fd5b50610364610c9d565b6040516103719190610cd4565b60405180910390f35b34801561038657600080fd5b506103a1600480360381019061039c9190610e1d565b610ca3565b6040516103ae9190610cd4565b60405180910390f35b60025481565b6009544210610401576040517f08c379a00000000000000000000000000000000000000000000000000000000081526004016103f890610ea7565b60405180910390fd5b60008054906101000a900473ffffffffffffffffffffffffffffffffffffffff1673ffffffffffffffffffffffffffffffffffffffff163373ffffffffffffffffffffffffffffffffffffffff160361048f576040517f08c379a000000000000000000000000000000000000000000000000000000000815260040161048690610f13565b60405180910390fd5b600034146104d2576040517f08c379a00000000000000000000000000000000000000000000000000000000081526004016104c990610fa5565b60405180910390fd5b6000600b60003373ffffffffffffffffffffffffffffffffffffffff1673ffffffffffffffffffffffffffffffffffffffff1681526020019081526020016000205403610532576003600081548092919061052c90610ff4565b91905055505b34600b60003373ffffffffffffffffffffffffffffffffffffffff1673ffffffffffffffffffffffffffffffffffffffff1681526020019081526020016000205461057d919061103c565b600b60003373ffffffffffffffffffffffffffffffffffffffff1673ffffffffffffffffffffffffffffffffffffffff16815260200190815260200160002081905550346002546105ce919061103c565b600281905550565b600a60009054906101000a900460ff1681565b60045481565b60055481565b60035481565b600a60019054906101000a900460ff1681565b60095481565b60008054906101000a900473ffffffffffffffffffffffffffffffffffffffff1673ffffffffffffffffffffffffffffffffffffffff163373ffffffffffffffffffffffffffffffffffffffff16146106a2576040517f08c379a0000000000000000000000000000000000000000000000000000000008152600401610699906110e2565b60405180910390fd5b60095442116106e6576040517f08c379a00000000000000000000000000000000000000000000000000000000081526004016106dd9061114e565b60405180910390fd5b80426106f2919061103c565b6005819055506001600a60006101000a81548160ff02191690831515021790555050565b60011515600a60009054906101000a900460ff1615151461076c576040517f08c379a0000000000000000000000000000000000000000000000000000000008152600401610763906111ba565b60405180910390fd5b60055442106107b0576040517f08c379a00000000000000000000000000000000000000000000000000000000081526004016107a790611226565b60405180910390fd5b6000600b60003373ffffffffffffffffffffffffffffffffffffffff1673ffffffffffffffffffffffffffffffffffffffff1681526020019081526020016000205403610832576040517f08c379a000000000000000000000000000000000000000000000000000000000815260040161082990611292565b60405180910390fd5b60001515600c60003373ffffffffffffffffffffffffffffffffffffffff1673ffffffffffffffffffffffffffffffffffffffff16815260200190815260200160002060009054906101000a900460ff161515146108c5576040517f08c379a00000000000000000000000000000000000000000000000000000000081526004016108bc906112fe565b60405180910390fd5b600460008154809291906108d890610ff4565b91905055506001600c60003373ffffffffffffffffffffffffffffffffffffffff1673ffffffffffffffffffffffffffffffffffffffff16815260200190815260200160002060006101000a81548160ff021916908315150217905550565b60001515600a60019054906101000a900460ff1615151461098d576040517f08c379a00000000000000000000000000000000000000000000000000000000081526004016109849061136a565b60405180910390fd5b60008054906101000a900473ffffffffffffffffffffffffffffffffffffffff1673ffffffffffffffffffffffffffffffffffffffff163373ffffffffffffffffffffffffffffffffffffffff1614610a1b576040517f08c379a0000000000000000000000000000000000000000000000000000000008152600401610a12906113d6565b60405180910390fd5b6009544211610a5f576040517f08c379a0000000000000000000000000000000000000000000000000000000008152600401610a5690611468565b60405180910390fd5b600160085403610b28576000600a600254610a7a91906114b7565b905080600254610a8a91906114e8565b60068190555060086000815480929190610aa390610ff4565b919050555060011515600a60019054906101000a9050505060008054906101000a900473ffffffffffffffffffffffffffffffffffffffff1673ffffffffffffffffffffffffffffffffffffffff166108fc829081150290604051600060405180830381858888f19350505050158015610b21573d6000803e3d6000fd5b5050610c49565b6005544211610b6c576040517f08c379a0000000000000000000000000000000000000000000000000000000008152600401610b6390611568565b60405180910390fd5b6002600354610b7b91906114b7565b60045411610bbe576040517f08c379a0000000000000000000000000000000000000000000000000000000008152600401610bb5906115d4565b60405180910390fd5b60011515600a60009054906101000a9050505060006006549050600060068190555060008054906101000a900473ffffffffffffffffffffffffffffffffffffffff1673ffffffffffffffffffffffffffffffffffffffff166108fc829081150290604051600060405180830381858888f19350505050158015610c46573d6000803e3d6000fd5b50505b565b60008054906101000a900473ffffffffffffffffffffffffffffffffffffffff1681565b600c6020528060005260406000206000915054906101000a900460ff1681565b60075481565b600047905090565b60015481565b600b6020528060005260406000206000915090505481565b6000819050919050565b610cce81610cbb565b82525050565b6000602082019050610ce96000830184610cc5565b92915050565b60008115159050919050565b610d0481610cef565b82525050565b6000602082019050610d1f6000830184610cfb565b92915050565b600080fd5b610d3381610cbb565b8114610d3e57600080fd5b50565b600081359050610d5081610d2a565b92915050565b600060208284031215610d6c57610d6b610d25565b5b6000610d7a84828501610d41565b91505092915050565b600073ffffffffffffffffffffffffffffffffffffffff82169050919050565b6000610dae82610d83565b9050919050565b610dbe81610da3565b82525050565b6000602082019050610dd96000830184610db5565b92915050565b6000610dea82610d83565b9050919050565b610dfa81610ddf565b8114610e0557600080fd5b50565b600081359050610e1781610df1565b92915050565b600060208284031215610e3357610e32610d25565b5b6000610e4184828501610e08565b91505092915050565b600082825260208201905092915050565b7f66756e6374696f6e20616c736f20676f696e672077656c6c2100000000000000600082015250565b6000610e91601983610e4a565b9150610e9c82610e5b565b602082019050919050565b60006020820190508181036000830152610ec081610e84565b9050919050565b7f796f752063616e2774206769766520616e79206d6f6e65792100000000000000600082015250565b6000610efd601983610e4a565b9150610f0882610ec7565b602082019050919050565b60006020820190508181036000830152610f2c81610ef0565b9050919050565b7f796f752063616e277420676976652030206d696e6975656d20676976656e203160008201527f2100000000000000000000000000000000000000000000000000000000000000602082015250565b6000610f8f602183610e4a565b9150610f9a82610f33565b604082019050919050565b60006020820190508181036000830152610fbe81610f82565b9050919050565b7f4e487b7100000000000000000000000000000000000000000000000000000000600052601160045260246000fd5b6000610fff82610cbb565b91507fffffffffffffffffffffffffffffffffffffffffffffffffffffffffffffffff820361103157611030610fc5565b5b600182019050919050565b600061104782610cbb565b915061105283610cbb565b925082820190508082111561106a57611069610fc5565b5b92915050565b7f7468697320766f74696e672073797374656d2073746174696e67206f6e6c792060008201527f6f776e6572000000000000000000000000000000000000000000000000000000602082015250565b60006110cc602583610e4a565b91506110d782611070565b604082019050919050565b600060208201905081810360008301526110fb816110bf565b9050919050565b7f766f74696e672073797374656d20686176612073746174696e67000000000000600082015250565b6000611138601a83610e4a565b915061114382611102565b602082019050919050565b600060208201905081810360008301526111678161112b565b9050919050565b7f766f74696e6720737461747573206e6f742073746174696e6700000000000000600082015250565b60006111a4601983610e4a565b91506111af8261116e565b602082019050919050565b600060208201905081810360008301526111d381611197565b9050919050565b7f766f74696e672074696d652066696e7365640000000000000000000000000000600082015250565b6000611210601283610e4a565b915061121b826111da565b602082019050919050565b6000602082019050818103600083015261123f81611203565b9050919050565b7f796f752063616e27742070617274696369706574206865726500000000000000600082015250565b600061127c601983610e4a565b915061128782611246565b602082019050919050565b600060208201905081810360008301526112ab8161126f565b9050919050565b7f796f7520616c726561647920766f746564000000000000000000000000000000600082015250565b60006112e8601183610e4a565b91506112f3826112b2565b602082019050919050565b60006020820190508181036000830152611317816112db565b9050919050565b7f66756e6420616c726561647920636c61696d6564000000000000000000000000600082015250565b6000611354601483610e4a565b915061135f8261131e565b602082019050919050565b6000602082019050818103600083015261138381611347565b9050919050565b7f6f6e6c792063616e20636c61696d6564206f776e657221000000000000000000600082015250565b60006113c0601783610e4a565b91506113cb8261138a565b602082019050919050565b600060208201905081810360008301526113ef816113b3565b9050919050565b7f746869732066756e642074686174206d65616e2063726f776466756e64696e6760008201527f20617265206e6f742066696e7365640000000000000000000000000000000000602082015250565b6000611452602f83610e4a565b915061145d826113f6565b604082019050919050565b6000602082019050818103600083015261148181611445565b9050919050565b7f4e487b7100000000000000000000000000000000000000000000000000000000600052601260045260246000fd5b60006114c282610cbb565b91506114cd83610cbb565b9250826114dd576114dc611488565b5b828204905092915050565b60006114f382610cbb565b91506114fe83610cbb565b925082820390508181111561151657611515610fc5565b5b92915050565b7f766f74696e672068617665206e6f742079657420706173736564000000000000600082015250565b6000611552601a83610e4a565b915061155d8261151c565b602082019050919050565b6000602082019050818103600083015261158181611545565b9050919050565b7f20686572726520766f74696e6720646976696465640000000000000000000000600082015250565b60006115be601583610e4a565b91506115c982611588565b602082019050919050565b600060208201905081810360008301526115ed816115b1565b905091905056fea2646970667358221220b7bd8d3becea806dd9631be3bd0e3287d78865d3ecbce6faac99c65bce2e81a664736f6c63430008120033",
					"opcodes": "PUSH1 0x80 PUSH1 0x40 MSTORE PUSH1 0x1 PUSH1 0x8 SSTORE CALLVALUE DUP1 ISZERO PUSH3 0x16 JUMPI PUSH1 0x0 DUP1 REVERT JUMPDEST POP PUSH1 0x40 MLOAD PUSH3 0x17CA CODESIZE SUB DUP1 PUSH3 0x17CA DUP4 CODECOPY DUP2 DUP2 ADD PUSH1 0x40 MSTORE DUP2 ADD SWAP1 PUSH3 0x3C SWAP2 SWAP1 PUSH3 0xDF JUMP JUMPDEST CALLER PUSH1 0x0 DUP1 PUSH2 0x100 EXP DUP2 SLOAD DUP2 PUSH20 0xFFFFFFFFFFFFFFFFFFFFFFFFFFFFFFFFFFFFFFFF MUL NOT AND SWAP1 DUP4 PUSH20 0xFFFFFFFFFFFFFFFFFFFFFFFFFFFFFFFFFFFFFFFF AND MUL OR SWAP1 SSTORE POP DUP2 PUSH1 0x2 DUP2 SWAP1 SSTORE POP DUP1 TIMESTAMP PUSH3 0x91 SWAP2 SWAP1 PUSH3 0x155 JUMP JUMPDEST PUSH1 0x9 DUP2 SWAP1 SSTORE POP POP POP PUSH3 0x190 JUMP JUMPDEST PUSH1 0x0 DUP1 REVERT JUMPDEST PUSH1 0x0 DUP2 SWAP1 POP SWAP2 SWAP1 POP JUMP JUMPDEST PUSH3 0xB9 DUP2 PUSH3 0xA4 JUMP JUMPDEST DUP2 EQ PUSH3 0xC5 JUMPI PUSH1 0x0 DUP1 REVERT JUMPDEST POP JUMP JUMPDEST PUSH1 0x0 DUP2 MLOAD SWAP1 POP PUSH3 0xD9 DUP2 PUSH3 0xAE JUMP JUMPDEST SWAP3 SWAP2 POP POP JUMP JUMPDEST PUSH1 0x0 DUP1 PUSH1 0x40 DUP4 DUP6 SUB SLT ISZERO PUSH3 0xF9 JUMPI PUSH3 0xF8 PUSH3 0x9F JUMP JUMPDEST JUMPDEST PUSH1 0x0 PUSH3 0x109 DUP6 DUP3 DUP7 ADD PUSH3 0xC8 JUMP JUMPDEST SWAP3 POP POP PUSH1 0x20 PUSH3 0x11C DUP6 DUP3 DUP7 ADD PUSH3 0xC8 JUMP JUMPDEST SWAP2 POP POP SWAP3 POP SWAP3 SWAP1 POP JUMP JUMPDEST PUSH32 0x4E487B7100000000000000000000000000000000000000000000000000000000 PUSH1 0x0 MSTORE PUSH1 0x11 PUSH1 0x4 MSTORE PUSH1 0x24 PUSH1 0x0 REVERT JUMPDEST PUSH1 0x0 PUSH3 0x162 DUP3 PUSH3 0xA4 JUMP JUMPDEST SWAP2 POP PUSH3 0x16F DUP4 PUSH3 0xA4 JUMP JUMPDEST SWAP3 POP DUP3 DUP3 ADD SWAP1 POP DUP1 DUP3 GT ISZERO PUSH3 0x18A JUMPI PUSH3 0x189 PUSH3 0x126 JUMP JUMPDEST JUMPDEST SWAP3 SWAP2 POP POP JUMP JUMPDEST PUSH2 0x162A DUP1 PUSH3 0x1A0 PUSH1 0x0 CODECOPY PUSH1 0x0 RETURN INVALID PUSH1 0x80 PUSH1 0x40 MSTORE PUSH1 0x4 CALLDATASIZE LT PUSH2 0xFE JUMPI PUSH1 0x0 CALLDATALOAD PUSH1 0xE0 SHR DUP1 PUSH4 0x3CFE8D23 GT PUSH2 0x95 JUMPI DUP1 PUSH4 0xAEC2CCAE GT PUSH2 0x64 JUMPI DUP1 PUSH4 0xAEC2CCAE EQ PUSH2 0x2BC JUMPI DUP1 PUSH4 0xC6B79C61 EQ PUSH2 0x2F9 JUMPI DUP1 PUSH4 0xC71DACCB EQ PUSH2 0x324 JUMPI DUP1 PUSH4 0xE4FBE65E EQ PUSH2 0x34F JUMPI DUP1 PUSH4 0xECF87FA1 EQ PUSH2 0x37A JUMPI PUSH2 0xFE JUMP JUMPDEST DUP1 PUSH4 0x3CFE8D23 EQ PUSH2 0x23A JUMPI DUP1 PUSH4 0x5D96AA43 EQ PUSH2 0x263 JUMPI DUP1 PUSH4 0x5DA42035 EQ PUSH2 0x27A JUMPI DUP1 PUSH4 0x8DA5CB5B EQ PUSH2 0x291 JUMPI PUSH2 0xFE JUMP JUMPDEST DUP1 PUSH4 0x1EA736E0 GT PUSH2 0xD1 JUMPI DUP1 PUSH4 0x1EA736E0 EQ PUSH2 0x18E JUMPI DUP1 PUSH4 0x25C302E4 EQ PUSH2 0x1B9 JUMPI DUP1 PUSH4 0x2EB9B695 EQ PUSH2 0x1E4 JUMPI DUP1 PUSH4 0x3197CBB6 EQ PUSH2 0x20F JUMPI PUSH2 0xFE JUMP JUMPDEST DUP1 PUSH4 0x76887E8 EQ PUSH2 0x103 JUMPI DUP1 PUSH4 0x11377E50 EQ PUSH2 0x12E JUMPI DUP1 PUSH4 0x19F41A40 EQ PUSH2 0x138 JUMPI DUP1 PUSH4 0x1DD83A49 EQ PUSH2 0x163 JUMPI JUMPDEST PUSH1 0x0 DUP1 REVERT JUMPDEST CALLVALUE DUP1 ISZERO PUSH2 0x10F JUMPI PUSH1 0x0 DUP1 REVERT JUMPDEST POP PUSH2 0x118 PUSH2 0x3B7 JUMP JUMPDEST PUSH1 0x40 MLOAD PUSH2 0x125 SWAP2 SWAP1 PUSH2 0xCD4 JUMP JUMPDEST PUSH1 0x40 MLOAD DUP1 SWAP2 SUB SWAP1 RETURN JUMPDEST PUSH2 0x136 PUSH2 0x3BD JUMP JUMPDEST STOP JUMPDEST CALLVALUE DUP1 ISZERO PUSH2 0x144 JUMPI PUSH1 0x0 DUP1 REVERT JUMPDEST POP PUSH2 0x14D PUSH2 0x5D6 JUMP JUMPDEST PUSH1 0x40 MLOAD PUSH2 0x15A SWAP2 SWAP1 PUSH2 0xD0A JUMP JUMPDEST PUSH1 0x40 MLOAD DUP1 SWAP2 SUB SWAP1 RETURN JUMPDEST CALLVALUE DUP1 ISZERO PUSH2 0x16F JUMPI PUSH1 0x0 DUP1 REVERT JUMPDEST POP PUSH2 0x178 PUSH2 0x5E9 JUMP JUMPDEST PUSH1 0x40 MLOAD PUSH2 0x185 SWAP2 SWAP1 PUSH2 0xCD4 JUMP JUMPDEST PUSH1 0x40 MLOAD DUP1 SWAP2 SUB SWAP1 RETURN JUMPDEST CALLVALUE DUP1 ISZERO PUSH2 0x19A JUMPI PUSH1 0x0 DUP1 REVERT JUMPDEST POP PUSH2 0x1A3 PUSH2 0x5EF JUMP JUMPDEST PUSH1 0x40 MLOAD PUSH2 0x1B0 SWAP2 SWAP1 PUSH2 0xCD4 JUMP JUMPDEST PUSH1 0x40 MLOAD DUP1 SWAP2 SUB SWAP1 RETURN JUMPDEST CALLVALUE DUP1 ISZERO PUSH2 0x1C5 JUMPI PUSH1 0x0 DUP1 REVERT JUMPDEST POP PUSH2 0x1CE PUSH2 0x5F5 JUMP JUMPDEST PUSH1 0x40 MLOAD PUSH2 0x1DB SWAP2 SWAP1 PUSH2 0xCD4 JUMP JUMPDEST PUSH1 0x40 MLOAD DUP1 SWAP2 SUB SWAP1 RETURN JUMPDEST CALLVALUE DUP1 ISZERO PUSH2 0x1F0 JUMPI PUSH1 0x0 DUP1 REVERT JUMPDEST POP PUSH2 0x1F9 PUSH2 0x5FB JUMP JUMPDEST PUSH1 0x40 MLOAD PUSH2 0x206 SWAP2 SWAP1 PUSH2 0xD0A JUMP JUMPDEST PUSH1 0x40 MLOAD DUP1 SWAP2 SUB SWAP1 RETURN JUMPDEST CALLVALUE DUP1 ISZERO PUSH2 0x21B JUMPI PUSH1 0x0 DUP1 REVERT JUMPDEST POP PUSH2 0x224 PUSH2 0x60E JUMP JUMPDEST PUSH1 0x40 MLOAD PUSH2 0x231 SWAP2 SWAP1 PUSH2 0xCD4 JUMP JUMPDEST PUSH1 0x40 MLOAD DUP1 SWAP2 SUB SWAP1 RETURN JUMPDEST CALLVALUE DUP1 ISZERO PUSH2 0x246 JUMPI PUSH1 0x0 DUP1 REVERT JUMPDEST POP PUSH2 0x261 PUSH1 0x4 DUP1 CALLDATASIZE SUB DUP2 ADD SWAP1 PUSH2 0x25C SWAP2 SWAP1 PUSH2 0xD56 JUMP JUMPDEST PUSH2 0x614 JUMP JUMPDEST STOP JUMPDEST CALLVALUE DUP1 ISZERO PUSH2 0x26F JUMPI PUSH1 0x0 DUP1 REVERT JUMPDEST POP PUSH2 0x278 PUSH2 0x716 JUMP JUMPDEST STOP JUMPDEST CALLVALUE DUP1 ISZERO PUSH2 0x286 JUMPI PUSH1 0x0 DUP1 REVERT JUMPDEST POP PUSH2 0x28F PUSH2 0x937 JUMP JUMPDEST STOP JUMPDEST CALLVALUE DUP1 ISZERO PUSH2 0x29D JUMPI PUSH1 0x0 DUP1 REVERT JUMPDEST POP PUSH2 0x2A6 PUSH2 0xC4B JUMP JUMPDEST PUSH1 0x40 MLOAD PUSH2 0x2B3 SWAP2 SWAP1 PUSH2 0xDC4 JUMP JUMPDEST PUSH1 0x40 MLOAD DUP1 SWAP2 SUB SWAP1 RETURN JUMPDEST CALLVALUE DUP1 ISZERO PUSH2 0x2C8 JUMPI PUSH1 0x0 DUP1 REVERT JUMPDEST POP PUSH2 0x2E3 PUSH1 0x4 DUP1 CALLDATASIZE SUB DUP2 ADD SWAP1 PUSH2 0x2DE SWAP2 SWAP1 PUSH2 0xE1D JUMP JUMPDEST PUSH2 0xC6F JUMP JUMPDEST PUSH1 0x40 MLOAD PUSH2 0x2F0 SWAP2 SWAP1 PUSH2 0xD0A JUMP JUMPDEST PUSH1 0x40 MLOAD DUP1 SWAP2 SUB SWAP1 RETURN JUMPDEST CALLVALUE DUP1 ISZERO PUSH2 0x305 JUMPI PUSH1 0x0 DUP1 REVERT JUMPDEST POP PUSH2 0x30E PUSH2 0xC8F JUMP JUMPDEST PUSH1 0x40 MLOAD PUSH2 0x31B SWAP2 SWAP1 PUSH2 0xCD4 JUMP JUMPDEST PUSH1 0x40 MLOAD DUP1 SWAP2 SUB SWAP1 RETURN JUMPDEST CALLVALUE DUP1 ISZERO PUSH2 0x330 JUMPI PUSH1 0x0 DUP1 REVERT JUMPDEST POP PUSH2 0x339 PUSH2 0xC95 JUMP JUMPDEST PUSH1 0x40 MLOAD PUSH2 0x346 SWAP2 SWAP1 PUSH2 0xCD4 JUMP JUMPDEST PUSH1 0x40 MLOAD DUP1 SWAP2 SUB SWAP1 RETURN JUMPDEST CALLVALUE DUP1 ISZERO PUSH2 0x35B JUMPI PUSH1 0x0 DUP1 REVERT JUMPDEST POP PUSH2 0x364 PUSH2 0xC9D JUMP JUMPDEST PUSH1 0x40 MLOAD PUSH2 0x371 SWAP2 SWAP1 PUSH2 0xCD4 JUMP JUMPDEST PUSH1 0x40 MLOAD DUP1 SWAP2 SUB SWAP1 RETURN JUMPDEST CALLVALUE DUP1 ISZERO PUSH2 0x386 JUMPI PUSH1 0x0 DUP1 REVERT JUMPDEST POP PUSH2 0x3A1 PUSH1 0x4 DUP1 CALLDATASIZE SUB DUP2 ADD SWAP1 PUSH2 0x39C SWAP2 SWAP1 PUSH2 0xE1D JUMP JUMPDEST PUSH2 0xCA3 JUMP JUMPDEST PUSH1 0x40 MLOAD PUSH2 0x3AE SWAP2 SWAP1 PUSH2 0xCD4 JUMP JUMPDEST PUSH1 0x40 MLOAD DUP1 SWAP2 SUB SWAP1 RETURN JUMPDEST PUSH1 0x2 SLOAD DUP2 JUMP JUMPDEST PUSH1 0x9 SLOAD TIMESTAMP LT PUSH2 0x401 JUMPI PUSH1 0x40 MLOAD PUSH32 0x8C379A000000000000000000000000000000000000000000000000000000000 DUP2 MSTORE PUSH1 0x4 ADD PUSH2 0x3F8 SWAP1 PUSH2 0xEA7 JUMP JUMPDEST PUSH1 0x40 MLOAD DUP1 SWAP2 SUB SWAP1 REVERT JUMPDEST PUSH1 0x0 DUP1 SLOAD SWAP1 PUSH2 0x100 EXP SWAP1 DIV PUSH20 0xFFFFFFFFFFFFFFFFFFFFFFFFFFFFFFFFFFFFFFFF AND PUSH20 0xFFFFFFFFFFFFFFFFFFFFFFFFFFFFFFFFFFFFFFFF AND CALLER PUSH20 0xFFFFFFFFFFFFFFFFFFFFFFFFFFFFFFFFFFFFFFFF AND SUB PUSH2 0x48F JUMPI PUSH1 0x40 MLOAD PUSH32 0x8C379A000000000000000000000000000000000000000000000000000000000 DUP2 MSTORE PUSH1 0x4 ADD PUSH2 0x486 SWAP1 PUSH2 0xF13 JUMP JUMPDEST PUSH1 0x40 MLOAD DUP1 SWAP2 SUB SWAP1 REVERT JUMPDEST PUSH1 0x0 CALLVALUE EQ PUSH2 0x4D2 JUMPI PUSH1 0x40 MLOAD PUSH32 0x8C379A000000000000000000000000000000000000000000000000000000000 DUP2 MSTORE PUSH1 0x4 ADD PUSH2 0x4C9 SWAP1 PUSH2 0xFA5 JUMP JUMPDEST PUSH1 0x40 MLOAD DUP1 SWAP2 SUB SWAP1 REVERT JUMPDEST PUSH1 0x0 PUSH1 0xB PUSH1 0x0 CALLER PUSH20 0xFFFFFFFFFFFFFFFFFFFFFFFFFFFFFFFFFFFFFFFF AND PUSH20 0xFFFFFFFFFFFFFFFFFFFFFFFFFFFFFFFFFFFFFFFF AND DUP2 MSTORE PUSH1 0x20 ADD SWAP1 DUP2 MSTORE PUSH1 0x20 ADD PUSH1 0x0 KECCAK256 SLOAD SUB PUSH2 0x532 JUMPI PUSH1 0x3 PUSH1 0x0 DUP2 SLOAD DUP1 SWAP3 SWAP2 SWAP1 PUSH2 0x52C SWAP1 PUSH2 0xFF4 JUMP JUMPDEST SWAP2 SWAP1 POP SSTORE POP JUMPDEST CALLVALUE PUSH1 0xB PUSH1 0x0 CALLER PUSH20 0xFFFFFFFFFFFFFFFFFFFFFFFFFFFFFFFFFFFFFFFF AND PUSH20 0xFFFFFFFFFFFFFFFFFFFFFFFFFFFFFFFFFFFFFFFF AND DUP2 MSTORE PUSH1 0x20 ADD SWAP1 DUP2 MSTORE PUSH1 0x20 ADD PUSH1 0x0 KECCAK256 SLOAD PUSH2 0x57D SWAP2 SWAP1 PUSH2 0x103C JUMP JUMPDEST PUSH1 0xB PUSH1 0x0 CALLER PUSH20 0xFFFFFFFFFFFFFFFFFFFFFFFFFFFFFFFFFFFFFFFF AND PUSH20 0xFFFFFFFFFFFFFFFFFFFFFFFFFFFFFFFFFFFFFFFF AND DUP2 MSTORE PUSH1 0x20 ADD SWAP1 DUP2 MSTORE PUSH1 0x20 ADD PUSH1 0x0 KECCAK256 DUP2 SWAP1 SSTORE POP CALLVALUE PUSH1 0x2 SLOAD PUSH2 0x5CE SWAP2 SWAP1 PUSH2 0x103C JUMP JUMPDEST PUSH1 0x2 DUP2 SWAP1 SSTORE POP JUMP JUMPDEST PUSH1 0xA PUSH1 0x0 SWAP1 SLOAD SWAP1 PUSH2 0x100 EXP SWAP1 DIV PUSH1 0xFF AND DUP2 JUMP JUMPDEST PUSH1 0x4 SLOAD DUP2 JUMP JUMPDEST PUSH1 0x5 SLOAD DUP2 JUMP JUMPDEST PUSH1 0x3 SLOAD DUP2 JUMP JUMPDEST PUSH1 0xA PUSH1 0x1 SWAP1 SLOAD SWAP1 PUSH2 0x100 EXP SWAP1 DIV PUSH1 0xFF AND DUP2 JUMP JUMPDEST PUSH1 0x9 SLOAD DUP2 JUMP JUMPDEST PUSH1 0x0 DUP1 SLOAD SWAP1 PUSH2 0x100 EXP SWAP1 DIV PUSH20 0xFFFFFFFFFFFFFFFFFFFFFFFFFFFFFFFFFFFFFFFF AND PUSH20 0xFFFFFFFFFFFFFFFFFFFFFFFFFFFFFFFFFFFFFFFF AND CALLER PUSH20 0xFFFFFFFFFFFFFFFFFFFFFFFFFFFFFFFFFFFFFFFF AND EQ PUSH2 0x6A2 JUMPI PUSH1 0x40 MLOAD PUSH32 0x8C379A000000000000000000000000000000000000000000000000000000000 DUP2 MSTORE PUSH1 0x4 ADD PUSH2 0x699 SWAP1 PUSH2 0x10E2 JUMP JUMPDEST PUSH1 0x40 MLOAD DUP1 SWAP2 SUB SWAP1 REVERT JUMPDEST PUSH1 0x9 SLOAD TIMESTAMP GT PUSH2 0x6E6 JUMPI PUSH1 0x40 MLOAD PUSH32 0x8C379A000000000000000000000000000000000000000000000000000000000 DUP2 MSTORE PUSH1 0x4 ADD PUSH2 0x6DD SWAP1 PUSH2 0x114E JUMP JUMPDEST PUSH1 0x40 MLOAD DUP1 SWAP2 SUB SWAP1 REVERT JUMPDEST DUP1 TIMESTAMP PUSH2 0x6F2 SWAP2 SWAP1 PUSH2 0x103C JUMP JUMPDEST PUSH1 0x5 DUP2 SWAP1 SSTORE POP PUSH1 0x1 PUSH1 0xA PUSH1 0x0 PUSH2 0x100 EXP DUP2 SLOAD DUP2 PUSH1 0xFF MUL NOT AND SWAP1 DUP4 ISZERO ISZERO MUL OR SWAP1 SSTORE POP POP JUMP JUMPDEST PUSH1 0x1 ISZERO ISZERO PUSH1 0xA PUSH1 0x0 SWAP1 SLOAD SWAP1 PUSH2 0x100 EXP SWAP1 DIV PUSH1 0xFF AND ISZERO ISZERO EQ PUSH2 0x76C JUMPI PUSH1 0x40 MLOAD PUSH32 0x8C379A000000000000000000000000000000000000000000000000000000000 DUP2 MSTORE PUSH1 0x4 ADD PUSH2 0x763 SWAP1 PUSH2 0x11BA JUMP JUMPDEST PUSH1 0x40 MLOAD DUP1 SWAP2 SUB SWAP1 REVERT JUMPDEST PUSH1 0x5 SLOAD TIMESTAMP LT PUSH2 0x7B0 JUMPI PUSH1 0x40 MLOAD PUSH32 0x8C379A000000000000000000000000000000000000000000000000000000000 DUP2 MSTORE PUSH1 0x4 ADD PUSH2 0x7A7 SWAP1 PUSH2 0x1226 JUMP JUMPDEST PUSH1 0x40 MLOAD DUP1 SWAP2 SUB SWAP1 REVERT JUMPDEST PUSH1 0x0 PUSH1 0xB PUSH1 0x0 CALLER PUSH20 0xFFFFFFFFFFFFFFFFFFFFFFFFFFFFFFFFFFFFFFFF AND PUSH20 0xFFFFFFFFFFFFFFFFFFFFFFFFFFFFFFFFFFFFFFFF AND DUP2 MSTORE PUSH1 0x20 ADD SWAP1 DUP2 MSTORE PUSH1 0x20 ADD PUSH1 0x0 KECCAK256 SLOAD SUB PUSH2 0x832 JUMPI PUSH1 0x40 MLOAD PUSH32 0x8C379A000000000000000000000000000000000000000000000000000000000 DUP2 MSTORE PUSH1 0x4 ADD PUSH2 0x829 SWAP1 PUSH2 0x1292 JUMP JUMPDEST PUSH1 0x40 MLOAD DUP1 SWAP2 SUB SWAP1 REVERT JUMPDEST PUSH1 0x0 ISZERO ISZERO PUSH1 0xC PUSH1 0x0 CALLER PUSH20 0xFFFFFFFFFFFFFFFFFFFFFFFFFFFFFFFFFFFFFFFF AND PUSH20 0xFFFFFFFFFFFFFFFFFFFFFFFFFFFFFFFFFFFFFFFF AND DUP2 MSTORE PUSH1 0x20 ADD SWAP1 DUP2 MSTORE PUSH1 0x20 ADD PUSH1 0x0 KECCAK256 PUSH1 0x0 SWAP1 SLOAD SWAP1 PUSH2 0x100 EXP SWAP1 DIV PUSH1 0xFF AND ISZERO ISZERO EQ PUSH2 0x8C5 JUMPI PUSH1 0x40 MLOAD PUSH32 0x8C379A000000000000000000000000000000000000000000000000000000000 DUP2 MSTORE PUSH1 0x4 ADD PUSH2 0x8BC SWAP1 PUSH2 0x12FE JUMP JUMPDEST PUSH1 0x40 MLOAD DUP1 SWAP2 SUB SWAP1 REVERT JUMPDEST PUSH1 0x4 PUSH1 0x0 DUP2 SLOAD DUP1 SWAP3 SWAP2 SWAP1 PUSH2 0x8D8 SWAP1 PUSH2 0xFF4 JUMP JUMPDEST SWAP2 SWAP1 POP SSTORE POP PUSH1 0x1 PUSH1 0xC PUSH1 0x0 CALLER PUSH20 0xFFFFFFFFFFFFFFFFFFFFFFFFFFFFFFFFFFFFFFFF AND PUSH20 0xFFFFFFFFFFFFFFFFFFFFFFFFFFFFFFFFFFFFFFFF AND DUP2 MSTORE PUSH1 0x20 ADD SWAP1 DUP2 MSTORE PUSH1 0x20 ADD PUSH1 0x0 KECCAK256 PUSH1 0x0 PUSH2 0x100 EXP DUP2 SLOAD DUP2 PUSH1 0xFF MUL NOT AND SWAP1 DUP4 ISZERO ISZERO MUL OR SWAP1 SSTORE POP JUMP JUMPDEST PUSH1 0x0 ISZERO ISZERO PUSH1 0xA PUSH1 0x1 SWAP1 SLOAD SWAP1 PUSH2 0x100 EXP SWAP1 DIV PUSH1 0xFF AND ISZERO ISZERO EQ PUSH2 0x98D JUMPI PUSH1 0x40 MLOAD PUSH32 0x8C379A000000000000000000000000000000000000000000000000000000000 DUP2 MSTORE PUSH1 0x4 ADD PUSH2 0x984 SWAP1 PUSH2 0x136A JUMP JUMPDEST PUSH1 0x40 MLOAD DUP1 SWAP2 SUB SWAP1 REVERT JUMPDEST PUSH1 0x0 DUP1 SLOAD SWAP1 PUSH2 0x100 EXP SWAP1 DIV PUSH20 0xFFFFFFFFFFFFFFFFFFFFFFFFFFFFFFFFFFFFFFFF AND PUSH20 0xFFFFFFFFFFFFFFFFFFFFFFFFFFFFFFFFFFFFFFFF AND CALLER PUSH20 0xFFFFFFFFFFFFFFFFFFFFFFFFFFFFFFFFFFFFFFFF AND EQ PUSH2 0xA1B JUMPI PUSH1 0x40 MLOAD PUSH32 0x8C379A000000000000000000000000000000000000000000000000000000000 DUP2 MSTORE PUSH1 0x4 ADD PUSH2 0xA12 SWAP1 PUSH2 0x13D6 JUMP JUMPDEST PUSH1 0x40 MLOAD DUP1 SWAP2 SUB SWAP1 REVERT JUMPDEST PUSH1 0x9 SLOAD TIMESTAMP GT PUSH2 0xA5F JUMPI PUSH1 0x40 MLOAD PUSH32 0x8C379A000000000000000000000000000000000000000000000000000000000 DUP2 MSTORE PUSH1 0x4 ADD PUSH2 0xA56 SWAP1 PUSH2 0x1468 JUMP JUMPDEST PUSH1 0x40 MLOAD DUP1 SWAP2 SUB SWAP1 REVERT JUMPDEST PUSH1 0x1 PUSH1 0x8 SLOAD SUB PUSH2 0xB28 JUMPI PUSH1 0x0 PUSH1 0xA PUSH1 0x2 SLOAD PUSH2 0xA7A SWAP2 SWAP1 PUSH2 0x14B7 JUMP JUMPDEST SWAP1 POP DUP1 PUSH1 0x2 SLOAD PUSH2 0xA8A SWAP2 SWAP1 PUSH2 0x14E8 JUMP JUMPDEST PUSH1 0x6 DUP2 SWAP1 SSTORE POP PUSH1 0x8 PUSH1 0x0 DUP2 SLOAD DUP1 SWAP3 SWAP2 SWAP1 PUSH2 0xAA3 SWAP1 PUSH2 0xFF4 JUMP JUMPDEST SWAP2 SWAP1 POP SSTORE POP PUSH1 0x1 ISZERO ISZERO PUSH1 0xA PUSH1 0x1 SWAP1 SLOAD SWAP1 PUSH2 0x100 EXP SWAP1 POP POP POP PUSH1 0x0 DUP1 SLOAD SWAP1 PUSH2 0x100 EXP SWAP1 DIV PUSH20 0xFFFFFFFFFFFFFFFFFFFFFFFFFFFFFFFFFFFFFFFF AND PUSH20 0xFFFFFFFFFFFFFFFFFFFFFFFFFFFFFFFFFFFFFFFF AND PUSH2 0x8FC DUP3 SWAP1 DUP2 ISZERO MUL SWAP1 PUSH1 0x40 MLOAD PUSH1 0x0 PUSH1 0x40 MLOAD DUP1 DUP4 SUB DUP2 DUP6 DUP9 DUP9 CALL SWAP4 POP POP POP POP ISZERO DUP1 ISZERO PUSH2 0xB21 JUMPI RETURNDATASIZE PUSH1 0x0 DUP1 RETURNDATACOPY RETURNDATASIZE PUSH1 0x0 REVERT JUMPDEST POP POP PUSH2 0xC49 JUMP JUMPDEST PUSH1 0x5 SLOAD TIMESTAMP GT PUSH2 0xB6C JUMPI PUSH1 0x40 MLOAD PUSH32 0x8C379A000000000000000000000000000000000000000000000000000000000 DUP2 MSTORE PUSH1 0x4 ADD PUSH2 0xB63 SWAP1 PUSH2 0x1568 JUMP JUMPDEST PUSH1 0x40 MLOAD DUP1 SWAP2 SUB SWAP1 REVERT JUMPDEST PUSH1 0x2 PUSH1 0x3 SLOAD PUSH2 0xB7B SWAP2 SWAP1 PUSH2 0x14B7 JUMP JUMPDEST PUSH1 0x4 SLOAD GT PUSH2 0xBBE JUMPI PUSH1 0x40 MLOAD PUSH32 0x8C379A000000000000000000000000000000000000000000000000000000000 DUP2 MSTORE PUSH1 0x4 ADD PUSH2 0xBB5 SWAP1 PUSH2 0x15D4 JUMP JUMPDEST PUSH1 0x40 MLOAD DUP1 SWAP2 SUB SWAP1 REVERT JUMPDEST PUSH1 0x1 ISZERO ISZERO PUSH1 0xA PUSH1 0x0 SWAP1 SLOAD SWAP1 PUSH2 0x100 EXP SWAP1 POP POP POP PUSH1 0x0 PUSH1 0x6 SLOAD SWAP1 POP PUSH1 0x0 PUSH1 0x6 DUP2 SWAP1 SSTORE POP PUSH1 0x0 DUP1 SLOAD SWAP1 PUSH2 0x100 EXP SWAP1 DIV PUSH20 0xFFFFFFFFFFFFFFFFFFFFFFFFFFFFFFFFFFFFFFFF AND PUSH20 0xFFFFFFFFFFFFFFFFFFFFFFFFFFFFFFFFFFFFFFFF AND PUSH2 0x8FC DUP3 SWAP1 DUP2 ISZERO MUL SWAP1 PUSH1 0x40 MLOAD PUSH1 0x0 PUSH1 0x40 MLOAD DUP1 DUP4 SUB DUP2 DUP6 DUP9 DUP9 CALL SWAP4 POP POP POP POP ISZERO DUP1 ISZERO PUSH2 0xC46 JUMPI RETURNDATASIZE PUSH1 0x0 DUP1 RETURNDATACOPY RETURNDATASIZE PUSH1 0x0 REVERT JUMPDEST POP POP JUMPDEST JUMP JUMPDEST PUSH1 0x0 DUP1 SLOAD SWAP1 PUSH2 0x100 EXP SWAP1 DIV PUSH20 0xFFFFFFFFFFFFFFFFFFFFFFFFFFFFFFFFFFFFFFFF AND DUP2 JUMP JUMPDEST PUSH1 0xC PUSH1 0x20 MSTORE DUP1 PUSH1 0x0 MSTORE PUSH1 0x40 PUSH1 0x0 KECCAK256 PUSH1 0x0 SWAP2 POP SLOAD SWAP1 PUSH2 0x100 EXP SWAP1 DIV PUSH1 0xFF AND DUP2 JUMP JUMPDEST PUSH1 0x7 SLOAD DUP2 JUMP JUMPDEST PUSH1 0x0 SELFBALANCE SWAP1 POP SWAP1 JUMP JUMPDEST PUSH1 0x1 SLOAD DUP2 JUMP JUMPDEST PUSH1 0xB PUSH1 0x20 MSTORE DUP1 PUSH1 0x0 MSTORE PUSH1 0x40 PUSH1 0x0 KECCAK256 PUSH1 0x0 SWAP2 POP SWAP1 POP SLOAD DUP2 JUMP JUMPDEST PUSH1 0x0 DUP2 SWAP1 POP SWAP2 SWAP1 POP JUMP JUMPDEST PUSH2 0xCCE DUP2 PUSH2 0xCBB JUMP JUMPDEST DUP3 MSTORE POP POP JUMP JUMPDEST PUSH1 0x0 PUSH1 0x20 DUP3 ADD SWAP1 POP PUSH2 0xCE9 PUSH1 0x0 DUP4 ADD DUP5 PUSH2 0xCC5 JUMP JUMPDEST SWAP3 SWAP2 POP POP JUMP JUMPDEST PUSH1 0x0 DUP2 ISZERO ISZERO SWAP1 POP SWAP2 SWAP1 POP JUMP JUMPDEST PUSH2 0xD04 DUP2 PUSH2 0xCEF JUMP JUMPDEST DUP3 MSTORE POP POP JUMP JUMPDEST PUSH1 0x0 PUSH1 0x20 DUP3 ADD SWAP1 POP PUSH2 0xD1F PUSH1 0x0 DUP4 ADD DUP5 PUSH2 0xCFB JUMP JUMPDEST SWAP3 SWAP2 POP POP JUMP JUMPDEST PUSH1 0x0 DUP1 REVERT JUMPDEST PUSH2 0xD33 DUP2 PUSH2 0xCBB JUMP JUMPDEST DUP2 EQ PUSH2 0xD3E JUMPI PUSH1 0x0 DUP1 REVERT JUMPDEST POP JUMP JUMPDEST PUSH1 0x0 DUP2 CALLDATALOAD SWAP1 POP PUSH2 0xD50 DUP2 PUSH2 0xD2A JUMP JUMPDEST SWAP3 SWAP2 POP POP JUMP JUMPDEST PUSH1 0x0 PUSH1 0x20 DUP3 DUP5 SUB SLT ISZERO PUSH2 0xD6C JUMPI PUSH2 0xD6B PUSH2 0xD25 JUMP JUMPDEST JUMPDEST PUSH1 0x0 PUSH2 0xD7A DUP5 DUP3 DUP6 ADD PUSH2 0xD41 JUMP JUMPDEST SWAP2 POP POP SWAP3 SWAP2 POP POP JUMP JUMPDEST PUSH1 0x0 PUSH20 0xFFFFFFFFFFFFFFFFFFFFFFFFFFFFFFFFFFFFFFFF DUP3 AND SWAP1 POP SWAP2 SWAP1 POP JUMP JUMPDEST PUSH1 0x0 PUSH2 0xDAE DUP3 PUSH2 0xD83 JUMP JUMPDEST SWAP1 POP SWAP2 SWAP1 POP JUMP JUMPDEST PUSH2 0xDBE DUP2 PUSH2 0xDA3 JUMP JUMPDEST DUP3 MSTORE POP POP JUMP JUMPDEST PUSH1 0x0 PUSH1 0x20 DUP3 ADD SWAP1 POP PUSH2 0xDD9 PUSH1 0x0 DUP4 ADD DUP5 PUSH2 0xDB5 JUMP JUMPDEST SWAP3 SWAP2 POP POP JUMP JUMPDEST PUSH1 0x0 PUSH2 0xDEA DUP3 PUSH2 0xD83 JUMP JUMPDEST SWAP1 POP SWAP2 SWAP1 POP JUMP JUMPDEST PUSH2 0xDFA DUP2 PUSH2 0xDDF JUMP JUMPDEST DUP2 EQ PUSH2 0xE05 JUMPI PUSH1 0x0 DUP1 REVERT JUMPDEST POP JUMP JUMPDEST PUSH1 0x0 DUP2 CALLDATALOAD SWAP1 POP PUSH2 0xE17 DUP2 PUSH2 0xDF1 JUMP JUMPDEST SWAP3 SWAP2 POP POP JUMP JUMPDEST PUSH1 0x0 PUSH1 0x20 DUP3 DUP5 SUB SLT ISZERO PUSH2 0xE33 JUMPI PUSH2 0xE32 PUSH2 0xD25 JUMP JUMPDEST JUMPDEST PUSH1 0x0 PUSH2 0xE41 DUP5 DUP3 DUP6 ADD PUSH2 0xE08 JUMP JUMPDEST SWAP2 POP POP SWAP3 SWAP2 POP POP JUMP JUMPDEST PUSH1 0x0 DUP3 DUP3 MSTORE PUSH1 0x20 DUP3 ADD SWAP1 POP SWAP3 SWAP2 POP POP JUMP JUMPDEST PUSH32 0x66756E6374696F6E20616C736F20676F696E672077656C6C2100000000000000 PUSH1 0x0 DUP3 ADD MSTORE POP JUMP JUMPDEST PUSH1 0x0 PUSH2 0xE91 PUSH1 0x19 DUP4 PUSH2 0xE4A JUMP JUMPDEST SWAP2 POP PUSH2 0xE9C DUP3 PUSH2 0xE5B JUMP JUMPDEST PUSH1 0x20 DUP3 ADD SWAP1 POP SWAP2 SWAP1 POP JUMP JUMPDEST PUSH1 0x0 PUSH1 0x20 DUP3 ADD SWAP1 POP DUP2 DUP2 SUB PUSH1 0x0 DUP4 ADD MSTORE PUSH2 0xEC0 DUP2 PUSH2 0xE84 JUMP JUMPDEST SWAP1 POP SWAP2 SWAP1 POP JUMP JUMPDEST PUSH32 0x796F752063616E2774206769766520616E79206D6F6E65792100000000000000 PUSH1 0x0 DUP3 ADD MSTORE POP JUMP JUMPDEST PUSH1 0x0 PUSH2 0xEFD PUSH1 0x19 DUP4 PUSH2 0xE4A JUMP JUMPDEST SWAP2 POP PUSH2 0xF08 DUP3 PUSH2 0xEC7 JUMP JUMPDEST PUSH1 0x20 DUP3 ADD SWAP1 POP SWAP2 SWAP1 POP JUMP JUMPDEST PUSH1 0x0 PUSH1 0x20 DUP3 ADD SWAP1 POP DUP2 DUP2 SUB PUSH1 0x0 DUP4 ADD MSTORE PUSH2 0xF2C DUP2 PUSH2 0xEF0 JUMP JUMPDEST SWAP1 POP SWAP2 SWAP1 POP JUMP JUMPDEST PUSH32 0x796F752063616E277420676976652030206D696E6975656D20676976656E2031 PUSH1 0x0 DUP3 ADD MSTORE PUSH32 0x2100000000000000000000000000000000000000000000000000000000000000 PUSH1 0x20 DUP3 ADD MSTORE POP JUMP JUMPDEST PUSH1 0x0 PUSH2 0xF8F PUSH1 0x21 DUP4 PUSH2 0xE4A JUMP JUMPDEST SWAP2 POP PUSH2 0xF9A DUP3 PUSH2 0xF33 JUMP JUMPDEST PUSH1 0x40 DUP3 ADD SWAP1 POP SWAP2 SWAP1 POP JUMP JUMPDEST PUSH1 0x0 PUSH1 0x20 DUP3 ADD SWAP1 POP DUP2 DUP2 SUB PUSH1 0x0 DUP4 ADD MSTORE PUSH2 0xFBE DUP2 PUSH2 0xF82 JUMP JUMPDEST SWAP1 POP SWAP2 SWAP1 POP JUMP JUMPDEST PUSH32 0x4E487B7100000000000000000000000000000000000000000000000000000000 PUSH1 0x0 MSTORE PUSH1 0x11 PUSH1 0x4 MSTORE PUSH1 0x24 PUSH1 0x0 REVERT JUMPDEST PUSH1 0x0 PUSH2 0xFFF DUP3 PUSH2 0xCBB JUMP JUMPDEST SWAP2 POP PUSH32 0xFFFFFFFFFFFFFFFFFFFFFFFFFFFFFFFFFFFFFFFFFFFFFFFFFFFFFFFFFFFFFFFF DUP3 SUB PUSH2 0x1031 JUMPI PUSH2 0x1030 PUSH2 0xFC5 JUMP JUMPDEST JUMPDEST PUSH1 0x1 DUP3 ADD SWAP1 POP SWAP2 SWAP1 POP JUMP JUMPDEST PUSH1 0x0 PUSH2 0x1047 DUP3 PUSH2 0xCBB JUMP JUMPDEST SWAP2 POP PUSH2 0x1052 DUP4 PUSH2 0xCBB JUMP JUMPDEST SWAP3 POP DUP3 DUP3 ADD SWAP1 POP DUP1 DUP3 GT ISZERO PUSH2 0x106A JUMPI PUSH2 0x1069 PUSH2 0xFC5 JUMP JUMPDEST JUMPDEST SWAP3 SWAP2 POP POP JUMP JUMPDEST PUSH32 0x7468697320766F74696E672073797374656D2073746174696E67206F6E6C7920 PUSH1 0x0 DUP3 ADD MSTORE PUSH32 0x6F776E6572000000000000000000000000000000000000000000000000000000 PUSH1 0x20 DUP3 ADD MSTORE POP JUMP JUMPDEST PUSH1 0x0 PUSH2 0x10CC PUSH1 0x25 DUP4 PUSH2 0xE4A JUMP JUMPDEST SWAP2 POP PUSH2 0x10D7 DUP3 PUSH2 0x1070 JUMP JUMPDEST PUSH1 0x40 DUP3 ADD SWAP1 POP SWAP2 SWAP1 POP JUMP JUMPDEST PUSH1 0x0 PUSH1 0x20 DUP3 ADD SWAP1 POP DUP2 DUP2 SUB PUSH1 0x0 DUP4 ADD MSTORE PUSH2 0x10FB DUP2 PUSH2 0x10BF JUMP JUMPDEST SWAP1 POP SWAP2 SWAP1 POP JUMP JUMPDEST PUSH32 0x766F74696E672073797374656D20686176612073746174696E67000000000000 PUSH1 0x0 DUP3 ADD MSTORE POP JUMP JUMPDEST PUSH1 0x0 PUSH2 0x1138 PUSH1 0x1A DUP4 PUSH2 0xE4A JUMP JUMPDEST SWAP2 POP PUSH2 0x1143 DUP3 PUSH2 0x1102 JUMP JUMPDEST PUSH1 0x20 DUP3 ADD SWAP1 POP SWAP2 SWAP1 POP JUMP JUMPDEST PUSH1 0x0 PUSH1 0x20 DUP3 ADD SWAP1 POP DUP2 DUP2 SUB PUSH1 0x0 DUP4 ADD MSTORE PUSH2 0x1167 DUP2 PUSH2 0x112B JUMP JUMPDEST SWAP1 POP SWAP2 SWAP1 POP JUMP JUMPDEST PUSH32 0x766F74696E6720737461747573206E6F742073746174696E6700000000000000 PUSH1 0x0 DUP3 ADD MSTORE POP JUMP JUMPDEST PUSH1 0x0 PUSH2 0x11A4 PUSH1 0x19 DUP4 PUSH2 0xE4A JUMP JUMPDEST SWAP2 POP PUSH2 0x11AF DUP3 PUSH2 0x116E JUMP JUMPDEST PUSH1 0x20 DUP3 ADD SWAP1 POP SWAP2 SWAP1 POP JUMP JUMPDEST PUSH1 0x0 PUSH1 0x20 DUP3 ADD SWAP1 POP DUP2 DUP2 SUB PUSH1 0x0 DUP4 ADD MSTORE PUSH2 0x11D3 DUP2 PUSH2 0x1197 JUMP JUMPDEST SWAP1 POP SWAP2 SWAP1 POP JUMP JUMPDEST PUSH32 0x766F74696E672074696D652066696E7365640000000000000000000000000000 PUSH1 0x0 DUP3 ADD MSTORE POP JUMP JUMPDEST PUSH1 0x0 PUSH2 0x1210 PUSH1 0x12 DUP4 PUSH2 0xE4A JUMP JUMPDEST SWAP2 POP PUSH2 0x121B DUP3 PUSH2 0x11DA JUMP JUMPDEST PUSH1 0x20 DUP3 ADD SWAP1 POP SWAP2 SWAP1 POP JUMP JUMPDEST PUSH1 0x0 PUSH1 0x20 DUP3 ADD SWAP1 POP DUP2 DUP2 SUB PUSH1 0x0 DUP4 ADD MSTORE PUSH2 0x123F DUP2 PUSH2 0x1203 JUMP JUMPDEST SWAP1 POP SWAP2 SWAP1 POP JUMP JUMPDEST PUSH32 0x796F752063616E27742070617274696369706574206865726500000000000000 PUSH1 0x0 DUP3 ADD MSTORE POP JUMP JUMPDEST PUSH1 0x0 PUSH2 0x127C PUSH1 0x19 DUP4 PUSH2 0xE4A JUMP JUMPDEST SWAP2 POP PUSH2 0x1287 DUP3 PUSH2 0x1246 JUMP JUMPDEST PUSH1 0x20 DUP3 ADD SWAP1 POP SWAP2 SWAP1 POP JUMP JUMPDEST PUSH1 0x0 PUSH1 0x20 DUP3 ADD SWAP1 POP DUP2 DUP2 SUB PUSH1 0x0 DUP4 ADD MSTORE PUSH2 0x12AB DUP2 PUSH2 0x126F JUMP JUMPDEST SWAP1 POP SWAP2 SWAP1 POP JUMP JUMPDEST PUSH32 0x796F7520616C726561647920766F746564000000000000000000000000000000 PUSH1 0x0 DUP3 ADD MSTORE POP JUMP JUMPDEST PUSH1 0x0 PUSH2 0x12E8 PUSH1 0x11 DUP4 PUSH2 0xE4A JUMP JUMPDEST SWAP2 POP PUSH2 0x12F3 DUP3 PUSH2 0x12B2 JUMP JUMPDEST PUSH1 0x20 DUP3 ADD SWAP1 POP SWAP2 SWAP1 POP JUMP JUMPDEST PUSH1 0x0 PUSH1 0x20 DUP3 ADD SWAP1 POP DUP2 DUP2 SUB PUSH1 0x0 DUP4 ADD MSTORE PUSH2 0x1317 DUP2 PUSH2 0x12DB JUMP JUMPDEST SWAP1 POP SWAP2 SWAP1 POP JUMP JUMPDEST PUSH32 0x66756E6420616C726561647920636C61696D6564000000000000000000000000 PUSH1 0x0 DUP3 ADD MSTORE POP JUMP JUMPDEST PUSH1 0x0 PUSH2 0x1354 PUSH1 0x14 DUP4 PUSH2 0xE4A JUMP JUMPDEST SWAP2 POP PUSH2 0x135F DUP3 PUSH2 0x131E JUMP JUMPDEST PUSH1 0x20 DUP3 ADD SWAP1 POP SWAP2 SWAP1 POP JUMP JUMPDEST PUSH1 0x0 PUSH1 0x20 DUP3 ADD SWAP1 POP DUP2 DUP2 SUB PUSH1 0x0 DUP4 ADD MSTORE PUSH2 0x1383 DUP2 PUSH2 0x1347 JUMP JUMPDEST SWAP1 POP SWAP2 SWAP1 POP JUMP JUMPDEST PUSH32 0x6F6E6C792063616E20636C61696D6564206F776E657221000000000000000000 PUSH1 0x0 DUP3 ADD MSTORE POP JUMP JUMPDEST PUSH1 0x0 PUSH2 0x13C0 PUSH1 0x17 DUP4 PUSH2 0xE4A JUMP JUMPDEST SWAP2 POP PUSH2 0x13CB DUP3 PUSH2 0x138A JUMP JUMPDEST PUSH1 0x20 DUP3 ADD SWAP1 POP SWAP2 SWAP1 POP JUMP JUMPDEST PUSH1 0x0 PUSH1 0x20 DUP3 ADD SWAP1 POP DUP2 DUP2 SUB PUSH1 0x0 DUP4 ADD MSTORE PUSH2 0x13EF DUP2 PUSH2 0x13B3 JUMP JUMPDEST SWAP1 POP SWAP2 SWAP1 POP JUMP JUMPDEST PUSH32 0x746869732066756E642074686174206D65616E2063726F776466756E64696E67 PUSH1 0x0 DUP3 ADD MSTORE PUSH32 0x20617265206E6F742066696E7365640000000000000000000000000000000000 PUSH1 0x20 DUP3 ADD MSTORE POP JUMP JUMPDEST PUSH1 0x0 PUSH2 0x1452 PUSH1 0x2F DUP4 PUSH2 0xE4A JUMP JUMPDEST SWAP2 POP PUSH2 0x145D DUP3 PUSH2 0x13F6 JUMP JUMPDEST PUSH1 0x40 DUP3 ADD SWAP1 POP SWAP2 SWAP1 POP JUMP JUMPDEST PUSH1 0x0 PUSH1 0x20 DUP3 ADD SWAP1 POP DUP2 DUP2 SUB PUSH1 0x0 DUP4 ADD MSTORE PUSH2 0x1481 DUP2 PUSH2 0x1445 JUMP JUMPDEST SWAP1 POP SWAP2 SWAP1 POP JUMP JUMPDEST PUSH32 0x4E487B7100000000000000000000000000000000000000000000000000000000 PUSH1 0x0 MSTORE PUSH1 0x12 PUSH1 0x4 MSTORE PUSH1 0x24 PUSH1 0x0 REVERT JUMPDEST PUSH1 0x0 PUSH2 0x14C2 DUP3 PUSH2 0xCBB JUMP JUMPDEST SWAP2 POP PUSH2 0x14CD DUP4 PUSH2 0xCBB JUMP JUMPDEST SWAP3 POP DUP3 PUSH2 0x14DD JUMPI PUSH2 0x14DC PUSH2 0x1488 JUMP JUMPDEST JUMPDEST DUP3 DUP3 DIV SWAP1 POP SWAP3 SWAP2 POP POP JUMP JUMPDEST PUSH1 0x0 PUSH2 0x14F3 DUP3 PUSH2 0xCBB JUMP JUMPDEST SWAP2 POP PUSH2 0x14FE DUP4 PUSH2 0xCBB JUMP JUMPDEST SWAP3 POP DUP3 DUP3 SUB SWAP1 POP DUP2 DUP2 GT ISZERO PUSH2 0x1516 JUMPI PUSH2 0x1515 PUSH2 0xFC5 JUMP JUMPDEST JUMPDEST SWAP3 SWAP2 POP POP JUMP JUMPDEST PUSH32 0x766F74696E672068617665206E6F742079657420706173736564000000000000 PUSH1 0x0 DUP3 ADD MSTORE POP JUMP JUMPDEST PUSH1 0x0 PUSH2 0x1552 PUSH1 0x1A DUP4 PUSH2 0xE4A JUMP JUMPDEST SWAP2 POP PUSH2 0x155D DUP3 PUSH2 0x151C JUMP JUMPDEST PUSH1 0x20 DUP3 ADD SWAP1 POP SWAP2 SWAP1 POP JUMP JUMPDEST PUSH1 0x0 PUSH1 0x20 DUP3 ADD SWAP1 POP DUP2 DUP2 SUB PUSH1 0x0 DUP4 ADD MSTORE PUSH2 0x1581 DUP2 PUSH2 0x1545 JUMP JUMPDEST SWAP1 POP SWAP2 SWAP1 POP JUMP JUMPDEST PUSH32 0x20686572726520766F74696E6720646976696465640000000000000000000000 PUSH1 0x0 DUP3 ADD MSTORE POP JUMP JUMPDEST PUSH1 0x0 PUSH2 0x15BE PUSH1 0x15 DUP4 PUSH2 0xE4A JUMP JUMPDEST SWAP2 POP PUSH2 0x15C9 DUP3 PUSH2 0x1588 JUMP JUMPDEST PUSH1 0x20 DUP3 ADD SWAP1 POP SWAP2 SWAP1 POP JUMP JUMPDEST PUSH1 0x0 PUSH1 0x20 DUP3 ADD SWAP1 POP DUP2 DUP2 SUB PUSH1 0x0 DUP4 ADD MSTORE PUSH2 0x15ED DUP2 PUSH2 0x15B1 JUMP JUMPDEST SWAP1 POP SWAP2 SWAP1 POP JUMP INVALID LOG2 PUSH5 0x6970667358 0x22 SLT KECCAK256 0xB7 0xBD DUP14 EXTCODESIZE 0xEC 0xEA DUP1 PUSH14 0xD9631BE3BD0E3287D78865D3ECBC 0xE6 STATICCALL 0xAC SWAP10 0xC6 JUMPDEST 0xCE 0x2E DUP2 0xA6 PUSH5 0x736F6C6343 STOP ADDMOD SLT STOP CALLER "
				},
				"gasEstimates": {
					"creation": {
						"codeDepositCost": "1134800",
						"executionCost": "infinite",
						"totalCost": "infinite"
					},
					"external": {
						"checkBalance()": "405",
						"claimedFunction()": "infinite",
						"claimedFund()": "2588",
						"controlingVotingSystem(uint256)": "infinite",
						"depositeFunction()": "infinite",
						"donars(address)": "2924",
						"endTime()": "2518",
						"owner()": "2600",
						"puteVoting()": "2473",
						"puteVotingHere()": "57667",
						"totalDonors()": "2474",
						"totalFundReice()": "2453",
						"totalFundReq()": "2517",
						"totalVoting()": "2519",
						"voted(address)": "2867",
						"votingEndTime()": "2452",
						"votingStatus()": "2539"
					}
				},
				"methodIdentifiers": {
					"checkBalance()": "c71daccb",
					"claimedFunction()": "5da42035",
					"claimedFund()": "2eb9b695",
					"controlingVotingSystem(uint256)": "3cfe8d23",
					"depositeFunction()": "11377e50",
					"donars(address)": "ecf87fa1",
					"endTime()": "3197cbb6",
					"owner()": "8da5cb5b",
					"puteVoting()": "c6b79c61",
					"puteVotingHere()": "5d96aa43",
					"totalDonors()": "25c302e4",
					"totalFundReice()": "076887e8",
					"totalFundReq()": "e4fbe65e",
					"totalVoting()": "1dd83a49",
					"voted(address)": "aec2ccae",
					"votingEndTime()": "1ea736e0",
					"votingStatus()": "19f41a40"
				}
			},
			"storageLayout": {
				"storage": [
					{
						"astId": 3,
						"contract": "project.sol:youtubeChanelFundReice",
						"label": "owner",
						"offset": 0,
						"slot": "0",
						"type": "t_address_payable"
					},
					{
						"astId": 5,
						"contract": "project.sol:youtubeChanelFundReice",
						"label": "totalFundReq",
						"offset": 0,
						"slot": "1",
						"type": "t_uint256"
					},
					{
						"astId": 7,
						"contract": "project.sol:youtubeChanelFundReice",
						"label": "totalFundReice",
						"offset": 0,
						"slot": "2",
						"type": "t_uint256"
					},
					{
						"astId": 9,
						"contract": "project.sol:youtubeChanelFundReice",
						"label": "totalDonors",
						"offset": 0,
						"slot": "3",
						"type": "t_uint256"
					},
					{
						"astId": 11,
						"contract": "project.sol:youtubeChanelFundReice",
						"label": "totalVoting",
						"offset": 0,
						"slot": "4",
						"type": "t_uint256"
					},
					{
						"astId": 13,
						"contract": "project.sol:youtubeChanelFundReice",
						"label": "votingEndTime",
						"offset": 0,
						"slot": "5",
						"type": "t_uint256"
					},
					{
						"astId": 15,
						"contract": "project.sol:youtubeChanelFundReice",
						"label": "fundRemning",
						"offset": 0,
						"slot": "6",
						"type": "t_uint256"
					},
					{
						"astId": 17,
						"contract": "project.sol:youtubeChanelFundReice",
						"label": "puteVoting",
						"offset": 0,
						"slot": "7",
						"type": "t_uint256"
					},
					{
						"astId": 20,
						"contract": "project.sol:youtubeChanelFundReice",
						"label": "totalAsk",
						"offset": 0,
						"slot": "8",
						"type": "t_uint256"
					},
					{
						"astId": 22,
						"contract": "project.sol:youtubeChanelFundReice",
						"label": "endTime",
						"offset": 0,
						"slot": "9",
						"type": "t_uint256"
					},
					{
						"astId": 24,
						"contract": "project.sol:youtubeChanelFundReice",
						"label": "votingStatus",
						"offset": 0,
						"slot": "10",
						"type": "t_bool"
					},
					{
						"astId": 26,
						"contract": "project.sol:youtubeChanelFundReice",
						"label": "claimedFund",
						"offset": 1,
						"slot": "10",
						"type": "t_bool"
					},
					{
						"astId": 30,
						"contract": "project.sol:youtubeChanelFundReice",
						"label": "donars",
						"offset": 0,
						"slot": "11",
						"type": "t_mapping(t_address,t_uint256)"
					},
					{
						"astId": 34,
						"contract": "project.sol:youtubeChanelFundReice",
						"label": "voted",
						"offset": 0,
						"slot": "12",
						"type": "t_mapping(t_address,t_bool)"
					}
				],
				"types": {
					"t_address": {
						"encoding": "inplace",
						"label": "address",
						"numberOfBytes": "20"
					},
					"t_address_payable": {
						"encoding": "inplace",
						"label": "address payable",
						"numberOfBytes": "20"
					},
					"t_bool": {
						"encoding": "inplace",
						"label": "bool",
						"numberOfBytes": "1"
					},
					"t_mapping(t_address,t_bool)": {
						"encoding": "mapping",
						"key": "t_address",
						"label": "mapping(address => bool)",
						"numberOfBytes": "32",
						"value": "t_bool"
					},
					"t_mapping(t_address,t_uint256)": {
						"encoding": "mapping",
						"key": "t_address",
						"label": "mapping(address => uint256)",
						"numberOfBytes": "32",
						"value": "t_uint256"
					},
					"t_uint256": {
						"encoding": "inplace",
						"label": "uint256",
						"numberOfBytes": "32"
					}
				}
			},
			"userdoc": {
				"kind": "user",
				"methods": {},
				"version": 1
			}
		}
	}
}