{
	"data": {
		"bytecode": {
			"linkReferences": {},
			"object": "6080604052600d600055348015601457600080fd5b506090806100236000396000f3fe6080604052348015600f57600080fd5b506004361060285760003560e01c80634f2be91f14602d575b600080fd5b60336049565b6040518082815260200191505060405180910390f35b6000806001600054019050809150509056fea265627a7a72315820bf3eefca0bd0d98ab5cdcaa86b386e82c126fe0787df9adf1c7b55d4b009ab4264736f6c63430005110032",
			"opcodes": "PUSH1 0x80 PUSH1 0x40 MSTORE PUSH1 0xD PUSH1 0x0 SSTORE CALLVALUE DUP1 ISZERO PUSH1 0x14 JUMPI PUSH1 0x0 DUP1 REVERT JUMPDEST POP PUSH1 0x90 DUP1 PUSH2 0x23 PUSH1 0x0 CODECOPY PUSH1 0x0 RETURN INVALID PUSH1 0x80 PUSH1 0x40 MSTORE CALLVALUE DUP1 ISZERO PUSH1 0xF JUMPI PUSH1 0x0 DUP1 REVERT JUMPDEST POP PUSH1 0x4 CALLDATASIZE LT PUSH1 0x28 JUMPI PUSH1 0x0 CALLDATALOAD PUSH1 0xE0 SHR DUP1 PUSH4 0x4F2BE91F EQ PUSH1 0x2D JUMPI JUMPDEST PUSH1 0x0 DUP1 REVERT JUMPDEST PUSH1 0x33 PUSH1 0x49 JUMP JUMPDEST PUSH1 0x40 MLOAD DUP1 DUP3 DUP2 MSTORE PUSH1 0x20 ADD SWAP2 POP POP PUSH1 0x40 MLOAD DUP1 SWAP2 SUB SWAP1 RETURN JUMPDEST PUSH1 0x0 DUP1 PUSH1 0x1 PUSH1 0x0 SLOAD ADD SWAP1 POP DUP1 SWAP2 POP POP SWAP1 JUMP INVALID LOG2 PUSH6 0x627A7A723158 KECCAK256 0xBF RETURNDATACOPY 0xEF 0xCA SIGNEXTEND 0xD0 0xD9 DUP11 0xB5 0xCD 0xCA 0xA8 PUSH12 0x386E82C126FE0787DF9ADF1C PUSH28 0x55D4B009AB4264736F6C634300051100320000000000000000000000 "
		},
		"gasEstimates": {
			"creation": {
				"codeDepositCost": "28800",
				"executionCost": "20087",
				"totalCost": "48887"
			},
			"external": {
				"add()": "1010"
			}
		},
		"methodIdentifiers": {
			"add()": "4f2be91f"
		}
	},
	"abi": [
		{
			"constant": true,
			"inputs": [],
			"name": "add",
			"outputs": [
				{
					"internalType": "uint256",
					"name": "",
					"type": "uint256"
				}
			],
			"payable": false,
			"stateMutability": "view",
			"type": "function"
		}
	]
}