{
	"data": {
		"bytecode": {
			"linkReferences": {},
			"object": "608060405234801561001057600080fd5b50610501806100206000396000f3fe608060405234801561001057600080fd5b506004361061002b5760003560e01c806350d400cb14610030575b600080fd5b61004a60048036038101906100459190610317565b610060565b60405161005791906104a9565b60405180910390f35b6100686100b1565b600060405180608001604052808781526020018681526020018573ffffffffffffffffffffffffffffffffffffffff168152602001841515815250905080915050949350505050565b60405180608001604052806060815260200160008152602001600073ffffffffffffffffffffffffffffffffffffffff1681526020016000151581525090565b6000604051905090565b600080fd5b600080fd5b600080fd5b600080fd5b6000601f19601f8301169050919050565b7f4e487b7100000000000000000000000000000000000000000000000000000000600052604160045260246000fd5b6101588261010f565b810181811067ffffffffffffffff8211171561017757610176610120565b5b80604052505050565b600061018a6100f1565b9050610196828261014f565b919050565b600067ffffffffffffffff8211156101b6576101b5610120565b5b6101bf8261010f565b9050602081019050919050565b82818337600083830152505050565b60006101ee6101e98461019b565b610180565b90508281526020810184848401111561020a5761020961010a565b5b6102158482856101cc565b509392505050565b600082601f83011261023257610231610105565b5b81356102428482602086016101db565b91505092915050565b6000819050919050565b61025e8161024b565b811461026957600080fd5b50565b60008135905061027b81610255565b92915050565b600073ffffffffffffffffffffffffffffffffffffffff82169050919050565b60006102ac82610281565b9050919050565b6102bc816102a1565b81146102c757600080fd5b50565b6000813590506102d9816102b3565b92915050565b60008115159050919050565b6102f4816102df565b81146102ff57600080fd5b50565b600081359050610311816102eb565b92915050565b60008060008060808587031215610331576103306100fb565b5b600085013567ffffffffffffffff81111561034f5761034e610100565b5b61035b8782880161021d565b945050602061036c8782880161026c565b935050604061037d878288016102ca565b925050606061038e87828801610302565b91505092959194509250565b600081519050919050565b600082825260208201905092915050565b60005b838110156103d45780820151818401526020810190506103b9565b60008484015250505050565b60006103eb8261039a565b6103f581856103a5565b93506104058185602086016103b6565b61040e8161010f565b840191505092915050565b6104228161024b565b82525050565b610431816102a1565b82525050565b610440816102df565b82525050565b6000608083016000830151848203600086015261046382826103e0565b91505060208301516104786020860182610419565b50604083015161048b6040860182610428565b50606083015161049e6060860182610437565b508091505092915050565b600060208201905081810360008301526104c38184610446565b90509291505056fea2646970667358221220b7174e2084d152a14dea39325c44ea45bedaeb63918c842d1024f4afa08db4c564736f6c63430008120033",
			"opcodes": "PUSH1 0x80 PUSH1 0x40 MSTORE CALLVALUE DUP1 ISZERO PUSH2 0x10 JUMPI PUSH1 0x0 DUP1 REVERT JUMPDEST POP PUSH2 0x501 DUP1 PUSH2 0x20 PUSH1 0x0 CODECOPY PUSH1 0x0 RETURN INVALID PUSH1 0x80 PUSH1 0x40 MSTORE CALLVALUE DUP1 ISZERO PUSH2 0x10 JUMPI PUSH1 0x0 DUP1 REVERT JUMPDEST POP PUSH1 0x4 CALLDATASIZE LT PUSH2 0x2B JUMPI PUSH1 0x0 CALLDATALOAD PUSH1 0xE0 SHR DUP1 PUSH4 0x50D400CB EQ PUSH2 0x30 JUMPI JUMPDEST PUSH1 0x0 DUP1 REVERT JUMPDEST PUSH2 0x4A PUSH1 0x4 DUP1 CALLDATASIZE SUB DUP2 ADD SWAP1 PUSH2 0x45 SWAP2 SWAP1 PUSH2 0x317 JUMP JUMPDEST PUSH2 0x60 JUMP JUMPDEST PUSH1 0x40 MLOAD PUSH2 0x57 SWAP2 SWAP1 PUSH2 0x4A9 JUMP JUMPDEST PUSH1 0x40 MLOAD DUP1 SWAP2 SUB SWAP1 RETURN JUMPDEST PUSH2 0x68 PUSH2 0xB1 JUMP JUMPDEST PUSH1 0x0 PUSH1 0x40 MLOAD DUP1 PUSH1 0x80 ADD PUSH1 0x40 MSTORE DUP1 DUP8 DUP2 MSTORE PUSH1 0x20 ADD DUP7 DUP2 MSTORE PUSH1 0x20 ADD DUP6 PUSH20 0xFFFFFFFFFFFFFFFFFFFFFFFFFFFFFFFFFFFFFFFF AND DUP2 MSTORE PUSH1 0x20 ADD DUP5 ISZERO ISZERO DUP2 MSTORE POP SWAP1 POP DUP1 SWAP2 POP POP SWAP5 SWAP4 POP POP POP POP JUMP JUMPDEST PUSH1 0x40 MLOAD DUP1 PUSH1 0x80 ADD PUSH1 0x40 MSTORE DUP1 PUSH1 0x60 DUP2 MSTORE PUSH1 0x20 ADD PUSH1 0x0 DUP2 MSTORE PUSH1 0x20 ADD PUSH1 0x0 PUSH20 0xFFFFFFFFFFFFFFFFFFFFFFFFFFFFFFFFFFFFFFFF AND DUP2 MSTORE PUSH1 0x20 ADD PUSH1 0x0 ISZERO ISZERO DUP2 MSTORE POP SWAP1 JUMP JUMPDEST PUSH1 0x0 PUSH1 0x40 MLOAD SWAP1 POP SWAP1 JUMP JUMPDEST PUSH1 0x0 DUP1 REVERT JUMPDEST PUSH1 0x0 DUP1 REVERT JUMPDEST PUSH1 0x0 DUP1 REVERT JUMPDEST PUSH1 0x0 DUP1 REVERT JUMPDEST PUSH1 0x0 PUSH1 0x1F NOT PUSH1 0x1F DUP4 ADD AND SWAP1 POP SWAP2 SWAP1 POP JUMP JUMPDEST PUSH32 0x4E487B7100000000000000000000000000000000000000000000000000000000 PUSH1 0x0 MSTORE PUSH1 0x41 PUSH1 0x4 MSTORE PUSH1 0x24 PUSH1 0x0 REVERT JUMPDEST PUSH2 0x158 DUP3 PUSH2 0x10F JUMP JUMPDEST DUP2 ADD DUP2 DUP2 LT PUSH8 0xFFFFFFFFFFFFFFFF DUP3 GT OR ISZERO PUSH2 0x177 JUMPI PUSH2 0x176 PUSH2 0x120 JUMP JUMPDEST JUMPDEST DUP1 PUSH1 0x40 MSTORE POP POP POP JUMP JUMPDEST PUSH1 0x0 PUSH2 0x18A PUSH2 0xF1 JUMP JUMPDEST SWAP1 POP PUSH2 0x196 DUP3 DUP3 PUSH2 0x14F JUMP JUMPDEST SWAP2 SWAP1 POP JUMP JUMPDEST PUSH1 0x0 PUSH8 0xFFFFFFFFFFFFFFFF DUP3 GT ISZERO PUSH2 0x1B6 JUMPI PUSH2 0x1B5 PUSH2 0x120 JUMP JUMPDEST JUMPDEST PUSH2 0x1BF DUP3 PUSH2 0x10F JUMP JUMPDEST SWAP1 POP PUSH1 0x20 DUP2 ADD SWAP1 POP SWAP2 SWAP1 POP JUMP JUMPDEST DUP3 DUP2 DUP4 CALLDATACOPY PUSH1 0x0 DUP4 DUP4 ADD MSTORE POP POP POP JUMP JUMPDEST PUSH1 0x0 PUSH2 0x1EE PUSH2 0x1E9 DUP5 PUSH2 0x19B JUMP JUMPDEST PUSH2 0x180 JUMP JUMPDEST SWAP1 POP DUP3 DUP2 MSTORE PUSH1 0x20 DUP2 ADD DUP5 DUP5 DUP5 ADD GT ISZERO PUSH2 0x20A JUMPI PUSH2 0x209 PUSH2 0x10A JUMP JUMPDEST JUMPDEST PUSH2 0x215 DUP5 DUP3 DUP6 PUSH2 0x1CC JUMP JUMPDEST POP SWAP4 SWAP3 POP POP POP JUMP JUMPDEST PUSH1 0x0 DUP3 PUSH1 0x1F DUP4 ADD SLT PUSH2 0x232 JUMPI PUSH2 0x231 PUSH2 0x105 JUMP JUMPDEST JUMPDEST DUP2 CALLDATALOAD PUSH2 0x242 DUP5 DUP3 PUSH1 0x20 DUP7 ADD PUSH2 0x1DB JUMP JUMPDEST SWAP2 POP POP SWAP3 SWAP2 POP POP JUMP JUMPDEST PUSH1 0x0 DUP2 SWAP1 POP SWAP2 SWAP1 POP JUMP JUMPDEST PUSH2 0x25E DUP2 PUSH2 0x24B JUMP JUMPDEST DUP2 EQ PUSH2 0x269 JUMPI PUSH1 0x0 DUP1 REVERT JUMPDEST POP JUMP JUMPDEST PUSH1 0x0 DUP2 CALLDATALOAD SWAP1 POP PUSH2 0x27B DUP2 PUSH2 0x255 JUMP JUMPDEST SWAP3 SWAP2 POP POP JUMP JUMPDEST PUSH1 0x0 PUSH20 0xFFFFFFFFFFFFFFFFFFFFFFFFFFFFFFFFFFFFFFFF DUP3 AND SWAP1 POP SWAP2 SWAP1 POP JUMP JUMPDEST PUSH1 0x0 PUSH2 0x2AC DUP3 PUSH2 0x281 JUMP JUMPDEST SWAP1 POP SWAP2 SWAP1 POP JUMP JUMPDEST PUSH2 0x2BC DUP2 PUSH2 0x2A1 JUMP JUMPDEST DUP2 EQ PUSH2 0x2C7 JUMPI PUSH1 0x0 DUP1 REVERT JUMPDEST POP JUMP JUMPDEST PUSH1 0x0 DUP2 CALLDATALOAD SWAP1 POP PUSH2 0x2D9 DUP2 PUSH2 0x2B3 JUMP JUMPDEST SWAP3 SWAP2 POP POP JUMP JUMPDEST PUSH1 0x0 DUP2 ISZERO ISZERO SWAP1 POP SWAP2 SWAP1 POP JUMP JUMPDEST PUSH2 0x2F4 DUP2 PUSH2 0x2DF JUMP JUMPDEST DUP2 EQ PUSH2 0x2FF JUMPI PUSH1 0x0 DUP1 REVERT JUMPDEST POP JUMP JUMPDEST PUSH1 0x0 DUP2 CALLDATALOAD SWAP1 POP PUSH2 0x311 DUP2 PUSH2 0x2EB JUMP JUMPDEST SWAP3 SWAP2 POP POP JUMP JUMPDEST PUSH1 0x0 DUP1 PUSH1 0x0 DUP1 PUSH1 0x80 DUP6 DUP8 SUB SLT ISZERO PUSH2 0x331 JUMPI PUSH2 0x330 PUSH2 0xFB JUMP JUMPDEST JUMPDEST PUSH1 0x0 DUP6 ADD CALLDATALOAD PUSH8 0xFFFFFFFFFFFFFFFF DUP2 GT ISZERO PUSH2 0x34F JUMPI PUSH2 0x34E PUSH2 0x100 JUMP JUMPDEST JUMPDEST PUSH2 0x35B DUP8 DUP3 DUP9 ADD PUSH2 0x21D JUMP JUMPDEST SWAP5 POP POP PUSH1 0x20 PUSH2 0x36C DUP8 DUP3 DUP9 ADD PUSH2 0x26C JUMP JUMPDEST SWAP4 POP POP PUSH1 0x40 PUSH2 0x37D DUP8 DUP3 DUP9 ADD PUSH2 0x2CA JUMP JUMPDEST SWAP3 POP POP PUSH1 0x60 PUSH2 0x38E DUP8 DUP3 DUP9 ADD PUSH2 0x302 JUMP JUMPDEST SWAP2 POP POP SWAP3 SWAP6 SWAP2 SWAP5 POP SWAP3 POP JUMP JUMPDEST PUSH1 0x0 DUP2 MLOAD SWAP1 POP SWAP2 SWAP1 POP JUMP JUMPDEST PUSH1 0x0 DUP3 DUP3 MSTORE PUSH1 0x20 DUP3 ADD SWAP1 POP SWAP3 SWAP2 POP POP JUMP JUMPDEST PUSH1 0x0 JUMPDEST DUP4 DUP2 LT ISZERO PUSH2 0x3D4 JUMPI DUP1 DUP3 ADD MLOAD DUP2 DUP5 ADD MSTORE PUSH1 0x20 DUP2 ADD SWAP1 POP PUSH2 0x3B9 JUMP JUMPDEST PUSH1 0x0 DUP5 DUP5 ADD MSTORE POP POP POP POP JUMP JUMPDEST PUSH1 0x0 PUSH2 0x3EB DUP3 PUSH2 0x39A JUMP JUMPDEST PUSH2 0x3F5 DUP2 DUP6 PUSH2 0x3A5 JUMP JUMPDEST SWAP4 POP PUSH2 0x405 DUP2 DUP6 PUSH1 0x20 DUP7 ADD PUSH2 0x3B6 JUMP JUMPDEST PUSH2 0x40E DUP2 PUSH2 0x10F JUMP JUMPDEST DUP5 ADD SWAP2 POP POP SWAP3 SWAP2 POP POP JUMP JUMPDEST PUSH2 0x422 DUP2 PUSH2 0x24B JUMP JUMPDEST DUP3 MSTORE POP POP JUMP JUMPDEST PUSH2 0x431 DUP2 PUSH2 0x2A1 JUMP JUMPDEST DUP3 MSTORE POP POP JUMP JUMPDEST PUSH2 0x440 DUP2 PUSH2 0x2DF JUMP JUMPDEST DUP3 MSTORE POP POP JUMP JUMPDEST PUSH1 0x0 PUSH1 0x80 DUP4 ADD PUSH1 0x0 DUP4 ADD MLOAD DUP5 DUP3 SUB PUSH1 0x0 DUP7 ADD MSTORE PUSH2 0x463 DUP3 DUP3 PUSH2 0x3E0 JUMP JUMPDEST SWAP2 POP POP PUSH1 0x20 DUP4 ADD MLOAD PUSH2 0x478 PUSH1 0x20 DUP7 ADD DUP3 PUSH2 0x419 JUMP JUMPDEST POP PUSH1 0x40 DUP4 ADD MLOAD PUSH2 0x48B PUSH1 0x40 DUP7 ADD DUP3 PUSH2 0x428 JUMP JUMPDEST POP PUSH1 0x60 DUP4 ADD MLOAD PUSH2 0x49E PUSH1 0x60 DUP7 ADD DUP3 PUSH2 0x437 JUMP JUMPDEST POP DUP1 SWAP2 POP POP SWAP3 SWAP2 POP POP JUMP JUMPDEST PUSH1 0x0 PUSH1 0x20 DUP3 ADD SWAP1 POP DUP2 DUP2 SUB PUSH1 0x0 DUP4 ADD MSTORE PUSH2 0x4C3 DUP2 DUP5 PUSH2 0x446 JUMP JUMPDEST SWAP1 POP SWAP3 SWAP2 POP POP JUMP INVALID LOG2 PUSH5 0x6970667358 0x22 SLT KECCAK256 0xB7 OR 0x4E KECCAK256 DUP5 0xD1 MSTORE LOG1 0x4D 0xEA CODECOPY ORIGIN 0x5C PREVRANDAO 0xEA GASLIMIT 0xBE 0xDA 0xEB PUSH4 0x918C842D LT 0x24 DELEGATECALL 0xAF LOG0 DUP14 0xB4 0xC5 PUSH5 0x736F6C6343 STOP ADDMOD SLT STOP CALLER "
		},
		"gasEstimates": {
			"creation": {
				"codeDepositCost": "256200",
				"executionCost": "300",
				"totalCost": "256500"
			},
			"external": {
				"getStruct(string,uint256,address,bool)": "infinite"
			}
		},
		"methodIdentifiers": {
			"getStruct(string,uint256,address,bool)": "50d400cb"
		}
	},
	"abi": [
		{
			"inputs": [
				{
					"internalType": "string",
					"name": "_name",
					"type": "string"
				},
				{
					"internalType": "uint256",
					"name": "_age",
					"type": "uint256"
				},
				{
					"internalType": "address",
					"name": "_adress",
					"type": "address"
				},
				{
					"internalType": "bool",
					"name": "_trueFalse",
					"type": "bool"
				}
			],
			"name": "getStruct",
			"outputs": [
				{
					"components": [
						{
							"internalType": "string",
							"name": "name",
							"type": "string"
						},
						{
							"internalType": "uint256",
							"name": "age",
							"type": "uint256"
						},
						{
							"internalType": "address",
							"name": "adress",
							"type": "address"
						},
						{
							"internalType": "bool",
							"name": "trueFalse",
							"type": "bool"
						}
					],
					"internalType": "struct structPracties.Structt",
					"name": "",
					"type": "tuple"
				}
			],
			"stateMutability": "pure",
			"type": "function"
		}
	]
}